{
	"data": {
		"bytecode": {
			"linkReferences": {},
			"object": "60c060405234801561000f575f5ffd5b50604051615624380380615624833981810160405281019061003191906104f4565b5f73ffffffffffffffffffffffffffffffffffffffff168173ffffffffffffffffffffffffffffffffffffffff160361009f576040517f08c379a000000000000000000000000000000000000000000000000000000000815260040161009690610579565b60405180910390fd5b3373ffffffffffffffffffffffffffffffffffffffff1660808173ffffffffffffffffffffffffffffffffffffffff16815250508073ffffffffffffffffffffffffffffffffffffffff1660a08173ffffffffffffffffffffffffffffffffffffffff168152505060015f5f6101000a81548160ff02191690831515021790555061017c6040518060400160405280600381526020017f45544800000000000000000000000000000000000000000000000000000000008152505f7371041dddad3595f9ced3dccfbe3d1f4b0a16bb7060126102aa60201b60201c565b6101d86040518060400160405280600481526020017f555344540000000000000000000000000000000000000000000000000000000081525073fde4c96c8593536e31f229ea8f37b2ada2699bb25f60066102aa60201b60201c565b6102346040518060400160405280600481526020017f555344430000000000000000000000000000000000000000000000000000000081525073833589fcd6edb6e08f4c7c32d4f71b54bda029135f60066102aa60201b60201c565b6102a46040518060400160405280600481526020017f574254430000000000000000000000000000000000000000000000000000000081525073236aa50979d5f3de3bd1eeb40e81137f22ab794b7364c911996d3c6ac71f9b455b1e8e7266bcbd848f60086102aa60201b60201c565b50610994565b60405180608001604052808473ffffffffffffffffffffffffffffffffffffffff1681526020015f73ffffffffffffffffffffffffffffffffffffffff168473ffffffffffffffffffffffffffffffffffffffff160361030a575f61030c565b835b73ffffffffffffffffffffffffffffffffffffffff1681526020018260ff1681526020016001151581525060038560405161034791906105e9565b90815260200160405180910390205f820151815f015f6101000a81548173ffffffffffffffffffffffffffffffffffffffff021916908373ffffffffffffffffffffffffffffffffffffffff1602179055506020820151816001015f6101000a81548173ffffffffffffffffffffffffffffffffffffffff021916908373ffffffffffffffffffffffffffffffffffffffff16021790555060408201518160010160146101000a81548160ff021916908360ff16021790555060608201518160010160156101000a81548160ff021916908315150217905550905050600484908060018154018082558091505060019003905f5260205f20015f9091909190915090816104549190610832565b507f91bb5c50a46662ed36d8c46c8cbd923b5d4a585ee99563c297cf71e21b91bc5e84848460405161048893929190610958565b60405180910390a150505050565b5f5ffd5b5f73ffffffffffffffffffffffffffffffffffffffff82169050919050565b5f6104c38261049a565b9050919050565b6104d3816104b9565b81146104dd575f5ffd5b50565b5f815190506104ee816104ca565b92915050565b5f6020828403121561050957610508610496565b5b5f610516848285016104e0565b91505092915050565b5f82825260208201905092915050565b7f496e76616c696420514920746f6b656e206164647265737300000000000000005f82015250565b5f61056360188361051f565b915061056e8261052f565b602082019050919050565b5f6020820190508181035f83015261059081610557565b9050919050565b5f81519050919050565b5f81905092915050565b8281835e5f83830152505050565b5f6105c382610597565b6105cd81856105a1565b93506105dd8185602086016105ab565b80840191505092915050565b5f6105f482846105b9565b915081905092915050565b7f4e487b71000000000000000000000000000000000000000000000000000000005f52604160045260245ffd5b7f4e487b71000000000000000000000000000000000000000000000000000000005f52602260045260245ffd5b5f600282049050600182168061067057607f821691505b6020821081036106835761068261062c565b5b50919050565b5f819050815f5260205f209050919050565b5f6020601f8301049050919050565b5f82821b905092915050565b5f600883026106e57fffffffffffffffffffffffffffffffffffffffffffffffffffffffffffffffff826106aa565b6106ef86836106aa565b95508019841693508086168417925050509392505050565b5f819050919050565b5f819050919050565b5f61073361072e61072984610707565b610710565b610707565b9050919050565b5f819050919050565b61074c83610719565b6107606107588261073a565b8484546106b6565b825550505050565b5f5f905090565b610777610768565b610782818484610743565b505050565b5b818110156107a55761079a5f8261076f565b600181019050610788565b5050565b601f8211156107ea576107bb81610689565b6107c48461069b565b810160208510156107d3578190505b6107e76107df8561069b565b830182610787565b50505b505050565b5f82821c905092915050565b5f61080a5f19846008026107ef565b1980831691505092915050565b5f61082283836107fb565b9150826002028217905092915050565b61083b82610597565b67ffffffffffffffff811115610854576108536105ff565b5b61085e8254610659565b6108698282856107a9565b5f60209050601f83116001811461089a575f8415610888578287015190505b6108928582610817565b8655506108f9565b601f1984166108a886610689565b5f5b828110156108cf578489015182556001820191506020850194506020810190506108aa565b868310156108ec57848901516108e8601f8916826107fb565b8355505b6001600288020188555050505b505050505050565b5f601f19601f8301169050919050565b5f61091b82610597565b610925818561051f565b93506109358185602086016105ab565b61093e81610901565b840191505092915050565b610952816104b9565b82525050565b5f6060820190508181035f8301526109708186610911565b905061097f6020830185610949565b61098c6040830184610949565b949350505050565b60805160a051614c06610a1e5f395f8181610c010152611e5801525f818161023901528181610c4001528181610eb2015281816111360152818161152c015281816117a901528181611a1e01528181611c9301528181611f3a01528181612008015281816121b3015281816127900152818161290c01528181612b310152612da70152614c065ff3fe60806040526004361061014e575f3560e01c806385cbc881116100b5578063aeccf7351161006e578063aeccf73514610615578063d3c7c2c71461063d578063e8e3f4aa14610669578063eb795f2514610693578063f4a5b2b0146106bd578063fde3a8d0146106e757610303565b806385cbc881146105045780638895283f1461052e57806389919cdd146105565780638da5cb5b14610595578063a56b94f3146105bf578063a7c60160146105ed57610303565b80634bfdfa6f116101075780634bfdfa6f146103e557806353135ca01461040f5780636e7ddea8146104395780636ff1c9bc146104755780637d4c12ac1461049d578063852d0d6e146104d957610303565b8063150d283d146103075780631aae8491146103115780631b7c4b5c1461033b57806321f3689b1461036357806343ab265f1461037f578063462e4cda146103bb57610303565b36610303575f3411801561016c57505f5f9054906101000a900460ff165b15610301575f6101b16040518060400160405280600381526020017f455448000000000000000000000000000000000000000000000000000000000081525034610711565b90505f81116101f5576040517f08c379a00000000000000000000000000000000000000000000000000000000081526004016101ec90613224565b60405180910390fd5b610236336040518060400160405280600381526020017f45544800000000000000000000000000000000000000000000000000000000008152503484610aa4565b5f7f000000000000000000000000000000000000000000000000000000000000000073ffffffffffffffffffffffffffffffffffffffff163460405161027b9061326f565b5f6040518083038185875af1925050503d805f81146102b5576040519150601f19603f3d011682016040523d82523d5f602084013e6102ba565b606091505b50509050806102fe576040517f08c379a00000000000000000000000000000000000000000000000000000000081526004016102f5906132cd565b60405180910390fd5b50505b005b5f5ffd5b61030f610d5b565b005b34801561031c575f5ffd5b50610325610f7b565b6040516103329190613303565b60405180910390f35b348015610346575f5ffd5b50610361600480360381019061035c9190613357565b610f82565b005b61037d600480360381019061037891906134be565b6111f8565b005b34801561038a575f5ffd5b506103a560048036038101906103a09190613572565b611d9a565b6040516103b29190613303565b60405180910390f35b3480156103c6575f5ffd5b506103cf611e56565b6040516103dc91906135ac565b60405180910390f35b3480156103f0575f5ffd5b506103f9611e7a565b6040516104069190613303565b60405180910390f35b34801561041a575f5ffd5b50610423611e81565b60405161043091906135df565b60405180910390f35b348015610444575f5ffd5b5061045f600480360381019061045a9190613357565b611e92565b60405161046c9190613648565b60405180910390f35b348015610480575f5ffd5b5061049b60048036038101906104969190613572565b611f38565b005b3480156104a8575f5ffd5b506104c360048036038101906104be91906134be565b610711565b6040516104d09190613303565b60405180910390f35b3480156104e4575f5ffd5b506104ed6122af565b6040516104fb929190613822565b60405180910390f35b34801561050f575f5ffd5b50610518612788565b6040516105259190613303565b60405180910390f35b348015610539575f5ffd5b50610554600480360381019061054f9190613881565b61278e565b005b348015610561575f5ffd5b5061057c600480360381019061057791906138ac565b61286e565b60405161058c9493929190613969565b60405180910390f35b3480156105a0575f5ffd5b506105a961290a565b6040516105b691906135ac565b60405180910390f35b3480156105ca575f5ffd5b506105d361292e565b6040516105e49594939291906139ac565b60405180910390f35b3480156105f8575f5ffd5b50610613600480360381019061060e9190613357565b61297d565b005b348015610620575f5ffd5b5061063b60048036038101906106369190613357565b612bf3565b005b348015610648575f5ffd5b50610651612e69565b60405161066093929190613b6b565b60405180910390f35b348015610674575f5ffd5b5061067d6131a6565b60405161068a9190613303565b60405180910390f35b34801561069e575f5ffd5b506106a76131ac565b6040516106b49190613303565b60405180910390f35b3480156106c8575f5ffd5b506106d16131bb565b6040516106de9190613303565b60405180910390f35b3480156106f2575f5ffd5b506106fb6131c2565b6040516107089190613303565b60405180910390f35b5f5f6003846040516107239190613bef565b90815260200160405180910390206040518060800160405290815f82015f9054906101000a900473ffffffffffffffffffffffffffffffffffffffff1673ffffffffffffffffffffffffffffffffffffffff1673ffffffffffffffffffffffffffffffffffffffff168152602001600182015f9054906101000a900473ffffffffffffffffffffffffffffffffffffffff1673ffffffffffffffffffffffffffffffffffffffff1673ffffffffffffffffffffffffffffffffffffffff1681526020016001820160149054906101000a900460ff1660ff1660ff1681526020016001820160159054906101000a900460ff16151515158152505090508060600151610863576040517f08c379a000000000000000000000000000000000000000000000000000000000815260040161085a90613c4f565b60405180910390fd5b5f6040518060400160405280600481526020017f555344540000000000000000000000000000000000000000000000000000000081525080519060200120858051906020012014806108f757506040518060400160405280600481526020017f5553444300000000000000000000000000000000000000000000000000000000815250805190602001208580519060200120145b1561090457839050610a78565b5f73ffffffffffffffffffffffffffffffffffffffff16826020015173ffffffffffffffffffffffffffffffffffffffff1603610976576040517f08c379a000000000000000000000000000000000000000000000000000000000815260040161096d90613cb7565b60405180910390fd5b5f826020015173ffffffffffffffffffffffffffffffffffffffff1663feaf968c6040518163ffffffff1660e01b815260040160a060405180830381865afa1580156109c4573d5f5f3e3d5ffd5b505050506040513d601f19601f820116820180604052508101906109e89190613d5b565b5050509150505f8113610a30576040517f08c379a0000000000000000000000000000000000000000000000000000000008152600401610a2790613e1c565b60405180910390fd5b8260400151600a610a419190613f96565b6305f5e100610a509190613fe0565b620f42408287610a609190613fe0565b610a6a9190613fe0565b610a74919061404e565b9150505b62989680670de0b6b3a764000082610a909190613fe0565b610a9a919061404e565b9250505092915050565b805f8111610ae7576040517f08c379a0000000000000000000000000000000000000000000000000000000008152600401610ade906140c8565b60405180910390fd5b6a108b2a2c2802909400000081600154610b0191906140e6565b1115610b42576040517f08c379a0000000000000000000000000000000000000000000000000000000008152600401610b3990614163565b60405180910390fd5b62989680670de0b6b3a76400006298968083610b5e9190613fe0565b610b68919061404e565b1015610ba9576040517f08c379a0000000000000000000000000000000000000000000000000000000008152600401610ba0906141cb565b60405180910390fd5b5f670de0b6b3a76400006298968084610bc29190613fe0565b610bcc919061404e565b90508260015f828254610bdf91906140e6565b925050819055508060025f828254610bf791906140e6565b925050819055505f7f000000000000000000000000000000000000000000000000000000000000000090508073ffffffffffffffffffffffffffffffffffffffff166323b872dd7f000000000000000000000000000000000000000000000000000000000000000089876040518463ffffffff1660e01b8152600401610c7f939291906141e9565b6020604051808303815f875af1158015610c9b573d5f5f3e3d5ffd5b505050506040513d601f19601f82011682018060405250810190610cbf9190614232565b610cfe576040517f08c379a0000000000000000000000000000000000000000000000000000000008152600401610cf5906142a7565b60405180910390fd5b8673ffffffffffffffffffffffffffffffffffffffff167f45eba9171c088afec730e2fdc64e7014502e57adb5178adb892adaed3916385787878786604051610d4a94939291906142c5565b60405180910390a250505050505050565b5f5f9054906101000a900460ff16610da8576040517f08c379a0000000000000000000000000000000000000000000000000000000008152600401610d9f90614359565b60405180910390fd5b5f3411610dea576040517f08c379a0000000000000000000000000000000000000000000000000000000008152600401610de1906143c1565b60405180910390fd5b5f610e2a6040518060400160405280600381526020017f455448000000000000000000000000000000000000000000000000000000000081525034610711565b90505f8111610e6e576040517f08c379a0000000000000000000000000000000000000000000000000000000008152600401610e6590613224565b60405180910390fd5b610eaf336040518060400160405280600381526020017f45544800000000000000000000000000000000000000000000000000000000008152503484610aa4565b5f7f000000000000000000000000000000000000000000000000000000000000000073ffffffffffffffffffffffffffffffffffffffff1634604051610ef49061326f565b5f6040518083038185875af1925050503d805f8114610f2e576040519150601f19603f3d011682016040523d82523d5f602084013e610f33565b606091505b5050905080610f77576040517f08c379a0000000000000000000000000000000000000000000000000000000008152600401610f6e906132cd565b60405180910390fd5b5050565b6298968081565b5f5f9054906101000a900460ff16610fcf576040517f08c379a0000000000000000000000000000000000000000000000000000000008152600401610fc690614359565b60405180910390fd5b5f8111611011576040517f08c379a000000000000000000000000000000000000000000000000000000000815260040161100890614429565b60405180910390fd5b5f6110516040518060400160405280600481526020017f574254430000000000000000000000000000000000000000000000000000000081525083610711565b90505f8111611095576040517f08c379a000000000000000000000000000000000000000000000000000000000815260040161108c90613224565b60405180910390fd5b6110d6336040518060400160405280600481526020017f57425443000000000000000000000000000000000000000000000000000000008152508484610aa4565b5f60036040516110e590614491565b90815260200160405180910390205f015f9054906101000a900473ffffffffffffffffffffffffffffffffffffffff1690508073ffffffffffffffffffffffffffffffffffffffff166323b872dd337f0000000000000000000000000000000000000000000000000000000000000000866040518463ffffffff1660e01b8152600401611174939291906141e9565b6020604051808303815f875af1158015611190573d5f5f3e3d5ffd5b505050506040513d601f19601f820116820180604052508101906111b49190614232565b6111f3576040517f08c379a00000000000000000000000000000000000000000000000000000000081526004016111ea906144ef565b60405180910390fd5b505050565b5f5f9054906101000a900460ff16611245576040517f08c379a000000000000000000000000000000000000000000000000000000000815260040161123c90614359565b60405180910390fd5b5f6003836040516112569190613bef565b90815260200160405180910390206040518060800160405290815f82015f9054906101000a900473ffffffffffffffffffffffffffffffffffffffff1673ffffffffffffffffffffffffffffffffffffffff1673ffffffffffffffffffffffffffffffffffffffff168152602001600182015f9054906101000a900473ffffffffffffffffffffffffffffffffffffffff1673ffffffffffffffffffffffffffffffffffffffff1673ffffffffffffffffffffffffffffffffffffffff1681526020016001820160149054906101000a900460ff1660ff1660ff1681526020016001820160159054906101000a900460ff16151515158152505090508060600151611396576040517f08c379a000000000000000000000000000000000000000000000000000000000815260040161138d90613c4f565b60405180910390fd5b6040518060400160405280600381526020017f4554480000000000000000000000000000000000000000000000000000000000815250805190602001208380519060200120036115f857813414611422576040517f08c379a000000000000000000000000000000000000000000000000000000000815260040161141990614557565b60405180910390fd5b5f3411611464576040517f08c379a000000000000000000000000000000000000000000000000000000000815260040161145b906143c1565b60405180910390fd5b5f6114a46040518060400160405280600381526020017f455448000000000000000000000000000000000000000000000000000000000081525034610711565b90505f81116114e8576040517f08c379a00000000000000000000000000000000000000000000000000000000081526004016114df90613224565b60405180910390fd5b611529336040518060400160405280600381526020017f45544800000000000000000000000000000000000000000000000000000000008152503484610aa4565b5f7f000000000000000000000000000000000000000000000000000000000000000073ffffffffffffffffffffffffffffffffffffffff163460405161156e9061326f565b5f6040518083038185875af1925050503d805f81146115a8576040519150601f19603f3d011682016040523d82523d5f602084013e6115ad565b606091505b50509050806115f1576040517f08c379a00000000000000000000000000000000000000000000000000000000081526004016115e8906132cd565b60405180910390fd5b5050611d95565b6040518060400160405280600481526020017f55534454000000000000000000000000000000000000000000000000000000008152508051906020012083805190602001200361186d575f8211611684576040517f08c379a000000000000000000000000000000000000000000000000000000000815260040161167b906145bf565b60405180910390fd5b5f6116c46040518060400160405280600481526020017f555344540000000000000000000000000000000000000000000000000000000081525084610711565b90505f8111611708576040517f08c379a00000000000000000000000000000000000000000000000000000000081526004016116ff90613224565b60405180910390fd5b611749336040518060400160405280600481526020017f55534454000000000000000000000000000000000000000000000000000000008152508584610aa4565b5f600360405161175890614627565b90815260200160405180910390205f015f9054906101000a900473ffffffffffffffffffffffffffffffffffffffff1690508073ffffffffffffffffffffffffffffffffffffffff166323b872dd337f0000000000000000000000000000000000000000000000000000000000000000876040518463ffffffff1660e01b81526004016117e7939291906141e9565b6020604051808303815f875af1158015611803573d5f5f3e3d5ffd5b505050506040513d601f19601f820116820180604052508101906118279190614232565b611866576040517f08c379a000000000000000000000000000000000000000000000000000000000815260040161185d90614685565b60405180910390fd5b5050611d94565b6040518060400160405280600481526020017f555344430000000000000000000000000000000000000000000000000000000081525080519060200120838051906020012003611ae2575f82116118f9576040517f08c379a00000000000000000000000000000000000000000000000000000000081526004016118f0906146ed565b60405180910390fd5b5f6119396040518060400160405280600481526020017f555344430000000000000000000000000000000000000000000000000000000081525084610711565b90505f811161197d576040517f08c379a000000000000000000000000000000000000000000000000000000000815260040161197490613224565b60405180910390fd5b6119be336040518060400160405280600481526020017f55534443000000000000000000000000000000000000000000000000000000008152508584610aa4565b5f60036040516119cd90614755565b90815260200160405180910390205f015f9054906101000a900473ffffffffffffffffffffffffffffffffffffffff1690508073ffffffffffffffffffffffffffffffffffffffff166323b872dd337f0000000000000000000000000000000000000000000000000000000000000000876040518463ffffffff1660e01b8152600401611a5c939291906141e9565b6020604051808303815f875af1158015611a78573d5f5f3e3d5ffd5b505050506040513d601f19601f82011682018060405250810190611a9c9190614232565b611adb576040517f08c379a0000000000000000000000000000000000000000000000000000000008152600401611ad2906147b3565b60405180910390fd5b5050611d93565b6040518060400160405280600481526020017f574254430000000000000000000000000000000000000000000000000000000081525080519060200120838051906020012003611d57575f8211611b6e576040517f08c379a0000000000000000000000000000000000000000000000000000000008152600401611b6590614429565b60405180910390fd5b5f611bae6040518060400160405280600481526020017f574254430000000000000000000000000000000000000000000000000000000081525084610711565b90505f8111611bf2576040517f08c379a0000000000000000000000000000000000000000000000000000000008152600401611be990613224565b60405180910390fd5b611c33336040518060400160405280600481526020017f57425443000000000000000000000000000000000000000000000000000000008152508584610aa4565b5f6003604051611c4290614491565b90815260200160405180910390205f015f9054906101000a900473ffffffffffffffffffffffffffffffffffffffff1690508073ffffffffffffffffffffffffffffffffffffffff166323b872dd337f0000000000000000000000000000000000000000000000000000000000000000876040518463ffffffff1660e01b8152600401611cd1939291906141e9565b6020604051808303815f875af1158015611ced573d5f5f3e3d5ffd5b505050506040513d601f19601f82011682018060405250810190611d119190614232565b611d50576040517f08c379a0000000000000000000000000000000000000000000000000000000008152600401611d47906144ef565b60405180910390fd5b5050611d92565b6040517f08c379a0000000000000000000000000000000000000000000000000000000008152600401611d899061481b565b60405180910390fd5b5b5b5b505050565b5f5f73ffffffffffffffffffffffffffffffffffffffff168273ffffffffffffffffffffffffffffffffffffffff1603611dd657479050611e51565b8173ffffffffffffffffffffffffffffffffffffffff166370a08231306040518263ffffffff1660e01b8152600401611e0f91906135ac565b602060405180830381865afa158015611e2a573d5f5f3e3d5ffd5b505050506040513d601f19601f82011682018060405250810190611e4e9190614839565b90505b919050565b7f000000000000000000000000000000000000000000000000000000000000000081565b620f424081565b5f5f9054906101000a900460ff1681565b60048181548110611ea1575f80fd5b905f5260205f20015f915090508054611eb990614891565b80601f0160208091040260200160405190810160405280929190818152602001828054611ee590614891565b8015611f305780601f10611f0757610100808354040283529160200191611f30565b820191905f5260205f20905b815481529060010190602001808311611f1357829003601f168201915b505050505081565b7f000000000000000000000000000000000000000000000000000000000000000073ffffffffffffffffffffffffffffffffffffffff163373ffffffffffffffffffffffffffffffffffffffff1614611fc6576040517f08c379a0000000000000000000000000000000000000000000000000000000008152600401611fbd9061490b565b60405180910390fd5b5f73ffffffffffffffffffffffffffffffffffffffff168173ffffffffffffffffffffffffffffffffffffffff160361210e575f4790505f811115612108575f7f000000000000000000000000000000000000000000000000000000000000000073ffffffffffffffffffffffffffffffffffffffff168260405161204a9061326f565b5f6040518083038185875af1925050503d805f8114612084576040519150601f19603f3d011682016040523d82523d5f602084013e612089565b606091505b50509050806120cd576040517f08c379a00000000000000000000000000000000000000000000000000000000081526004016120c490614973565b60405180910390fd5b7f5fafa99d0643513820be26656b45130b01e1c03062e1266bf36f88cbd3bd96955f836040516120fe929190614991565b60405180910390a1505b506122ac565b5f8190505f8173ffffffffffffffffffffffffffffffffffffffff166370a08231306040518263ffffffff1660e01b815260040161214c91906135ac565b602060405180830381865afa158015612167573d5f5f3e3d5ffd5b505050506040513d601f19601f8201168201806040525081019061218b9190614839565b90505f8111156122a9578173ffffffffffffffffffffffffffffffffffffffff1663a9059cbb7f0000000000000000000000000000000000000000000000000000000000000000836040518363ffffffff1660e01b81526004016121f0929190614991565b6020604051808303815f875af115801561220c573d5f5f3e3d5ffd5b505050506040513d601f19601f820116820180604052508101906122309190614232565b61226f576040517f08c379a000000000000000000000000000000000000000000000000000000000815260040161226690614a02565b60405180910390fd5b7f5fafa99d0643513820be26656b45130b01e1c03062e1266bf36f88cbd3bd969583826040516122a0929190614991565b60405180910390a15b50505b50565b60608060048054905067ffffffffffffffff8111156122d1576122d061339a565b5b6040519080825280602002602001820160405280156122ff5781602001602082028036833780820191505090505b50915060048054905067ffffffffffffffff8111156123215761232061339a565b5b60405190808252806020026020018201604052801561235457816020015b606081526020019060019003908161233f5790505b5090505f5f90505b600480549050811015612783576004818154811061237d5761237c614a20565b5b905f5260205f2001805461239090614891565b80601f01602080910402602001604051908101604052809291908181526020018280546123bc90614891565b80156124075780601f106123de57610100808354040283529160200191612407565b820191905f5260205f20905b8154815290600101906020018083116123ea57829003601f168201915b505050505082828151811061241f5761241e614a20565b5b60200260200101819052505f60036004838154811061244157612440614a20565b5b905f5260205f20016040516124569190614adf565b90815260200160405180910390206040518060800160405290815f82015f9054906101000a900473ffffffffffffffffffffffffffffffffffffffff1673ffffffffffffffffffffffffffffffffffffffff1673ffffffffffffffffffffffffffffffffffffffff168152602001600182015f9054906101000a900473ffffffffffffffffffffffffffffffffffffffff1673ffffffffffffffffffffffffffffffffffffffff1673ffffffffffffffffffffffffffffffffffffffff1681526020016001820160149054906101000a900460ff1660ff1660ff1681526020016001820160159054906101000a900460ff16151515158152505090506040518060400160405280600481526020017f555344540000000000000000000000000000000000000000000000000000000081525080519060200120600483815481106125a3576125a2614a20565b5b905f5260205f20016040516125b89190614b87565b6040518091039020148061263757506040518060400160405280600481526020017f5553444300000000000000000000000000000000000000000000000000000000815250805190602001206004838154811061261857612617614a20565b5b905f5260205f200160405161262d9190614b87565b6040518091039020145b1561267057620f4240600161264c9190613fe0565b84838151811061265f5761265e614a20565b5b602002602001018181525050612775565b5f73ffffffffffffffffffffffffffffffffffffffff16816020015173ffffffffffffffffffffffffffffffffffffffff1614612753575f816020015173ffffffffffffffffffffffffffffffffffffffff1663feaf968c6040518163ffffffff1660e01b815260040160a060405180830381865afa1580156126f5573d5f5f3e3d5ffd5b505050506040513d601f19601f820116820180604052508101906127199190613d5b565b5050509150505f811361272c575f61272e565b805b85848151811061274157612740614a20565b5b60200260200101818152505050612774565b5f84838151811061276757612766614a20565b5b6020026020010181815250505b5b50808060010191505061235c565b509091565b60025481565b7f000000000000000000000000000000000000000000000000000000000000000073ffffffffffffffffffffffffffffffffffffffff163373ffffffffffffffffffffffffffffffffffffffff161461281c576040517f08c379a00000000000000000000000000000000000000000000000000000000081526004016128139061490b565b60405180910390fd5b805f5f6101000a81548160ff0219169083151502179055507f1f1a6b0fcc71315f2c3aeddbd1f6d527595d21eea9b73160e78d6fa49b7897a68160405161286391906135df565b60405180910390a150565b6003818051602081018201805184825260208301602085012081835280955050505050505f91509050805f015f9054906101000a900473ffffffffffffffffffffffffffffffffffffffff1690806001015f9054906101000a900473ffffffffffffffffffffffffffffffffffffffff16908060010160149054906101000a900460ff16908060010160159054906101000a900460ff16905084565b7f000000000000000000000000000000000000000000000000000000000000000081565b5f5f5f5f5f6001546002546a108b2a2c280290940000005f5f9054906101000a900460ff166001546a108b2a2c2802909400000061296c9190614b9d565b945094509450945094509091929394565b5f5f9054906101000a900460ff166129ca576040517f08c379a00000000000000000000000000000000000000000000000000000000081526004016129c190614359565b60405180910390fd5b5f8111612a0c576040517f08c379a0000000000000000000000000000000000000000000000000000000008152600401612a03906145bf565b60405180910390fd5b5f612a4c6040518060400160405280600481526020017f555344540000000000000000000000000000000000000000000000000000000081525083610711565b90505f8111612a90576040517f08c379a0000000000000000000000000000000000000000000000000000000008152600401612a8790613224565b60405180910390fd5b612ad1336040518060400160405280600481526020017f55534454000000000000000000000000000000000000000000000000000000008152508484610aa4565b5f6003604051612ae090614627565b90815260200160405180910390205f015f9054906101000a900473ffffffffffffffffffffffffffffffffffffffff1690508073ffffffffffffffffffffffffffffffffffffffff166323b872dd337f0000000000000000000000000000000000000000000000000000000000000000866040518463ffffffff1660e01b8152600401612b6f939291906141e9565b6020604051808303815f875af1158015612b8b573d5f5f3e3d5ffd5b505050506040513d601f19601f82011682018060405250810190612baf9190614232565b612bee576040517f08c379a0000000000000000000000000000000000000000000000000000000008152600401612be590614685565b60405180910390fd5b505050565b5f5f9054906101000a900460ff16612c40576040517f08c379a0000000000000000000000000000000000000000000000000000000008152600401612c3790614359565b60405180910390fd5b5f8111612c82576040517f08c379a0000000000000000000000000000000000000000000000000000000008152600401612c79906146ed565b60405180910390fd5b5f612cc26040518060400160405280600481526020017f555344430000000000000000000000000000000000000000000000000000000081525083610711565b90505f8111612d06576040517f08c379a0000000000000000000000000000000000000000000000000000000008152600401612cfd90613224565b60405180910390fd5b612d47336040518060400160405280600481526020017f55534443000000000000000000000000000000000000000000000000000000008152508484610aa4565b5f6003604051612d5690614755565b90815260200160405180910390205f015f9054906101000a900473ffffffffffffffffffffffffffffffffffffffff1690508073ffffffffffffffffffffffffffffffffffffffff166323b872dd337f0000000000000000000000000000000000000000000000000000000000000000866040518463ffffffff1660e01b8152600401612de5939291906141e9565b6020604051808303815f875af1158015612e01573d5f5f3e3d5ffd5b505050506040513d601f19601f82011682018060405250810190612e259190614232565b612e64576040517f08c379a0000000000000000000000000000000000000000000000000000000008152600401612e5b906147b3565b60405180910390fd5b505050565b60608060606004805480602002602001604051908101604052809291908181526020015f905b82821015612f37578382905f5260205f20018054612eac90614891565b80601f0160208091040260200160405190810160405280929190818152602001828054612ed890614891565b8015612f235780601f10612efa57610100808354040283529160200191612f23565b820191905f5260205f20905b815481529060010190602001808311612f0657829003601f168201915b505050505081526020019060010190612e8f565b50505050925060048054905067ffffffffffffffff811115612f5c57612f5b61339a565b5b604051908082528060200260200182016040528015612f8a5781602001602082028036833780820191505090505b50915060048054905067ffffffffffffffff811115612fac57612fab61339a565b5b604051908082528060200260200182016040528015612fda5781602001602082028036833780820191505090505b5090505f5f90505b6004805490508110156131a0575f60036004838154811061300657613005614a20565b5b905f5260205f200160405161301b9190614adf565b90815260200160405180910390206040518060800160405290815f82015f9054906101000a900473ffffffffffffffffffffffffffffffffffffffff1673ffffffffffffffffffffffffffffffffffffffff1673ffffffffffffffffffffffffffffffffffffffff168152602001600182015f9054906101000a900473ffffffffffffffffffffffffffffffffffffffff1673ffffffffffffffffffffffffffffffffffffffff1673ffffffffffffffffffffffffffffffffffffffff1681526020016001820160149054906101000a900460ff1660ff1660ff1681526020016001820160159054906101000a900460ff1615151515815250509050805f015184838151811061312e5761312d614a20565b5b602002602001019073ffffffffffffffffffffffffffffffffffffffff16908173ffffffffffffffffffffffffffffffffffffffff168152505080606001518383815181106131805761317f614a20565b5b602002602001019015159081151581525050508080600101915050612fe2565b50909192565b60015481565b6a108b2a2c2802909400000081565b6298968081565b6305f5e10081565b5f82825260208201905092915050565b7f496e76616c696420514920616d6f756e740000000000000000000000000000005f82015250565b5f61320e6011836131ca565b9150613219826131da565b602082019050919050565b5f6020820190508181035f83015261323b81613202565b9050919050565b5f81905092915050565b50565b5f61325a5f83613242565b91506132658261324c565b5f82019050919050565b5f6132798261324f565b9150819050919050565b7f455448207472616e73666572206661696c6564000000000000000000000000005f82015250565b5f6132b76013836131ca565b91506132c282613283565b602082019050919050565b5f6020820190508181035f8301526132e4816132ab565b9050919050565b5f819050919050565b6132fd816132eb565b82525050565b5f6020820190506133165f8301846132f4565b92915050565b5f604051905090565b5f5ffd5b5f5ffd5b613336816132eb565b8114613340575f5ffd5b50565b5f813590506133518161332d565b92915050565b5f6020828403121561336c5761336b613325565b5b5f61337984828501613343565b91505092915050565b5f5ffd5b5f5ffd5b5f601f19601f8301169050919050565b7f4e487b71000000000000000000000000000000000000000000000000000000005f52604160045260245ffd5b6133d08261338a565b810181811067ffffffffffffffff821117156133ef576133ee61339a565b5b80604052505050565b5f61340161331c565b905061340d82826133c7565b919050565b5f67ffffffffffffffff82111561342c5761342b61339a565b5b6134358261338a565b9050602081019050919050565b828183375f83830152505050565b5f61346261345d84613412565b6133f8565b90508281526020810184848401111561347e5761347d613386565b5b613489848285613442565b509392505050565b5f82601f8301126134a5576134a4613382565b5b81356134b5848260208601613450565b91505092915050565b5f5f604083850312156134d4576134d3613325565b5b5f83013567ffffffffffffffff8111156134f1576134f0613329565b5b6134fd85828601613491565b925050602061350e85828601613343565b9150509250929050565b5f73ffffffffffffffffffffffffffffffffffffffff82169050919050565b5f61354182613518565b9050919050565b61355181613537565b811461355b575f5ffd5b50565b5f8135905061356c81613548565b92915050565b5f6020828403121561358757613586613325565b5b5f6135948482850161355e565b91505092915050565b6135a681613537565b82525050565b5f6020820190506135bf5f83018461359d565b92915050565b5f8115159050919050565b6135d9816135c5565b82525050565b5f6020820190506135f25f8301846135d0565b92915050565b5f81519050919050565b8281835e5f83830152505050565b5f61361a826135f8565b61362481856131ca565b9350613634818560208601613602565b61363d8161338a565b840191505092915050565b5f6020820190508181035f8301526136608184613610565b905092915050565b5f81519050919050565b5f82825260208201905092915050565b5f819050602082019050919050565b61369a816132eb565b82525050565b5f6136ab8383613691565b60208301905092915050565b5f602082019050919050565b5f6136cd82613668565b6136d78185613672565b93506136e283613682565b805f5b838110156137125781516136f988826136a0565b9750613704836136b7565b9250506001810190506136e5565b5085935050505092915050565b5f81519050919050565b5f82825260208201905092915050565b5f819050602082019050919050565b5f82825260208201905092915050565b5f613762826135f8565b61376c8185613748565b935061377c818560208601613602565b6137858161338a565b840191505092915050565b5f61379b8383613758565b905092915050565b5f602082019050919050565b5f6137b98261371f565b6137c38185613729565b9350836020820285016137d585613739565b805f5b8581101561381057848403895281516137f18582613790565b94506137fc836137a3565b925060208a019950506001810190506137d8565b50829750879550505050505092915050565b5f6040820190508181035f83015261383a81856136c3565b9050818103602083015261384e81846137af565b90509392505050565b613860816135c5565b811461386a575f5ffd5b50565b5f8135905061387b81613857565b92915050565b5f6020828403121561389657613895613325565b5b5f6138a38482850161386d565b91505092915050565b5f602082840312156138c1576138c0613325565b5b5f82013567ffffffffffffffff8111156138de576138dd613329565b5b6138ea84828501613491565b91505092915050565b5f819050919050565b5f61391661391161390c84613518565b6138f3565b613518565b9050919050565b5f613927826138fc565b9050919050565b5f6139388261391d565b9050919050565b6139488161392e565b82525050565b5f60ff82169050919050565b6139638161394e565b82525050565b5f60808201905061397c5f83018761359d565b613989602083018661393f565b613996604083018561395a565b6139a360608301846135d0565b95945050505050565b5f60a0820190506139bf5f8301886132f4565b6139cc60208301876132f4565b6139d960408301866132f4565b6139e660608301856135d0565b6139f360808301846132f4565b9695505050505050565b5f81519050919050565b5f82825260208201905092915050565b5f819050602082019050919050565b613a2f81613537565b82525050565b5f613a408383613a26565b60208301905092915050565b5f602082019050919050565b5f613a62826139fd565b613a6c8185613a07565b9350613a7783613a17565b805f5b83811015613aa7578151613a8e8882613a35565b9750613a9983613a4c565b925050600181019050613a7a565b5085935050505092915050565b5f81519050919050565b5f82825260208201905092915050565b5f819050602082019050919050565b613ae6816135c5565b82525050565b5f613af78383613add565b60208301905092915050565b5f602082019050919050565b5f613b1982613ab4565b613b238185613abe565b9350613b2e83613ace565b805f5b83811015613b5e578151613b458882613aec565b9750613b5083613b03565b925050600181019050613b31565b5085935050505092915050565b5f6060820190508181035f830152613b8381866137af565b90508181036020830152613b978185613a58565b90508181036040830152613bab8184613b0f565b9050949350505050565b5f81905092915050565b5f613bc9826135f8565b613bd38185613bb5565b9350613be3818560208601613602565b80840191505092915050565b5f613bfa8284613bbf565b915081905092915050565b7f546f6b656e206e6f7420737570706f72746564000000000000000000000000005f82015250565b5f613c396013836131ca565b9150613c4482613c05565b602082019050919050565b5f6020820190508181035f830152613c6681613c2d565b9050919050565b7f50726963652066656564206e6f7420617661696c61626c6500000000000000005f82015250565b5f613ca16018836131ca565b9150613cac82613c6d565b602082019050919050565b5f6020820190508181035f830152613cce81613c95565b9050919050565b5f69ffffffffffffffffffff82169050919050565b613cf381613cd5565b8114613cfd575f5ffd5b50565b5f81519050613d0e81613cea565b92915050565b5f819050919050565b613d2681613d14565b8114613d30575f5ffd5b50565b5f81519050613d4181613d1d565b92915050565b5f81519050613d558161332d565b92915050565b5f5f5f5f5f60a08688031215613d7457613d73613325565b5b5f613d8188828901613d00565b9550506020613d9288828901613d33565b9450506040613da388828901613d47565b9350506060613db488828901613d47565b9250506080613dc588828901613d00565b9150509295509295909350565b7f496e76616c6964207072696365000000000000000000000000000000000000005f82015250565b5f613e06600d836131ca565b9150613e1182613dd2565b602082019050919050565b5f6020820190508181035f830152613e3381613dfa565b9050919050565b7f4e487b71000000000000000000000000000000000000000000000000000000005f52601160045260245ffd5b5f8160011c9050919050565b5f5f8291508390505b6001851115613ebc57808604811115613e9857613e97613e3a565b5b6001851615613ea75780820291505b8081029050613eb585613e67565b9450613e7c565b94509492505050565b5f82613ed45760019050613f8f565b81613ee1575f9050613f8f565b8160018114613ef75760028114613f0157613f30565b6001915050613f8f565b60ff841115613f1357613f12613e3a565b5b8360020a915084821115613f2a57613f29613e3a565b5b50613f8f565b5060208310610133831016604e8410600b8410161715613f655782820a905083811115613f6057613f5f613e3a565b5b613f8f565b613f728484846001613e73565b92509050818404811115613f8957613f88613e3a565b5b81810290505b9392505050565b5f613fa0826132eb565b9150613fab8361394e565b9250613fd87fffffffffffffffffffffffffffffffffffffffffffffffffffffffffffffffff8484613ec5565b905092915050565b5f613fea826132eb565b9150613ff5836132eb565b9250828202614003816132eb565b9150828204841483151761401a57614019613e3a565b5b5092915050565b7f4e487b71000000000000000000000000000000000000000000000000000000005f52601260045260245ffd5b5f614058826132eb565b9150614063836132eb565b92508261407357614072614021565b5b828204905092915050565b7f514920616d6f756e74206d757374206265203e203000000000000000000000005f82015250565b5f6140b26015836131ca565b91506140bd8261407e565b602082019050919050565b5f6020820190508181035f8301526140df816140a6565b9050919050565b5f6140f0826132eb565b91506140fb836132eb565b925082820190508082111561411357614112613e3a565b5b92915050565b7f457863656564732070726573616c6520746172676574000000000000000000005f82015250565b5f61414d6016836131ca565b915061415882614119565b602082019050919050565b5f6020820190508181035f83015261417a81614141565b9050919050565b7f42656c6f77206d696e696d756d207075726368617365000000000000000000005f82015250565b5f6141b56016836131ca565b91506141c082614181565b602082019050919050565b5f6020820190508181035f8301526141e2816141a9565b9050919050565b5f6060820190506141fc5f83018661359d565b614209602083018561359d565b61421660408301846132f4565b949350505050565b5f8151905061422c81613857565b92915050565b5f6020828403121561424757614246613325565b5b5f6142548482850161421e565b91505092915050565b7f5149207472616e73666572206661696c656400000000000000000000000000005f82015250565b5f6142916012836131ca565b915061429c8261425d565b602082019050919050565b5f6020820190508181035f8301526142be81614285565b9050919050565b5f6080820190508181035f8301526142dd8187613610565b90506142ec60208301866132f4565b6142f960408301856132f4565b61430660608301846132f4565b95945050505050565b7f50726573616c65206e6f742061637469766500000000000000000000000000005f82015250565b5f6143436012836131ca565b915061434e8261430f565b602082019050919050565b5f6020820190508181035f83015261437081614337565b9050919050565b7f45544820616d6f756e74206d757374206265203e2030000000000000000000005f82015250565b5f6143ab6016836131ca565b91506143b682614377565b602082019050919050565b5f6020820190508181035f8301526143d88161439f565b9050919050565b7f5742544320616d6f756e74206d757374206265203e20300000000000000000005f82015250565b5f6144136017836131ca565b915061441e826143df565b602082019050919050565b5f6020820190508181035f83015261444081614407565b9050919050565b7f57425443000000000000000000000000000000000000000000000000000000005f82015250565b5f61447b600483613bb5565b915061448682614447565b600482019050919050565b5f61449b8261446f565b9150819050919050565b7f57425443207472616e73666572206661696c65640000000000000000000000005f82015250565b5f6144d96014836131ca565b91506144e4826144a5565b602082019050919050565b5f6020820190508181035f830152614506816144cd565b9050919050565b7f45544820616d6f756e74206d69736d61746368000000000000000000000000005f82015250565b5f6145416013836131ca565b915061454c8261450d565b602082019050919050565b5f6020820190508181035f83015261456e81614535565b9050919050565b7f5553445420616d6f756e74206d757374206265203e20300000000000000000005f82015250565b5f6145a96017836131ca565b91506145b482614575565b602082019050919050565b5f6020820190508181035f8301526145d68161459d565b9050919050565b7f55534454000000000000000000000000000000000000000000000000000000005f82015250565b5f614611600483613bb5565b915061461c826145dd565b600482019050919050565b5f61463182614605565b9150819050919050565b7f55534454207472616e73666572206661696c65640000000000000000000000005f82015250565b5f61466f6014836131ca565b915061467a8261463b565b602082019050919050565b5f6020820190508181035f83015261469c81614663565b9050919050565b7f5553444320616d6f756e74206d757374206265203e20300000000000000000005f82015250565b5f6146d76017836131ca565b91506146e2826146a3565b602082019050919050565b5f6020820190508181035f830152614704816146cb565b9050919050565b7f55534443000000000000000000000000000000000000000000000000000000005f82015250565b5f61473f600483613bb5565b915061474a8261470b565b600482019050919050565b5f61475f82614733565b9150819050919050565b7f55534443207472616e73666572206661696c65640000000000000000000000005f82015250565b5f61479d6014836131ca565b91506147a882614769565b602082019050919050565b5f6020820190508181035f8301526147ca81614791565b9050919050565b7f546f6b656e206e6f7420696d706c656d656e74656400000000000000000000005f82015250565b5f6148056015836131ca565b9150614810826147d1565b602082019050919050565b5f6020820190508181035f830152614832816147f9565b9050919050565b5f6020828403121561484e5761484d613325565b5b5f61485b84828501613d47565b91505092915050565b7f4e487b71000000000000000000000000000000000000000000000000000000005f52602260045260245ffd5b5f60028204905060018216806148a857607f821691505b6020821081036148bb576148ba614864565b5b50919050565b7f4e6f74206f776e657200000000000000000000000000000000000000000000005f82015250565b5f6148f56009836131ca565b9150614900826148c1565b602082019050919050565b5f6020820190508181035f830152614922816148e9565b9050919050565b7f455448207769746864726177206661696c6564000000000000000000000000005f82015250565b5f61495d6013836131ca565b915061496882614929565b602082019050919050565b5f6020820190508181035f83015261498a81614951565b9050919050565b5f6040820190506149a45f83018561359d565b6149b160208301846132f4565b9392505050565b7f546f6b656e207769746864726177206661696c656400000000000000000000005f82015250565b5f6149ec6015836131ca565b91506149f7826149b8565b602082019050919050565b5f6020820190508181035f830152614a19816149e0565b9050919050565b7f4e487b71000000000000000000000000000000000000000000000000000000005f52603260045260245ffd5b5f819050815f5260205f209050919050565b5f8154614a6b81614891565b614a758186613bb5565b9450600182165f8114614a8f5760018114614aa457614ad6565b60ff1983168652811515820286019350614ad6565b614aad85614a4d565b5f5b83811015614ace57815481890152600182019150602081019050614aaf565b838801955050505b50505092915050565b5f614aea8284614a5f565b915081905092915050565b5f819050815f5260205f209050919050565b5f8154614b1381614891565b614b1d8186613242565b9450600182165f8114614b375760018114614b4c57614b7e565b60ff1983168652811515820286019350614b7e565b614b5585614af5565b5f5b83811015614b7657815481890152600182019150602081019050614b57565b838801955050505b50505092915050565b5f614b928284614b07565b915081905092915050565b5f614ba7826132eb565b9150614bb2836132eb565b9250828203905081811115614bca57614bc9613e3a565b5b9291505056fea26469706673582212200f3b2a5a56a926521bcef0cdbf41408853d6ac8b80be95f77fad7b41d57cd18164736f6c634300081e0033",
			"opcodes": "PUSH1 0xC0 PUSH1 0x40 MSTORE CALLVALUE DUP1 ISZERO PUSH2 0xF JUMPI PUSH0 PUSH0 REVERT JUMPDEST POP PUSH1 0x40 MLOAD PUSH2 0x5624 CODESIZE SUB DUP1 PUSH2 0x5624 DUP4 CODECOPY DUP2 DUP2 ADD PUSH1 0x40 MSTORE DUP2 ADD SWAP1 PUSH2 0x31 SWAP2 SWAP1 PUSH2 0x4F4 JUMP JUMPDEST PUSH0 PUSH20 0xFFFFFFFFFFFFFFFFFFFFFFFFFFFFFFFFFFFFFFFF AND DUP2 PUSH20 0xFFFFFFFFFFFFFFFFFFFFFFFFFFFFFFFFFFFFFFFF AND SUB PUSH2 0x9F JUMPI PUSH1 0x40 MLOAD PUSH32 0x8C379A000000000000000000000000000000000000000000000000000000000 DUP2 MSTORE PUSH1 0x4 ADD PUSH2 0x96 SWAP1 PUSH2 0x579 JUMP JUMPDEST PUSH1 0x40 MLOAD DUP1 SWAP2 SUB SWAP1 REVERT JUMPDEST CALLER PUSH20 0xFFFFFFFFFFFFFFFFFFFFFFFFFFFFFFFFFFFFFFFF AND PUSH1 0x80 DUP2 PUSH20 0xFFFFFFFFFFFFFFFFFFFFFFFFFFFFFFFFFFFFFFFF AND DUP2 MSTORE POP POP DUP1 PUSH20 0xFFFFFFFFFFFFFFFFFFFFFFFFFFFFFFFFFFFFFFFF AND PUSH1 0xA0 DUP2 PUSH20 0xFFFFFFFFFFFFFFFFFFFFFFFFFFFFFFFFFFFFFFFF AND DUP2 MSTORE POP POP PUSH1 0x1 PUSH0 PUSH0 PUSH2 0x100 EXP DUP2 SLOAD DUP2 PUSH1 0xFF MUL NOT AND SWAP1 DUP4 ISZERO ISZERO MUL OR SWAP1 SSTORE POP PUSH2 0x17C PUSH1 0x40 MLOAD DUP1 PUSH1 0x40 ADD PUSH1 0x40 MSTORE DUP1 PUSH1 0x3 DUP2 MSTORE PUSH1 0x20 ADD PUSH32 0x4554480000000000000000000000000000000000000000000000000000000000 DUP2 MSTORE POP PUSH0 PUSH20 0x71041DDDAD3595F9CED3DCCFBE3D1F4B0A16BB70 PUSH1 0x12 PUSH2 0x2AA PUSH1 0x20 SHL PUSH1 0x20 SHR JUMP JUMPDEST PUSH2 0x1D8 PUSH1 0x40 MLOAD DUP1 PUSH1 0x40 ADD PUSH1 0x40 MSTORE DUP1 PUSH1 0x4 DUP2 MSTORE PUSH1 0x20 ADD PUSH32 0x5553445400000000000000000000000000000000000000000000000000000000 DUP2 MSTORE POP PUSH20 0xFDE4C96C8593536E31F229EA8F37B2ADA2699BB2 PUSH0 PUSH1 0x6 PUSH2 0x2AA PUSH1 0x20 SHL PUSH1 0x20 SHR JUMP JUMPDEST PUSH2 0x234 PUSH1 0x40 MLOAD DUP1 PUSH1 0x40 ADD PUSH1 0x40 MSTORE DUP1 PUSH1 0x4 DUP2 MSTORE PUSH1 0x20 ADD PUSH32 0x5553444300000000000000000000000000000000000000000000000000000000 DUP2 MSTORE POP PUSH20 0x833589FCD6EDB6E08F4C7C32D4F71B54BDA02913 PUSH0 PUSH1 0x6 PUSH2 0x2AA PUSH1 0x20 SHL PUSH1 0x20 SHR JUMP JUMPDEST PUSH2 0x2A4 PUSH1 0x40 MLOAD DUP1 PUSH1 0x40 ADD PUSH1 0x40 MSTORE DUP1 PUSH1 0x4 DUP2 MSTORE PUSH1 0x20 ADD PUSH32 0x5742544300000000000000000000000000000000000000000000000000000000 DUP2 MSTORE POP PUSH20 0x236AA50979D5F3DE3BD1EEB40E81137F22AB794B PUSH20 0x64C911996D3C6AC71F9B455B1E8E7266BCBD848F PUSH1 0x8 PUSH2 0x2AA PUSH1 0x20 SHL PUSH1 0x20 SHR JUMP JUMPDEST POP PUSH2 0x994 JUMP JUMPDEST PUSH1 0x40 MLOAD DUP1 PUSH1 0x80 ADD PUSH1 0x40 MSTORE DUP1 DUP5 PUSH20 0xFFFFFFFFFFFFFFFFFFFFFFFFFFFFFFFFFFFFFFFF AND DUP2 MSTORE PUSH1 0x20 ADD PUSH0 PUSH20 0xFFFFFFFFFFFFFFFFFFFFFFFFFFFFFFFFFFFFFFFF AND DUP5 PUSH20 0xFFFFFFFFFFFFFFFFFFFFFFFFFFFFFFFFFFFFFFFF AND SUB PUSH2 0x30A JUMPI PUSH0 PUSH2 0x30C JUMP JUMPDEST DUP4 JUMPDEST PUSH20 0xFFFFFFFFFFFFFFFFFFFFFFFFFFFFFFFFFFFFFFFF AND DUP2 MSTORE PUSH1 0x20 ADD DUP3 PUSH1 0xFF AND DUP2 MSTORE PUSH1 0x20 ADD PUSH1 0x1 ISZERO ISZERO DUP2 MSTORE POP PUSH1 0x3 DUP6 PUSH1 0x40 MLOAD PUSH2 0x347 SWAP2 SWAP1 PUSH2 0x5E9 JUMP JUMPDEST SWAP1 DUP2 MSTORE PUSH1 0x20 ADD PUSH1 0x40 MLOAD DUP1 SWAP2 SUB SWAP1 KECCAK256 PUSH0 DUP3 ADD MLOAD DUP2 PUSH0 ADD PUSH0 PUSH2 0x100 EXP DUP2 SLOAD DUP2 PUSH20 0xFFFFFFFFFFFFFFFFFFFFFFFFFFFFFFFFFFFFFFFF MUL NOT AND SWAP1 DUP4 PUSH20 0xFFFFFFFFFFFFFFFFFFFFFFFFFFFFFFFFFFFFFFFF AND MUL OR SWAP1 SSTORE POP PUSH1 0x20 DUP3 ADD MLOAD DUP2 PUSH1 0x1 ADD PUSH0 PUSH2 0x100 EXP DUP2 SLOAD DUP2 PUSH20 0xFFFFFFFFFFFFFFFFFFFFFFFFFFFFFFFFFFFFFFFF MUL NOT AND SWAP1 DUP4 PUSH20 0xFFFFFFFFFFFFFFFFFFFFFFFFFFFFFFFFFFFFFFFF AND MUL OR SWAP1 SSTORE POP PUSH1 0x40 DUP3 ADD MLOAD DUP2 PUSH1 0x1 ADD PUSH1 0x14 PUSH2 0x100 EXP DUP2 SLOAD DUP2 PUSH1 0xFF MUL NOT AND SWAP1 DUP4 PUSH1 0xFF AND MUL OR SWAP1 SSTORE POP PUSH1 0x60 DUP3 ADD MLOAD DUP2 PUSH1 0x1 ADD PUSH1 0x15 PUSH2 0x100 EXP DUP2 SLOAD DUP2 PUSH1 0xFF MUL NOT AND SWAP1 DUP4 ISZERO ISZERO MUL OR SWAP1 SSTORE POP SWAP1 POP POP PUSH1 0x4 DUP5 SWAP1 DUP1 PUSH1 0x1 DUP2 SLOAD ADD DUP1 DUP3 SSTORE DUP1 SWAP2 POP POP PUSH1 0x1 SWAP1 SUB SWAP1 PUSH0 MSTORE PUSH1 0x20 PUSH0 KECCAK256 ADD PUSH0 SWAP1 SWAP2 SWAP1 SWAP2 SWAP1 SWAP2 POP SWAP1 DUP2 PUSH2 0x454 SWAP2 SWAP1 PUSH2 0x832 JUMP JUMPDEST POP PUSH32 0x91BB5C50A46662ED36D8C46C8CBD923B5D4A585EE99563C297CF71E21B91BC5E DUP5 DUP5 DUP5 PUSH1 0x40 MLOAD PUSH2 0x488 SWAP4 SWAP3 SWAP2 SWAP1 PUSH2 0x958 JUMP JUMPDEST PUSH1 0x40 MLOAD DUP1 SWAP2 SUB SWAP1 LOG1 POP POP POP POP JUMP JUMPDEST PUSH0 PUSH0 REVERT JUMPDEST PUSH0 PUSH20 0xFFFFFFFFFFFFFFFFFFFFFFFFFFFFFFFFFFFFFFFF DUP3 AND SWAP1 POP SWAP2 SWAP1 POP JUMP JUMPDEST PUSH0 PUSH2 0x4C3 DUP3 PUSH2 0x49A JUMP JUMPDEST SWAP1 POP SWAP2 SWAP1 POP JUMP JUMPDEST PUSH2 0x4D3 DUP2 PUSH2 0x4B9 JUMP JUMPDEST DUP2 EQ PUSH2 0x4DD JUMPI PUSH0 PUSH0 REVERT JUMPDEST POP JUMP JUMPDEST PUSH0 DUP2 MLOAD SWAP1 POP PUSH2 0x4EE DUP2 PUSH2 0x4CA JUMP JUMPDEST SWAP3 SWAP2 POP POP JUMP JUMPDEST PUSH0 PUSH1 0x20 DUP3 DUP5 SUB SLT ISZERO PUSH2 0x509 JUMPI PUSH2 0x508 PUSH2 0x496 JUMP JUMPDEST JUMPDEST PUSH0 PUSH2 0x516 DUP5 DUP3 DUP6 ADD PUSH2 0x4E0 JUMP JUMPDEST SWAP2 POP POP SWAP3 SWAP2 POP POP JUMP JUMPDEST PUSH0 DUP3 DUP3 MSTORE PUSH1 0x20 DUP3 ADD SWAP1 POP SWAP3 SWAP2 POP POP JUMP JUMPDEST PUSH32 0x496E76616C696420514920746F6B656E20616464726573730000000000000000 PUSH0 DUP3 ADD MSTORE POP JUMP JUMPDEST PUSH0 PUSH2 0x563 PUSH1 0x18 DUP4 PUSH2 0x51F JUMP JUMPDEST SWAP2 POP PUSH2 0x56E DUP3 PUSH2 0x52F JUMP JUMPDEST PUSH1 0x20 DUP3 ADD SWAP1 POP SWAP2 SWAP1 POP JUMP JUMPDEST PUSH0 PUSH1 0x20 DUP3 ADD SWAP1 POP DUP2 DUP2 SUB PUSH0 DUP4 ADD MSTORE PUSH2 0x590 DUP2 PUSH2 0x557 JUMP JUMPDEST SWAP1 POP SWAP2 SWAP1 POP JUMP JUMPDEST PUSH0 DUP2 MLOAD SWAP1 POP SWAP2 SWAP1 POP JUMP JUMPDEST PUSH0 DUP2 SWAP1 POP SWAP3 SWAP2 POP POP JUMP JUMPDEST DUP3 DUP2 DUP4 MCOPY PUSH0 DUP4 DUP4 ADD MSTORE POP POP POP JUMP JUMPDEST PUSH0 PUSH2 0x5C3 DUP3 PUSH2 0x597 JUMP JUMPDEST PUSH2 0x5CD DUP2 DUP6 PUSH2 0x5A1 JUMP JUMPDEST SWAP4 POP PUSH2 0x5DD DUP2 DUP6 PUSH1 0x20 DUP7 ADD PUSH2 0x5AB JUMP JUMPDEST DUP1 DUP5 ADD SWAP2 POP POP SWAP3 SWAP2 POP POP JUMP JUMPDEST PUSH0 PUSH2 0x5F4 DUP3 DUP5 PUSH2 0x5B9 JUMP JUMPDEST SWAP2 POP DUP2 SWAP1 POP SWAP3 SWAP2 POP POP JUMP JUMPDEST PUSH32 0x4E487B7100000000000000000000000000000000000000000000000000000000 PUSH0 MSTORE PUSH1 0x41 PUSH1 0x4 MSTORE PUSH1 0x24 PUSH0 REVERT JUMPDEST PUSH32 0x4E487B7100000000000000000000000000000000000000000000000000000000 PUSH0 MSTORE PUSH1 0x22 PUSH1 0x4 MSTORE PUSH1 0x24 PUSH0 REVERT JUMPDEST PUSH0 PUSH1 0x2 DUP3 DIV SWAP1 POP PUSH1 0x1 DUP3 AND DUP1 PUSH2 0x670 JUMPI PUSH1 0x7F DUP3 AND SWAP2 POP JUMPDEST PUSH1 0x20 DUP3 LT DUP2 SUB PUSH2 0x683 JUMPI PUSH2 0x682 PUSH2 0x62C JUMP JUMPDEST JUMPDEST POP SWAP2 SWAP1 POP JUMP JUMPDEST PUSH0 DUP2 SWAP1 POP DUP2 PUSH0 MSTORE PUSH1 0x20 PUSH0 KECCAK256 SWAP1 POP SWAP2 SWAP1 POP JUMP JUMPDEST PUSH0 PUSH1 0x20 PUSH1 0x1F DUP4 ADD DIV SWAP1 POP SWAP2 SWAP1 POP JUMP JUMPDEST PUSH0 DUP3 DUP3 SHL SWAP1 POP SWAP3 SWAP2 POP POP JUMP JUMPDEST PUSH0 PUSH1 0x8 DUP4 MUL PUSH2 0x6E5 PUSH32 0xFFFFFFFFFFFFFFFFFFFFFFFFFFFFFFFFFFFFFFFFFFFFFFFFFFFFFFFFFFFFFFFF DUP3 PUSH2 0x6AA JUMP JUMPDEST PUSH2 0x6EF DUP7 DUP4 PUSH2 0x6AA JUMP JUMPDEST SWAP6 POP DUP1 NOT DUP5 AND SWAP4 POP DUP1 DUP7 AND DUP5 OR SWAP3 POP POP POP SWAP4 SWAP3 POP POP POP JUMP JUMPDEST PUSH0 DUP2 SWAP1 POP SWAP2 SWAP1 POP JUMP JUMPDEST PUSH0 DUP2 SWAP1 POP SWAP2 SWAP1 POP JUMP JUMPDEST PUSH0 PUSH2 0x733 PUSH2 0x72E PUSH2 0x729 DUP5 PUSH2 0x707 JUMP JUMPDEST PUSH2 0x710 JUMP JUMPDEST PUSH2 0x707 JUMP JUMPDEST SWAP1 POP SWAP2 SWAP1 POP JUMP JUMPDEST PUSH0 DUP2 SWAP1 POP SWAP2 SWAP1 POP JUMP JUMPDEST PUSH2 0x74C DUP4 PUSH2 0x719 JUMP JUMPDEST PUSH2 0x760 PUSH2 0x758 DUP3 PUSH2 0x73A JUMP JUMPDEST DUP5 DUP5 SLOAD PUSH2 0x6B6 JUMP JUMPDEST DUP3 SSTORE POP POP POP POP JUMP JUMPDEST PUSH0 PUSH0 SWAP1 POP SWAP1 JUMP JUMPDEST PUSH2 0x777 PUSH2 0x768 JUMP JUMPDEST PUSH2 0x782 DUP2 DUP5 DUP5 PUSH2 0x743 JUMP JUMPDEST POP POP POP JUMP JUMPDEST JUMPDEST DUP2 DUP2 LT ISZERO PUSH2 0x7A5 JUMPI PUSH2 0x79A PUSH0 DUP3 PUSH2 0x76F JUMP JUMPDEST PUSH1 0x1 DUP2 ADD SWAP1 POP PUSH2 0x788 JUMP JUMPDEST POP POP JUMP JUMPDEST PUSH1 0x1F DUP3 GT ISZERO PUSH2 0x7EA JUMPI PUSH2 0x7BB DUP2 PUSH2 0x689 JUMP JUMPDEST PUSH2 0x7C4 DUP5 PUSH2 0x69B JUMP JUMPDEST DUP2 ADD PUSH1 0x20 DUP6 LT ISZERO PUSH2 0x7D3 JUMPI DUP2 SWAP1 POP JUMPDEST PUSH2 0x7E7 PUSH2 0x7DF DUP6 PUSH2 0x69B JUMP JUMPDEST DUP4 ADD DUP3 PUSH2 0x787 JUMP JUMPDEST POP POP JUMPDEST POP POP POP JUMP JUMPDEST PUSH0 DUP3 DUP3 SHR SWAP1 POP SWAP3 SWAP2 POP POP JUMP JUMPDEST PUSH0 PUSH2 0x80A PUSH0 NOT DUP5 PUSH1 0x8 MUL PUSH2 0x7EF JUMP JUMPDEST NOT DUP1 DUP4 AND SWAP2 POP POP SWAP3 SWAP2 POP POP JUMP JUMPDEST PUSH0 PUSH2 0x822 DUP4 DUP4 PUSH2 0x7FB JUMP JUMPDEST SWAP2 POP DUP3 PUSH1 0x2 MUL DUP3 OR SWAP1 POP SWAP3 SWAP2 POP POP JUMP JUMPDEST PUSH2 0x83B DUP3 PUSH2 0x597 JUMP JUMPDEST PUSH8 0xFFFFFFFFFFFFFFFF DUP2 GT ISZERO PUSH2 0x854 JUMPI PUSH2 0x853 PUSH2 0x5FF JUMP JUMPDEST JUMPDEST PUSH2 0x85E DUP3 SLOAD PUSH2 0x659 JUMP JUMPDEST PUSH2 0x869 DUP3 DUP3 DUP6 PUSH2 0x7A9 JUMP JUMPDEST PUSH0 PUSH1 0x20 SWAP1 POP PUSH1 0x1F DUP4 GT PUSH1 0x1 DUP2 EQ PUSH2 0x89A JUMPI PUSH0 DUP5 ISZERO PUSH2 0x888 JUMPI DUP3 DUP8 ADD MLOAD SWAP1 POP JUMPDEST PUSH2 0x892 DUP6 DUP3 PUSH2 0x817 JUMP JUMPDEST DUP7 SSTORE POP PUSH2 0x8F9 JUMP JUMPDEST PUSH1 0x1F NOT DUP5 AND PUSH2 0x8A8 DUP7 PUSH2 0x689 JUMP JUMPDEST PUSH0 JUMPDEST DUP3 DUP2 LT ISZERO PUSH2 0x8CF JUMPI DUP5 DUP10 ADD MLOAD DUP3 SSTORE PUSH1 0x1 DUP3 ADD SWAP2 POP PUSH1 0x20 DUP6 ADD SWAP5 POP PUSH1 0x20 DUP2 ADD SWAP1 POP PUSH2 0x8AA JUMP JUMPDEST DUP7 DUP4 LT ISZERO PUSH2 0x8EC JUMPI DUP5 DUP10 ADD MLOAD PUSH2 0x8E8 PUSH1 0x1F DUP10 AND DUP3 PUSH2 0x7FB JUMP JUMPDEST DUP4 SSTORE POP JUMPDEST PUSH1 0x1 PUSH1 0x2 DUP9 MUL ADD DUP9 SSTORE POP POP POP JUMPDEST POP POP POP POP POP POP JUMP JUMPDEST PUSH0 PUSH1 0x1F NOT PUSH1 0x1F DUP4 ADD AND SWAP1 POP SWAP2 SWAP1 POP JUMP JUMPDEST PUSH0 PUSH2 0x91B DUP3 PUSH2 0x597 JUMP JUMPDEST PUSH2 0x925 DUP2 DUP6 PUSH2 0x51F JUMP JUMPDEST SWAP4 POP PUSH2 0x935 DUP2 DUP6 PUSH1 0x20 DUP7 ADD PUSH2 0x5AB JUMP JUMPDEST PUSH2 0x93E DUP2 PUSH2 0x901 JUMP JUMPDEST DUP5 ADD SWAP2 POP POP SWAP3 SWAP2 POP POP JUMP JUMPDEST PUSH2 0x952 DUP2 PUSH2 0x4B9 JUMP JUMPDEST DUP3 MSTORE POP POP JUMP JUMPDEST PUSH0 PUSH1 0x60 DUP3 ADD SWAP1 POP DUP2 DUP2 SUB PUSH0 DUP4 ADD MSTORE PUSH2 0x970 DUP2 DUP7 PUSH2 0x911 JUMP JUMPDEST SWAP1 POP PUSH2 0x97F PUSH1 0x20 DUP4 ADD DUP6 PUSH2 0x949 JUMP JUMPDEST PUSH2 0x98C PUSH1 0x40 DUP4 ADD DUP5 PUSH2 0x949 JUMP JUMPDEST SWAP5 SWAP4 POP POP POP POP JUMP JUMPDEST PUSH1 0x80 MLOAD PUSH1 0xA0 MLOAD PUSH2 0x4C06 PUSH2 0xA1E PUSH0 CODECOPY PUSH0 DUP2 DUP2 PUSH2 0xC01 ADD MSTORE PUSH2 0x1E58 ADD MSTORE PUSH0 DUP2 DUP2 PUSH2 0x239 ADD MSTORE DUP2 DUP2 PUSH2 0xC40 ADD MSTORE DUP2 DUP2 PUSH2 0xEB2 ADD MSTORE DUP2 DUP2 PUSH2 0x1136 ADD MSTORE DUP2 DUP2 PUSH2 0x152C ADD MSTORE DUP2 DUP2 PUSH2 0x17A9 ADD MSTORE DUP2 DUP2 PUSH2 0x1A1E ADD MSTORE DUP2 DUP2 PUSH2 0x1C93 ADD MSTORE DUP2 DUP2 PUSH2 0x1F3A ADD MSTORE DUP2 DUP2 PUSH2 0x2008 ADD MSTORE DUP2 DUP2 PUSH2 0x21B3 ADD MSTORE DUP2 DUP2 PUSH2 0x2790 ADD MSTORE DUP2 DUP2 PUSH2 0x290C ADD MSTORE DUP2 DUP2 PUSH2 0x2B31 ADD MSTORE PUSH2 0x2DA7 ADD MSTORE PUSH2 0x4C06 PUSH0 RETURN INVALID PUSH1 0x80 PUSH1 0x40 MSTORE PUSH1 0x4 CALLDATASIZE LT PUSH2 0x14E JUMPI PUSH0 CALLDATALOAD PUSH1 0xE0 SHR DUP1 PUSH4 0x85CBC881 GT PUSH2 0xB5 JUMPI DUP1 PUSH4 0xAECCF735 GT PUSH2 0x6E JUMPI DUP1 PUSH4 0xAECCF735 EQ PUSH2 0x615 JUMPI DUP1 PUSH4 0xD3C7C2C7 EQ PUSH2 0x63D JUMPI DUP1 PUSH4 0xE8E3F4AA EQ PUSH2 0x669 JUMPI DUP1 PUSH4 0xEB795F25 EQ PUSH2 0x693 JUMPI DUP1 PUSH4 0xF4A5B2B0 EQ PUSH2 0x6BD JUMPI DUP1 PUSH4 0xFDE3A8D0 EQ PUSH2 0x6E7 JUMPI PUSH2 0x303 JUMP JUMPDEST DUP1 PUSH4 0x85CBC881 EQ PUSH2 0x504 JUMPI DUP1 PUSH4 0x8895283F EQ PUSH2 0x52E JUMPI DUP1 PUSH4 0x89919CDD EQ PUSH2 0x556 JUMPI DUP1 PUSH4 0x8DA5CB5B EQ PUSH2 0x595 JUMPI DUP1 PUSH4 0xA56B94F3 EQ PUSH2 0x5BF JUMPI DUP1 PUSH4 0xA7C60160 EQ PUSH2 0x5ED JUMPI PUSH2 0x303 JUMP JUMPDEST DUP1 PUSH4 0x4BFDFA6F GT PUSH2 0x107 JUMPI DUP1 PUSH4 0x4BFDFA6F EQ PUSH2 0x3E5 JUMPI DUP1 PUSH4 0x53135CA0 EQ PUSH2 0x40F JUMPI DUP1 PUSH4 0x6E7DDEA8 EQ PUSH2 0x439 JUMPI DUP1 PUSH4 0x6FF1C9BC EQ PUSH2 0x475 JUMPI DUP1 PUSH4 0x7D4C12AC EQ PUSH2 0x49D JUMPI DUP1 PUSH4 0x852D0D6E EQ PUSH2 0x4D9 JUMPI PUSH2 0x303 JUMP JUMPDEST DUP1 PUSH4 0x150D283D EQ PUSH2 0x307 JUMPI DUP1 PUSH4 0x1AAE8491 EQ PUSH2 0x311 JUMPI DUP1 PUSH4 0x1B7C4B5C EQ PUSH2 0x33B JUMPI DUP1 PUSH4 0x21F3689B EQ PUSH2 0x363 JUMPI DUP1 PUSH4 0x43AB265F EQ PUSH2 0x37F JUMPI DUP1 PUSH4 0x462E4CDA EQ PUSH2 0x3BB JUMPI PUSH2 0x303 JUMP JUMPDEST CALLDATASIZE PUSH2 0x303 JUMPI PUSH0 CALLVALUE GT DUP1 ISZERO PUSH2 0x16C JUMPI POP PUSH0 PUSH0 SWAP1 SLOAD SWAP1 PUSH2 0x100 EXP SWAP1 DIV PUSH1 0xFF AND JUMPDEST ISZERO PUSH2 0x301 JUMPI PUSH0 PUSH2 0x1B1 PUSH1 0x40 MLOAD DUP1 PUSH1 0x40 ADD PUSH1 0x40 MSTORE DUP1 PUSH1 0x3 DUP2 MSTORE PUSH1 0x20 ADD PUSH32 0x4554480000000000000000000000000000000000000000000000000000000000 DUP2 MSTORE POP CALLVALUE PUSH2 0x711 JUMP JUMPDEST SWAP1 POP PUSH0 DUP2 GT PUSH2 0x1F5 JUMPI PUSH1 0x40 MLOAD PUSH32 0x8C379A000000000000000000000000000000000000000000000000000000000 DUP2 MSTORE PUSH1 0x4 ADD PUSH2 0x1EC SWAP1 PUSH2 0x3224 JUMP JUMPDEST PUSH1 0x40 MLOAD DUP1 SWAP2 SUB SWAP1 REVERT JUMPDEST PUSH2 0x236 CALLER PUSH1 0x40 MLOAD DUP1 PUSH1 0x40 ADD PUSH1 0x40 MSTORE DUP1 PUSH1 0x3 DUP2 MSTORE PUSH1 0x20 ADD PUSH32 0x4554480000000000000000000000000000000000000000000000000000000000 DUP2 MSTORE POP CALLVALUE DUP5 PUSH2 0xAA4 JUMP JUMPDEST PUSH0 PUSH32 0x0 PUSH20 0xFFFFFFFFFFFFFFFFFFFFFFFFFFFFFFFFFFFFFFFF AND CALLVALUE PUSH1 0x40 MLOAD PUSH2 0x27B SWAP1 PUSH2 0x326F JUMP JUMPDEST PUSH0 PUSH1 0x40 MLOAD DUP1 DUP4 SUB DUP2 DUP6 DUP8 GAS CALL SWAP3 POP POP POP RETURNDATASIZE DUP1 PUSH0 DUP2 EQ PUSH2 0x2B5 JUMPI PUSH1 0x40 MLOAD SWAP2 POP PUSH1 0x1F NOT PUSH1 0x3F RETURNDATASIZE ADD AND DUP3 ADD PUSH1 0x40 MSTORE RETURNDATASIZE DUP3 MSTORE RETURNDATASIZE PUSH0 PUSH1 0x20 DUP5 ADD RETURNDATACOPY PUSH2 0x2BA JUMP JUMPDEST PUSH1 0x60 SWAP2 POP JUMPDEST POP POP SWAP1 POP DUP1 PUSH2 0x2FE JUMPI PUSH1 0x40 MLOAD PUSH32 0x8C379A000000000000000000000000000000000000000000000000000000000 DUP2 MSTORE PUSH1 0x4 ADD PUSH2 0x2F5 SWAP1 PUSH2 0x32CD JUMP JUMPDEST PUSH1 0x40 MLOAD DUP1 SWAP2 SUB SWAP1 REVERT JUMPDEST POP POP JUMPDEST STOP JUMPDEST PUSH0 PUSH0 REVERT JUMPDEST PUSH2 0x30F PUSH2 0xD5B JUMP JUMPDEST STOP JUMPDEST CALLVALUE DUP1 ISZERO PUSH2 0x31C JUMPI PUSH0 PUSH0 REVERT JUMPDEST POP PUSH2 0x325 PUSH2 0xF7B JUMP JUMPDEST PUSH1 0x40 MLOAD PUSH2 0x332 SWAP2 SWAP1 PUSH2 0x3303 JUMP JUMPDEST PUSH1 0x40 MLOAD DUP1 SWAP2 SUB SWAP1 RETURN JUMPDEST CALLVALUE DUP1 ISZERO PUSH2 0x346 JUMPI PUSH0 PUSH0 REVERT JUMPDEST POP PUSH2 0x361 PUSH1 0x4 DUP1 CALLDATASIZE SUB DUP2 ADD SWAP1 PUSH2 0x35C SWAP2 SWAP1 PUSH2 0x3357 JUMP JUMPDEST PUSH2 0xF82 JUMP JUMPDEST STOP JUMPDEST PUSH2 0x37D PUSH1 0x4 DUP1 CALLDATASIZE SUB DUP2 ADD SWAP1 PUSH2 0x378 SWAP2 SWAP1 PUSH2 0x34BE JUMP JUMPDEST PUSH2 0x11F8 JUMP JUMPDEST STOP JUMPDEST CALLVALUE DUP1 ISZERO PUSH2 0x38A JUMPI PUSH0 PUSH0 REVERT JUMPDEST POP PUSH2 0x3A5 PUSH1 0x4 DUP1 CALLDATASIZE SUB DUP2 ADD SWAP1 PUSH2 0x3A0 SWAP2 SWAP1 PUSH2 0x3572 JUMP JUMPDEST PUSH2 0x1D9A JUMP JUMPDEST PUSH1 0x40 MLOAD PUSH2 0x3B2 SWAP2 SWAP1 PUSH2 0x3303 JUMP JUMPDEST PUSH1 0x40 MLOAD DUP1 SWAP2 SUB SWAP1 RETURN JUMPDEST CALLVALUE DUP1 ISZERO PUSH2 0x3C6 JUMPI PUSH0 PUSH0 REVERT JUMPDEST POP PUSH2 0x3CF PUSH2 0x1E56 JUMP JUMPDEST PUSH1 0x40 MLOAD PUSH2 0x3DC SWAP2 SWAP1 PUSH2 0x35AC JUMP JUMPDEST PUSH1 0x40 MLOAD DUP1 SWAP2 SUB SWAP1 RETURN JUMPDEST CALLVALUE DUP1 ISZERO PUSH2 0x3F0 JUMPI PUSH0 PUSH0 REVERT JUMPDEST POP PUSH2 0x3F9 PUSH2 0x1E7A JUMP JUMPDEST PUSH1 0x40 MLOAD PUSH2 0x406 SWAP2 SWAP1 PUSH2 0x3303 JUMP JUMPDEST PUSH1 0x40 MLOAD DUP1 SWAP2 SUB SWAP1 RETURN JUMPDEST CALLVALUE DUP1 ISZERO PUSH2 0x41A JUMPI PUSH0 PUSH0 REVERT JUMPDEST POP PUSH2 0x423 PUSH2 0x1E81 JUMP JUMPDEST PUSH1 0x40 MLOAD PUSH2 0x430 SWAP2 SWAP1 PUSH2 0x35DF JUMP JUMPDEST PUSH1 0x40 MLOAD DUP1 SWAP2 SUB SWAP1 RETURN JUMPDEST CALLVALUE DUP1 ISZERO PUSH2 0x444 JUMPI PUSH0 PUSH0 REVERT JUMPDEST POP PUSH2 0x45F PUSH1 0x4 DUP1 CALLDATASIZE SUB DUP2 ADD SWAP1 PUSH2 0x45A SWAP2 SWAP1 PUSH2 0x3357 JUMP JUMPDEST PUSH2 0x1E92 JUMP JUMPDEST PUSH1 0x40 MLOAD PUSH2 0x46C SWAP2 SWAP1 PUSH2 0x3648 JUMP JUMPDEST PUSH1 0x40 MLOAD DUP1 SWAP2 SUB SWAP1 RETURN JUMPDEST CALLVALUE DUP1 ISZERO PUSH2 0x480 JUMPI PUSH0 PUSH0 REVERT JUMPDEST POP PUSH2 0x49B PUSH1 0x4 DUP1 CALLDATASIZE SUB DUP2 ADD SWAP1 PUSH2 0x496 SWAP2 SWAP1 PUSH2 0x3572 JUMP JUMPDEST PUSH2 0x1F38 JUMP JUMPDEST STOP JUMPDEST CALLVALUE DUP1 ISZERO PUSH2 0x4A8 JUMPI PUSH0 PUSH0 REVERT JUMPDEST POP PUSH2 0x4C3 PUSH1 0x4 DUP1 CALLDATASIZE SUB DUP2 ADD SWAP1 PUSH2 0x4BE SWAP2 SWAP1 PUSH2 0x34BE JUMP JUMPDEST PUSH2 0x711 JUMP JUMPDEST PUSH1 0x40 MLOAD PUSH2 0x4D0 SWAP2 SWAP1 PUSH2 0x3303 JUMP JUMPDEST PUSH1 0x40 MLOAD DUP1 SWAP2 SUB SWAP1 RETURN JUMPDEST CALLVALUE DUP1 ISZERO PUSH2 0x4E4 JUMPI PUSH0 PUSH0 REVERT JUMPDEST POP PUSH2 0x4ED PUSH2 0x22AF JUMP JUMPDEST PUSH1 0x40 MLOAD PUSH2 0x4FB SWAP3 SWAP2 SWAP1 PUSH2 0x3822 JUMP JUMPDEST PUSH1 0x40 MLOAD DUP1 SWAP2 SUB SWAP1 RETURN JUMPDEST CALLVALUE DUP1 ISZERO PUSH2 0x50F JUMPI PUSH0 PUSH0 REVERT JUMPDEST POP PUSH2 0x518 PUSH2 0x2788 JUMP JUMPDEST PUSH1 0x40 MLOAD PUSH2 0x525 SWAP2 SWAP1 PUSH2 0x3303 JUMP JUMPDEST PUSH1 0x40 MLOAD DUP1 SWAP2 SUB SWAP1 RETURN JUMPDEST CALLVALUE DUP1 ISZERO PUSH2 0x539 JUMPI PUSH0 PUSH0 REVERT JUMPDEST POP PUSH2 0x554 PUSH1 0x4 DUP1 CALLDATASIZE SUB DUP2 ADD SWAP1 PUSH2 0x54F SWAP2 SWAP1 PUSH2 0x3881 JUMP JUMPDEST PUSH2 0x278E JUMP JUMPDEST STOP JUMPDEST CALLVALUE DUP1 ISZERO PUSH2 0x561 JUMPI PUSH0 PUSH0 REVERT JUMPDEST POP PUSH2 0x57C PUSH1 0x4 DUP1 CALLDATASIZE SUB DUP2 ADD SWAP1 PUSH2 0x577 SWAP2 SWAP1 PUSH2 0x38AC JUMP JUMPDEST PUSH2 0x286E JUMP JUMPDEST PUSH1 0x40 MLOAD PUSH2 0x58C SWAP5 SWAP4 SWAP3 SWAP2 SWAP1 PUSH2 0x3969 JUMP JUMPDEST PUSH1 0x40 MLOAD DUP1 SWAP2 SUB SWAP1 RETURN JUMPDEST CALLVALUE DUP1 ISZERO PUSH2 0x5A0 JUMPI PUSH0 PUSH0 REVERT JUMPDEST POP PUSH2 0x5A9 PUSH2 0x290A JUMP JUMPDEST PUSH1 0x40 MLOAD PUSH2 0x5B6 SWAP2 SWAP1 PUSH2 0x35AC JUMP JUMPDEST PUSH1 0x40 MLOAD DUP1 SWAP2 SUB SWAP1 RETURN JUMPDEST CALLVALUE DUP1 ISZERO PUSH2 0x5CA JUMPI PUSH0 PUSH0 REVERT JUMPDEST POP PUSH2 0x5D3 PUSH2 0x292E JUMP JUMPDEST PUSH1 0x40 MLOAD PUSH2 0x5E4 SWAP6 SWAP5 SWAP4 SWAP3 SWAP2 SWAP1 PUSH2 0x39AC JUMP JUMPDEST PUSH1 0x40 MLOAD DUP1 SWAP2 SUB SWAP1 RETURN JUMPDEST CALLVALUE DUP1 ISZERO PUSH2 0x5F8 JUMPI PUSH0 PUSH0 REVERT JUMPDEST POP PUSH2 0x613 PUSH1 0x4 DUP1 CALLDATASIZE SUB DUP2 ADD SWAP1 PUSH2 0x60E SWAP2 SWAP1 PUSH2 0x3357 JUMP JUMPDEST PUSH2 0x297D JUMP JUMPDEST STOP JUMPDEST CALLVALUE DUP1 ISZERO PUSH2 0x620 JUMPI PUSH0 PUSH0 REVERT JUMPDEST POP PUSH2 0x63B PUSH1 0x4 DUP1 CALLDATASIZE SUB DUP2 ADD SWAP1 PUSH2 0x636 SWAP2 SWAP1 PUSH2 0x3357 JUMP JUMPDEST PUSH2 0x2BF3 JUMP JUMPDEST STOP JUMPDEST CALLVALUE DUP1 ISZERO PUSH2 0x648 JUMPI PUSH0 PUSH0 REVERT JUMPDEST POP PUSH2 0x651 PUSH2 0x2E69 JUMP JUMPDEST PUSH1 0x40 MLOAD PUSH2 0x660 SWAP4 SWAP3 SWAP2 SWAP1 PUSH2 0x3B6B JUMP JUMPDEST PUSH1 0x40 MLOAD DUP1 SWAP2 SUB SWAP1 RETURN JUMPDEST CALLVALUE DUP1 ISZERO PUSH2 0x674 JUMPI PUSH0 PUSH0 REVERT JUMPDEST POP PUSH2 0x67D PUSH2 0x31A6 JUMP JUMPDEST PUSH1 0x40 MLOAD PUSH2 0x68A SWAP2 SWAP1 PUSH2 0x3303 JUMP JUMPDEST PUSH1 0x40 MLOAD DUP1 SWAP2 SUB SWAP1 RETURN JUMPDEST CALLVALUE DUP1 ISZERO PUSH2 0x69E JUMPI PUSH0 PUSH0 REVERT JUMPDEST POP PUSH2 0x6A7 PUSH2 0x31AC JUMP JUMPDEST PUSH1 0x40 MLOAD PUSH2 0x6B4 SWAP2 SWAP1 PUSH2 0x3303 JUMP JUMPDEST PUSH1 0x40 MLOAD DUP1 SWAP2 SUB SWAP1 RETURN JUMPDEST CALLVALUE DUP1 ISZERO PUSH2 0x6C8 JUMPI PUSH0 PUSH0 REVERT JUMPDEST POP PUSH2 0x6D1 PUSH2 0x31BB JUMP JUMPDEST PUSH1 0x40 MLOAD PUSH2 0x6DE SWAP2 SWAP1 PUSH2 0x3303 JUMP JUMPDEST PUSH1 0x40 MLOAD DUP1 SWAP2 SUB SWAP1 RETURN JUMPDEST CALLVALUE DUP1 ISZERO PUSH2 0x6F2 JUMPI PUSH0 PUSH0 REVERT JUMPDEST POP PUSH2 0x6FB PUSH2 0x31C2 JUMP JUMPDEST PUSH1 0x40 MLOAD PUSH2 0x708 SWAP2 SWAP1 PUSH2 0x3303 JUMP JUMPDEST PUSH1 0x40 MLOAD DUP1 SWAP2 SUB SWAP1 RETURN JUMPDEST PUSH0 PUSH0 PUSH1 0x3 DUP5 PUSH1 0x40 MLOAD PUSH2 0x723 SWAP2 SWAP1 PUSH2 0x3BEF JUMP JUMPDEST SWAP1 DUP2 MSTORE PUSH1 0x20 ADD PUSH1 0x40 MLOAD DUP1 SWAP2 SUB SWAP1 KECCAK256 PUSH1 0x40 MLOAD DUP1 PUSH1 0x80 ADD PUSH1 0x40 MSTORE SWAP1 DUP2 PUSH0 DUP3 ADD PUSH0 SWAP1 SLOAD SWAP1 PUSH2 0x100 EXP SWAP1 DIV PUSH20 0xFFFFFFFFFFFFFFFFFFFFFFFFFFFFFFFFFFFFFFFF AND PUSH20 0xFFFFFFFFFFFFFFFFFFFFFFFFFFFFFFFFFFFFFFFF AND PUSH20 0xFFFFFFFFFFFFFFFFFFFFFFFFFFFFFFFFFFFFFFFF AND DUP2 MSTORE PUSH1 0x20 ADD PUSH1 0x1 DUP3 ADD PUSH0 SWAP1 SLOAD SWAP1 PUSH2 0x100 EXP SWAP1 DIV PUSH20 0xFFFFFFFFFFFFFFFFFFFFFFFFFFFFFFFFFFFFFFFF AND PUSH20 0xFFFFFFFFFFFFFFFFFFFFFFFFFFFFFFFFFFFFFFFF AND PUSH20 0xFFFFFFFFFFFFFFFFFFFFFFFFFFFFFFFFFFFFFFFF AND DUP2 MSTORE PUSH1 0x20 ADD PUSH1 0x1 DUP3 ADD PUSH1 0x14 SWAP1 SLOAD SWAP1 PUSH2 0x100 EXP SWAP1 DIV PUSH1 0xFF AND PUSH1 0xFF AND PUSH1 0xFF AND DUP2 MSTORE PUSH1 0x20 ADD PUSH1 0x1 DUP3 ADD PUSH1 0x15 SWAP1 SLOAD SWAP1 PUSH2 0x100 EXP SWAP1 DIV PUSH1 0xFF AND ISZERO ISZERO ISZERO ISZERO DUP2 MSTORE POP POP SWAP1 POP DUP1 PUSH1 0x60 ADD MLOAD PUSH2 0x863 JUMPI PUSH1 0x40 MLOAD PUSH32 0x8C379A000000000000000000000000000000000000000000000000000000000 DUP2 MSTORE PUSH1 0x4 ADD PUSH2 0x85A SWAP1 PUSH2 0x3C4F JUMP JUMPDEST PUSH1 0x40 MLOAD DUP1 SWAP2 SUB SWAP1 REVERT JUMPDEST PUSH0 PUSH1 0x40 MLOAD DUP1 PUSH1 0x40 ADD PUSH1 0x40 MSTORE DUP1 PUSH1 0x4 DUP2 MSTORE PUSH1 0x20 ADD PUSH32 0x5553445400000000000000000000000000000000000000000000000000000000 DUP2 MSTORE POP DUP1 MLOAD SWAP1 PUSH1 0x20 ADD KECCAK256 DUP6 DUP1 MLOAD SWAP1 PUSH1 0x20 ADD KECCAK256 EQ DUP1 PUSH2 0x8F7 JUMPI POP PUSH1 0x40 MLOAD DUP1 PUSH1 0x40 ADD PUSH1 0x40 MSTORE DUP1 PUSH1 0x4 DUP2 MSTORE PUSH1 0x20 ADD PUSH32 0x5553444300000000000000000000000000000000000000000000000000000000 DUP2 MSTORE POP DUP1 MLOAD SWAP1 PUSH1 0x20 ADD KECCAK256 DUP6 DUP1 MLOAD SWAP1 PUSH1 0x20 ADD KECCAK256 EQ JUMPDEST ISZERO PUSH2 0x904 JUMPI DUP4 SWAP1 POP PUSH2 0xA78 JUMP JUMPDEST PUSH0 PUSH20 0xFFFFFFFFFFFFFFFFFFFFFFFFFFFFFFFFFFFFFFFF AND DUP3 PUSH1 0x20 ADD MLOAD PUSH20 0xFFFFFFFFFFFFFFFFFFFFFFFFFFFFFFFFFFFFFFFF AND SUB PUSH2 0x976 JUMPI PUSH1 0x40 MLOAD PUSH32 0x8C379A000000000000000000000000000000000000000000000000000000000 DUP2 MSTORE PUSH1 0x4 ADD PUSH2 0x96D SWAP1 PUSH2 0x3CB7 JUMP JUMPDEST PUSH1 0x40 MLOAD DUP1 SWAP2 SUB SWAP1 REVERT JUMPDEST PUSH0 DUP3 PUSH1 0x20 ADD MLOAD PUSH20 0xFFFFFFFFFFFFFFFFFFFFFFFFFFFFFFFFFFFFFFFF AND PUSH4 0xFEAF968C PUSH1 0x40 MLOAD DUP2 PUSH4 0xFFFFFFFF AND PUSH1 0xE0 SHL DUP2 MSTORE PUSH1 0x4 ADD PUSH1 0xA0 PUSH1 0x40 MLOAD DUP1 DUP4 SUB DUP2 DUP7 GAS STATICCALL ISZERO DUP1 ISZERO PUSH2 0x9C4 JUMPI RETURNDATASIZE PUSH0 PUSH0 RETURNDATACOPY RETURNDATASIZE PUSH0 REVERT JUMPDEST POP POP POP POP PUSH1 0x40 MLOAD RETURNDATASIZE PUSH1 0x1F NOT PUSH1 0x1F DUP3 ADD AND DUP3 ADD DUP1 PUSH1 0x40 MSTORE POP DUP2 ADD SWAP1 PUSH2 0x9E8 SWAP2 SWAP1 PUSH2 0x3D5B JUMP JUMPDEST POP POP POP SWAP2 POP POP PUSH0 DUP2 SGT PUSH2 0xA30 JUMPI PUSH1 0x40 MLOAD PUSH32 0x8C379A000000000000000000000000000000000000000000000000000000000 DUP2 MSTORE PUSH1 0x4 ADD PUSH2 0xA27 SWAP1 PUSH2 0x3E1C JUMP JUMPDEST PUSH1 0x40 MLOAD DUP1 SWAP2 SUB SWAP1 REVERT JUMPDEST DUP3 PUSH1 0x40 ADD MLOAD PUSH1 0xA PUSH2 0xA41 SWAP2 SWAP1 PUSH2 0x3F96 JUMP JUMPDEST PUSH4 0x5F5E100 PUSH2 0xA50 SWAP2 SWAP1 PUSH2 0x3FE0 JUMP JUMPDEST PUSH3 0xF4240 DUP3 DUP8 PUSH2 0xA60 SWAP2 SWAP1 PUSH2 0x3FE0 JUMP JUMPDEST PUSH2 0xA6A SWAP2 SWAP1 PUSH2 0x3FE0 JUMP JUMPDEST PUSH2 0xA74 SWAP2 SWAP1 PUSH2 0x404E JUMP JUMPDEST SWAP2 POP POP JUMPDEST PUSH3 0x989680 PUSH8 0xDE0B6B3A7640000 DUP3 PUSH2 0xA90 SWAP2 SWAP1 PUSH2 0x3FE0 JUMP JUMPDEST PUSH2 0xA9A SWAP2 SWAP1 PUSH2 0x404E JUMP JUMPDEST SWAP3 POP POP POP SWAP3 SWAP2 POP POP JUMP JUMPDEST DUP1 PUSH0 DUP2 GT PUSH2 0xAE7 JUMPI PUSH1 0x40 MLOAD PUSH32 0x8C379A000000000000000000000000000000000000000000000000000000000 DUP2 MSTORE PUSH1 0x4 ADD PUSH2 0xADE SWAP1 PUSH2 0x40C8 JUMP JUMPDEST PUSH1 0x40 MLOAD DUP1 SWAP2 SUB SWAP1 REVERT JUMPDEST PUSH11 0x108B2A2C28029094000000 DUP2 PUSH1 0x1 SLOAD PUSH2 0xB01 SWAP2 SWAP1 PUSH2 0x40E6 JUMP JUMPDEST GT ISZERO PUSH2 0xB42 JUMPI PUSH1 0x40 MLOAD PUSH32 0x8C379A000000000000000000000000000000000000000000000000000000000 DUP2 MSTORE PUSH1 0x4 ADD PUSH2 0xB39 SWAP1 PUSH2 0x4163 JUMP JUMPDEST PUSH1 0x40 MLOAD DUP1 SWAP2 SUB SWAP1 REVERT JUMPDEST PUSH3 0x989680 PUSH8 0xDE0B6B3A7640000 PUSH3 0x989680 DUP4 PUSH2 0xB5E SWAP2 SWAP1 PUSH2 0x3FE0 JUMP JUMPDEST PUSH2 0xB68 SWAP2 SWAP1 PUSH2 0x404E JUMP JUMPDEST LT ISZERO PUSH2 0xBA9 JUMPI PUSH1 0x40 MLOAD PUSH32 0x8C379A000000000000000000000000000000000000000000000000000000000 DUP2 MSTORE PUSH1 0x4 ADD PUSH2 0xBA0 SWAP1 PUSH2 0x41CB JUMP JUMPDEST PUSH1 0x40 MLOAD DUP1 SWAP2 SUB SWAP1 REVERT JUMPDEST PUSH0 PUSH8 0xDE0B6B3A7640000 PUSH3 0x989680 DUP5 PUSH2 0xBC2 SWAP2 SWAP1 PUSH2 0x3FE0 JUMP JUMPDEST PUSH2 0xBCC SWAP2 SWAP1 PUSH2 0x404E JUMP JUMPDEST SWAP1 POP DUP3 PUSH1 0x1 PUSH0 DUP3 DUP3 SLOAD PUSH2 0xBDF SWAP2 SWAP1 PUSH2 0x40E6 JUMP JUMPDEST SWAP3 POP POP DUP2 SWAP1 SSTORE POP DUP1 PUSH1 0x2 PUSH0 DUP3 DUP3 SLOAD PUSH2 0xBF7 SWAP2 SWAP1 PUSH2 0x40E6 JUMP JUMPDEST SWAP3 POP POP DUP2 SWAP1 SSTORE POP PUSH0 PUSH32 0x0 SWAP1 POP DUP1 PUSH20 0xFFFFFFFFFFFFFFFFFFFFFFFFFFFFFFFFFFFFFFFF AND PUSH4 0x23B872DD PUSH32 0x0 DUP10 DUP8 PUSH1 0x40 MLOAD DUP5 PUSH4 0xFFFFFFFF AND PUSH1 0xE0 SHL DUP2 MSTORE PUSH1 0x4 ADD PUSH2 0xC7F SWAP4 SWAP3 SWAP2 SWAP1 PUSH2 0x41E9 JUMP JUMPDEST PUSH1 0x20 PUSH1 0x40 MLOAD DUP1 DUP4 SUB DUP2 PUSH0 DUP8 GAS CALL ISZERO DUP1 ISZERO PUSH2 0xC9B JUMPI RETURNDATASIZE PUSH0 PUSH0 RETURNDATACOPY RETURNDATASIZE PUSH0 REVERT JUMPDEST POP POP POP POP PUSH1 0x40 MLOAD RETURNDATASIZE PUSH1 0x1F NOT PUSH1 0x1F DUP3 ADD AND DUP3 ADD DUP1 PUSH1 0x40 MSTORE POP DUP2 ADD SWAP1 PUSH2 0xCBF SWAP2 SWAP1 PUSH2 0x4232 JUMP JUMPDEST PUSH2 0xCFE JUMPI PUSH1 0x40 MLOAD PUSH32 0x8C379A000000000000000000000000000000000000000000000000000000000 DUP2 MSTORE PUSH1 0x4 ADD PUSH2 0xCF5 SWAP1 PUSH2 0x42A7 JUMP JUMPDEST PUSH1 0x40 MLOAD DUP1 SWAP2 SUB SWAP1 REVERT JUMPDEST DUP7 PUSH20 0xFFFFFFFFFFFFFFFFFFFFFFFFFFFFFFFFFFFFFFFF AND PUSH32 0x45EBA9171C088AFEC730E2FDC64E7014502E57ADB5178ADB892ADAED39163857 DUP8 DUP8 DUP8 DUP7 PUSH1 0x40 MLOAD PUSH2 0xD4A SWAP5 SWAP4 SWAP3 SWAP2 SWAP1 PUSH2 0x42C5 JUMP JUMPDEST PUSH1 0x40 MLOAD DUP1 SWAP2 SUB SWAP1 LOG2 POP POP POP POP POP POP POP JUMP JUMPDEST PUSH0 PUSH0 SWAP1 SLOAD SWAP1 PUSH2 0x100 EXP SWAP1 DIV PUSH1 0xFF AND PUSH2 0xDA8 JUMPI PUSH1 0x40 MLOAD PUSH32 0x8C379A000000000000000000000000000000000000000000000000000000000 DUP2 MSTORE PUSH1 0x4 ADD PUSH2 0xD9F SWAP1 PUSH2 0x4359 JUMP JUMPDEST PUSH1 0x40 MLOAD DUP1 SWAP2 SUB SWAP1 REVERT JUMPDEST PUSH0 CALLVALUE GT PUSH2 0xDEA JUMPI PUSH1 0x40 MLOAD PUSH32 0x8C379A000000000000000000000000000000000000000000000000000000000 DUP2 MSTORE PUSH1 0x4 ADD PUSH2 0xDE1 SWAP1 PUSH2 0x43C1 JUMP JUMPDEST PUSH1 0x40 MLOAD DUP1 SWAP2 SUB SWAP1 REVERT JUMPDEST PUSH0 PUSH2 0xE2A PUSH1 0x40 MLOAD DUP1 PUSH1 0x40 ADD PUSH1 0x40 MSTORE DUP1 PUSH1 0x3 DUP2 MSTORE PUSH1 0x20 ADD PUSH32 0x4554480000000000000000000000000000000000000000000000000000000000 DUP2 MSTORE POP CALLVALUE PUSH2 0x711 JUMP JUMPDEST SWAP1 POP PUSH0 DUP2 GT PUSH2 0xE6E JUMPI PUSH1 0x40 MLOAD PUSH32 0x8C379A000000000000000000000000000000000000000000000000000000000 DUP2 MSTORE PUSH1 0x4 ADD PUSH2 0xE65 SWAP1 PUSH2 0x3224 JUMP JUMPDEST PUSH1 0x40 MLOAD DUP1 SWAP2 SUB SWAP1 REVERT JUMPDEST PUSH2 0xEAF CALLER PUSH1 0x40 MLOAD DUP1 PUSH1 0x40 ADD PUSH1 0x40 MSTORE DUP1 PUSH1 0x3 DUP2 MSTORE PUSH1 0x20 ADD PUSH32 0x4554480000000000000000000000000000000000000000000000000000000000 DUP2 MSTORE POP CALLVALUE DUP5 PUSH2 0xAA4 JUMP JUMPDEST PUSH0 PUSH32 0x0 PUSH20 0xFFFFFFFFFFFFFFFFFFFFFFFFFFFFFFFFFFFFFFFF AND CALLVALUE PUSH1 0x40 MLOAD PUSH2 0xEF4 SWAP1 PUSH2 0x326F JUMP JUMPDEST PUSH0 PUSH1 0x40 MLOAD DUP1 DUP4 SUB DUP2 DUP6 DUP8 GAS CALL SWAP3 POP POP POP RETURNDATASIZE DUP1 PUSH0 DUP2 EQ PUSH2 0xF2E JUMPI PUSH1 0x40 MLOAD SWAP2 POP PUSH1 0x1F NOT PUSH1 0x3F RETURNDATASIZE ADD AND DUP3 ADD PUSH1 0x40 MSTORE RETURNDATASIZE DUP3 MSTORE RETURNDATASIZE PUSH0 PUSH1 0x20 DUP5 ADD RETURNDATACOPY PUSH2 0xF33 JUMP JUMPDEST PUSH1 0x60 SWAP2 POP JUMPDEST POP POP SWAP1 POP DUP1 PUSH2 0xF77 JUMPI PUSH1 0x40 MLOAD PUSH32 0x8C379A000000000000000000000000000000000000000000000000000000000 DUP2 MSTORE PUSH1 0x4 ADD PUSH2 0xF6E SWAP1 PUSH2 0x32CD JUMP JUMPDEST PUSH1 0x40 MLOAD DUP1 SWAP2 SUB SWAP1 REVERT JUMPDEST POP POP JUMP JUMPDEST PUSH3 0x989680 DUP2 JUMP JUMPDEST PUSH0 PUSH0 SWAP1 SLOAD SWAP1 PUSH2 0x100 EXP SWAP1 DIV PUSH1 0xFF AND PUSH2 0xFCF JUMPI PUSH1 0x40 MLOAD PUSH32 0x8C379A000000000000000000000000000000000000000000000000000000000 DUP2 MSTORE PUSH1 0x4 ADD PUSH2 0xFC6 SWAP1 PUSH2 0x4359 JUMP JUMPDEST PUSH1 0x40 MLOAD DUP1 SWAP2 SUB SWAP1 REVERT JUMPDEST PUSH0 DUP2 GT PUSH2 0x1011 JUMPI PUSH1 0x40 MLOAD PUSH32 0x8C379A000000000000000000000000000000000000000000000000000000000 DUP2 MSTORE PUSH1 0x4 ADD PUSH2 0x1008 SWAP1 PUSH2 0x4429 JUMP JUMPDEST PUSH1 0x40 MLOAD DUP1 SWAP2 SUB SWAP1 REVERT JUMPDEST PUSH0 PUSH2 0x1051 PUSH1 0x40 MLOAD DUP1 PUSH1 0x40 ADD PUSH1 0x40 MSTORE DUP1 PUSH1 0x4 DUP2 MSTORE PUSH1 0x20 ADD PUSH32 0x5742544300000000000000000000000000000000000000000000000000000000 DUP2 MSTORE POP DUP4 PUSH2 0x711 JUMP JUMPDEST SWAP1 POP PUSH0 DUP2 GT PUSH2 0x1095 JUMPI PUSH1 0x40 MLOAD PUSH32 0x8C379A000000000000000000000000000000000000000000000000000000000 DUP2 MSTORE PUSH1 0x4 ADD PUSH2 0x108C SWAP1 PUSH2 0x3224 JUMP JUMPDEST PUSH1 0x40 MLOAD DUP1 SWAP2 SUB SWAP1 REVERT JUMPDEST PUSH2 0x10D6 CALLER PUSH1 0x40 MLOAD DUP1 PUSH1 0x40 ADD PUSH1 0x40 MSTORE DUP1 PUSH1 0x4 DUP2 MSTORE PUSH1 0x20 ADD PUSH32 0x5742544300000000000000000000000000000000000000000000000000000000 DUP2 MSTORE POP DUP5 DUP5 PUSH2 0xAA4 JUMP JUMPDEST PUSH0 PUSH1 0x3 PUSH1 0x40 MLOAD PUSH2 0x10E5 SWAP1 PUSH2 0x4491 JUMP JUMPDEST SWAP1 DUP2 MSTORE PUSH1 0x20 ADD PUSH1 0x40 MLOAD DUP1 SWAP2 SUB SWAP1 KECCAK256 PUSH0 ADD PUSH0 SWAP1 SLOAD SWAP1 PUSH2 0x100 EXP SWAP1 DIV PUSH20 0xFFFFFFFFFFFFFFFFFFFFFFFFFFFFFFFFFFFFFFFF AND SWAP1 POP DUP1 PUSH20 0xFFFFFFFFFFFFFFFFFFFFFFFFFFFFFFFFFFFFFFFF AND PUSH4 0x23B872DD CALLER PUSH32 0x0 DUP7 PUSH1 0x40 MLOAD DUP5 PUSH4 0xFFFFFFFF AND PUSH1 0xE0 SHL DUP2 MSTORE PUSH1 0x4 ADD PUSH2 0x1174 SWAP4 SWAP3 SWAP2 SWAP1 PUSH2 0x41E9 JUMP JUMPDEST PUSH1 0x20 PUSH1 0x40 MLOAD DUP1 DUP4 SUB DUP2 PUSH0 DUP8 GAS CALL ISZERO DUP1 ISZERO PUSH2 0x1190 JUMPI RETURNDATASIZE PUSH0 PUSH0 RETURNDATACOPY RETURNDATASIZE PUSH0 REVERT JUMPDEST POP POP POP POP PUSH1 0x40 MLOAD RETURNDATASIZE PUSH1 0x1F NOT PUSH1 0x1F DUP3 ADD AND DUP3 ADD DUP1 PUSH1 0x40 MSTORE POP DUP2 ADD SWAP1 PUSH2 0x11B4 SWAP2 SWAP1 PUSH2 0x4232 JUMP JUMPDEST PUSH2 0x11F3 JUMPI PUSH1 0x40 MLOAD PUSH32 0x8C379A000000000000000000000000000000000000000000000000000000000 DUP2 MSTORE PUSH1 0x4 ADD PUSH2 0x11EA SWAP1 PUSH2 0x44EF JUMP JUMPDEST PUSH1 0x40 MLOAD DUP1 SWAP2 SUB SWAP1 REVERT JUMPDEST POP POP POP JUMP JUMPDEST PUSH0 PUSH0 SWAP1 SLOAD SWAP1 PUSH2 0x100 EXP SWAP1 DIV PUSH1 0xFF AND PUSH2 0x1245 JUMPI PUSH1 0x40 MLOAD PUSH32 0x8C379A000000000000000000000000000000000000000000000000000000000 DUP2 MSTORE PUSH1 0x4 ADD PUSH2 0x123C SWAP1 PUSH2 0x4359 JUMP JUMPDEST PUSH1 0x40 MLOAD DUP1 SWAP2 SUB SWAP1 REVERT JUMPDEST PUSH0 PUSH1 0x3 DUP4 PUSH1 0x40 MLOAD PUSH2 0x1256 SWAP2 SWAP1 PUSH2 0x3BEF JUMP JUMPDEST SWAP1 DUP2 MSTORE PUSH1 0x20 ADD PUSH1 0x40 MLOAD DUP1 SWAP2 SUB SWAP1 KECCAK256 PUSH1 0x40 MLOAD DUP1 PUSH1 0x80 ADD PUSH1 0x40 MSTORE SWAP1 DUP2 PUSH0 DUP3 ADD PUSH0 SWAP1 SLOAD SWAP1 PUSH2 0x100 EXP SWAP1 DIV PUSH20 0xFFFFFFFFFFFFFFFFFFFFFFFFFFFFFFFFFFFFFFFF AND PUSH20 0xFFFFFFFFFFFFFFFFFFFFFFFFFFFFFFFFFFFFFFFF AND PUSH20 0xFFFFFFFFFFFFFFFFFFFFFFFFFFFFFFFFFFFFFFFF AND DUP2 MSTORE PUSH1 0x20 ADD PUSH1 0x1 DUP3 ADD PUSH0 SWAP1 SLOAD SWAP1 PUSH2 0x100 EXP SWAP1 DIV PUSH20 0xFFFFFFFFFFFFFFFFFFFFFFFFFFFFFFFFFFFFFFFF AND PUSH20 0xFFFFFFFFFFFFFFFFFFFFFFFFFFFFFFFFFFFFFFFF AND PUSH20 0xFFFFFFFFFFFFFFFFFFFFFFFFFFFFFFFFFFFFFFFF AND DUP2 MSTORE PUSH1 0x20 ADD PUSH1 0x1 DUP3 ADD PUSH1 0x14 SWAP1 SLOAD SWAP1 PUSH2 0x100 EXP SWAP1 DIV PUSH1 0xFF AND PUSH1 0xFF AND PUSH1 0xFF AND DUP2 MSTORE PUSH1 0x20 ADD PUSH1 0x1 DUP3 ADD PUSH1 0x15 SWAP1 SLOAD SWAP1 PUSH2 0x100 EXP SWAP1 DIV PUSH1 0xFF AND ISZERO ISZERO ISZERO ISZERO DUP2 MSTORE POP POP SWAP1 POP DUP1 PUSH1 0x60 ADD MLOAD PUSH2 0x1396 JUMPI PUSH1 0x40 MLOAD PUSH32 0x8C379A000000000000000000000000000000000000000000000000000000000 DUP2 MSTORE PUSH1 0x4 ADD PUSH2 0x138D SWAP1 PUSH2 0x3C4F JUMP JUMPDEST PUSH1 0x40 MLOAD DUP1 SWAP2 SUB SWAP1 REVERT JUMPDEST PUSH1 0x40 MLOAD DUP1 PUSH1 0x40 ADD PUSH1 0x40 MSTORE DUP1 PUSH1 0x3 DUP2 MSTORE PUSH1 0x20 ADD PUSH32 0x4554480000000000000000000000000000000000000000000000000000000000 DUP2 MSTORE POP DUP1 MLOAD SWAP1 PUSH1 0x20 ADD KECCAK256 DUP4 DUP1 MLOAD SWAP1 PUSH1 0x20 ADD KECCAK256 SUB PUSH2 0x15F8 JUMPI DUP2 CALLVALUE EQ PUSH2 0x1422 JUMPI PUSH1 0x40 MLOAD PUSH32 0x8C379A000000000000000000000000000000000000000000000000000000000 DUP2 MSTORE PUSH1 0x4 ADD PUSH2 0x1419 SWAP1 PUSH2 0x4557 JUMP JUMPDEST PUSH1 0x40 MLOAD DUP1 SWAP2 SUB SWAP1 REVERT JUMPDEST PUSH0 CALLVALUE GT PUSH2 0x1464 JUMPI PUSH1 0x40 MLOAD PUSH32 0x8C379A000000000000000000000000000000000000000000000000000000000 DUP2 MSTORE PUSH1 0x4 ADD PUSH2 0x145B SWAP1 PUSH2 0x43C1 JUMP JUMPDEST PUSH1 0x40 MLOAD DUP1 SWAP2 SUB SWAP1 REVERT JUMPDEST PUSH0 PUSH2 0x14A4 PUSH1 0x40 MLOAD DUP1 PUSH1 0x40 ADD PUSH1 0x40 MSTORE DUP1 PUSH1 0x3 DUP2 MSTORE PUSH1 0x20 ADD PUSH32 0x4554480000000000000000000000000000000000000000000000000000000000 DUP2 MSTORE POP CALLVALUE PUSH2 0x711 JUMP JUMPDEST SWAP1 POP PUSH0 DUP2 GT PUSH2 0x14E8 JUMPI PUSH1 0x40 MLOAD PUSH32 0x8C379A000000000000000000000000000000000000000000000000000000000 DUP2 MSTORE PUSH1 0x4 ADD PUSH2 0x14DF SWAP1 PUSH2 0x3224 JUMP JUMPDEST PUSH1 0x40 MLOAD DUP1 SWAP2 SUB SWAP1 REVERT JUMPDEST PUSH2 0x1529 CALLER PUSH1 0x40 MLOAD DUP1 PUSH1 0x40 ADD PUSH1 0x40 MSTORE DUP1 PUSH1 0x3 DUP2 MSTORE PUSH1 0x20 ADD PUSH32 0x4554480000000000000000000000000000000000000000000000000000000000 DUP2 MSTORE POP CALLVALUE DUP5 PUSH2 0xAA4 JUMP JUMPDEST PUSH0 PUSH32 0x0 PUSH20 0xFFFFFFFFFFFFFFFFFFFFFFFFFFFFFFFFFFFFFFFF AND CALLVALUE PUSH1 0x40 MLOAD PUSH2 0x156E SWAP1 PUSH2 0x326F JUMP JUMPDEST PUSH0 PUSH1 0x40 MLOAD DUP1 DUP4 SUB DUP2 DUP6 DUP8 GAS CALL SWAP3 POP POP POP RETURNDATASIZE DUP1 PUSH0 DUP2 EQ PUSH2 0x15A8 JUMPI PUSH1 0x40 MLOAD SWAP2 POP PUSH1 0x1F NOT PUSH1 0x3F RETURNDATASIZE ADD AND DUP3 ADD PUSH1 0x40 MSTORE RETURNDATASIZE DUP3 MSTORE RETURNDATASIZE PUSH0 PUSH1 0x20 DUP5 ADD RETURNDATACOPY PUSH2 0x15AD JUMP JUMPDEST PUSH1 0x60 SWAP2 POP JUMPDEST POP POP SWAP1 POP DUP1 PUSH2 0x15F1 JUMPI PUSH1 0x40 MLOAD PUSH32 0x8C379A000000000000000000000000000000000000000000000000000000000 DUP2 MSTORE PUSH1 0x4 ADD PUSH2 0x15E8 SWAP1 PUSH2 0x32CD JUMP JUMPDEST PUSH1 0x40 MLOAD DUP1 SWAP2 SUB SWAP1 REVERT JUMPDEST POP POP PUSH2 0x1D95 JUMP JUMPDEST PUSH1 0x40 MLOAD DUP1 PUSH1 0x40 ADD PUSH1 0x40 MSTORE DUP1 PUSH1 0x4 DUP2 MSTORE PUSH1 0x20 ADD PUSH32 0x5553445400000000000000000000000000000000000000000000000000000000 DUP2 MSTORE POP DUP1 MLOAD SWAP1 PUSH1 0x20 ADD KECCAK256 DUP4 DUP1 MLOAD SWAP1 PUSH1 0x20 ADD KECCAK256 SUB PUSH2 0x186D JUMPI PUSH0 DUP3 GT PUSH2 0x1684 JUMPI PUSH1 0x40 MLOAD PUSH32 0x8C379A000000000000000000000000000000000000000000000000000000000 DUP2 MSTORE PUSH1 0x4 ADD PUSH2 0x167B SWAP1 PUSH2 0x45BF JUMP JUMPDEST PUSH1 0x40 MLOAD DUP1 SWAP2 SUB SWAP1 REVERT JUMPDEST PUSH0 PUSH2 0x16C4 PUSH1 0x40 MLOAD DUP1 PUSH1 0x40 ADD PUSH1 0x40 MSTORE DUP1 PUSH1 0x4 DUP2 MSTORE PUSH1 0x20 ADD PUSH32 0x5553445400000000000000000000000000000000000000000000000000000000 DUP2 MSTORE POP DUP5 PUSH2 0x711 JUMP JUMPDEST SWAP1 POP PUSH0 DUP2 GT PUSH2 0x1708 JUMPI PUSH1 0x40 MLOAD PUSH32 0x8C379A000000000000000000000000000000000000000000000000000000000 DUP2 MSTORE PUSH1 0x4 ADD PUSH2 0x16FF SWAP1 PUSH2 0x3224 JUMP JUMPDEST PUSH1 0x40 MLOAD DUP1 SWAP2 SUB SWAP1 REVERT JUMPDEST PUSH2 0x1749 CALLER PUSH1 0x40 MLOAD DUP1 PUSH1 0x40 ADD PUSH1 0x40 MSTORE DUP1 PUSH1 0x4 DUP2 MSTORE PUSH1 0x20 ADD PUSH32 0x5553445400000000000000000000000000000000000000000000000000000000 DUP2 MSTORE POP DUP6 DUP5 PUSH2 0xAA4 JUMP JUMPDEST PUSH0 PUSH1 0x3 PUSH1 0x40 MLOAD PUSH2 0x1758 SWAP1 PUSH2 0x4627 JUMP JUMPDEST SWAP1 DUP2 MSTORE PUSH1 0x20 ADD PUSH1 0x40 MLOAD DUP1 SWAP2 SUB SWAP1 KECCAK256 PUSH0 ADD PUSH0 SWAP1 SLOAD SWAP1 PUSH2 0x100 EXP SWAP1 DIV PUSH20 0xFFFFFFFFFFFFFFFFFFFFFFFFFFFFFFFFFFFFFFFF AND SWAP1 POP DUP1 PUSH20 0xFFFFFFFFFFFFFFFFFFFFFFFFFFFFFFFFFFFFFFFF AND PUSH4 0x23B872DD CALLER PUSH32 0x0 DUP8 PUSH1 0x40 MLOAD DUP5 PUSH4 0xFFFFFFFF AND PUSH1 0xE0 SHL DUP2 MSTORE PUSH1 0x4 ADD PUSH2 0x17E7 SWAP4 SWAP3 SWAP2 SWAP1 PUSH2 0x41E9 JUMP JUMPDEST PUSH1 0x20 PUSH1 0x40 MLOAD DUP1 DUP4 SUB DUP2 PUSH0 DUP8 GAS CALL ISZERO DUP1 ISZERO PUSH2 0x1803 JUMPI RETURNDATASIZE PUSH0 PUSH0 RETURNDATACOPY RETURNDATASIZE PUSH0 REVERT JUMPDEST POP POP POP POP PUSH1 0x40 MLOAD RETURNDATASIZE PUSH1 0x1F NOT PUSH1 0x1F DUP3 ADD AND DUP3 ADD DUP1 PUSH1 0x40 MSTORE POP DUP2 ADD SWAP1 PUSH2 0x1827 SWAP2 SWAP1 PUSH2 0x4232 JUMP JUMPDEST PUSH2 0x1866 JUMPI PUSH1 0x40 MLOAD PUSH32 0x8C379A000000000000000000000000000000000000000000000000000000000 DUP2 MSTORE PUSH1 0x4 ADD PUSH2 0x185D SWAP1 PUSH2 0x4685 JUMP JUMPDEST PUSH1 0x40 MLOAD DUP1 SWAP2 SUB SWAP1 REVERT JUMPDEST POP POP PUSH2 0x1D94 JUMP JUMPDEST PUSH1 0x40 MLOAD DUP1 PUSH1 0x40 ADD PUSH1 0x40 MSTORE DUP1 PUSH1 0x4 DUP2 MSTORE PUSH1 0x20 ADD PUSH32 0x5553444300000000000000000000000000000000000000000000000000000000 DUP2 MSTORE POP DUP1 MLOAD SWAP1 PUSH1 0x20 ADD KECCAK256 DUP4 DUP1 MLOAD SWAP1 PUSH1 0x20 ADD KECCAK256 SUB PUSH2 0x1AE2 JUMPI PUSH0 DUP3 GT PUSH2 0x18F9 JUMPI PUSH1 0x40 MLOAD PUSH32 0x8C379A000000000000000000000000000000000000000000000000000000000 DUP2 MSTORE PUSH1 0x4 ADD PUSH2 0x18F0 SWAP1 PUSH2 0x46ED JUMP JUMPDEST PUSH1 0x40 MLOAD DUP1 SWAP2 SUB SWAP1 REVERT JUMPDEST PUSH0 PUSH2 0x1939 PUSH1 0x40 MLOAD DUP1 PUSH1 0x40 ADD PUSH1 0x40 MSTORE DUP1 PUSH1 0x4 DUP2 MSTORE PUSH1 0x20 ADD PUSH32 0x5553444300000000000000000000000000000000000000000000000000000000 DUP2 MSTORE POP DUP5 PUSH2 0x711 JUMP JUMPDEST SWAP1 POP PUSH0 DUP2 GT PUSH2 0x197D JUMPI PUSH1 0x40 MLOAD PUSH32 0x8C379A000000000000000000000000000000000000000000000000000000000 DUP2 MSTORE PUSH1 0x4 ADD PUSH2 0x1974 SWAP1 PUSH2 0x3224 JUMP JUMPDEST PUSH1 0x40 MLOAD DUP1 SWAP2 SUB SWAP1 REVERT JUMPDEST PUSH2 0x19BE CALLER PUSH1 0x40 MLOAD DUP1 PUSH1 0x40 ADD PUSH1 0x40 MSTORE DUP1 PUSH1 0x4 DUP2 MSTORE PUSH1 0x20 ADD PUSH32 0x5553444300000000000000000000000000000000000000000000000000000000 DUP2 MSTORE POP DUP6 DUP5 PUSH2 0xAA4 JUMP JUMPDEST PUSH0 PUSH1 0x3 PUSH1 0x40 MLOAD PUSH2 0x19CD SWAP1 PUSH2 0x4755 JUMP JUMPDEST SWAP1 DUP2 MSTORE PUSH1 0x20 ADD PUSH1 0x40 MLOAD DUP1 SWAP2 SUB SWAP1 KECCAK256 PUSH0 ADD PUSH0 SWAP1 SLOAD SWAP1 PUSH2 0x100 EXP SWAP1 DIV PUSH20 0xFFFFFFFFFFFFFFFFFFFFFFFFFFFFFFFFFFFFFFFF AND SWAP1 POP DUP1 PUSH20 0xFFFFFFFFFFFFFFFFFFFFFFFFFFFFFFFFFFFFFFFF AND PUSH4 0x23B872DD CALLER PUSH32 0x0 DUP8 PUSH1 0x40 MLOAD DUP5 PUSH4 0xFFFFFFFF AND PUSH1 0xE0 SHL DUP2 MSTORE PUSH1 0x4 ADD PUSH2 0x1A5C SWAP4 SWAP3 SWAP2 SWAP1 PUSH2 0x41E9 JUMP JUMPDEST PUSH1 0x20 PUSH1 0x40 MLOAD DUP1 DUP4 SUB DUP2 PUSH0 DUP8 GAS CALL ISZERO DUP1 ISZERO PUSH2 0x1A78 JUMPI RETURNDATASIZE PUSH0 PUSH0 RETURNDATACOPY RETURNDATASIZE PUSH0 REVERT JUMPDEST POP POP POP POP PUSH1 0x40 MLOAD RETURNDATASIZE PUSH1 0x1F NOT PUSH1 0x1F DUP3 ADD AND DUP3 ADD DUP1 PUSH1 0x40 MSTORE POP DUP2 ADD SWAP1 PUSH2 0x1A9C SWAP2 SWAP1 PUSH2 0x4232 JUMP JUMPDEST PUSH2 0x1ADB JUMPI PUSH1 0x40 MLOAD PUSH32 0x8C379A000000000000000000000000000000000000000000000000000000000 DUP2 MSTORE PUSH1 0x4 ADD PUSH2 0x1AD2 SWAP1 PUSH2 0x47B3 JUMP JUMPDEST PUSH1 0x40 MLOAD DUP1 SWAP2 SUB SWAP1 REVERT JUMPDEST POP POP PUSH2 0x1D93 JUMP JUMPDEST PUSH1 0x40 MLOAD DUP1 PUSH1 0x40 ADD PUSH1 0x40 MSTORE DUP1 PUSH1 0x4 DUP2 MSTORE PUSH1 0x20 ADD PUSH32 0x5742544300000000000000000000000000000000000000000000000000000000 DUP2 MSTORE POP DUP1 MLOAD SWAP1 PUSH1 0x20 ADD KECCAK256 DUP4 DUP1 MLOAD SWAP1 PUSH1 0x20 ADD KECCAK256 SUB PUSH2 0x1D57 JUMPI PUSH0 DUP3 GT PUSH2 0x1B6E JUMPI PUSH1 0x40 MLOAD PUSH32 0x8C379A000000000000000000000000000000000000000000000000000000000 DUP2 MSTORE PUSH1 0x4 ADD PUSH2 0x1B65 SWAP1 PUSH2 0x4429 JUMP JUMPDEST PUSH1 0x40 MLOAD DUP1 SWAP2 SUB SWAP1 REVERT JUMPDEST PUSH0 PUSH2 0x1BAE PUSH1 0x40 MLOAD DUP1 PUSH1 0x40 ADD PUSH1 0x40 MSTORE DUP1 PUSH1 0x4 DUP2 MSTORE PUSH1 0x20 ADD PUSH32 0x5742544300000000000000000000000000000000000000000000000000000000 DUP2 MSTORE POP DUP5 PUSH2 0x711 JUMP JUMPDEST SWAP1 POP PUSH0 DUP2 GT PUSH2 0x1BF2 JUMPI PUSH1 0x40 MLOAD PUSH32 0x8C379A000000000000000000000000000000000000000000000000000000000 DUP2 MSTORE PUSH1 0x4 ADD PUSH2 0x1BE9 SWAP1 PUSH2 0x3224 JUMP JUMPDEST PUSH1 0x40 MLOAD DUP1 SWAP2 SUB SWAP1 REVERT JUMPDEST PUSH2 0x1C33 CALLER PUSH1 0x40 MLOAD DUP1 PUSH1 0x40 ADD PUSH1 0x40 MSTORE DUP1 PUSH1 0x4 DUP2 MSTORE PUSH1 0x20 ADD PUSH32 0x5742544300000000000000000000000000000000000000000000000000000000 DUP2 MSTORE POP DUP6 DUP5 PUSH2 0xAA4 JUMP JUMPDEST PUSH0 PUSH1 0x3 PUSH1 0x40 MLOAD PUSH2 0x1C42 SWAP1 PUSH2 0x4491 JUMP JUMPDEST SWAP1 DUP2 MSTORE PUSH1 0x20 ADD PUSH1 0x40 MLOAD DUP1 SWAP2 SUB SWAP1 KECCAK256 PUSH0 ADD PUSH0 SWAP1 SLOAD SWAP1 PUSH2 0x100 EXP SWAP1 DIV PUSH20 0xFFFFFFFFFFFFFFFFFFFFFFFFFFFFFFFFFFFFFFFF AND SWAP1 POP DUP1 PUSH20 0xFFFFFFFFFFFFFFFFFFFFFFFFFFFFFFFFFFFFFFFF AND PUSH4 0x23B872DD CALLER PUSH32 0x0 DUP8 PUSH1 0x40 MLOAD DUP5 PUSH4 0xFFFFFFFF AND PUSH1 0xE0 SHL DUP2 MSTORE PUSH1 0x4 ADD PUSH2 0x1CD1 SWAP4 SWAP3 SWAP2 SWAP1 PUSH2 0x41E9 JUMP JUMPDEST PUSH1 0x20 PUSH1 0x40 MLOAD DUP1 DUP4 SUB DUP2 PUSH0 DUP8 GAS CALL ISZERO DUP1 ISZERO PUSH2 0x1CED JUMPI RETURNDATASIZE PUSH0 PUSH0 RETURNDATACOPY RETURNDATASIZE PUSH0 REVERT JUMPDEST POP POP POP POP PUSH1 0x40 MLOAD RETURNDATASIZE PUSH1 0x1F NOT PUSH1 0x1F DUP3 ADD AND DUP3 ADD DUP1 PUSH1 0x40 MSTORE POP DUP2 ADD SWAP1 PUSH2 0x1D11 SWAP2 SWAP1 PUSH2 0x4232 JUMP JUMPDEST PUSH2 0x1D50 JUMPI PUSH1 0x40 MLOAD PUSH32 0x8C379A000000000000000000000000000000000000000000000000000000000 DUP2 MSTORE PUSH1 0x4 ADD PUSH2 0x1D47 SWAP1 PUSH2 0x44EF JUMP JUMPDEST PUSH1 0x40 MLOAD DUP1 SWAP2 SUB SWAP1 REVERT JUMPDEST POP POP PUSH2 0x1D92 JUMP JUMPDEST PUSH1 0x40 MLOAD PUSH32 0x8C379A000000000000000000000000000000000000000000000000000000000 DUP2 MSTORE PUSH1 0x4 ADD PUSH2 0x1D89 SWAP1 PUSH2 0x481B JUMP JUMPDEST PUSH1 0x40 MLOAD DUP1 SWAP2 SUB SWAP1 REVERT JUMPDEST JUMPDEST JUMPDEST JUMPDEST POP POP POP JUMP JUMPDEST PUSH0 PUSH0 PUSH20 0xFFFFFFFFFFFFFFFFFFFFFFFFFFFFFFFFFFFFFFFF AND DUP3 PUSH20 0xFFFFFFFFFFFFFFFFFFFFFFFFFFFFFFFFFFFFFFFF AND SUB PUSH2 0x1DD6 JUMPI SELFBALANCE SWAP1 POP PUSH2 0x1E51 JUMP JUMPDEST DUP2 PUSH20 0xFFFFFFFFFFFFFFFFFFFFFFFFFFFFFFFFFFFFFFFF AND PUSH4 0x70A08231 ADDRESS PUSH1 0x40 MLOAD DUP3 PUSH4 0xFFFFFFFF AND PUSH1 0xE0 SHL DUP2 MSTORE PUSH1 0x4 ADD PUSH2 0x1E0F SWAP2 SWAP1 PUSH2 0x35AC JUMP JUMPDEST PUSH1 0x20 PUSH1 0x40 MLOAD DUP1 DUP4 SUB DUP2 DUP7 GAS STATICCALL ISZERO DUP1 ISZERO PUSH2 0x1E2A JUMPI RETURNDATASIZE PUSH0 PUSH0 RETURNDATACOPY RETURNDATASIZE PUSH0 REVERT JUMPDEST POP POP POP POP PUSH1 0x40 MLOAD RETURNDATASIZE PUSH1 0x1F NOT PUSH1 0x1F DUP3 ADD AND DUP3 ADD DUP1 PUSH1 0x40 MSTORE POP DUP2 ADD SWAP1 PUSH2 0x1E4E SWAP2 SWAP1 PUSH2 0x4839 JUMP JUMPDEST SWAP1 POP JUMPDEST SWAP2 SWAP1 POP JUMP JUMPDEST PUSH32 0x0 DUP2 JUMP JUMPDEST PUSH3 0xF4240 DUP2 JUMP JUMPDEST PUSH0 PUSH0 SWAP1 SLOAD SWAP1 PUSH2 0x100 EXP SWAP1 DIV PUSH1 0xFF AND DUP2 JUMP JUMPDEST PUSH1 0x4 DUP2 DUP2 SLOAD DUP2 LT PUSH2 0x1EA1 JUMPI PUSH0 DUP1 REVERT JUMPDEST SWAP1 PUSH0 MSTORE PUSH1 0x20 PUSH0 KECCAK256 ADD PUSH0 SWAP2 POP SWAP1 POP DUP1 SLOAD PUSH2 0x1EB9 SWAP1 PUSH2 0x4891 JUMP JUMPDEST DUP1 PUSH1 0x1F ADD PUSH1 0x20 DUP1 SWAP2 DIV MUL PUSH1 0x20 ADD PUSH1 0x40 MLOAD SWAP1 DUP2 ADD PUSH1 0x40 MSTORE DUP1 SWAP3 SWAP2 SWAP1 DUP2 DUP2 MSTORE PUSH1 0x20 ADD DUP3 DUP1 SLOAD PUSH2 0x1EE5 SWAP1 PUSH2 0x4891 JUMP JUMPDEST DUP1 ISZERO PUSH2 0x1F30 JUMPI DUP1 PUSH1 0x1F LT PUSH2 0x1F07 JUMPI PUSH2 0x100 DUP1 DUP4 SLOAD DIV MUL DUP4 MSTORE SWAP2 PUSH1 0x20 ADD SWAP2 PUSH2 0x1F30 JUMP JUMPDEST DUP3 ADD SWAP2 SWAP1 PUSH0 MSTORE PUSH1 0x20 PUSH0 KECCAK256 SWAP1 JUMPDEST DUP2 SLOAD DUP2 MSTORE SWAP1 PUSH1 0x1 ADD SWAP1 PUSH1 0x20 ADD DUP1 DUP4 GT PUSH2 0x1F13 JUMPI DUP3 SWAP1 SUB PUSH1 0x1F AND DUP3 ADD SWAP2 JUMPDEST POP POP POP POP POP DUP2 JUMP JUMPDEST PUSH32 0x0 PUSH20 0xFFFFFFFFFFFFFFFFFFFFFFFFFFFFFFFFFFFFFFFF AND CALLER PUSH20 0xFFFFFFFFFFFFFFFFFFFFFFFFFFFFFFFFFFFFFFFF AND EQ PUSH2 0x1FC6 JUMPI PUSH1 0x40 MLOAD PUSH32 0x8C379A000000000000000000000000000000000000000000000000000000000 DUP2 MSTORE PUSH1 0x4 ADD PUSH2 0x1FBD SWAP1 PUSH2 0x490B JUMP JUMPDEST PUSH1 0x40 MLOAD DUP1 SWAP2 SUB SWAP1 REVERT JUMPDEST PUSH0 PUSH20 0xFFFFFFFFFFFFFFFFFFFFFFFFFFFFFFFFFFFFFFFF AND DUP2 PUSH20 0xFFFFFFFFFFFFFFFFFFFFFFFFFFFFFFFFFFFFFFFF AND SUB PUSH2 0x210E JUMPI PUSH0 SELFBALANCE SWAP1 POP PUSH0 DUP2 GT ISZERO PUSH2 0x2108 JUMPI PUSH0 PUSH32 0x0 PUSH20 0xFFFFFFFFFFFFFFFFFFFFFFFFFFFFFFFFFFFFFFFF AND DUP3 PUSH1 0x40 MLOAD PUSH2 0x204A SWAP1 PUSH2 0x326F JUMP JUMPDEST PUSH0 PUSH1 0x40 MLOAD DUP1 DUP4 SUB DUP2 DUP6 DUP8 GAS CALL SWAP3 POP POP POP RETURNDATASIZE DUP1 PUSH0 DUP2 EQ PUSH2 0x2084 JUMPI PUSH1 0x40 MLOAD SWAP2 POP PUSH1 0x1F NOT PUSH1 0x3F RETURNDATASIZE ADD AND DUP3 ADD PUSH1 0x40 MSTORE RETURNDATASIZE DUP3 MSTORE RETURNDATASIZE PUSH0 PUSH1 0x20 DUP5 ADD RETURNDATACOPY PUSH2 0x2089 JUMP JUMPDEST PUSH1 0x60 SWAP2 POP JUMPDEST POP POP SWAP1 POP DUP1 PUSH2 0x20CD JUMPI PUSH1 0x40 MLOAD PUSH32 0x8C379A000000000000000000000000000000000000000000000000000000000 DUP2 MSTORE PUSH1 0x4 ADD PUSH2 0x20C4 SWAP1 PUSH2 0x4973 JUMP JUMPDEST PUSH1 0x40 MLOAD DUP1 SWAP2 SUB SWAP1 REVERT JUMPDEST PUSH32 0x5FAFA99D0643513820BE26656B45130B01E1C03062E1266BF36F88CBD3BD9695 PUSH0 DUP4 PUSH1 0x40 MLOAD PUSH2 0x20FE SWAP3 SWAP2 SWAP1 PUSH2 0x4991 JUMP JUMPDEST PUSH1 0x40 MLOAD DUP1 SWAP2 SUB SWAP1 LOG1 POP JUMPDEST POP PUSH2 0x22AC JUMP JUMPDEST PUSH0 DUP2 SWAP1 POP PUSH0 DUP2 PUSH20 0xFFFFFFFFFFFFFFFFFFFFFFFFFFFFFFFFFFFFFFFF AND PUSH4 0x70A08231 ADDRESS PUSH1 0x40 MLOAD DUP3 PUSH4 0xFFFFFFFF AND PUSH1 0xE0 SHL DUP2 MSTORE PUSH1 0x4 ADD PUSH2 0x214C SWAP2 SWAP1 PUSH2 0x35AC JUMP JUMPDEST PUSH1 0x20 PUSH1 0x40 MLOAD DUP1 DUP4 SUB DUP2 DUP7 GAS STATICCALL ISZERO DUP1 ISZERO PUSH2 0x2167 JUMPI RETURNDATASIZE PUSH0 PUSH0 RETURNDATACOPY RETURNDATASIZE PUSH0 REVERT JUMPDEST POP POP POP POP PUSH1 0x40 MLOAD RETURNDATASIZE PUSH1 0x1F NOT PUSH1 0x1F DUP3 ADD AND DUP3 ADD DUP1 PUSH1 0x40 MSTORE POP DUP2 ADD SWAP1 PUSH2 0x218B SWAP2 SWAP1 PUSH2 0x4839 JUMP JUMPDEST SWAP1 POP PUSH0 DUP2 GT ISZERO PUSH2 0x22A9 JUMPI DUP2 PUSH20 0xFFFFFFFFFFFFFFFFFFFFFFFFFFFFFFFFFFFFFFFF AND PUSH4 0xA9059CBB PUSH32 0x0 DUP4 PUSH1 0x40 MLOAD DUP4 PUSH4 0xFFFFFFFF AND PUSH1 0xE0 SHL DUP2 MSTORE PUSH1 0x4 ADD PUSH2 0x21F0 SWAP3 SWAP2 SWAP1 PUSH2 0x4991 JUMP JUMPDEST PUSH1 0x20 PUSH1 0x40 MLOAD DUP1 DUP4 SUB DUP2 PUSH0 DUP8 GAS CALL ISZERO DUP1 ISZERO PUSH2 0x220C JUMPI RETURNDATASIZE PUSH0 PUSH0 RETURNDATACOPY RETURNDATASIZE PUSH0 REVERT JUMPDEST POP POP POP POP PUSH1 0x40 MLOAD RETURNDATASIZE PUSH1 0x1F NOT PUSH1 0x1F DUP3 ADD AND DUP3 ADD DUP1 PUSH1 0x40 MSTORE POP DUP2 ADD SWAP1 PUSH2 0x2230 SWAP2 SWAP1 PUSH2 0x4232 JUMP JUMPDEST PUSH2 0x226F JUMPI PUSH1 0x40 MLOAD PUSH32 0x8C379A000000000000000000000000000000000000000000000000000000000 DUP2 MSTORE PUSH1 0x4 ADD PUSH2 0x2266 SWAP1 PUSH2 0x4A02 JUMP JUMPDEST PUSH1 0x40 MLOAD DUP1 SWAP2 SUB SWAP1 REVERT JUMPDEST PUSH32 0x5FAFA99D0643513820BE26656B45130B01E1C03062E1266BF36F88CBD3BD9695 DUP4 DUP3 PUSH1 0x40 MLOAD PUSH2 0x22A0 SWAP3 SWAP2 SWAP1 PUSH2 0x4991 JUMP JUMPDEST PUSH1 0x40 MLOAD DUP1 SWAP2 SUB SWAP1 LOG1 JUMPDEST POP POP JUMPDEST POP JUMP JUMPDEST PUSH1 0x60 DUP1 PUSH1 0x4 DUP1 SLOAD SWAP1 POP PUSH8 0xFFFFFFFFFFFFFFFF DUP2 GT ISZERO PUSH2 0x22D1 JUMPI PUSH2 0x22D0 PUSH2 0x339A JUMP JUMPDEST JUMPDEST PUSH1 0x40 MLOAD SWAP1 DUP1 DUP3 MSTORE DUP1 PUSH1 0x20 MUL PUSH1 0x20 ADD DUP3 ADD PUSH1 0x40 MSTORE DUP1 ISZERO PUSH2 0x22FF JUMPI DUP2 PUSH1 0x20 ADD PUSH1 0x20 DUP3 MUL DUP1 CALLDATASIZE DUP4 CALLDATACOPY DUP1 DUP3 ADD SWAP2 POP POP SWAP1 POP JUMPDEST POP SWAP2 POP PUSH1 0x4 DUP1 SLOAD SWAP1 POP PUSH8 0xFFFFFFFFFFFFFFFF DUP2 GT ISZERO PUSH2 0x2321 JUMPI PUSH2 0x2320 PUSH2 0x339A JUMP JUMPDEST JUMPDEST PUSH1 0x40 MLOAD SWAP1 DUP1 DUP3 MSTORE DUP1 PUSH1 0x20 MUL PUSH1 0x20 ADD DUP3 ADD PUSH1 0x40 MSTORE DUP1 ISZERO PUSH2 0x2354 JUMPI DUP2 PUSH1 0x20 ADD JUMPDEST PUSH1 0x60 DUP2 MSTORE PUSH1 0x20 ADD SWAP1 PUSH1 0x1 SWAP1 SUB SWAP1 DUP2 PUSH2 0x233F JUMPI SWAP1 POP JUMPDEST POP SWAP1 POP PUSH0 PUSH0 SWAP1 POP JUMPDEST PUSH1 0x4 DUP1 SLOAD SWAP1 POP DUP2 LT ISZERO PUSH2 0x2783 JUMPI PUSH1 0x4 DUP2 DUP2 SLOAD DUP2 LT PUSH2 0x237D JUMPI PUSH2 0x237C PUSH2 0x4A20 JUMP JUMPDEST JUMPDEST SWAP1 PUSH0 MSTORE PUSH1 0x20 PUSH0 KECCAK256 ADD DUP1 SLOAD PUSH2 0x2390 SWAP1 PUSH2 0x4891 JUMP JUMPDEST DUP1 PUSH1 0x1F ADD PUSH1 0x20 DUP1 SWAP2 DIV MUL PUSH1 0x20 ADD PUSH1 0x40 MLOAD SWAP1 DUP2 ADD PUSH1 0x40 MSTORE DUP1 SWAP3 SWAP2 SWAP1 DUP2 DUP2 MSTORE PUSH1 0x20 ADD DUP3 DUP1 SLOAD PUSH2 0x23BC SWAP1 PUSH2 0x4891 JUMP JUMPDEST DUP1 ISZERO PUSH2 0x2407 JUMPI DUP1 PUSH1 0x1F LT PUSH2 0x23DE JUMPI PUSH2 0x100 DUP1 DUP4 SLOAD DIV MUL DUP4 MSTORE SWAP2 PUSH1 0x20 ADD SWAP2 PUSH2 0x2407 JUMP JUMPDEST DUP3 ADD SWAP2 SWAP1 PUSH0 MSTORE PUSH1 0x20 PUSH0 KECCAK256 SWAP1 JUMPDEST DUP2 SLOAD DUP2 MSTORE SWAP1 PUSH1 0x1 ADD SWAP1 PUSH1 0x20 ADD DUP1 DUP4 GT PUSH2 0x23EA JUMPI DUP3 SWAP1 SUB PUSH1 0x1F AND DUP3 ADD SWAP2 JUMPDEST POP POP POP POP POP DUP3 DUP3 DUP2 MLOAD DUP2 LT PUSH2 0x241F JUMPI PUSH2 0x241E PUSH2 0x4A20 JUMP JUMPDEST JUMPDEST PUSH1 0x20 MUL PUSH1 0x20 ADD ADD DUP2 SWAP1 MSTORE POP PUSH0 PUSH1 0x3 PUSH1 0x4 DUP4 DUP2 SLOAD DUP2 LT PUSH2 0x2441 JUMPI PUSH2 0x2440 PUSH2 0x4A20 JUMP JUMPDEST JUMPDEST SWAP1 PUSH0 MSTORE PUSH1 0x20 PUSH0 KECCAK256 ADD PUSH1 0x40 MLOAD PUSH2 0x2456 SWAP2 SWAP1 PUSH2 0x4ADF JUMP JUMPDEST SWAP1 DUP2 MSTORE PUSH1 0x20 ADD PUSH1 0x40 MLOAD DUP1 SWAP2 SUB SWAP1 KECCAK256 PUSH1 0x40 MLOAD DUP1 PUSH1 0x80 ADD PUSH1 0x40 MSTORE SWAP1 DUP2 PUSH0 DUP3 ADD PUSH0 SWAP1 SLOAD SWAP1 PUSH2 0x100 EXP SWAP1 DIV PUSH20 0xFFFFFFFFFFFFFFFFFFFFFFFFFFFFFFFFFFFFFFFF AND PUSH20 0xFFFFFFFFFFFFFFFFFFFFFFFFFFFFFFFFFFFFFFFF AND PUSH20 0xFFFFFFFFFFFFFFFFFFFFFFFFFFFFFFFFFFFFFFFF AND DUP2 MSTORE PUSH1 0x20 ADD PUSH1 0x1 DUP3 ADD PUSH0 SWAP1 SLOAD SWAP1 PUSH2 0x100 EXP SWAP1 DIV PUSH20 0xFFFFFFFFFFFFFFFFFFFFFFFFFFFFFFFFFFFFFFFF AND PUSH20 0xFFFFFFFFFFFFFFFFFFFFFFFFFFFFFFFFFFFFFFFF AND PUSH20 0xFFFFFFFFFFFFFFFFFFFFFFFFFFFFFFFFFFFFFFFF AND DUP2 MSTORE PUSH1 0x20 ADD PUSH1 0x1 DUP3 ADD PUSH1 0x14 SWAP1 SLOAD SWAP1 PUSH2 0x100 EXP SWAP1 DIV PUSH1 0xFF AND PUSH1 0xFF AND PUSH1 0xFF AND DUP2 MSTORE PUSH1 0x20 ADD PUSH1 0x1 DUP3 ADD PUSH1 0x15 SWAP1 SLOAD SWAP1 PUSH2 0x100 EXP SWAP1 DIV PUSH1 0xFF AND ISZERO ISZERO ISZERO ISZERO DUP2 MSTORE POP POP SWAP1 POP PUSH1 0x40 MLOAD DUP1 PUSH1 0x40 ADD PUSH1 0x40 MSTORE DUP1 PUSH1 0x4 DUP2 MSTORE PUSH1 0x20 ADD PUSH32 0x5553445400000000000000000000000000000000000000000000000000000000 DUP2 MSTORE POP DUP1 MLOAD SWAP1 PUSH1 0x20 ADD KECCAK256 PUSH1 0x4 DUP4 DUP2 SLOAD DUP2 LT PUSH2 0x25A3 JUMPI PUSH2 0x25A2 PUSH2 0x4A20 JUMP JUMPDEST JUMPDEST SWAP1 PUSH0 MSTORE PUSH1 0x20 PUSH0 KECCAK256 ADD PUSH1 0x40 MLOAD PUSH2 0x25B8 SWAP2 SWAP1 PUSH2 0x4B87 JUMP JUMPDEST PUSH1 0x40 MLOAD DUP1 SWAP2 SUB SWAP1 KECCAK256 EQ DUP1 PUSH2 0x2637 JUMPI POP PUSH1 0x40 MLOAD DUP1 PUSH1 0x40 ADD PUSH1 0x40 MSTORE DUP1 PUSH1 0x4 DUP2 MSTORE PUSH1 0x20 ADD PUSH32 0x5553444300000000000000000000000000000000000000000000000000000000 DUP2 MSTORE POP DUP1 MLOAD SWAP1 PUSH1 0x20 ADD KECCAK256 PUSH1 0x4 DUP4 DUP2 SLOAD DUP2 LT PUSH2 0x2618 JUMPI PUSH2 0x2617 PUSH2 0x4A20 JUMP JUMPDEST JUMPDEST SWAP1 PUSH0 MSTORE PUSH1 0x20 PUSH0 KECCAK256 ADD PUSH1 0x40 MLOAD PUSH2 0x262D SWAP2 SWAP1 PUSH2 0x4B87 JUMP JUMPDEST PUSH1 0x40 MLOAD DUP1 SWAP2 SUB SWAP1 KECCAK256 EQ JUMPDEST ISZERO PUSH2 0x2670 JUMPI PUSH3 0xF4240 PUSH1 0x1 PUSH2 0x264C SWAP2 SWAP1 PUSH2 0x3FE0 JUMP JUMPDEST DUP5 DUP4 DUP2 MLOAD DUP2 LT PUSH2 0x265F JUMPI PUSH2 0x265E PUSH2 0x4A20 JUMP JUMPDEST JUMPDEST PUSH1 0x20 MUL PUSH1 0x20 ADD ADD DUP2 DUP2 MSTORE POP POP PUSH2 0x2775 JUMP JUMPDEST PUSH0 PUSH20 0xFFFFFFFFFFFFFFFFFFFFFFFFFFFFFFFFFFFFFFFF AND DUP2 PUSH1 0x20 ADD MLOAD PUSH20 0xFFFFFFFFFFFFFFFFFFFFFFFFFFFFFFFFFFFFFFFF AND EQ PUSH2 0x2753 JUMPI PUSH0 DUP2 PUSH1 0x20 ADD MLOAD PUSH20 0xFFFFFFFFFFFFFFFFFFFFFFFFFFFFFFFFFFFFFFFF AND PUSH4 0xFEAF968C PUSH1 0x40 MLOAD DUP2 PUSH4 0xFFFFFFFF AND PUSH1 0xE0 SHL DUP2 MSTORE PUSH1 0x4 ADD PUSH1 0xA0 PUSH1 0x40 MLOAD DUP1 DUP4 SUB DUP2 DUP7 GAS STATICCALL ISZERO DUP1 ISZERO PUSH2 0x26F5 JUMPI RETURNDATASIZE PUSH0 PUSH0 RETURNDATACOPY RETURNDATASIZE PUSH0 REVERT JUMPDEST POP POP POP POP PUSH1 0x40 MLOAD RETURNDATASIZE PUSH1 0x1F NOT PUSH1 0x1F DUP3 ADD AND DUP3 ADD DUP1 PUSH1 0x40 MSTORE POP DUP2 ADD SWAP1 PUSH2 0x2719 SWAP2 SWAP1 PUSH2 0x3D5B JUMP JUMPDEST POP POP POP SWAP2 POP POP PUSH0 DUP2 SGT PUSH2 0x272C JUMPI PUSH0 PUSH2 0x272E JUMP JUMPDEST DUP1 JUMPDEST DUP6 DUP5 DUP2 MLOAD DUP2 LT PUSH2 0x2741 JUMPI PUSH2 0x2740 PUSH2 0x4A20 JUMP JUMPDEST JUMPDEST PUSH1 0x20 MUL PUSH1 0x20 ADD ADD DUP2 DUP2 MSTORE POP POP POP PUSH2 0x2774 JUMP JUMPDEST PUSH0 DUP5 DUP4 DUP2 MLOAD DUP2 LT PUSH2 0x2767 JUMPI PUSH2 0x2766 PUSH2 0x4A20 JUMP JUMPDEST JUMPDEST PUSH1 0x20 MUL PUSH1 0x20 ADD ADD DUP2 DUP2 MSTORE POP POP JUMPDEST JUMPDEST POP DUP1 DUP1 PUSH1 0x1 ADD SWAP2 POP POP PUSH2 0x235C JUMP JUMPDEST POP SWAP1 SWAP2 JUMP JUMPDEST PUSH1 0x2 SLOAD DUP2 JUMP JUMPDEST PUSH32 0x0 PUSH20 0xFFFFFFFFFFFFFFFFFFFFFFFFFFFFFFFFFFFFFFFF AND CALLER PUSH20 0xFFFFFFFFFFFFFFFFFFFFFFFFFFFFFFFFFFFFFFFF AND EQ PUSH2 0x281C JUMPI PUSH1 0x40 MLOAD PUSH32 0x8C379A000000000000000000000000000000000000000000000000000000000 DUP2 MSTORE PUSH1 0x4 ADD PUSH2 0x2813 SWAP1 PUSH2 0x490B JUMP JUMPDEST PUSH1 0x40 MLOAD DUP1 SWAP2 SUB SWAP1 REVERT JUMPDEST DUP1 PUSH0 PUSH0 PUSH2 0x100 EXP DUP2 SLOAD DUP2 PUSH1 0xFF MUL NOT AND SWAP1 DUP4 ISZERO ISZERO MUL OR SWAP1 SSTORE POP PUSH32 0x1F1A6B0FCC71315F2C3AEDDBD1F6D527595D21EEA9B73160E78D6FA49B7897A6 DUP2 PUSH1 0x40 MLOAD PUSH2 0x2863 SWAP2 SWAP1 PUSH2 0x35DF JUMP JUMPDEST PUSH1 0x40 MLOAD DUP1 SWAP2 SUB SWAP1 LOG1 POP JUMP JUMPDEST PUSH1 0x3 DUP2 DUP1 MLOAD PUSH1 0x20 DUP2 ADD DUP3 ADD DUP1 MLOAD DUP5 DUP3 MSTORE PUSH1 0x20 DUP4 ADD PUSH1 0x20 DUP6 ADD KECCAK256 DUP2 DUP4 MSTORE DUP1 SWAP6 POP POP POP POP POP POP PUSH0 SWAP2 POP SWAP1 POP DUP1 PUSH0 ADD PUSH0 SWAP1 SLOAD SWAP1 PUSH2 0x100 EXP SWAP1 DIV PUSH20 0xFFFFFFFFFFFFFFFFFFFFFFFFFFFFFFFFFFFFFFFF AND SWAP1 DUP1 PUSH1 0x1 ADD PUSH0 SWAP1 SLOAD SWAP1 PUSH2 0x100 EXP SWAP1 DIV PUSH20 0xFFFFFFFFFFFFFFFFFFFFFFFFFFFFFFFFFFFFFFFF AND SWAP1 DUP1 PUSH1 0x1 ADD PUSH1 0x14 SWAP1 SLOAD SWAP1 PUSH2 0x100 EXP SWAP1 DIV PUSH1 0xFF AND SWAP1 DUP1 PUSH1 0x1 ADD PUSH1 0x15 SWAP1 SLOAD SWAP1 PUSH2 0x100 EXP SWAP1 DIV PUSH1 0xFF AND SWAP1 POP DUP5 JUMP JUMPDEST PUSH32 0x0 DUP2 JUMP JUMPDEST PUSH0 PUSH0 PUSH0 PUSH0 PUSH0 PUSH1 0x1 SLOAD PUSH1 0x2 SLOAD PUSH11 0x108B2A2C28029094000000 PUSH0 PUSH0 SWAP1 SLOAD SWAP1 PUSH2 0x100 EXP SWAP1 DIV PUSH1 0xFF AND PUSH1 0x1 SLOAD PUSH11 0x108B2A2C28029094000000 PUSH2 0x296C SWAP2 SWAP1 PUSH2 0x4B9D JUMP JUMPDEST SWAP5 POP SWAP5 POP SWAP5 POP SWAP5 POP SWAP5 POP SWAP1 SWAP2 SWAP3 SWAP4 SWAP5 JUMP JUMPDEST PUSH0 PUSH0 SWAP1 SLOAD SWAP1 PUSH2 0x100 EXP SWAP1 DIV PUSH1 0xFF AND PUSH2 0x29CA JUMPI PUSH1 0x40 MLOAD PUSH32 0x8C379A000000000000000000000000000000000000000000000000000000000 DUP2 MSTORE PUSH1 0x4 ADD PUSH2 0x29C1 SWAP1 PUSH2 0x4359 JUMP JUMPDEST PUSH1 0x40 MLOAD DUP1 SWAP2 SUB SWAP1 REVERT JUMPDEST PUSH0 DUP2 GT PUSH2 0x2A0C JUMPI PUSH1 0x40 MLOAD PUSH32 0x8C379A000000000000000000000000000000000000000000000000000000000 DUP2 MSTORE PUSH1 0x4 ADD PUSH2 0x2A03 SWAP1 PUSH2 0x45BF JUMP JUMPDEST PUSH1 0x40 MLOAD DUP1 SWAP2 SUB SWAP1 REVERT JUMPDEST PUSH0 PUSH2 0x2A4C PUSH1 0x40 MLOAD DUP1 PUSH1 0x40 ADD PUSH1 0x40 MSTORE DUP1 PUSH1 0x4 DUP2 MSTORE PUSH1 0x20 ADD PUSH32 0x5553445400000000000000000000000000000000000000000000000000000000 DUP2 MSTORE POP DUP4 PUSH2 0x711 JUMP JUMPDEST SWAP1 POP PUSH0 DUP2 GT PUSH2 0x2A90 JUMPI PUSH1 0x40 MLOAD PUSH32 0x8C379A000000000000000000000000000000000000000000000000000000000 DUP2 MSTORE PUSH1 0x4 ADD PUSH2 0x2A87 SWAP1 PUSH2 0x3224 JUMP JUMPDEST PUSH1 0x40 MLOAD DUP1 SWAP2 SUB SWAP1 REVERT JUMPDEST PUSH2 0x2AD1 CALLER PUSH1 0x40 MLOAD DUP1 PUSH1 0x40 ADD PUSH1 0x40 MSTORE DUP1 PUSH1 0x4 DUP2 MSTORE PUSH1 0x20 ADD PUSH32 0x5553445400000000000000000000000000000000000000000000000000000000 DUP2 MSTORE POP DUP5 DUP5 PUSH2 0xAA4 JUMP JUMPDEST PUSH0 PUSH1 0x3 PUSH1 0x40 MLOAD PUSH2 0x2AE0 SWAP1 PUSH2 0x4627 JUMP JUMPDEST SWAP1 DUP2 MSTORE PUSH1 0x20 ADD PUSH1 0x40 MLOAD DUP1 SWAP2 SUB SWAP1 KECCAK256 PUSH0 ADD PUSH0 SWAP1 SLOAD SWAP1 PUSH2 0x100 EXP SWAP1 DIV PUSH20 0xFFFFFFFFFFFFFFFFFFFFFFFFFFFFFFFFFFFFFFFF AND SWAP1 POP DUP1 PUSH20 0xFFFFFFFFFFFFFFFFFFFFFFFFFFFFFFFFFFFFFFFF AND PUSH4 0x23B872DD CALLER PUSH32 0x0 DUP7 PUSH1 0x40 MLOAD DUP5 PUSH4 0xFFFFFFFF AND PUSH1 0xE0 SHL DUP2 MSTORE PUSH1 0x4 ADD PUSH2 0x2B6F SWAP4 SWAP3 SWAP2 SWAP1 PUSH2 0x41E9 JUMP JUMPDEST PUSH1 0x20 PUSH1 0x40 MLOAD DUP1 DUP4 SUB DUP2 PUSH0 DUP8 GAS CALL ISZERO DUP1 ISZERO PUSH2 0x2B8B JUMPI RETURNDATASIZE PUSH0 PUSH0 RETURNDATACOPY RETURNDATASIZE PUSH0 REVERT JUMPDEST POP POP POP POP PUSH1 0x40 MLOAD RETURNDATASIZE PUSH1 0x1F NOT PUSH1 0x1F DUP3 ADD AND DUP3 ADD DUP1 PUSH1 0x40 MSTORE POP DUP2 ADD SWAP1 PUSH2 0x2BAF SWAP2 SWAP1 PUSH2 0x4232 JUMP JUMPDEST PUSH2 0x2BEE JUMPI PUSH1 0x40 MLOAD PUSH32 0x8C379A000000000000000000000000000000000000000000000000000000000 DUP2 MSTORE PUSH1 0x4 ADD PUSH2 0x2BE5 SWAP1 PUSH2 0x4685 JUMP JUMPDEST PUSH1 0x40 MLOAD DUP1 SWAP2 SUB SWAP1 REVERT JUMPDEST POP POP POP JUMP JUMPDEST PUSH0 PUSH0 SWAP1 SLOAD SWAP1 PUSH2 0x100 EXP SWAP1 DIV PUSH1 0xFF AND PUSH2 0x2C40 JUMPI PUSH1 0x40 MLOAD PUSH32 0x8C379A000000000000000000000000000000000000000000000000000000000 DUP2 MSTORE PUSH1 0x4 ADD PUSH2 0x2C37 SWAP1 PUSH2 0x4359 JUMP JUMPDEST PUSH1 0x40 MLOAD DUP1 SWAP2 SUB SWAP1 REVERT JUMPDEST PUSH0 DUP2 GT PUSH2 0x2C82 JUMPI PUSH1 0x40 MLOAD PUSH32 0x8C379A000000000000000000000000000000000000000000000000000000000 DUP2 MSTORE PUSH1 0x4 ADD PUSH2 0x2C79 SWAP1 PUSH2 0x46ED JUMP JUMPDEST PUSH1 0x40 MLOAD DUP1 SWAP2 SUB SWAP1 REVERT JUMPDEST PUSH0 PUSH2 0x2CC2 PUSH1 0x40 MLOAD DUP1 PUSH1 0x40 ADD PUSH1 0x40 MSTORE DUP1 PUSH1 0x4 DUP2 MSTORE PUSH1 0x20 ADD PUSH32 0x5553444300000000000000000000000000000000000000000000000000000000 DUP2 MSTORE POP DUP4 PUSH2 0x711 JUMP JUMPDEST SWAP1 POP PUSH0 DUP2 GT PUSH2 0x2D06 JUMPI PUSH1 0x40 MLOAD PUSH32 0x8C379A000000000000000000000000000000000000000000000000000000000 DUP2 MSTORE PUSH1 0x4 ADD PUSH2 0x2CFD SWAP1 PUSH2 0x3224 JUMP JUMPDEST PUSH1 0x40 MLOAD DUP1 SWAP2 SUB SWAP1 REVERT JUMPDEST PUSH2 0x2D47 CALLER PUSH1 0x40 MLOAD DUP1 PUSH1 0x40 ADD PUSH1 0x40 MSTORE DUP1 PUSH1 0x4 DUP2 MSTORE PUSH1 0x20 ADD PUSH32 0x5553444300000000000000000000000000000000000000000000000000000000 DUP2 MSTORE POP DUP5 DUP5 PUSH2 0xAA4 JUMP JUMPDEST PUSH0 PUSH1 0x3 PUSH1 0x40 MLOAD PUSH2 0x2D56 SWAP1 PUSH2 0x4755 JUMP JUMPDEST SWAP1 DUP2 MSTORE PUSH1 0x20 ADD PUSH1 0x40 MLOAD DUP1 SWAP2 SUB SWAP1 KECCAK256 PUSH0 ADD PUSH0 SWAP1 SLOAD SWAP1 PUSH2 0x100 EXP SWAP1 DIV PUSH20 0xFFFFFFFFFFFFFFFFFFFFFFFFFFFFFFFFFFFFFFFF AND SWAP1 POP DUP1 PUSH20 0xFFFFFFFFFFFFFFFFFFFFFFFFFFFFFFFFFFFFFFFF AND PUSH4 0x23B872DD CALLER PUSH32 0x0 DUP7 PUSH1 0x40 MLOAD DUP5 PUSH4 0xFFFFFFFF AND PUSH1 0xE0 SHL DUP2 MSTORE PUSH1 0x4 ADD PUSH2 0x2DE5 SWAP4 SWAP3 SWAP2 SWAP1 PUSH2 0x41E9 JUMP JUMPDEST PUSH1 0x20 PUSH1 0x40 MLOAD DUP1 DUP4 SUB DUP2 PUSH0 DUP8 GAS CALL ISZERO DUP1 ISZERO PUSH2 0x2E01 JUMPI RETURNDATASIZE PUSH0 PUSH0 RETURNDATACOPY RETURNDATASIZE PUSH0 REVERT JUMPDEST POP POP POP POP PUSH1 0x40 MLOAD RETURNDATASIZE PUSH1 0x1F NOT PUSH1 0x1F DUP3 ADD AND DUP3 ADD DUP1 PUSH1 0x40 MSTORE POP DUP2 ADD SWAP1 PUSH2 0x2E25 SWAP2 SWAP1 PUSH2 0x4232 JUMP JUMPDEST PUSH2 0x2E64 JUMPI PUSH1 0x40 MLOAD PUSH32 0x8C379A000000000000000000000000000000000000000000000000000000000 DUP2 MSTORE PUSH1 0x4 ADD PUSH2 0x2E5B SWAP1 PUSH2 0x47B3 JUMP JUMPDEST PUSH1 0x40 MLOAD DUP1 SWAP2 SUB SWAP1 REVERT JUMPDEST POP POP POP JUMP JUMPDEST PUSH1 0x60 DUP1 PUSH1 0x60 PUSH1 0x4 DUP1 SLOAD DUP1 PUSH1 0x20 MUL PUSH1 0x20 ADD PUSH1 0x40 MLOAD SWAP1 DUP2 ADD PUSH1 0x40 MSTORE DUP1 SWAP3 SWAP2 SWAP1 DUP2 DUP2 MSTORE PUSH1 0x20 ADD PUSH0 SWAP1 JUMPDEST DUP3 DUP3 LT ISZERO PUSH2 0x2F37 JUMPI DUP4 DUP3 SWAP1 PUSH0 MSTORE PUSH1 0x20 PUSH0 KECCAK256 ADD DUP1 SLOAD PUSH2 0x2EAC SWAP1 PUSH2 0x4891 JUMP JUMPDEST DUP1 PUSH1 0x1F ADD PUSH1 0x20 DUP1 SWAP2 DIV MUL PUSH1 0x20 ADD PUSH1 0x40 MLOAD SWAP1 DUP2 ADD PUSH1 0x40 MSTORE DUP1 SWAP3 SWAP2 SWAP1 DUP2 DUP2 MSTORE PUSH1 0x20 ADD DUP3 DUP1 SLOAD PUSH2 0x2ED8 SWAP1 PUSH2 0x4891 JUMP JUMPDEST DUP1 ISZERO PUSH2 0x2F23 JUMPI DUP1 PUSH1 0x1F LT PUSH2 0x2EFA JUMPI PUSH2 0x100 DUP1 DUP4 SLOAD DIV MUL DUP4 MSTORE SWAP2 PUSH1 0x20 ADD SWAP2 PUSH2 0x2F23 JUMP JUMPDEST DUP3 ADD SWAP2 SWAP1 PUSH0 MSTORE PUSH1 0x20 PUSH0 KECCAK256 SWAP1 JUMPDEST DUP2 SLOAD DUP2 MSTORE SWAP1 PUSH1 0x1 ADD SWAP1 PUSH1 0x20 ADD DUP1 DUP4 GT PUSH2 0x2F06 JUMPI DUP3 SWAP1 SUB PUSH1 0x1F AND DUP3 ADD SWAP2 JUMPDEST POP POP POP POP POP DUP2 MSTORE PUSH1 0x20 ADD SWAP1 PUSH1 0x1 ADD SWAP1 PUSH2 0x2E8F JUMP JUMPDEST POP POP POP POP SWAP3 POP PUSH1 0x4 DUP1 SLOAD SWAP1 POP PUSH8 0xFFFFFFFFFFFFFFFF DUP2 GT ISZERO PUSH2 0x2F5C JUMPI PUSH2 0x2F5B PUSH2 0x339A JUMP JUMPDEST JUMPDEST PUSH1 0x40 MLOAD SWAP1 DUP1 DUP3 MSTORE DUP1 PUSH1 0x20 MUL PUSH1 0x20 ADD DUP3 ADD PUSH1 0x40 MSTORE DUP1 ISZERO PUSH2 0x2F8A JUMPI DUP2 PUSH1 0x20 ADD PUSH1 0x20 DUP3 MUL DUP1 CALLDATASIZE DUP4 CALLDATACOPY DUP1 DUP3 ADD SWAP2 POP POP SWAP1 POP JUMPDEST POP SWAP2 POP PUSH1 0x4 DUP1 SLOAD SWAP1 POP PUSH8 0xFFFFFFFFFFFFFFFF DUP2 GT ISZERO PUSH2 0x2FAC JUMPI PUSH2 0x2FAB PUSH2 0x339A JUMP JUMPDEST JUMPDEST PUSH1 0x40 MLOAD SWAP1 DUP1 DUP3 MSTORE DUP1 PUSH1 0x20 MUL PUSH1 0x20 ADD DUP3 ADD PUSH1 0x40 MSTORE DUP1 ISZERO PUSH2 0x2FDA JUMPI DUP2 PUSH1 0x20 ADD PUSH1 0x20 DUP3 MUL DUP1 CALLDATASIZE DUP4 CALLDATACOPY DUP1 DUP3 ADD SWAP2 POP POP SWAP1 POP JUMPDEST POP SWAP1 POP PUSH0 PUSH0 SWAP1 POP JUMPDEST PUSH1 0x4 DUP1 SLOAD SWAP1 POP DUP2 LT ISZERO PUSH2 0x31A0 JUMPI PUSH0 PUSH1 0x3 PUSH1 0x4 DUP4 DUP2 SLOAD DUP2 LT PUSH2 0x3006 JUMPI PUSH2 0x3005 PUSH2 0x4A20 JUMP JUMPDEST JUMPDEST SWAP1 PUSH0 MSTORE PUSH1 0x20 PUSH0 KECCAK256 ADD PUSH1 0x40 MLOAD PUSH2 0x301B SWAP2 SWAP1 PUSH2 0x4ADF JUMP JUMPDEST SWAP1 DUP2 MSTORE PUSH1 0x20 ADD PUSH1 0x40 MLOAD DUP1 SWAP2 SUB SWAP1 KECCAK256 PUSH1 0x40 MLOAD DUP1 PUSH1 0x80 ADD PUSH1 0x40 MSTORE SWAP1 DUP2 PUSH0 DUP3 ADD PUSH0 SWAP1 SLOAD SWAP1 PUSH2 0x100 EXP SWAP1 DIV PUSH20 0xFFFFFFFFFFFFFFFFFFFFFFFFFFFFFFFFFFFFFFFF AND PUSH20 0xFFFFFFFFFFFFFFFFFFFFFFFFFFFFFFFFFFFFFFFF AND PUSH20 0xFFFFFFFFFFFFFFFFFFFFFFFFFFFFFFFFFFFFFFFF AND DUP2 MSTORE PUSH1 0x20 ADD PUSH1 0x1 DUP3 ADD PUSH0 SWAP1 SLOAD SWAP1 PUSH2 0x100 EXP SWAP1 DIV PUSH20 0xFFFFFFFFFFFFFFFFFFFFFFFFFFFFFFFFFFFFFFFF AND PUSH20 0xFFFFFFFFFFFFFFFFFFFFFFFFFFFFFFFFFFFFFFFF AND PUSH20 0xFFFFFFFFFFFFFFFFFFFFFFFFFFFFFFFFFFFFFFFF AND DUP2 MSTORE PUSH1 0x20 ADD PUSH1 0x1 DUP3 ADD PUSH1 0x14 SWAP1 SLOAD SWAP1 PUSH2 0x100 EXP SWAP1 DIV PUSH1 0xFF AND PUSH1 0xFF AND PUSH1 0xFF AND DUP2 MSTORE PUSH1 0x20 ADD PUSH1 0x1 DUP3 ADD PUSH1 0x15 SWAP1 SLOAD SWAP1 PUSH2 0x100 EXP SWAP1 DIV PUSH1 0xFF AND ISZERO ISZERO ISZERO ISZERO DUP2 MSTORE POP POP SWAP1 POP DUP1 PUSH0 ADD MLOAD DUP5 DUP4 DUP2 MLOAD DUP2 LT PUSH2 0x312E JUMPI PUSH2 0x312D PUSH2 0x4A20 JUMP JUMPDEST JUMPDEST PUSH1 0x20 MUL PUSH1 0x20 ADD ADD SWAP1 PUSH20 0xFFFFFFFFFFFFFFFFFFFFFFFFFFFFFFFFFFFFFFFF AND SWAP1 DUP2 PUSH20 0xFFFFFFFFFFFFFFFFFFFFFFFFFFFFFFFFFFFFFFFF AND DUP2 MSTORE POP POP DUP1 PUSH1 0x60 ADD MLOAD DUP4 DUP4 DUP2 MLOAD DUP2 LT PUSH2 0x3180 JUMPI PUSH2 0x317F PUSH2 0x4A20 JUMP JUMPDEST JUMPDEST PUSH1 0x20 MUL PUSH1 0x20 ADD ADD SWAP1 ISZERO ISZERO SWAP1 DUP2 ISZERO ISZERO DUP2 MSTORE POP POP POP DUP1 DUP1 PUSH1 0x1 ADD SWAP2 POP POP PUSH2 0x2FE2 JUMP JUMPDEST POP SWAP1 SWAP2 SWAP3 JUMP JUMPDEST PUSH1 0x1 SLOAD DUP2 JUMP JUMPDEST PUSH11 0x108B2A2C28029094000000 DUP2 JUMP JUMPDEST PUSH3 0x989680 DUP2 JUMP JUMPDEST PUSH4 0x5F5E100 DUP2 JUMP JUMPDEST PUSH0 DUP3 DUP3 MSTORE PUSH1 0x20 DUP3 ADD SWAP1 POP SWAP3 SWAP2 POP POP JUMP JUMPDEST PUSH32 0x496E76616C696420514920616D6F756E74000000000000000000000000000000 PUSH0 DUP3 ADD MSTORE POP JUMP JUMPDEST PUSH0 PUSH2 0x320E PUSH1 0x11 DUP4 PUSH2 0x31CA JUMP JUMPDEST SWAP2 POP PUSH2 0x3219 DUP3 PUSH2 0x31DA JUMP JUMPDEST PUSH1 0x20 DUP3 ADD SWAP1 POP SWAP2 SWAP1 POP JUMP JUMPDEST PUSH0 PUSH1 0x20 DUP3 ADD SWAP1 POP DUP2 DUP2 SUB PUSH0 DUP4 ADD MSTORE PUSH2 0x323B DUP2 PUSH2 0x3202 JUMP JUMPDEST SWAP1 POP SWAP2 SWAP1 POP JUMP JUMPDEST PUSH0 DUP2 SWAP1 POP SWAP3 SWAP2 POP POP JUMP JUMPDEST POP JUMP JUMPDEST PUSH0 PUSH2 0x325A PUSH0 DUP4 PUSH2 0x3242 JUMP JUMPDEST SWAP2 POP PUSH2 0x3265 DUP3 PUSH2 0x324C JUMP JUMPDEST PUSH0 DUP3 ADD SWAP1 POP SWAP2 SWAP1 POP JUMP JUMPDEST PUSH0 PUSH2 0x3279 DUP3 PUSH2 0x324F JUMP JUMPDEST SWAP2 POP DUP2 SWAP1 POP SWAP2 SWAP1 POP JUMP JUMPDEST PUSH32 0x455448207472616E73666572206661696C656400000000000000000000000000 PUSH0 DUP3 ADD MSTORE POP JUMP JUMPDEST PUSH0 PUSH2 0x32B7 PUSH1 0x13 DUP4 PUSH2 0x31CA JUMP JUMPDEST SWAP2 POP PUSH2 0x32C2 DUP3 PUSH2 0x3283 JUMP JUMPDEST PUSH1 0x20 DUP3 ADD SWAP1 POP SWAP2 SWAP1 POP JUMP JUMPDEST PUSH0 PUSH1 0x20 DUP3 ADD SWAP1 POP DUP2 DUP2 SUB PUSH0 DUP4 ADD MSTORE PUSH2 0x32E4 DUP2 PUSH2 0x32AB JUMP JUMPDEST SWAP1 POP SWAP2 SWAP1 POP JUMP JUMPDEST PUSH0 DUP2 SWAP1 POP SWAP2 SWAP1 POP JUMP JUMPDEST PUSH2 0x32FD DUP2 PUSH2 0x32EB JUMP JUMPDEST DUP3 MSTORE POP POP JUMP JUMPDEST PUSH0 PUSH1 0x20 DUP3 ADD SWAP1 POP PUSH2 0x3316 PUSH0 DUP4 ADD DUP5 PUSH2 0x32F4 JUMP JUMPDEST SWAP3 SWAP2 POP POP JUMP JUMPDEST PUSH0 PUSH1 0x40 MLOAD SWAP1 POP SWAP1 JUMP JUMPDEST PUSH0 PUSH0 REVERT JUMPDEST PUSH0 PUSH0 REVERT JUMPDEST PUSH2 0x3336 DUP2 PUSH2 0x32EB JUMP JUMPDEST DUP2 EQ PUSH2 0x3340 JUMPI PUSH0 PUSH0 REVERT JUMPDEST POP JUMP JUMPDEST PUSH0 DUP2 CALLDATALOAD SWAP1 POP PUSH2 0x3351 DUP2 PUSH2 0x332D JUMP JUMPDEST SWAP3 SWAP2 POP POP JUMP JUMPDEST PUSH0 PUSH1 0x20 DUP3 DUP5 SUB SLT ISZERO PUSH2 0x336C JUMPI PUSH2 0x336B PUSH2 0x3325 JUMP JUMPDEST JUMPDEST PUSH0 PUSH2 0x3379 DUP5 DUP3 DUP6 ADD PUSH2 0x3343 JUMP JUMPDEST SWAP2 POP POP SWAP3 SWAP2 POP POP JUMP JUMPDEST PUSH0 PUSH0 REVERT JUMPDEST PUSH0 PUSH0 REVERT JUMPDEST PUSH0 PUSH1 0x1F NOT PUSH1 0x1F DUP4 ADD AND SWAP1 POP SWAP2 SWAP1 POP JUMP JUMPDEST PUSH32 0x4E487B7100000000000000000000000000000000000000000000000000000000 PUSH0 MSTORE PUSH1 0x41 PUSH1 0x4 MSTORE PUSH1 0x24 PUSH0 REVERT JUMPDEST PUSH2 0x33D0 DUP3 PUSH2 0x338A JUMP JUMPDEST DUP2 ADD DUP2 DUP2 LT PUSH8 0xFFFFFFFFFFFFFFFF DUP3 GT OR ISZERO PUSH2 0x33EF JUMPI PUSH2 0x33EE PUSH2 0x339A JUMP JUMPDEST JUMPDEST DUP1 PUSH1 0x40 MSTORE POP POP POP JUMP JUMPDEST PUSH0 PUSH2 0x3401 PUSH2 0x331C JUMP JUMPDEST SWAP1 POP PUSH2 0x340D DUP3 DUP3 PUSH2 0x33C7 JUMP JUMPDEST SWAP2 SWAP1 POP JUMP JUMPDEST PUSH0 PUSH8 0xFFFFFFFFFFFFFFFF DUP3 GT ISZERO PUSH2 0x342C JUMPI PUSH2 0x342B PUSH2 0x339A JUMP JUMPDEST JUMPDEST PUSH2 0x3435 DUP3 PUSH2 0x338A JUMP JUMPDEST SWAP1 POP PUSH1 0x20 DUP2 ADD SWAP1 POP SWAP2 SWAP1 POP JUMP JUMPDEST DUP3 DUP2 DUP4 CALLDATACOPY PUSH0 DUP4 DUP4 ADD MSTORE POP POP POP JUMP JUMPDEST PUSH0 PUSH2 0x3462 PUSH2 0x345D DUP5 PUSH2 0x3412 JUMP JUMPDEST PUSH2 0x33F8 JUMP JUMPDEST SWAP1 POP DUP3 DUP2 MSTORE PUSH1 0x20 DUP2 ADD DUP5 DUP5 DUP5 ADD GT ISZERO PUSH2 0x347E JUMPI PUSH2 0x347D PUSH2 0x3386 JUMP JUMPDEST JUMPDEST PUSH2 0x3489 DUP5 DUP3 DUP6 PUSH2 0x3442 JUMP JUMPDEST POP SWAP4 SWAP3 POP POP POP JUMP JUMPDEST PUSH0 DUP3 PUSH1 0x1F DUP4 ADD SLT PUSH2 0x34A5 JUMPI PUSH2 0x34A4 PUSH2 0x3382 JUMP JUMPDEST JUMPDEST DUP2 CALLDATALOAD PUSH2 0x34B5 DUP5 DUP3 PUSH1 0x20 DUP7 ADD PUSH2 0x3450 JUMP JUMPDEST SWAP2 POP POP SWAP3 SWAP2 POP POP JUMP JUMPDEST PUSH0 PUSH0 PUSH1 0x40 DUP4 DUP6 SUB SLT ISZERO PUSH2 0x34D4 JUMPI PUSH2 0x34D3 PUSH2 0x3325 JUMP JUMPDEST JUMPDEST PUSH0 DUP4 ADD CALLDATALOAD PUSH8 0xFFFFFFFFFFFFFFFF DUP2 GT ISZERO PUSH2 0x34F1 JUMPI PUSH2 0x34F0 PUSH2 0x3329 JUMP JUMPDEST JUMPDEST PUSH2 0x34FD DUP6 DUP3 DUP7 ADD PUSH2 0x3491 JUMP JUMPDEST SWAP3 POP POP PUSH1 0x20 PUSH2 0x350E DUP6 DUP3 DUP7 ADD PUSH2 0x3343 JUMP JUMPDEST SWAP2 POP POP SWAP3 POP SWAP3 SWAP1 POP JUMP JUMPDEST PUSH0 PUSH20 0xFFFFFFFFFFFFFFFFFFFFFFFFFFFFFFFFFFFFFFFF DUP3 AND SWAP1 POP SWAP2 SWAP1 POP JUMP JUMPDEST PUSH0 PUSH2 0x3541 DUP3 PUSH2 0x3518 JUMP JUMPDEST SWAP1 POP SWAP2 SWAP1 POP JUMP JUMPDEST PUSH2 0x3551 DUP2 PUSH2 0x3537 JUMP JUMPDEST DUP2 EQ PUSH2 0x355B JUMPI PUSH0 PUSH0 REVERT JUMPDEST POP JUMP JUMPDEST PUSH0 DUP2 CALLDATALOAD SWAP1 POP PUSH2 0x356C DUP2 PUSH2 0x3548 JUMP JUMPDEST SWAP3 SWAP2 POP POP JUMP JUMPDEST PUSH0 PUSH1 0x20 DUP3 DUP5 SUB SLT ISZERO PUSH2 0x3587 JUMPI PUSH2 0x3586 PUSH2 0x3325 JUMP JUMPDEST JUMPDEST PUSH0 PUSH2 0x3594 DUP5 DUP3 DUP6 ADD PUSH2 0x355E JUMP JUMPDEST SWAP2 POP POP SWAP3 SWAP2 POP POP JUMP JUMPDEST PUSH2 0x35A6 DUP2 PUSH2 0x3537 JUMP JUMPDEST DUP3 MSTORE POP POP JUMP JUMPDEST PUSH0 PUSH1 0x20 DUP3 ADD SWAP1 POP PUSH2 0x35BF PUSH0 DUP4 ADD DUP5 PUSH2 0x359D JUMP JUMPDEST SWAP3 SWAP2 POP POP JUMP JUMPDEST PUSH0 DUP2 ISZERO ISZERO SWAP1 POP SWAP2 SWAP1 POP JUMP JUMPDEST PUSH2 0x35D9 DUP2 PUSH2 0x35C5 JUMP JUMPDEST DUP3 MSTORE POP POP JUMP JUMPDEST PUSH0 PUSH1 0x20 DUP3 ADD SWAP1 POP PUSH2 0x35F2 PUSH0 DUP4 ADD DUP5 PUSH2 0x35D0 JUMP JUMPDEST SWAP3 SWAP2 POP POP JUMP JUMPDEST PUSH0 DUP2 MLOAD SWAP1 POP SWAP2 SWAP1 POP JUMP JUMPDEST DUP3 DUP2 DUP4 MCOPY PUSH0 DUP4 DUP4 ADD MSTORE POP POP POP JUMP JUMPDEST PUSH0 PUSH2 0x361A DUP3 PUSH2 0x35F8 JUMP JUMPDEST PUSH2 0x3624 DUP2 DUP6 PUSH2 0x31CA JUMP JUMPDEST SWAP4 POP PUSH2 0x3634 DUP2 DUP6 PUSH1 0x20 DUP7 ADD PUSH2 0x3602 JUMP JUMPDEST PUSH2 0x363D DUP2 PUSH2 0x338A JUMP JUMPDEST DUP5 ADD SWAP2 POP POP SWAP3 SWAP2 POP POP JUMP JUMPDEST PUSH0 PUSH1 0x20 DUP3 ADD SWAP1 POP DUP2 DUP2 SUB PUSH0 DUP4 ADD MSTORE PUSH2 0x3660 DUP2 DUP5 PUSH2 0x3610 JUMP JUMPDEST SWAP1 POP SWAP3 SWAP2 POP POP JUMP JUMPDEST PUSH0 DUP2 MLOAD SWAP1 POP SWAP2 SWAP1 POP JUMP JUMPDEST PUSH0 DUP3 DUP3 MSTORE PUSH1 0x20 DUP3 ADD SWAP1 POP SWAP3 SWAP2 POP POP JUMP JUMPDEST PUSH0 DUP2 SWAP1 POP PUSH1 0x20 DUP3 ADD SWAP1 POP SWAP2 SWAP1 POP JUMP JUMPDEST PUSH2 0x369A DUP2 PUSH2 0x32EB JUMP JUMPDEST DUP3 MSTORE POP POP JUMP JUMPDEST PUSH0 PUSH2 0x36AB DUP4 DUP4 PUSH2 0x3691 JUMP JUMPDEST PUSH1 0x20 DUP4 ADD SWAP1 POP SWAP3 SWAP2 POP POP JUMP JUMPDEST PUSH0 PUSH1 0x20 DUP3 ADD SWAP1 POP SWAP2 SWAP1 POP JUMP JUMPDEST PUSH0 PUSH2 0x36CD DUP3 PUSH2 0x3668 JUMP JUMPDEST PUSH2 0x36D7 DUP2 DUP6 PUSH2 0x3672 JUMP JUMPDEST SWAP4 POP PUSH2 0x36E2 DUP4 PUSH2 0x3682 JUMP JUMPDEST DUP1 PUSH0 JUMPDEST DUP4 DUP2 LT ISZERO PUSH2 0x3712 JUMPI DUP2 MLOAD PUSH2 0x36F9 DUP9 DUP3 PUSH2 0x36A0 JUMP JUMPDEST SWAP8 POP PUSH2 0x3704 DUP4 PUSH2 0x36B7 JUMP JUMPDEST SWAP3 POP POP PUSH1 0x1 DUP2 ADD SWAP1 POP PUSH2 0x36E5 JUMP JUMPDEST POP DUP6 SWAP4 POP POP POP POP SWAP3 SWAP2 POP POP JUMP JUMPDEST PUSH0 DUP2 MLOAD SWAP1 POP SWAP2 SWAP1 POP JUMP JUMPDEST PUSH0 DUP3 DUP3 MSTORE PUSH1 0x20 DUP3 ADD SWAP1 POP SWAP3 SWAP2 POP POP JUMP JUMPDEST PUSH0 DUP2 SWAP1 POP PUSH1 0x20 DUP3 ADD SWAP1 POP SWAP2 SWAP1 POP JUMP JUMPDEST PUSH0 DUP3 DUP3 MSTORE PUSH1 0x20 DUP3 ADD SWAP1 POP SWAP3 SWAP2 POP POP JUMP JUMPDEST PUSH0 PUSH2 0x3762 DUP3 PUSH2 0x35F8 JUMP JUMPDEST PUSH2 0x376C DUP2 DUP6 PUSH2 0x3748 JUMP JUMPDEST SWAP4 POP PUSH2 0x377C DUP2 DUP6 PUSH1 0x20 DUP7 ADD PUSH2 0x3602 JUMP JUMPDEST PUSH2 0x3785 DUP2 PUSH2 0x338A JUMP JUMPDEST DUP5 ADD SWAP2 POP POP SWAP3 SWAP2 POP POP JUMP JUMPDEST PUSH0 PUSH2 0x379B DUP4 DUP4 PUSH2 0x3758 JUMP JUMPDEST SWAP1 POP SWAP3 SWAP2 POP POP JUMP JUMPDEST PUSH0 PUSH1 0x20 DUP3 ADD SWAP1 POP SWAP2 SWAP1 POP JUMP JUMPDEST PUSH0 PUSH2 0x37B9 DUP3 PUSH2 0x371F JUMP JUMPDEST PUSH2 0x37C3 DUP2 DUP6 PUSH2 0x3729 JUMP JUMPDEST SWAP4 POP DUP4 PUSH1 0x20 DUP3 MUL DUP6 ADD PUSH2 0x37D5 DUP6 PUSH2 0x3739 JUMP JUMPDEST DUP1 PUSH0 JUMPDEST DUP6 DUP2 LT ISZERO PUSH2 0x3810 JUMPI DUP5 DUP5 SUB DUP10 MSTORE DUP2 MLOAD PUSH2 0x37F1 DUP6 DUP3 PUSH2 0x3790 JUMP JUMPDEST SWAP5 POP PUSH2 0x37FC DUP4 PUSH2 0x37A3 JUMP JUMPDEST SWAP3 POP PUSH1 0x20 DUP11 ADD SWAP10 POP POP PUSH1 0x1 DUP2 ADD SWAP1 POP PUSH2 0x37D8 JUMP JUMPDEST POP DUP3 SWAP8 POP DUP8 SWAP6 POP POP POP POP POP POP SWAP3 SWAP2 POP POP JUMP JUMPDEST PUSH0 PUSH1 0x40 DUP3 ADD SWAP1 POP DUP2 DUP2 SUB PUSH0 DUP4 ADD MSTORE PUSH2 0x383A DUP2 DUP6 PUSH2 0x36C3 JUMP JUMPDEST SWAP1 POP DUP2 DUP2 SUB PUSH1 0x20 DUP4 ADD MSTORE PUSH2 0x384E DUP2 DUP5 PUSH2 0x37AF JUMP JUMPDEST SWAP1 POP SWAP4 SWAP3 POP POP POP JUMP JUMPDEST PUSH2 0x3860 DUP2 PUSH2 0x35C5 JUMP JUMPDEST DUP2 EQ PUSH2 0x386A JUMPI PUSH0 PUSH0 REVERT JUMPDEST POP JUMP JUMPDEST PUSH0 DUP2 CALLDATALOAD SWAP1 POP PUSH2 0x387B DUP2 PUSH2 0x3857 JUMP JUMPDEST SWAP3 SWAP2 POP POP JUMP JUMPDEST PUSH0 PUSH1 0x20 DUP3 DUP5 SUB SLT ISZERO PUSH2 0x3896 JUMPI PUSH2 0x3895 PUSH2 0x3325 JUMP JUMPDEST JUMPDEST PUSH0 PUSH2 0x38A3 DUP5 DUP3 DUP6 ADD PUSH2 0x386D JUMP JUMPDEST SWAP2 POP POP SWAP3 SWAP2 POP POP JUMP JUMPDEST PUSH0 PUSH1 0x20 DUP3 DUP5 SUB SLT ISZERO PUSH2 0x38C1 JUMPI PUSH2 0x38C0 PUSH2 0x3325 JUMP JUMPDEST JUMPDEST PUSH0 DUP3 ADD CALLDATALOAD PUSH8 0xFFFFFFFFFFFFFFFF DUP2 GT ISZERO PUSH2 0x38DE JUMPI PUSH2 0x38DD PUSH2 0x3329 JUMP JUMPDEST JUMPDEST PUSH2 0x38EA DUP5 DUP3 DUP6 ADD PUSH2 0x3491 JUMP JUMPDEST SWAP2 POP POP SWAP3 SWAP2 POP POP JUMP JUMPDEST PUSH0 DUP2 SWAP1 POP SWAP2 SWAP1 POP JUMP JUMPDEST PUSH0 PUSH2 0x3916 PUSH2 0x3911 PUSH2 0x390C DUP5 PUSH2 0x3518 JUMP JUMPDEST PUSH2 0x38F3 JUMP JUMPDEST PUSH2 0x3518 JUMP JUMPDEST SWAP1 POP SWAP2 SWAP1 POP JUMP JUMPDEST PUSH0 PUSH2 0x3927 DUP3 PUSH2 0x38FC JUMP JUMPDEST SWAP1 POP SWAP2 SWAP1 POP JUMP JUMPDEST PUSH0 PUSH2 0x3938 DUP3 PUSH2 0x391D JUMP JUMPDEST SWAP1 POP SWAP2 SWAP1 POP JUMP JUMPDEST PUSH2 0x3948 DUP2 PUSH2 0x392E JUMP JUMPDEST DUP3 MSTORE POP POP JUMP JUMPDEST PUSH0 PUSH1 0xFF DUP3 AND SWAP1 POP SWAP2 SWAP1 POP JUMP JUMPDEST PUSH2 0x3963 DUP2 PUSH2 0x394E JUMP JUMPDEST DUP3 MSTORE POP POP JUMP JUMPDEST PUSH0 PUSH1 0x80 DUP3 ADD SWAP1 POP PUSH2 0x397C PUSH0 DUP4 ADD DUP8 PUSH2 0x359D JUMP JUMPDEST PUSH2 0x3989 PUSH1 0x20 DUP4 ADD DUP7 PUSH2 0x393F JUMP JUMPDEST PUSH2 0x3996 PUSH1 0x40 DUP4 ADD DUP6 PUSH2 0x395A JUMP JUMPDEST PUSH2 0x39A3 PUSH1 0x60 DUP4 ADD DUP5 PUSH2 0x35D0 JUMP JUMPDEST SWAP6 SWAP5 POP POP POP POP POP JUMP JUMPDEST PUSH0 PUSH1 0xA0 DUP3 ADD SWAP1 POP PUSH2 0x39BF PUSH0 DUP4 ADD DUP9 PUSH2 0x32F4 JUMP JUMPDEST PUSH2 0x39CC PUSH1 0x20 DUP4 ADD DUP8 PUSH2 0x32F4 JUMP JUMPDEST PUSH2 0x39D9 PUSH1 0x40 DUP4 ADD DUP7 PUSH2 0x32F4 JUMP JUMPDEST PUSH2 0x39E6 PUSH1 0x60 DUP4 ADD DUP6 PUSH2 0x35D0 JUMP JUMPDEST PUSH2 0x39F3 PUSH1 0x80 DUP4 ADD DUP5 PUSH2 0x32F4 JUMP JUMPDEST SWAP7 SWAP6 POP POP POP POP POP POP JUMP JUMPDEST PUSH0 DUP2 MLOAD SWAP1 POP SWAP2 SWAP1 POP JUMP JUMPDEST PUSH0 DUP3 DUP3 MSTORE PUSH1 0x20 DUP3 ADD SWAP1 POP SWAP3 SWAP2 POP POP JUMP JUMPDEST PUSH0 DUP2 SWAP1 POP PUSH1 0x20 DUP3 ADD SWAP1 POP SWAP2 SWAP1 POP JUMP JUMPDEST PUSH2 0x3A2F DUP2 PUSH2 0x3537 JUMP JUMPDEST DUP3 MSTORE POP POP JUMP JUMPDEST PUSH0 PUSH2 0x3A40 DUP4 DUP4 PUSH2 0x3A26 JUMP JUMPDEST PUSH1 0x20 DUP4 ADD SWAP1 POP SWAP3 SWAP2 POP POP JUMP JUMPDEST PUSH0 PUSH1 0x20 DUP3 ADD SWAP1 POP SWAP2 SWAP1 POP JUMP JUMPDEST PUSH0 PUSH2 0x3A62 DUP3 PUSH2 0x39FD JUMP JUMPDEST PUSH2 0x3A6C DUP2 DUP6 PUSH2 0x3A07 JUMP JUMPDEST SWAP4 POP PUSH2 0x3A77 DUP4 PUSH2 0x3A17 JUMP JUMPDEST DUP1 PUSH0 JUMPDEST DUP4 DUP2 LT ISZERO PUSH2 0x3AA7 JUMPI DUP2 MLOAD PUSH2 0x3A8E DUP9 DUP3 PUSH2 0x3A35 JUMP JUMPDEST SWAP8 POP PUSH2 0x3A99 DUP4 PUSH2 0x3A4C JUMP JUMPDEST SWAP3 POP POP PUSH1 0x1 DUP2 ADD SWAP1 POP PUSH2 0x3A7A JUMP JUMPDEST POP DUP6 SWAP4 POP POP POP POP SWAP3 SWAP2 POP POP JUMP JUMPDEST PUSH0 DUP2 MLOAD SWAP1 POP SWAP2 SWAP1 POP JUMP JUMPDEST PUSH0 DUP3 DUP3 MSTORE PUSH1 0x20 DUP3 ADD SWAP1 POP SWAP3 SWAP2 POP POP JUMP JUMPDEST PUSH0 DUP2 SWAP1 POP PUSH1 0x20 DUP3 ADD SWAP1 POP SWAP2 SWAP1 POP JUMP JUMPDEST PUSH2 0x3AE6 DUP2 PUSH2 0x35C5 JUMP JUMPDEST DUP3 MSTORE POP POP JUMP JUMPDEST PUSH0 PUSH2 0x3AF7 DUP4 DUP4 PUSH2 0x3ADD JUMP JUMPDEST PUSH1 0x20 DUP4 ADD SWAP1 POP SWAP3 SWAP2 POP POP JUMP JUMPDEST PUSH0 PUSH1 0x20 DUP3 ADD SWAP1 POP SWAP2 SWAP1 POP JUMP JUMPDEST PUSH0 PUSH2 0x3B19 DUP3 PUSH2 0x3AB4 JUMP JUMPDEST PUSH2 0x3B23 DUP2 DUP6 PUSH2 0x3ABE JUMP JUMPDEST SWAP4 POP PUSH2 0x3B2E DUP4 PUSH2 0x3ACE JUMP JUMPDEST DUP1 PUSH0 JUMPDEST DUP4 DUP2 LT ISZERO PUSH2 0x3B5E JUMPI DUP2 MLOAD PUSH2 0x3B45 DUP9 DUP3 PUSH2 0x3AEC JUMP JUMPDEST SWAP8 POP PUSH2 0x3B50 DUP4 PUSH2 0x3B03 JUMP JUMPDEST SWAP3 POP POP PUSH1 0x1 DUP2 ADD SWAP1 POP PUSH2 0x3B31 JUMP JUMPDEST POP DUP6 SWAP4 POP POP POP POP SWAP3 SWAP2 POP POP JUMP JUMPDEST PUSH0 PUSH1 0x60 DUP3 ADD SWAP1 POP DUP2 DUP2 SUB PUSH0 DUP4 ADD MSTORE PUSH2 0x3B83 DUP2 DUP7 PUSH2 0x37AF JUMP JUMPDEST SWAP1 POP DUP2 DUP2 SUB PUSH1 0x20 DUP4 ADD MSTORE PUSH2 0x3B97 DUP2 DUP6 PUSH2 0x3A58 JUMP JUMPDEST SWAP1 POP DUP2 DUP2 SUB PUSH1 0x40 DUP4 ADD MSTORE PUSH2 0x3BAB DUP2 DUP5 PUSH2 0x3B0F JUMP JUMPDEST SWAP1 POP SWAP5 SWAP4 POP POP POP POP JUMP JUMPDEST PUSH0 DUP2 SWAP1 POP SWAP3 SWAP2 POP POP JUMP JUMPDEST PUSH0 PUSH2 0x3BC9 DUP3 PUSH2 0x35F8 JUMP JUMPDEST PUSH2 0x3BD3 DUP2 DUP6 PUSH2 0x3BB5 JUMP JUMPDEST SWAP4 POP PUSH2 0x3BE3 DUP2 DUP6 PUSH1 0x20 DUP7 ADD PUSH2 0x3602 JUMP JUMPDEST DUP1 DUP5 ADD SWAP2 POP POP SWAP3 SWAP2 POP POP JUMP JUMPDEST PUSH0 PUSH2 0x3BFA DUP3 DUP5 PUSH2 0x3BBF JUMP JUMPDEST SWAP2 POP DUP2 SWAP1 POP SWAP3 SWAP2 POP POP JUMP JUMPDEST PUSH32 0x546F6B656E206E6F7420737570706F7274656400000000000000000000000000 PUSH0 DUP3 ADD MSTORE POP JUMP JUMPDEST PUSH0 PUSH2 0x3C39 PUSH1 0x13 DUP4 PUSH2 0x31CA JUMP JUMPDEST SWAP2 POP PUSH2 0x3C44 DUP3 PUSH2 0x3C05 JUMP JUMPDEST PUSH1 0x20 DUP3 ADD SWAP1 POP SWAP2 SWAP1 POP JUMP JUMPDEST PUSH0 PUSH1 0x20 DUP3 ADD SWAP1 POP DUP2 DUP2 SUB PUSH0 DUP4 ADD MSTORE PUSH2 0x3C66 DUP2 PUSH2 0x3C2D JUMP JUMPDEST SWAP1 POP SWAP2 SWAP1 POP JUMP JUMPDEST PUSH32 0x50726963652066656564206E6F7420617661696C61626C650000000000000000 PUSH0 DUP3 ADD MSTORE POP JUMP JUMPDEST PUSH0 PUSH2 0x3CA1 PUSH1 0x18 DUP4 PUSH2 0x31CA JUMP JUMPDEST SWAP2 POP PUSH2 0x3CAC DUP3 PUSH2 0x3C6D JUMP JUMPDEST PUSH1 0x20 DUP3 ADD SWAP1 POP SWAP2 SWAP1 POP JUMP JUMPDEST PUSH0 PUSH1 0x20 DUP3 ADD SWAP1 POP DUP2 DUP2 SUB PUSH0 DUP4 ADD MSTORE PUSH2 0x3CCE DUP2 PUSH2 0x3C95 JUMP JUMPDEST SWAP1 POP SWAP2 SWAP1 POP JUMP JUMPDEST PUSH0 PUSH10 0xFFFFFFFFFFFFFFFFFFFF DUP3 AND SWAP1 POP SWAP2 SWAP1 POP JUMP JUMPDEST PUSH2 0x3CF3 DUP2 PUSH2 0x3CD5 JUMP JUMPDEST DUP2 EQ PUSH2 0x3CFD JUMPI PUSH0 PUSH0 REVERT JUMPDEST POP JUMP JUMPDEST PUSH0 DUP2 MLOAD SWAP1 POP PUSH2 0x3D0E DUP2 PUSH2 0x3CEA JUMP JUMPDEST SWAP3 SWAP2 POP POP JUMP JUMPDEST PUSH0 DUP2 SWAP1 POP SWAP2 SWAP1 POP JUMP JUMPDEST PUSH2 0x3D26 DUP2 PUSH2 0x3D14 JUMP JUMPDEST DUP2 EQ PUSH2 0x3D30 JUMPI PUSH0 PUSH0 REVERT JUMPDEST POP JUMP JUMPDEST PUSH0 DUP2 MLOAD SWAP1 POP PUSH2 0x3D41 DUP2 PUSH2 0x3D1D JUMP JUMPDEST SWAP3 SWAP2 POP POP JUMP JUMPDEST PUSH0 DUP2 MLOAD SWAP1 POP PUSH2 0x3D55 DUP2 PUSH2 0x332D JUMP JUMPDEST SWAP3 SWAP2 POP POP JUMP JUMPDEST PUSH0 PUSH0 PUSH0 PUSH0 PUSH0 PUSH1 0xA0 DUP7 DUP9 SUB SLT ISZERO PUSH2 0x3D74 JUMPI PUSH2 0x3D73 PUSH2 0x3325 JUMP JUMPDEST JUMPDEST PUSH0 PUSH2 0x3D81 DUP9 DUP3 DUP10 ADD PUSH2 0x3D00 JUMP JUMPDEST SWAP6 POP POP PUSH1 0x20 PUSH2 0x3D92 DUP9 DUP3 DUP10 ADD PUSH2 0x3D33 JUMP JUMPDEST SWAP5 POP POP PUSH1 0x40 PUSH2 0x3DA3 DUP9 DUP3 DUP10 ADD PUSH2 0x3D47 JUMP JUMPDEST SWAP4 POP POP PUSH1 0x60 PUSH2 0x3DB4 DUP9 DUP3 DUP10 ADD PUSH2 0x3D47 JUMP JUMPDEST SWAP3 POP POP PUSH1 0x80 PUSH2 0x3DC5 DUP9 DUP3 DUP10 ADD PUSH2 0x3D00 JUMP JUMPDEST SWAP2 POP POP SWAP3 SWAP6 POP SWAP3 SWAP6 SWAP1 SWAP4 POP JUMP JUMPDEST PUSH32 0x496E76616C696420707269636500000000000000000000000000000000000000 PUSH0 DUP3 ADD MSTORE POP JUMP JUMPDEST PUSH0 PUSH2 0x3E06 PUSH1 0xD DUP4 PUSH2 0x31CA JUMP JUMPDEST SWAP2 POP PUSH2 0x3E11 DUP3 PUSH2 0x3DD2 JUMP JUMPDEST PUSH1 0x20 DUP3 ADD SWAP1 POP SWAP2 SWAP1 POP JUMP JUMPDEST PUSH0 PUSH1 0x20 DUP3 ADD SWAP1 POP DUP2 DUP2 SUB PUSH0 DUP4 ADD MSTORE PUSH2 0x3E33 DUP2 PUSH2 0x3DFA JUMP JUMPDEST SWAP1 POP SWAP2 SWAP1 POP JUMP JUMPDEST PUSH32 0x4E487B7100000000000000000000000000000000000000000000000000000000 PUSH0 MSTORE PUSH1 0x11 PUSH1 0x4 MSTORE PUSH1 0x24 PUSH0 REVERT JUMPDEST PUSH0 DUP2 PUSH1 0x1 SHR SWAP1 POP SWAP2 SWAP1 POP JUMP JUMPDEST PUSH0 PUSH0 DUP3 SWAP2 POP DUP4 SWAP1 POP JUMPDEST PUSH1 0x1 DUP6 GT ISZERO PUSH2 0x3EBC JUMPI DUP1 DUP7 DIV DUP2 GT ISZERO PUSH2 0x3E98 JUMPI PUSH2 0x3E97 PUSH2 0x3E3A JUMP JUMPDEST JUMPDEST PUSH1 0x1 DUP6 AND ISZERO PUSH2 0x3EA7 JUMPI DUP1 DUP3 MUL SWAP2 POP JUMPDEST DUP1 DUP2 MUL SWAP1 POP PUSH2 0x3EB5 DUP6 PUSH2 0x3E67 JUMP JUMPDEST SWAP5 POP PUSH2 0x3E7C JUMP JUMPDEST SWAP5 POP SWAP5 SWAP3 POP POP POP JUMP JUMPDEST PUSH0 DUP3 PUSH2 0x3ED4 JUMPI PUSH1 0x1 SWAP1 POP PUSH2 0x3F8F JUMP JUMPDEST DUP2 PUSH2 0x3EE1 JUMPI PUSH0 SWAP1 POP PUSH2 0x3F8F JUMP JUMPDEST DUP2 PUSH1 0x1 DUP2 EQ PUSH2 0x3EF7 JUMPI PUSH1 0x2 DUP2 EQ PUSH2 0x3F01 JUMPI PUSH2 0x3F30 JUMP JUMPDEST PUSH1 0x1 SWAP2 POP POP PUSH2 0x3F8F JUMP JUMPDEST PUSH1 0xFF DUP5 GT ISZERO PUSH2 0x3F13 JUMPI PUSH2 0x3F12 PUSH2 0x3E3A JUMP JUMPDEST JUMPDEST DUP4 PUSH1 0x2 EXP SWAP2 POP DUP5 DUP3 GT ISZERO PUSH2 0x3F2A JUMPI PUSH2 0x3F29 PUSH2 0x3E3A JUMP JUMPDEST JUMPDEST POP PUSH2 0x3F8F JUMP JUMPDEST POP PUSH1 0x20 DUP4 LT PUSH2 0x133 DUP4 LT AND PUSH1 0x4E DUP5 LT PUSH1 0xB DUP5 LT AND OR ISZERO PUSH2 0x3F65 JUMPI DUP3 DUP3 EXP SWAP1 POP DUP4 DUP2 GT ISZERO PUSH2 0x3F60 JUMPI PUSH2 0x3F5F PUSH2 0x3E3A JUMP JUMPDEST JUMPDEST PUSH2 0x3F8F JUMP JUMPDEST PUSH2 0x3F72 DUP5 DUP5 DUP5 PUSH1 0x1 PUSH2 0x3E73 JUMP JUMPDEST SWAP3 POP SWAP1 POP DUP2 DUP5 DIV DUP2 GT ISZERO PUSH2 0x3F89 JUMPI PUSH2 0x3F88 PUSH2 0x3E3A JUMP JUMPDEST JUMPDEST DUP2 DUP2 MUL SWAP1 POP JUMPDEST SWAP4 SWAP3 POP POP POP JUMP JUMPDEST PUSH0 PUSH2 0x3FA0 DUP3 PUSH2 0x32EB JUMP JUMPDEST SWAP2 POP PUSH2 0x3FAB DUP4 PUSH2 0x394E JUMP JUMPDEST SWAP3 POP PUSH2 0x3FD8 PUSH32 0xFFFFFFFFFFFFFFFFFFFFFFFFFFFFFFFFFFFFFFFFFFFFFFFFFFFFFFFFFFFFFFFF DUP5 DUP5 PUSH2 0x3EC5 JUMP JUMPDEST SWAP1 POP SWAP3 SWAP2 POP POP JUMP JUMPDEST PUSH0 PUSH2 0x3FEA DUP3 PUSH2 0x32EB JUMP JUMPDEST SWAP2 POP PUSH2 0x3FF5 DUP4 PUSH2 0x32EB JUMP JUMPDEST SWAP3 POP DUP3 DUP3 MUL PUSH2 0x4003 DUP2 PUSH2 0x32EB JUMP JUMPDEST SWAP2 POP DUP3 DUP3 DIV DUP5 EQ DUP4 ISZERO OR PUSH2 0x401A JUMPI PUSH2 0x4019 PUSH2 0x3E3A JUMP JUMPDEST JUMPDEST POP SWAP3 SWAP2 POP POP JUMP JUMPDEST PUSH32 0x4E487B7100000000000000000000000000000000000000000000000000000000 PUSH0 MSTORE PUSH1 0x12 PUSH1 0x4 MSTORE PUSH1 0x24 PUSH0 REVERT JUMPDEST PUSH0 PUSH2 0x4058 DUP3 PUSH2 0x32EB JUMP JUMPDEST SWAP2 POP PUSH2 0x4063 DUP4 PUSH2 0x32EB JUMP JUMPDEST SWAP3 POP DUP3 PUSH2 0x4073 JUMPI PUSH2 0x4072 PUSH2 0x4021 JUMP JUMPDEST JUMPDEST DUP3 DUP3 DIV SWAP1 POP SWAP3 SWAP2 POP POP JUMP JUMPDEST PUSH32 0x514920616D6F756E74206D757374206265203E20300000000000000000000000 PUSH0 DUP3 ADD MSTORE POP JUMP JUMPDEST PUSH0 PUSH2 0x40B2 PUSH1 0x15 DUP4 PUSH2 0x31CA JUMP JUMPDEST SWAP2 POP PUSH2 0x40BD DUP3 PUSH2 0x407E JUMP JUMPDEST PUSH1 0x20 DUP3 ADD SWAP1 POP SWAP2 SWAP1 POP JUMP JUMPDEST PUSH0 PUSH1 0x20 DUP3 ADD SWAP1 POP DUP2 DUP2 SUB PUSH0 DUP4 ADD MSTORE PUSH2 0x40DF DUP2 PUSH2 0x40A6 JUMP JUMPDEST SWAP1 POP SWAP2 SWAP1 POP JUMP JUMPDEST PUSH0 PUSH2 0x40F0 DUP3 PUSH2 0x32EB JUMP JUMPDEST SWAP2 POP PUSH2 0x40FB DUP4 PUSH2 0x32EB JUMP JUMPDEST SWAP3 POP DUP3 DUP3 ADD SWAP1 POP DUP1 DUP3 GT ISZERO PUSH2 0x4113 JUMPI PUSH2 0x4112 PUSH2 0x3E3A JUMP JUMPDEST JUMPDEST SWAP3 SWAP2 POP POP JUMP JUMPDEST PUSH32 0x457863656564732070726573616C652074617267657400000000000000000000 PUSH0 DUP3 ADD MSTORE POP JUMP JUMPDEST PUSH0 PUSH2 0x414D PUSH1 0x16 DUP4 PUSH2 0x31CA JUMP JUMPDEST SWAP2 POP PUSH2 0x4158 DUP3 PUSH2 0x4119 JUMP JUMPDEST PUSH1 0x20 DUP3 ADD SWAP1 POP SWAP2 SWAP1 POP JUMP JUMPDEST PUSH0 PUSH1 0x20 DUP3 ADD SWAP1 POP DUP2 DUP2 SUB PUSH0 DUP4 ADD MSTORE PUSH2 0x417A DUP2 PUSH2 0x4141 JUMP JUMPDEST SWAP1 POP SWAP2 SWAP1 POP JUMP JUMPDEST PUSH32 0x42656C6F77206D696E696D756D20707572636861736500000000000000000000 PUSH0 DUP3 ADD MSTORE POP JUMP JUMPDEST PUSH0 PUSH2 0x41B5 PUSH1 0x16 DUP4 PUSH2 0x31CA JUMP JUMPDEST SWAP2 POP PUSH2 0x41C0 DUP3 PUSH2 0x4181 JUMP JUMPDEST PUSH1 0x20 DUP3 ADD SWAP1 POP SWAP2 SWAP1 POP JUMP JUMPDEST PUSH0 PUSH1 0x20 DUP3 ADD SWAP1 POP DUP2 DUP2 SUB PUSH0 DUP4 ADD MSTORE PUSH2 0x41E2 DUP2 PUSH2 0x41A9 JUMP JUMPDEST SWAP1 POP SWAP2 SWAP1 POP JUMP JUMPDEST PUSH0 PUSH1 0x60 DUP3 ADD SWAP1 POP PUSH2 0x41FC PUSH0 DUP4 ADD DUP7 PUSH2 0x359D JUMP JUMPDEST PUSH2 0x4209 PUSH1 0x20 DUP4 ADD DUP6 PUSH2 0x359D JUMP JUMPDEST PUSH2 0x4216 PUSH1 0x40 DUP4 ADD DUP5 PUSH2 0x32F4 JUMP JUMPDEST SWAP5 SWAP4 POP POP POP POP JUMP JUMPDEST PUSH0 DUP2 MLOAD SWAP1 POP PUSH2 0x422C DUP2 PUSH2 0x3857 JUMP JUMPDEST SWAP3 SWAP2 POP POP JUMP JUMPDEST PUSH0 PUSH1 0x20 DUP3 DUP5 SUB SLT ISZERO PUSH2 0x4247 JUMPI PUSH2 0x4246 PUSH2 0x3325 JUMP JUMPDEST JUMPDEST PUSH0 PUSH2 0x4254 DUP5 DUP3 DUP6 ADD PUSH2 0x421E JUMP JUMPDEST SWAP2 POP POP SWAP3 SWAP2 POP POP JUMP JUMPDEST PUSH32 0x5149207472616E73666572206661696C65640000000000000000000000000000 PUSH0 DUP3 ADD MSTORE POP JUMP JUMPDEST PUSH0 PUSH2 0x4291 PUSH1 0x12 DUP4 PUSH2 0x31CA JUMP JUMPDEST SWAP2 POP PUSH2 0x429C DUP3 PUSH2 0x425D JUMP JUMPDEST PUSH1 0x20 DUP3 ADD SWAP1 POP SWAP2 SWAP1 POP JUMP JUMPDEST PUSH0 PUSH1 0x20 DUP3 ADD SWAP1 POP DUP2 DUP2 SUB PUSH0 DUP4 ADD MSTORE PUSH2 0x42BE DUP2 PUSH2 0x4285 JUMP JUMPDEST SWAP1 POP SWAP2 SWAP1 POP JUMP JUMPDEST PUSH0 PUSH1 0x80 DUP3 ADD SWAP1 POP DUP2 DUP2 SUB PUSH0 DUP4 ADD MSTORE PUSH2 0x42DD DUP2 DUP8 PUSH2 0x3610 JUMP JUMPDEST SWAP1 POP PUSH2 0x42EC PUSH1 0x20 DUP4 ADD DUP7 PUSH2 0x32F4 JUMP JUMPDEST PUSH2 0x42F9 PUSH1 0x40 DUP4 ADD DUP6 PUSH2 0x32F4 JUMP JUMPDEST PUSH2 0x4306 PUSH1 0x60 DUP4 ADD DUP5 PUSH2 0x32F4 JUMP JUMPDEST SWAP6 SWAP5 POP POP POP POP POP JUMP JUMPDEST PUSH32 0x50726573616C65206E6F74206163746976650000000000000000000000000000 PUSH0 DUP3 ADD MSTORE POP JUMP JUMPDEST PUSH0 PUSH2 0x4343 PUSH1 0x12 DUP4 PUSH2 0x31CA JUMP JUMPDEST SWAP2 POP PUSH2 0x434E DUP3 PUSH2 0x430F JUMP JUMPDEST PUSH1 0x20 DUP3 ADD SWAP1 POP SWAP2 SWAP1 POP JUMP JUMPDEST PUSH0 PUSH1 0x20 DUP3 ADD SWAP1 POP DUP2 DUP2 SUB PUSH0 DUP4 ADD MSTORE PUSH2 0x4370 DUP2 PUSH2 0x4337 JUMP JUMPDEST SWAP1 POP SWAP2 SWAP1 POP JUMP JUMPDEST PUSH32 0x45544820616D6F756E74206D757374206265203E203000000000000000000000 PUSH0 DUP3 ADD MSTORE POP JUMP JUMPDEST PUSH0 PUSH2 0x43AB PUSH1 0x16 DUP4 PUSH2 0x31CA JUMP JUMPDEST SWAP2 POP PUSH2 0x43B6 DUP3 PUSH2 0x4377 JUMP JUMPDEST PUSH1 0x20 DUP3 ADD SWAP1 POP SWAP2 SWAP1 POP JUMP JUMPDEST PUSH0 PUSH1 0x20 DUP3 ADD SWAP1 POP DUP2 DUP2 SUB PUSH0 DUP4 ADD MSTORE PUSH2 0x43D8 DUP2 PUSH2 0x439F JUMP JUMPDEST SWAP1 POP SWAP2 SWAP1 POP JUMP JUMPDEST PUSH32 0x5742544320616D6F756E74206D757374206265203E2030000000000000000000 PUSH0 DUP3 ADD MSTORE POP JUMP JUMPDEST PUSH0 PUSH2 0x4413 PUSH1 0x17 DUP4 PUSH2 0x31CA JUMP JUMPDEST SWAP2 POP PUSH2 0x441E DUP3 PUSH2 0x43DF JUMP JUMPDEST PUSH1 0x20 DUP3 ADD SWAP1 POP SWAP2 SWAP1 POP JUMP JUMPDEST PUSH0 PUSH1 0x20 DUP3 ADD SWAP1 POP DUP2 DUP2 SUB PUSH0 DUP4 ADD MSTORE PUSH2 0x4440 DUP2 PUSH2 0x4407 JUMP JUMPDEST SWAP1 POP SWAP2 SWAP1 POP JUMP JUMPDEST PUSH32 0x5742544300000000000000000000000000000000000000000000000000000000 PUSH0 DUP3 ADD MSTORE POP JUMP JUMPDEST PUSH0 PUSH2 0x447B PUSH1 0x4 DUP4 PUSH2 0x3BB5 JUMP JUMPDEST SWAP2 POP PUSH2 0x4486 DUP3 PUSH2 0x4447 JUMP JUMPDEST PUSH1 0x4 DUP3 ADD SWAP1 POP SWAP2 SWAP1 POP JUMP JUMPDEST PUSH0 PUSH2 0x449B DUP3 PUSH2 0x446F JUMP JUMPDEST SWAP2 POP DUP2 SWAP1 POP SWAP2 SWAP1 POP JUMP JUMPDEST PUSH32 0x57425443207472616E73666572206661696C6564000000000000000000000000 PUSH0 DUP3 ADD MSTORE POP JUMP JUMPDEST PUSH0 PUSH2 0x44D9 PUSH1 0x14 DUP4 PUSH2 0x31CA JUMP JUMPDEST SWAP2 POP PUSH2 0x44E4 DUP3 PUSH2 0x44A5 JUMP JUMPDEST PUSH1 0x20 DUP3 ADD SWAP1 POP SWAP2 SWAP1 POP JUMP JUMPDEST PUSH0 PUSH1 0x20 DUP3 ADD SWAP1 POP DUP2 DUP2 SUB PUSH0 DUP4 ADD MSTORE PUSH2 0x4506 DUP2 PUSH2 0x44CD JUMP JUMPDEST SWAP1 POP SWAP2 SWAP1 POP JUMP JUMPDEST PUSH32 0x45544820616D6F756E74206D69736D6174636800000000000000000000000000 PUSH0 DUP3 ADD MSTORE POP JUMP JUMPDEST PUSH0 PUSH2 0x4541 PUSH1 0x13 DUP4 PUSH2 0x31CA JUMP JUMPDEST SWAP2 POP PUSH2 0x454C DUP3 PUSH2 0x450D JUMP JUMPDEST PUSH1 0x20 DUP3 ADD SWAP1 POP SWAP2 SWAP1 POP JUMP JUMPDEST PUSH0 PUSH1 0x20 DUP3 ADD SWAP1 POP DUP2 DUP2 SUB PUSH0 DUP4 ADD MSTORE PUSH2 0x456E DUP2 PUSH2 0x4535 JUMP JUMPDEST SWAP1 POP SWAP2 SWAP1 POP JUMP JUMPDEST PUSH32 0x5553445420616D6F756E74206D757374206265203E2030000000000000000000 PUSH0 DUP3 ADD MSTORE POP JUMP JUMPDEST PUSH0 PUSH2 0x45A9 PUSH1 0x17 DUP4 PUSH2 0x31CA JUMP JUMPDEST SWAP2 POP PUSH2 0x45B4 DUP3 PUSH2 0x4575 JUMP JUMPDEST PUSH1 0x20 DUP3 ADD SWAP1 POP SWAP2 SWAP1 POP JUMP JUMPDEST PUSH0 PUSH1 0x20 DUP3 ADD SWAP1 POP DUP2 DUP2 SUB PUSH0 DUP4 ADD MSTORE PUSH2 0x45D6 DUP2 PUSH2 0x459D JUMP JUMPDEST SWAP1 POP SWAP2 SWAP1 POP JUMP JUMPDEST PUSH32 0x5553445400000000000000000000000000000000000000000000000000000000 PUSH0 DUP3 ADD MSTORE POP JUMP JUMPDEST PUSH0 PUSH2 0x4611 PUSH1 0x4 DUP4 PUSH2 0x3BB5 JUMP JUMPDEST SWAP2 POP PUSH2 0x461C DUP3 PUSH2 0x45DD JUMP JUMPDEST PUSH1 0x4 DUP3 ADD SWAP1 POP SWAP2 SWAP1 POP JUMP JUMPDEST PUSH0 PUSH2 0x4631 DUP3 PUSH2 0x4605 JUMP JUMPDEST SWAP2 POP DUP2 SWAP1 POP SWAP2 SWAP1 POP JUMP JUMPDEST PUSH32 0x55534454207472616E73666572206661696C6564000000000000000000000000 PUSH0 DUP3 ADD MSTORE POP JUMP JUMPDEST PUSH0 PUSH2 0x466F PUSH1 0x14 DUP4 PUSH2 0x31CA JUMP JUMPDEST SWAP2 POP PUSH2 0x467A DUP3 PUSH2 0x463B JUMP JUMPDEST PUSH1 0x20 DUP3 ADD SWAP1 POP SWAP2 SWAP1 POP JUMP JUMPDEST PUSH0 PUSH1 0x20 DUP3 ADD SWAP1 POP DUP2 DUP2 SUB PUSH0 DUP4 ADD MSTORE PUSH2 0x469C DUP2 PUSH2 0x4663 JUMP JUMPDEST SWAP1 POP SWAP2 SWAP1 POP JUMP JUMPDEST PUSH32 0x5553444320616D6F756E74206D757374206265203E2030000000000000000000 PUSH0 DUP3 ADD MSTORE POP JUMP JUMPDEST PUSH0 PUSH2 0x46D7 PUSH1 0x17 DUP4 PUSH2 0x31CA JUMP JUMPDEST SWAP2 POP PUSH2 0x46E2 DUP3 PUSH2 0x46A3 JUMP JUMPDEST PUSH1 0x20 DUP3 ADD SWAP1 POP SWAP2 SWAP1 POP JUMP JUMPDEST PUSH0 PUSH1 0x20 DUP3 ADD SWAP1 POP DUP2 DUP2 SUB PUSH0 DUP4 ADD MSTORE PUSH2 0x4704 DUP2 PUSH2 0x46CB JUMP JUMPDEST SWAP1 POP SWAP2 SWAP1 POP JUMP JUMPDEST PUSH32 0x5553444300000000000000000000000000000000000000000000000000000000 PUSH0 DUP3 ADD MSTORE POP JUMP JUMPDEST PUSH0 PUSH2 0x473F PUSH1 0x4 DUP4 PUSH2 0x3BB5 JUMP JUMPDEST SWAP2 POP PUSH2 0x474A DUP3 PUSH2 0x470B JUMP JUMPDEST PUSH1 0x4 DUP3 ADD SWAP1 POP SWAP2 SWAP1 POP JUMP JUMPDEST PUSH0 PUSH2 0x475F DUP3 PUSH2 0x4733 JUMP JUMPDEST SWAP2 POP DUP2 SWAP1 POP SWAP2 SWAP1 POP JUMP JUMPDEST PUSH32 0x55534443207472616E73666572206661696C6564000000000000000000000000 PUSH0 DUP3 ADD MSTORE POP JUMP JUMPDEST PUSH0 PUSH2 0x479D PUSH1 0x14 DUP4 PUSH2 0x31CA JUMP JUMPDEST SWAP2 POP PUSH2 0x47A8 DUP3 PUSH2 0x4769 JUMP JUMPDEST PUSH1 0x20 DUP3 ADD SWAP1 POP SWAP2 SWAP1 POP JUMP JUMPDEST PUSH0 PUSH1 0x20 DUP3 ADD SWAP1 POP DUP2 DUP2 SUB PUSH0 DUP4 ADD MSTORE PUSH2 0x47CA DUP2 PUSH2 0x4791 JUMP JUMPDEST SWAP1 POP SWAP2 SWAP1 POP JUMP JUMPDEST PUSH32 0x546F6B656E206E6F7420696D706C656D656E7465640000000000000000000000 PUSH0 DUP3 ADD MSTORE POP JUMP JUMPDEST PUSH0 PUSH2 0x4805 PUSH1 0x15 DUP4 PUSH2 0x31CA JUMP JUMPDEST SWAP2 POP PUSH2 0x4810 DUP3 PUSH2 0x47D1 JUMP JUMPDEST PUSH1 0x20 DUP3 ADD SWAP1 POP SWAP2 SWAP1 POP JUMP JUMPDEST PUSH0 PUSH1 0x20 DUP3 ADD SWAP1 POP DUP2 DUP2 SUB PUSH0 DUP4 ADD MSTORE PUSH2 0x4832 DUP2 PUSH2 0x47F9 JUMP JUMPDEST SWAP1 POP SWAP2 SWAP1 POP JUMP JUMPDEST PUSH0 PUSH1 0x20 DUP3 DUP5 SUB SLT ISZERO PUSH2 0x484E JUMPI PUSH2 0x484D PUSH2 0x3325 JUMP JUMPDEST JUMPDEST PUSH0 PUSH2 0x485B DUP5 DUP3 DUP6 ADD PUSH2 0x3D47 JUMP JUMPDEST SWAP2 POP POP SWAP3 SWAP2 POP POP JUMP JUMPDEST PUSH32 0x4E487B7100000000000000000000000000000000000000000000000000000000 PUSH0 MSTORE PUSH1 0x22 PUSH1 0x4 MSTORE PUSH1 0x24 PUSH0 REVERT JUMPDEST PUSH0 PUSH1 0x2 DUP3 DIV SWAP1 POP PUSH1 0x1 DUP3 AND DUP1 PUSH2 0x48A8 JUMPI PUSH1 0x7F DUP3 AND SWAP2 POP JUMPDEST PUSH1 0x20 DUP3 LT DUP2 SUB PUSH2 0x48BB JUMPI PUSH2 0x48BA PUSH2 0x4864 JUMP JUMPDEST JUMPDEST POP SWAP2 SWAP1 POP JUMP JUMPDEST PUSH32 0x4E6F74206F776E65720000000000000000000000000000000000000000000000 PUSH0 DUP3 ADD MSTORE POP JUMP JUMPDEST PUSH0 PUSH2 0x48F5 PUSH1 0x9 DUP4 PUSH2 0x31CA JUMP JUMPDEST SWAP2 POP PUSH2 0x4900 DUP3 PUSH2 0x48C1 JUMP JUMPDEST PUSH1 0x20 DUP3 ADD SWAP1 POP SWAP2 SWAP1 POP JUMP JUMPDEST PUSH0 PUSH1 0x20 DUP3 ADD SWAP1 POP DUP2 DUP2 SUB PUSH0 DUP4 ADD MSTORE PUSH2 0x4922 DUP2 PUSH2 0x48E9 JUMP JUMPDEST SWAP1 POP SWAP2 SWAP1 POP JUMP JUMPDEST PUSH32 0x455448207769746864726177206661696C656400000000000000000000000000 PUSH0 DUP3 ADD MSTORE POP JUMP JUMPDEST PUSH0 PUSH2 0x495D PUSH1 0x13 DUP4 PUSH2 0x31CA JUMP JUMPDEST SWAP2 POP PUSH2 0x4968 DUP3 PUSH2 0x4929 JUMP JUMPDEST PUSH1 0x20 DUP3 ADD SWAP1 POP SWAP2 SWAP1 POP JUMP JUMPDEST PUSH0 PUSH1 0x20 DUP3 ADD SWAP1 POP DUP2 DUP2 SUB PUSH0 DUP4 ADD MSTORE PUSH2 0x498A DUP2 PUSH2 0x4951 JUMP JUMPDEST SWAP1 POP SWAP2 SWAP1 POP JUMP JUMPDEST PUSH0 PUSH1 0x40 DUP3 ADD SWAP1 POP PUSH2 0x49A4 PUSH0 DUP4 ADD DUP6 PUSH2 0x359D JUMP JUMPDEST PUSH2 0x49B1 PUSH1 0x20 DUP4 ADD DUP5 PUSH2 0x32F4 JUMP JUMPDEST SWAP4 SWAP3 POP POP POP JUMP JUMPDEST PUSH32 0x546F6B656E207769746864726177206661696C65640000000000000000000000 PUSH0 DUP3 ADD MSTORE POP JUMP JUMPDEST PUSH0 PUSH2 0x49EC PUSH1 0x15 DUP4 PUSH2 0x31CA JUMP JUMPDEST SWAP2 POP PUSH2 0x49F7 DUP3 PUSH2 0x49B8 JUMP JUMPDEST PUSH1 0x20 DUP3 ADD SWAP1 POP SWAP2 SWAP1 POP JUMP JUMPDEST PUSH0 PUSH1 0x20 DUP3 ADD SWAP1 POP DUP2 DUP2 SUB PUSH0 DUP4 ADD MSTORE PUSH2 0x4A19 DUP2 PUSH2 0x49E0 JUMP JUMPDEST SWAP1 POP SWAP2 SWAP1 POP JUMP JUMPDEST PUSH32 0x4E487B7100000000000000000000000000000000000000000000000000000000 PUSH0 MSTORE PUSH1 0x32 PUSH1 0x4 MSTORE PUSH1 0x24 PUSH0 REVERT JUMPDEST PUSH0 DUP2 SWAP1 POP DUP2 PUSH0 MSTORE PUSH1 0x20 PUSH0 KECCAK256 SWAP1 POP SWAP2 SWAP1 POP JUMP JUMPDEST PUSH0 DUP2 SLOAD PUSH2 0x4A6B DUP2 PUSH2 0x4891 JUMP JUMPDEST PUSH2 0x4A75 DUP2 DUP7 PUSH2 0x3BB5 JUMP JUMPDEST SWAP5 POP PUSH1 0x1 DUP3 AND PUSH0 DUP2 EQ PUSH2 0x4A8F JUMPI PUSH1 0x1 DUP2 EQ PUSH2 0x4AA4 JUMPI PUSH2 0x4AD6 JUMP JUMPDEST PUSH1 0xFF NOT DUP4 AND DUP7 MSTORE DUP2 ISZERO ISZERO DUP3 MUL DUP7 ADD SWAP4 POP PUSH2 0x4AD6 JUMP JUMPDEST PUSH2 0x4AAD DUP6 PUSH2 0x4A4D JUMP JUMPDEST PUSH0 JUMPDEST DUP4 DUP2 LT ISZERO PUSH2 0x4ACE JUMPI DUP2 SLOAD DUP2 DUP10 ADD MSTORE PUSH1 0x1 DUP3 ADD SWAP2 POP PUSH1 0x20 DUP2 ADD SWAP1 POP PUSH2 0x4AAF JUMP JUMPDEST DUP4 DUP9 ADD SWAP6 POP POP POP JUMPDEST POP POP POP SWAP3 SWAP2 POP POP JUMP JUMPDEST PUSH0 PUSH2 0x4AEA DUP3 DUP5 PUSH2 0x4A5F JUMP JUMPDEST SWAP2 POP DUP2 SWAP1 POP SWAP3 SWAP2 POP POP JUMP JUMPDEST PUSH0 DUP2 SWAP1 POP DUP2 PUSH0 MSTORE PUSH1 0x20 PUSH0 KECCAK256 SWAP1 POP SWAP2 SWAP1 POP JUMP JUMPDEST PUSH0 DUP2 SLOAD PUSH2 0x4B13 DUP2 PUSH2 0x4891 JUMP JUMPDEST PUSH2 0x4B1D DUP2 DUP7 PUSH2 0x3242 JUMP JUMPDEST SWAP5 POP PUSH1 0x1 DUP3 AND PUSH0 DUP2 EQ PUSH2 0x4B37 JUMPI PUSH1 0x1 DUP2 EQ PUSH2 0x4B4C JUMPI PUSH2 0x4B7E JUMP JUMPDEST PUSH1 0xFF NOT DUP4 AND DUP7 MSTORE DUP2 ISZERO ISZERO DUP3 MUL DUP7 ADD SWAP4 POP PUSH2 0x4B7E JUMP JUMPDEST PUSH2 0x4B55 DUP6 PUSH2 0x4AF5 JUMP JUMPDEST PUSH0 JUMPDEST DUP4 DUP2 LT ISZERO PUSH2 0x4B76 JUMPI DUP2 SLOAD DUP2 DUP10 ADD MSTORE PUSH1 0x1 DUP3 ADD SWAP2 POP PUSH1 0x20 DUP2 ADD SWAP1 POP PUSH2 0x4B57 JUMP JUMPDEST DUP4 DUP9 ADD SWAP6 POP POP POP JUMPDEST POP POP POP SWAP3 SWAP2 POP POP JUMP JUMPDEST PUSH0 PUSH2 0x4B92 DUP3 DUP5 PUSH2 0x4B07 JUMP JUMPDEST SWAP2 POP DUP2 SWAP1 POP SWAP3 SWAP2 POP POP JUMP JUMPDEST PUSH0 PUSH2 0x4BA7 DUP3 PUSH2 0x32EB JUMP JUMPDEST SWAP2 POP PUSH2 0x4BB2 DUP4 PUSH2 0x32EB JUMP JUMPDEST SWAP3 POP DUP3 DUP3 SUB SWAP1 POP DUP2 DUP2 GT ISZERO PUSH2 0x4BCA JUMPI PUSH2 0x4BC9 PUSH2 0x3E3A JUMP JUMPDEST JUMPDEST SWAP3 SWAP2 POP POP JUMP INVALID LOG2 PUSH5 0x6970667358 0x22 SLT KECCAK256 0xF EXTCODESIZE 0x2A GAS JUMP 0xA9 0x26 MSTORE SHL 0xCE CREATE 0xCD 0xBF COINBASE BLOCKHASH DUP9 MSTORE8 0xD6 0xAC DUP12 DUP1 0xBE SWAP6 0xF7 PUSH32 0xAD7B41D57CD18164736F6C634300081E00330000000000000000000000000000 "
		},
		"gasEstimates": {
			"creation": {
				"codeDepositCost": "3892400",
				"executionCost": "infinite",
				"totalCost": "infinite"
			},
			"external": {
				"MIN_PURCHASE_USD()": "371",
				"PRESALE_TARGET()": "413",
				"PRICE_FEED_PRECISION()": "457",
				"QI_PRICE_USD()": "435",
				"USD_PRECISION()": "348",
				"buyWithETH()": "infinite",
				"buyWithToken(string,uint256)": "infinite",
				"buyWithUSDC(uint256)": "infinite",
				"buyWithUSDT(uint256)": "infinite",
				"buyWithWBTC(uint256)": "infinite",
				"calculateQIAmount(string,uint256)": "infinite",
				"emergencyWithdraw(address)": "infinite",
				"getContractBalance(address)": "infinite",
				"getCurrentPrices()": "infinite",
				"getPresaleStats()": "infinite",
				"getSupportedTokens()": "infinite",
				"owner()": "infinite",
				"presaleActive()": "2510",
				"qiToken()": "infinite",
				"setPresaleStatus(bool)": "infinite",
				"supportedTokens(string)": "infinite",
				"tokenSymbols(uint256)": "infinite",
				"totalQISold()": "2491",
				"totalUSDRaised()": "2448"
			},
			"internal": {
				"_addToken(string memory,address,address,uint8)": "infinite",
				"_processPurchase(address,string memory,uint256,uint256)": "infinite"
			}
		},
		"methodIdentifiers": {
			"MIN_PURCHASE_USD()": "1aae8491",
			"PRESALE_TARGET()": "eb795f25",
			"PRICE_FEED_PRECISION()": "fde3a8d0",
			"QI_PRICE_USD()": "f4a5b2b0",
			"USD_PRECISION()": "4bfdfa6f",
			"buyWithETH()": "150d283d",
			"buyWithToken(string,uint256)": "21f3689b",
			"buyWithUSDC(uint256)": "aeccf735",
			"buyWithUSDT(uint256)": "a7c60160",
			"buyWithWBTC(uint256)": "1b7c4b5c",
			"calculateQIAmount(string,uint256)": "7d4c12ac",
			"emergencyWithdraw(address)": "6ff1c9bc",
			"getContractBalance(address)": "43ab265f",
			"getCurrentPrices()": "852d0d6e",
			"getPresaleStats()": "a56b94f3",
			"getSupportedTokens()": "d3c7c2c7",
			"owner()": "8da5cb5b",
			"presaleActive()": "53135ca0",
			"qiToken()": "462e4cda",
			"setPresaleStatus(bool)": "8895283f",
			"supportedTokens(string)": "89919cdd",
			"tokenSymbols(uint256)": "6e7ddea8",
			"totalQISold()": "e8e3f4aa",
			"totalUSDRaised()": "85cbc881"
		}
	},
	"abi": [
		{
			"inputs": [
				{
					"internalType": "address",
					"name": "_qiToken",
					"type": "address"
				}
			],
			"stateMutability": "nonpayable",
			"type": "constructor"
		},
		{
			"anonymous": false,
			"inputs": [
				{
					"indexed": false,
					"internalType": "address",
					"name": "token",
					"type": "address"
				},
				{
					"indexed": false,
					"internalType": "uint256",
					"name": "amount",
					"type": "uint256"
				}
			],
			"name": "EmergencyWithdraw",
			"type": "event"
		},
		{
			"anonymous": false,
			"inputs": [
				{
					"indexed": false,
					"internalType": "bool",
					"name": "active",
					"type": "bool"
				}
			],
			"name": "PresaleStatusChanged",
			"type": "event"
		},
		{
			"anonymous": false,
			"inputs": [
				{
					"indexed": true,
					"internalType": "address",
					"name": "buyer",
					"type": "address"
				},
				{
					"indexed": false,
					"internalType": "string",
					"name": "paymentToken",
					"type": "string"
				},
				{
					"indexed": false,
					"internalType": "uint256",
					"name": "paymentAmount",
					"type": "uint256"
				},
				{
					"indexed": false,
					"internalType": "uint256",
					"name": "qiAmount",
					"type": "uint256"
				},
				{
					"indexed": false,
					"internalType": "uint256",
					"name": "usdValue",
					"type": "uint256"
				}
			],
			"name": "QIPurchased",
			"type": "event"
		},
		{
			"anonymous": false,
			"inputs": [
				{
					"indexed": false,
					"internalType": "string",
					"name": "symbol",
					"type": "string"
				},
				{
					"indexed": false,
					"internalType": "address",
					"name": "tokenAddress",
					"type": "address"
				},
				{
					"indexed": false,
					"internalType": "address",
					"name": "priceFeed",
					"type": "address"
				}
			],
			"name": "TokenAdded",
			"type": "event"
		},
		{
			"inputs": [],
			"name": "MIN_PURCHASE_USD",
			"outputs": [
				{
					"internalType": "uint256",
					"name": "",
					"type": "uint256"
				}
			],
			"stateMutability": "view",
			"type": "function"
		},
		{
			"inputs": [],
			"name": "PRESALE_TARGET",
			"outputs": [
				{
					"internalType": "uint256",
					"name": "",
					"type": "uint256"
				}
			],
			"stateMutability": "view",
			"type": "function"
		},
		{
			"inputs": [],
			"name": "PRICE_FEED_PRECISION",
			"outputs": [
				{
					"internalType": "uint256",
					"name": "",
					"type": "uint256"
				}
			],
			"stateMutability": "view",
			"type": "function"
		},
		{
			"inputs": [],
			"name": "QI_PRICE_USD",
			"outputs": [
				{
					"internalType": "uint256",
					"name": "",
					"type": "uint256"
				}
			],
			"stateMutability": "view",
			"type": "function"
		},
		{
			"inputs": [],
			"name": "USD_PRECISION",
			"outputs": [
				{
					"internalType": "uint256",
					"name": "",
					"type": "uint256"
				}
			],
			"stateMutability": "view",
			"type": "function"
		},
		{
			"inputs": [],
			"name": "buyWithETH",
			"outputs": [],
			"stateMutability": "payable",
			"type": "function"
		},
		{
			"inputs": [
				{
					"internalType": "string",
					"name": "tokenSymbol",
					"type": "string"
				},
				{
					"internalType": "uint256",
					"name": "amount",
					"type": "uint256"
				}
			],
			"name": "buyWithToken",
			"outputs": [],
			"stateMutability": "payable",
			"type": "function"
		},
		{
			"inputs": [
				{
					"internalType": "uint256",
					"name": "usdcAmount",
					"type": "uint256"
				}
			],
			"name": "buyWithUSDC",
			"outputs": [],
			"stateMutability": "nonpayable",
			"type": "function"
		},
		{
			"inputs": [
				{
					"internalType": "uint256",
					"name": "usdtAmount",
					"type": "uint256"
				}
			],
			"name": "buyWithUSDT",
			"outputs": [],
			"stateMutability": "nonpayable",
			"type": "function"
		},
		{
			"inputs": [
				{
					"internalType": "uint256",
					"name": "wbtcAmount",
					"type": "uint256"
				}
			],
			"name": "buyWithWBTC",
			"outputs": [],
			"stateMutability": "nonpayable",
			"type": "function"
		},
		{
			"inputs": [
				{
					"internalType": "string",
					"name": "tokenSymbol",
					"type": "string"
				},
				{
					"internalType": "uint256",
					"name": "amount",
					"type": "uint256"
				}
			],
			"name": "calculateQIAmount",
			"outputs": [
				{
					"internalType": "uint256",
					"name": "",
					"type": "uint256"
				}
			],
			"stateMutability": "view",
			"type": "function"
		},
		{
			"inputs": [
				{
					"internalType": "address",
					"name": "token",
					"type": "address"
				}
			],
			"name": "emergencyWithdraw",
			"outputs": [],
			"stateMutability": "nonpayable",
			"type": "function"
		},
		{
			"inputs": [
				{
					"internalType": "address",
					"name": "token",
					"type": "address"
				}
			],
			"name": "getContractBalance",
			"outputs": [
				{
					"internalType": "uint256",
					"name": "",
					"type": "uint256"
				}
			],
			"stateMutability": "view",
			"type": "function"
		},
		{
			"inputs": [],
			"name": "getCurrentPrices",
			"outputs": [
				{
					"internalType": "uint256[]",
					"name": "prices",
					"type": "uint256[]"
				},
				{
					"internalType": "string[]",
					"name": "symbols",
					"type": "string[]"
				}
			],
			"stateMutability": "view",
			"type": "function"
		},
		{
			"inputs": [],
			"name": "getPresaleStats",
			"outputs": [
				{
					"internalType": "uint256",
					"name": "sold",
					"type": "uint256"
				},
				{
					"internalType": "uint256",
					"name": "raised",
					"type": "uint256"
				},
				{
					"internalType": "uint256",
					"name": "target",
					"type": "uint256"
				},
				{
					"internalType": "bool",
					"name": "active",
					"type": "bool"
				},
				{
					"internalType": "uint256",
					"name": "remaining",
					"type": "uint256"
				}
			],
			"stateMutability": "view",
			"type": "function"
		},
		{
			"inputs": [],
			"name": "getSupportedTokens",
			"outputs": [
				{
					"internalType": "string[]",
					"name": "symbols",
					"type": "string[]"
				},
				{
					"internalType": "address[]",
					"name": "addresses",
					"type": "address[]"
				},
				{
					"internalType": "bool[]",
					"name": "enabled",
					"type": "bool[]"
				}
			],
			"stateMutability": "view",
			"type": "function"
		},
		{
			"inputs": [],
			"name": "owner",
			"outputs": [
				{
					"internalType": "address",
					"name": "",
					"type": "address"
				}
			],
			"stateMutability": "view",
			"type": "function"
		},
		{
			"inputs": [],
			"name": "presaleActive",
			"outputs": [
				{
					"internalType": "bool",
					"name": "",
					"type": "bool"
				}
			],
			"stateMutability": "view",
			"type": "function"
		},
		{
			"inputs": [],
			"name": "qiToken",
			"outputs": [
				{
					"internalType": "address",
					"name": "",
					"type": "address"
				}
			],
			"stateMutability": "view",
			"type": "function"
		},
		{
			"inputs": [
				{
					"internalType": "bool",
					"name": "_active",
					"type": "bool"
				}
			],
			"name": "setPresaleStatus",
			"outputs": [],
			"stateMutability": "nonpayable",
			"type": "function"
		},
		{
			"inputs": [
				{
					"internalType": "string",
					"name": "",
					"type": "string"
				}
			],
			"name": "supportedTokens",
			"outputs": [
				{
					"internalType": "address",
					"name": "tokenAddress",
					"type": "address"
				},
				{
					"internalType": "contract AggregatorV3Interface",
					"name": "priceFeed",
					"type": "address"
				},
				{
					"internalType": "uint8",
					"name": "decimals",
					"type": "uint8"
				},
				{
					"internalType": "bool",
					"name": "enabled",
					"type": "bool"
				}
			],
			"stateMutability": "view",
			"type": "function"
		},
		{
			"inputs": [
				{
					"internalType": "uint256",
					"name": "",
					"type": "uint256"
				}
			],
			"name": "tokenSymbols",
			"outputs": [
				{
					"internalType": "string",
					"name": "",
					"type": "string"
				}
			],
			"stateMutability": "view",
			"type": "function"
		},
		{
			"inputs": [],
			"name": "totalQISold",
			"outputs": [
				{
					"internalType": "uint256",
					"name": "",
					"type": "uint256"
				}
			],
			"stateMutability": "view",
			"type": "function"
		},
		{
			"inputs": [],
			"name": "totalUSDRaised",
			"outputs": [
				{
					"internalType": "uint256",
					"name": "",
					"type": "uint256"
				}
			],
			"stateMutability": "view",
			"type": "function"
		},
		{
			"stateMutability": "payable",
			"type": "receive"
		}
	]
}