{
	"data": {
		"bytecode": {
			"linkReferences": {},
			"object": "60a060405234801561000f575f5ffd5b50604051615c26380380615c2683398181016040528101906100319190610500565b5f73ffffffffffffffffffffffffffffffffffffffff168173ffffffffffffffffffffffffffffffffffffffff160361009f576040517f08c379a000000000000000000000000000000000000000000000000000000000815260040161009690610585565b60405180910390fd5b335f5f6101000a81548173ffffffffffffffffffffffffffffffffffffffff021916908373ffffffffffffffffffffffffffffffffffffffff1602179055508073ffffffffffffffffffffffffffffffffffffffff1660808173ffffffffffffffffffffffffffffffffffffffff168152505060015f60146101000a81548160ff0219169083151502179055506101886040518060400160405280600381526020017f45544800000000000000000000000000000000000000000000000000000000008152505f7371041dddad3595f9ced3dccfbe3d1f4b0a16bb7060126102b660201b60201c565b6101e46040518060400160405280600481526020017f555344540000000000000000000000000000000000000000000000000000000081525073fde4c96c8593536e31f229ea8f37b2ada2699bb25f60066102b660201b60201c565b6102406040518060400160405280600481526020017f555344430000000000000000000000000000000000000000000000000000000081525073833589fcd6edb6e08f4c7c32d4f71b54bda029135f60066102b660201b60201c565b6102b06040518060400160405280600481526020017f574254430000000000000000000000000000000000000000000000000000000081525073236aa50979d5f3de3bd1eeb40e81137f22ab794b7364c911996d3c6ac71f9b455b1e8e7266bcbd848f60086102b660201b60201c565b506109a0565b60405180608001604052808473ffffffffffffffffffffffffffffffffffffffff1681526020015f73ffffffffffffffffffffffffffffffffffffffff168473ffffffffffffffffffffffffffffffffffffffff1603610316575f610318565b835b73ffffffffffffffffffffffffffffffffffffffff1681526020018260ff1681526020016001151581525060038560405161035391906105f5565b90815260200160405180910390205f820151815f015f6101000a81548173ffffffffffffffffffffffffffffffffffffffff021916908373ffffffffffffffffffffffffffffffffffffffff1602179055506020820151816001015f6101000a81548173ffffffffffffffffffffffffffffffffffffffff021916908373ffffffffffffffffffffffffffffffffffffffff16021790555060408201518160010160146101000a81548160ff021916908360ff16021790555060608201518160010160156101000a81548160ff021916908315150217905550905050600484908060018154018082558091505060019003905f5260205f20015f909190919091509081610460919061083e565b507f91bb5c50a46662ed36d8c46c8cbd923b5d4a585ee99563c297cf71e21b91bc5e84848460405161049493929190610964565b60405180910390a150505050565b5f5ffd5b5f73ffffffffffffffffffffffffffffffffffffffff82169050919050565b5f6104cf826104a6565b9050919050565b6104df816104c5565b81146104e9575f5ffd5b50565b5f815190506104fa816104d6565b92915050565b5f60208284031215610515576105146104a2565b5b5f610522848285016104ec565b91505092915050565b5f82825260208201905092915050565b7f496e76616c696420514920746f6b656e206164647265737300000000000000005f82015250565b5f61056f60188361052b565b915061057a8261053b565b602082019050919050565b5f6020820190508181035f83015261059c81610563565b9050919050565b5f81519050919050565b5f81905092915050565b8281835e5f83830152505050565b5f6105cf826105a3565b6105d981856105ad565b93506105e98185602086016105b7565b80840191505092915050565b5f61060082846105c5565b915081905092915050565b7f4e487b71000000000000000000000000000000000000000000000000000000005f52604160045260245ffd5b7f4e487b71000000000000000000000000000000000000000000000000000000005f52602260045260245ffd5b5f600282049050600182168061067c57607f821691505b60208210810361068f5761068e610638565b5b50919050565b5f819050815f5260205f209050919050565b5f6020601f8301049050919050565b5f82821b905092915050565b5f600883026106f17fffffffffffffffffffffffffffffffffffffffffffffffffffffffffffffffff826106b6565b6106fb86836106b6565b95508019841693508086168417925050509392505050565b5f819050919050565b5f819050919050565b5f61073f61073a61073584610713565b61071c565b610713565b9050919050565b5f819050919050565b61075883610725565b61076c61076482610746565b8484546106c2565b825550505050565b5f5f905090565b610783610774565b61078e81848461074f565b505050565b5b818110156107b1576107a65f8261077b565b600181019050610794565b5050565b601f8211156107f6576107c781610695565b6107d0846106a7565b810160208510156107df578190505b6107f36107eb856106a7565b830182610793565b50505b505050565b5f82821c905092915050565b5f6108165f19846008026107fb565b1980831691505092915050565b5f61082e8383610807565b9150826002028217905092915050565b610847826105a3565b67ffffffffffffffff8111156108605761085f61060b565b5b61086a8254610665565b6108758282856107b5565b5f60209050601f8311600181146108a6575f8415610894578287015190505b61089e8582610823565b865550610905565b601f1984166108b486610695565b5f5b828110156108db578489015182556001820191506020850194506020810190506108b6565b868310156108f857848901516108f4601f891682610807565b8355505b6001600288020188555050505b505050505050565b5f601f19601f8301169050919050565b5f610927826105a3565b610931818561052b565b93506109418185602086016105b7565b61094a8161090d565b840191505092915050565b61095e816104c5565b82525050565b5f6060820190508181035f83015261097c818661091d565b905061098b6020830185610955565b6109986040830184610955565b949350505050565b6080516152676109bf5f395f8181610cc601526120a601526152675ff3fe608060405260043610610169575f3560e01c806385cbc881116100d0578063aeccf73511610089578063eb795f2511610063578063eb795f2514610730578063f2fde38b1461075a578063f4a5b2b014610782578063fde3a8d0146107ac576103a0565b8063aeccf735146106b2578063d3c7c2c7146106da578063e8e3f4aa14610706576103a0565b806385cbc881146105a15780638895283f146105cb57806389919cdd146105f35780638da5cb5b14610632578063a56b94f31461065c578063a7c601601461068a576103a0565b80634bfdfa6f116101225780634bfdfa6f1461048257806353135ca0146104ac5780636e7ddea8146104d65780636ff1c9bc146105125780637d4c12ac1461053a578063852d0d6e14610576576103a0565b8063150d283d146103a45780631aae8491146103ae5780631b7c4b5c146103d857806321f3689b1461040057806343ab265f1461041c578063462e4cda14610458576103a0565b366103a05760055f9054906101000a900460ff16156101bd576040517f08c379a00000000000000000000000000000000000000000000000000000000081526004016101b4906137b5565b60405180910390fd5b600160055f6101000a81548160ff0219169083151502179055505f341180156101f157505f60149054906101000a900460ff165b15610386575f6102366040518060400160405280600381526020017f4554480000000000000000000000000000000000000000000000000000000000815250346107d6565b90505f811161027a576040517f08c379a00000000000000000000000000000000000000000000000000000000081526004016102719061381d565b60405180910390fd5b6102bb336040518060400160405280600381526020017f45544800000000000000000000000000000000000000000000000000000000008152503484610b69565b5f5f5f9054906101000a900473ffffffffffffffffffffffffffffffffffffffff1673ffffffffffffffffffffffffffffffffffffffff163460405161030090613868565b5f6040518083038185875af1925050503d805f811461033a576040519150601f19603f3d011682016040523d82523d5f602084013e61033f565b606091505b5050905080610383576040517f08c379a000000000000000000000000000000000000000000000000000000000815260040161037a906138c6565b60405180910390fd5b50505b5f60055f6101000a81548160ff0219169083151502179055005b5f5ffd5b6103ac610e20565b005b3480156103b9575f5ffd5b506103c26110c3565b6040516103cf91906138fc565b60405180910390f35b3480156103e3575f5ffd5b506103fe60048036038101906103f99190613950565b6110ca565b005b61041a60048036038101906104159190613ab7565b6113c3565b005b348015610427575f5ffd5b50610442600480360381019061043d9190613b6b565b611fe8565b60405161044f91906138fc565b60405180910390f35b348015610463575f5ffd5b5061046c6120a4565b6040516104799190613ba5565b60405180910390f35b34801561048d575f5ffd5b506104966120c8565b6040516104a391906138fc565b60405180910390f35b3480156104b7575f5ffd5b506104c06120cf565b6040516104cd9190613bd8565b60405180910390f35b3480156104e1575f5ffd5b506104fc60048036038101906104f79190613950565b6120e1565b6040516105099190613c41565b60405180910390f35b34801561051d575f5ffd5b5061053860048036038101906105339190613b6b565b612187565b005b348015610545575f5ffd5b50610560600480360381019061055b9190613ab7565b6107d6565b60405161056d91906138fc565b60405180910390f35b348015610581575f5ffd5b5061058a612580565b604051610598929190613e1b565b60405180910390f35b3480156105ac575f5ffd5b506105b5612a59565b6040516105c291906138fc565b60405180910390f35b3480156105d6575f5ffd5b506105f160048036038101906105ec9190613e7a565b612a5f565b005b3480156105fe575f5ffd5b5061061960048036038101906106149190613ea5565b612b40565b6040516106299493929190613f62565b60405180910390f35b34801561063d575f5ffd5b50610646612bdc565b6040516106539190613ba5565b60405180910390f35b348015610667575f5ffd5b50610670612c00565b604051610681959493929190613fa5565b60405180910390f35b348015610695575f5ffd5b506106b060048036038101906106ab9190613950565b612c50565b005b3480156106bd575f5ffd5b506106d860048036038101906106d39190613950565b612f49565b005b3480156106e5575f5ffd5b506106ee613242565b6040516106fd93929190614164565b60405180910390f35b348015610711575f5ffd5b5061071a61357f565b60405161072791906138fc565b60405180910390f35b34801561073b575f5ffd5b50610744613585565b60405161075191906138fc565b60405180910390f35b348015610765575f5ffd5b50610780600480360381019061077b9190613b6b565b613594565b005b34801561078d575f5ffd5b5061079661374c565b6040516107a391906138fc565b60405180910390f35b3480156107b7575f5ffd5b506107c0613753565b6040516107cd91906138fc565b60405180910390f35b5f5f6003846040516107e891906141e8565b90815260200160405180910390206040518060800160405290815f82015f9054906101000a900473ffffffffffffffffffffffffffffffffffffffff1673ffffffffffffffffffffffffffffffffffffffff1673ffffffffffffffffffffffffffffffffffffffff168152602001600182015f9054906101000a900473ffffffffffffffffffffffffffffffffffffffff1673ffffffffffffffffffffffffffffffffffffffff1673ffffffffffffffffffffffffffffffffffffffff1681526020016001820160149054906101000a900460ff1660ff1660ff1681526020016001820160159054906101000a900460ff16151515158152505090508060600151610928576040517f08c379a000000000000000000000000000000000000000000000000000000000815260040161091f90614248565b60405180910390fd5b5f6040518060400160405280600481526020017f555344540000000000000000000000000000000000000000000000000000000081525080519060200120858051906020012014806109bc57506040518060400160405280600481526020017f5553444300000000000000000000000000000000000000000000000000000000815250805190602001208580519060200120145b156109c957839050610b3d565b5f73ffffffffffffffffffffffffffffffffffffffff16826020015173ffffffffffffffffffffffffffffffffffffffff1603610a3b576040517f08c379a0000000000000000000000000000000000000000000000000000000008152600401610a32906142b0565b60405180910390fd5b5f826020015173ffffffffffffffffffffffffffffffffffffffff1663feaf968c6040518163ffffffff1660e01b815260040160a060405180830381865afa158015610a89573d5f5f3e3d5ffd5b505050506040513d601f19601f82011682018060405250810190610aad9190614354565b5050509150505f8113610af5576040517f08c379a0000000000000000000000000000000000000000000000000000000008152600401610aec90614415565b60405180910390fd5b8260400151600a610b06919061458f565b6305f5e100610b1591906145d9565b620f42408287610b2591906145d9565b610b2f91906145d9565b610b399190614647565b9150505b62989680670de0b6b3a764000082610b5591906145d9565b610b5f9190614647565b9250505092915050565b805f8111610bac576040517f08c379a0000000000000000000000000000000000000000000000000000000008152600401610ba3906146c1565b60405180910390fd5b6a108b2a2c2802909400000081600154610bc691906146df565b1115610c07576040517f08c379a0000000000000000000000000000000000000000000000000000000008152600401610bfe9061475c565b60405180910390fd5b62989680670de0b6b3a76400006298968083610c2391906145d9565b610c2d9190614647565b1015610c6e576040517f08c379a0000000000000000000000000000000000000000000000000000000008152600401610c65906147c4565b60405180910390fd5b5f670de0b6b3a76400006298968084610c8791906145d9565b610c919190614647565b90508260015f828254610ca491906146df565b925050819055508060025f828254610cbc91906146df565b925050819055505f7f000000000000000000000000000000000000000000000000000000000000000090508073ffffffffffffffffffffffffffffffffffffffff166323b872dd5f5f9054906101000a900473ffffffffffffffffffffffffffffffffffffffff1689876040518463ffffffff1660e01b8152600401610d44939291906147e2565b6020604051808303815f875af1158015610d60573d5f5f3e3d5ffd5b505050506040513d601f19601f82011682018060405250810190610d84919061482b565b610dc3576040517f08c379a0000000000000000000000000000000000000000000000000000000008152600401610dba906148a0565b60405180910390fd5b8673ffffffffffffffffffffffffffffffffffffffff167f45eba9171c088afec730e2fdc64e7014502e57adb5178adb892adaed3916385787878786604051610e0f94939291906148be565b60405180910390a250505050505050565b5f60149054906101000a900460ff16610e6e576040517f08c379a0000000000000000000000000000000000000000000000000000000008152600401610e6590614952565b60405180910390fd5b60055f9054906101000a900460ff1615610ebd576040517f08c379a0000000000000000000000000000000000000000000000000000000008152600401610eb4906137b5565b60405180910390fd5b600160055f6101000a81548160ff0219169083151502179055505f3411610f19576040517f08c379a0000000000000000000000000000000000000000000000000000000008152600401610f10906149ba565b60405180910390fd5b5f610f596040518060400160405280600381526020017f4554480000000000000000000000000000000000000000000000000000000000815250346107d6565b90505f8111610f9d576040517f08c379a0000000000000000000000000000000000000000000000000000000008152600401610f949061381d565b60405180910390fd5b610fde336040518060400160405280600381526020017f45544800000000000000000000000000000000000000000000000000000000008152503484610b69565b5f5f5f9054906101000a900473ffffffffffffffffffffffffffffffffffffffff1673ffffffffffffffffffffffffffffffffffffffff163460405161102390613868565b5f6040518083038185875af1925050503d805f811461105d576040519150601f19603f3d011682016040523d82523d5f602084013e611062565b606091505b50509050806110a6576040517f08c379a000000000000000000000000000000000000000000000000000000000815260040161109d906138c6565b60405180910390fd5b50505f60055f6101000a81548160ff021916908315150217905550565b6298968081565b5f60149054906101000a900460ff16611118576040517f08c379a000000000000000000000000000000000000000000000000000000000815260040161110f90614952565b60405180910390fd5b60055f9054906101000a900460ff1615611167576040517f08c379a000000000000000000000000000000000000000000000000000000000815260040161115e906137b5565b60405180910390fd5b600160055f6101000a81548160ff0219169083151502179055505f81116111c3576040517f08c379a00000000000000000000000000000000000000000000000000000000081526004016111ba90614a22565b60405180910390fd5b5f6112036040518060400160405280600481526020017f5742544300000000000000000000000000000000000000000000000000000000815250836107d6565b90505f8111611247576040517f08c379a000000000000000000000000000000000000000000000000000000000815260040161123e9061381d565b60405180910390fd5b611288336040518060400160405280600481526020017f57425443000000000000000000000000000000000000000000000000000000008152508484610b69565b5f600360405161129790614a8a565b90815260200160405180910390205f015f9054906101000a900473ffffffffffffffffffffffffffffffffffffffff1690508073ffffffffffffffffffffffffffffffffffffffff166323b872dd335f5f9054906101000a900473ffffffffffffffffffffffffffffffffffffffff16866040518463ffffffff1660e01b8152600401611326939291906147e2565b6020604051808303815f875af1158015611342573d5f5f3e3d5ffd5b505050506040513d601f19601f82011682018060405250810190611366919061482b565b6113a5576040517f08c379a000000000000000000000000000000000000000000000000000000000815260040161139c90614ae8565b60405180910390fd5b50505f60055f6101000a81548160ff02191690831515021790555050565b5f60149054906101000a900460ff16611411576040517f08c379a000000000000000000000000000000000000000000000000000000000815260040161140890614952565b60405180910390fd5b60055f9054906101000a900460ff1615611460576040517f08c379a0000000000000000000000000000000000000000000000000000000008152600401611457906137b5565b60405180910390fd5b600160055f6101000a81548160ff0219169083151502179055505f60038360405161148b91906141e8565b90815260200160405180910390206040518060800160405290815f82015f9054906101000a900473ffffffffffffffffffffffffffffffffffffffff1673ffffffffffffffffffffffffffffffffffffffff1673ffffffffffffffffffffffffffffffffffffffff168152602001600182015f9054906101000a900473ffffffffffffffffffffffffffffffffffffffff1673ffffffffffffffffffffffffffffffffffffffff1673ffffffffffffffffffffffffffffffffffffffff1681526020016001820160149054906101000a900460ff1660ff1660ff1681526020016001820160159054906101000a900460ff161515151581525050905080606001516115cb576040517f08c379a00000000000000000000000000000000000000000000000000000000081526004016115c290614248565b60405180910390fd5b6040518060400160405280600381526020017f45544800000000000000000000000000000000000000000000000000000000008152508051906020012083805190602001200361182d57813414611657576040517f08c379a000000000000000000000000000000000000000000000000000000000815260040161164e90614b50565b60405180910390fd5b5f3411611699576040517f08c379a0000000000000000000000000000000000000000000000000000000008152600401611690906149ba565b60405180910390fd5b5f6116d96040518060400160405280600381526020017f4554480000000000000000000000000000000000000000000000000000000000815250346107d6565b90505f811161171d576040517f08c379a00000000000000000000000000000000000000000000000000000000081526004016117149061381d565b60405180910390fd5b61175e336040518060400160405280600381526020017f45544800000000000000000000000000000000000000000000000000000000008152503484610b69565b5f5f5f9054906101000a900473ffffffffffffffffffffffffffffffffffffffff1673ffffffffffffffffffffffffffffffffffffffff16346040516117a390613868565b5f6040518083038185875af1925050503d805f81146117dd576040519150601f19603f3d011682016040523d82523d5f602084013e6117e2565b606091505b5050905080611826576040517f08c379a000000000000000000000000000000000000000000000000000000000815260040161181d906138c6565b60405180910390fd5b5050611fca565b6040518060400160405280600481526020017f555344540000000000000000000000000000000000000000000000000000000081525080519060200120838051906020012003611aa2575f82116118b9576040517f08c379a00000000000000000000000000000000000000000000000000000000081526004016118b090614bb8565b60405180910390fd5b5f6118f96040518060400160405280600481526020017f5553445400000000000000000000000000000000000000000000000000000000815250846107d6565b90505f811161193d576040517f08c379a00000000000000000000000000000000000000000000000000000000081526004016119349061381d565b60405180910390fd5b61197e336040518060400160405280600481526020017f55534454000000000000000000000000000000000000000000000000000000008152508584610b69565b5f600360405161198d90614c20565b90815260200160405180910390205f015f9054906101000a900473ffffffffffffffffffffffffffffffffffffffff1690508073ffffffffffffffffffffffffffffffffffffffff166323b872dd335f5f9054906101000a900473ffffffffffffffffffffffffffffffffffffffff16876040518463ffffffff1660e01b8152600401611a1c939291906147e2565b6020604051808303815f875af1158015611a38573d5f5f3e3d5ffd5b505050506040513d601f19601f82011682018060405250810190611a5c919061482b565b611a9b576040517f08c379a0000000000000000000000000000000000000000000000000000000008152600401611a9290614c7e565b60405180910390fd5b5050611fc9565b6040518060400160405280600481526020017f555344430000000000000000000000000000000000000000000000000000000081525080519060200120838051906020012003611d17575f8211611b2e576040517f08c379a0000000000000000000000000000000000000000000000000000000008152600401611b2590614ce6565b60405180910390fd5b5f611b6e6040518060400160405280600481526020017f5553444300000000000000000000000000000000000000000000000000000000815250846107d6565b90505f8111611bb2576040517f08c379a0000000000000000000000000000000000000000000000000000000008152600401611ba99061381d565b60405180910390fd5b611bf3336040518060400160405280600481526020017f55534443000000000000000000000000000000000000000000000000000000008152508584610b69565b5f6003604051611c0290614d4e565b90815260200160405180910390205f015f9054906101000a900473ffffffffffffffffffffffffffffffffffffffff1690508073ffffffffffffffffffffffffffffffffffffffff166323b872dd335f5f9054906101000a900473ffffffffffffffffffffffffffffffffffffffff16876040518463ffffffff1660e01b8152600401611c91939291906147e2565b6020604051808303815f875af1158015611cad573d5f5f3e3d5ffd5b505050506040513d601f19601f82011682018060405250810190611cd1919061482b565b611d10576040517f08c379a0000000000000000000000000000000000000000000000000000000008152600401611d0790614dac565b60405180910390fd5b5050611fc8565b6040518060400160405280600481526020017f574254430000000000000000000000000000000000000000000000000000000081525080519060200120838051906020012003611f8c575f8211611da3576040517f08c379a0000000000000000000000000000000000000000000000000000000008152600401611d9a90614a22565b60405180910390fd5b5f611de36040518060400160405280600481526020017f5742544300000000000000000000000000000000000000000000000000000000815250846107d6565b90505f8111611e27576040517f08c379a0000000000000000000000000000000000000000000000000000000008152600401611e1e9061381d565b60405180910390fd5b611e68336040518060400160405280600481526020017f57425443000000000000000000000000000000000000000000000000000000008152508584610b69565b5f6003604051611e7790614a8a565b90815260200160405180910390205f015f9054906101000a900473ffffffffffffffffffffffffffffffffffffffff1690508073ffffffffffffffffffffffffffffffffffffffff166323b872dd335f5f9054906101000a900473ffffffffffffffffffffffffffffffffffffffff16876040518463ffffffff1660e01b8152600401611f06939291906147e2565b6020604051808303815f875af1158015611f22573d5f5f3e3d5ffd5b505050506040513d601f19601f82011682018060405250810190611f46919061482b565b611f85576040517f08c379a0000000000000000000000000000000000000000000000000000000008152600401611f7c90614ae8565b60405180910390fd5b5050611fc7565b6040517f08c379a0000000000000000000000000000000000000000000000000000000008152600401611fbe90614e14565b60405180910390fd5b5b5b5b505f60055f6101000a81548160ff0219169083151502179055505050565b5f5f73ffffffffffffffffffffffffffffffffffffffff168273ffffffffffffffffffffffffffffffffffffffff16036120245747905061209f565b8173ffffffffffffffffffffffffffffffffffffffff166370a08231306040518263ffffffff1660e01b815260040161205d9190613ba5565b602060405180830381865afa158015612078573d5f5f3e3d5ffd5b505050506040513d601f19601f8201168201806040525081019061209c9190614e32565b90505b919050565b7f000000000000000000000000000000000000000000000000000000000000000081565b620f424081565b5f60149054906101000a900460ff1681565b600481815481106120f0575f80fd5b905f5260205f20015f91509050805461210890614e8a565b80601f016020809104026020016040519081016040528092919081815260200182805461213490614e8a565b801561217f5780601f106121565761010080835404028352916020019161217f565b820191905f5260205f20905b81548152906001019060200180831161216257829003601f168201915b505050505081565b5f5f9054906101000a900473ffffffffffffffffffffffffffffffffffffffff1673ffffffffffffffffffffffffffffffffffffffff163373ffffffffffffffffffffffffffffffffffffffff1614612215576040517f08c379a000000000000000000000000000000000000000000000000000000000815260040161220c90614f04565b60405180910390fd5b60055f9054906101000a900460ff1615612264576040517f08c379a000000000000000000000000000000000000000000000000000000000815260040161225b906137b5565b60405180910390fd5b600160055f6101000a81548160ff0219169083151502179055505f73ffffffffffffffffffffffffffffffffffffffff168173ffffffffffffffffffffffffffffffffffffffff16036123c6575f4790505f8111156123c0575f5f5f9054906101000a900473ffffffffffffffffffffffffffffffffffffffff1673ffffffffffffffffffffffffffffffffffffffff168260405161230290613868565b5f6040518083038185875af1925050503d805f811461233c576040519150601f19603f3d011682016040523d82523d5f602084013e612341565b606091505b5050905080612385576040517f08c379a000000000000000000000000000000000000000000000000000000000815260040161237c90614f6c565b60405180910390fd5b7f5fafa99d0643513820be26656b45130b01e1c03062e1266bf36f88cbd3bd96955f836040516123b6929190614f8a565b60405180910390a1505b50612564565b5f8190505f8173ffffffffffffffffffffffffffffffffffffffff166370a08231306040518263ffffffff1660e01b81526004016124049190613ba5565b602060405180830381865afa15801561241f573d5f5f3e3d5ffd5b505050506040513d601f19601f820116820180604052508101906124439190614e32565b90505f811115612561578173ffffffffffffffffffffffffffffffffffffffff1663a9059cbb5f5f9054906101000a900473ffffffffffffffffffffffffffffffffffffffff16836040518363ffffffff1660e01b81526004016124a8929190614f8a565b6020604051808303815f875af11580156124c4573d5f5f3e3d5ffd5b505050506040513d601f19601f820116820180604052508101906124e8919061482b565b612527576040517f08c379a000000000000000000000000000000000000000000000000000000000815260040161251e90614ffb565b60405180910390fd5b7f5fafa99d0643513820be26656b45130b01e1c03062e1266bf36f88cbd3bd96958382604051612558929190614f8a565b60405180910390a15b50505b5f60055f6101000a81548160ff02191690831515021790555050565b60608060048054905067ffffffffffffffff8111156125a2576125a1613993565b5b6040519080825280602002602001820160405280156125d05781602001602082028036833780820191505090505b50915060048054905067ffffffffffffffff8111156125f2576125f1613993565b5b60405190808252806020026020018201604052801561262557816020015b60608152602001906001900390816126105790505b5090505f5f90505b600480549050811015612a54576004818154811061264e5761264d615019565b5b905f5260205f2001805461266190614e8a565b80601f016020809104026020016040519081016040528092919081815260200182805461268d90614e8a565b80156126d85780601f106126af576101008083540402835291602001916126d8565b820191905f5260205f20905b8154815290600101906020018083116126bb57829003601f168201915b50505050508282815181106126f0576126ef615019565b5b60200260200101819052505f60036004838154811061271257612711615019565b5b905f5260205f200160405161272791906150d8565b90815260200160405180910390206040518060800160405290815f82015f9054906101000a900473ffffffffffffffffffffffffffffffffffffffff1673ffffffffffffffffffffffffffffffffffffffff1673ffffffffffffffffffffffffffffffffffffffff168152602001600182015f9054906101000a900473ffffffffffffffffffffffffffffffffffffffff1673ffffffffffffffffffffffffffffffffffffffff1673ffffffffffffffffffffffffffffffffffffffff1681526020016001820160149054906101000a900460ff1660ff1660ff1681526020016001820160159054906101000a900460ff16151515158152505090506040518060400160405280600481526020017f5553445400000000000000000000000000000000000000000000000000000000815250805190602001206004838154811061287457612873615019565b5b905f5260205f20016040516128899190615180565b6040518091039020148061290857506040518060400160405280600481526020017f555344430000000000000000000000000000000000000000000000000000000081525080519060200120600483815481106128e9576128e8615019565b5b905f5260205f20016040516128fe9190615180565b6040518091039020145b1561294157620f4240600161291d91906145d9565b8483815181106129305761292f615019565b5b602002602001018181525050612a46565b5f73ffffffffffffffffffffffffffffffffffffffff16816020015173ffffffffffffffffffffffffffffffffffffffff1614612a24575f816020015173ffffffffffffffffffffffffffffffffffffffff1663feaf968c6040518163ffffffff1660e01b815260040160a060405180830381865afa1580156129c6573d5f5f3e3d5ffd5b505050506040513d601f19601f820116820180604052508101906129ea9190614354565b5050509150505f81136129fd575f6129ff565b805b858481518110612a1257612a11615019565b5b60200260200101818152505050612a45565b5f848381518110612a3857612a37615019565b5b6020026020010181815250505b5b50808060010191505061262d565b509091565b60025481565b5f5f9054906101000a900473ffffffffffffffffffffffffffffffffffffffff1673ffffffffffffffffffffffffffffffffffffffff163373ffffffffffffffffffffffffffffffffffffffff1614612aed576040517f08c379a0000000000000000000000000000000000000000000000000000000008152600401612ae490614f04565b60405180910390fd5b805f60146101000a81548160ff0219169083151502179055507f1f1a6b0fcc71315f2c3aeddbd1f6d527595d21eea9b73160e78d6fa49b7897a681604051612b359190613bd8565b60405180910390a150565b6003818051602081018201805184825260208301602085012081835280955050505050505f91509050805f015f9054906101000a900473ffffffffffffffffffffffffffffffffffffffff1690806001015f9054906101000a900473ffffffffffffffffffffffffffffffffffffffff16908060010160149054906101000a900460ff16908060010160159054906101000a900460ff16905084565b5f5f9054906101000a900473ffffffffffffffffffffffffffffffffffffffff1681565b5f5f5f5f5f6001546002546a108b2a2c280290940000005f60149054906101000a900460ff166001546a108b2a2c28029094000000612c3f9190615196565b945094509450945094509091929394565b5f60149054906101000a900460ff16612c9e576040517f08c379a0000000000000000000000000000000000000000000000000000000008152600401612c9590614952565b60405180910390fd5b60055f9054906101000a900460ff1615612ced576040517f08c379a0000000000000000000000000000000000000000000000000000000008152600401612ce4906137b5565b60405180910390fd5b600160055f6101000a81548160ff0219169083151502179055505f8111612d49576040517f08c379a0000000000000000000000000000000000000000000000000000000008152600401612d4090614bb8565b60405180910390fd5b5f612d896040518060400160405280600481526020017f5553445400000000000000000000000000000000000000000000000000000000815250836107d6565b90505f8111612dcd576040517f08c379a0000000000000000000000000000000000000000000000000000000008152600401612dc49061381d565b60405180910390fd5b612e0e336040518060400160405280600481526020017f55534454000000000000000000000000000000000000000000000000000000008152508484610b69565b5f6003604051612e1d90614c20565b90815260200160405180910390205f015f9054906101000a900473ffffffffffffffffffffffffffffffffffffffff1690508073ffffffffffffffffffffffffffffffffffffffff166323b872dd335f5f9054906101000a900473ffffffffffffffffffffffffffffffffffffffff16866040518463ffffffff1660e01b8152600401612eac939291906147e2565b6020604051808303815f875af1158015612ec8573d5f5f3e3d5ffd5b505050506040513d601f19601f82011682018060405250810190612eec919061482b565b612f2b576040517f08c379a0000000000000000000000000000000000000000000000000000000008152600401612f2290614c7e565b60405180910390fd5b50505f60055f6101000a81548160ff02191690831515021790555050565b5f60149054906101000a900460ff16612f97576040517f08c379a0000000000000000000000000000000000000000000000000000000008152600401612f8e90614952565b60405180910390fd5b60055f9054906101000a900460ff1615612fe6576040517f08c379a0000000000000000000000000000000000000000000000000000000008152600401612fdd906137b5565b60405180910390fd5b600160055f6101000a81548160ff0219169083151502179055505f8111613042576040517f08c379a000000000000000000000000000000000000000000000000000000000815260040161303990614ce6565b60405180910390fd5b5f6130826040518060400160405280600481526020017f5553444300000000000000000000000000000000000000000000000000000000815250836107d6565b90505f81116130c6576040517f08c379a00000000000000000000000000000000000000000000000000000000081526004016130bd9061381d565b60405180910390fd5b613107336040518060400160405280600481526020017f55534443000000000000000000000000000000000000000000000000000000008152508484610b69565b5f600360405161311690614d4e565b90815260200160405180910390205f015f9054906101000a900473ffffffffffffffffffffffffffffffffffffffff1690508073ffffffffffffffffffffffffffffffffffffffff166323b872dd335f5f9054906101000a900473ffffffffffffffffffffffffffffffffffffffff16866040518463ffffffff1660e01b81526004016131a5939291906147e2565b6020604051808303815f875af11580156131c1573d5f5f3e3d5ffd5b505050506040513d601f19601f820116820180604052508101906131e5919061482b565b613224576040517f08c379a000000000000000000000000000000000000000000000000000000000815260040161321b90614dac565b60405180910390fd5b50505f60055f6101000a81548160ff02191690831515021790555050565b60608060606004805480602002602001604051908101604052809291908181526020015f905b82821015613310578382905f5260205f2001805461328590614e8a565b80601f01602080910402602001604051908101604052809291908181526020018280546132b190614e8a565b80156132fc5780601f106132d3576101008083540402835291602001916132fc565b820191905f5260205f20905b8154815290600101906020018083116132df57829003601f168201915b505050505081526020019060010190613268565b50505050925060048054905067ffffffffffffffff81111561333557613334613993565b5b6040519080825280602002602001820160405280156133635781602001602082028036833780820191505090505b50915060048054905067ffffffffffffffff81111561338557613384613993565b5b6040519080825280602002602001820160405280156133b35781602001602082028036833780820191505090505b5090505f5f90505b600480549050811015613579575f6003600483815481106133df576133de615019565b5b905f5260205f20016040516133f491906150d8565b90815260200160405180910390206040518060800160405290815f82015f9054906101000a900473ffffffffffffffffffffffffffffffffffffffff1673ffffffffffffffffffffffffffffffffffffffff1673ffffffffffffffffffffffffffffffffffffffff168152602001600182015f9054906101000a900473ffffffffffffffffffffffffffffffffffffffff1673ffffffffffffffffffffffffffffffffffffffff1673ffffffffffffffffffffffffffffffffffffffff1681526020016001820160149054906101000a900460ff1660ff1660ff1681526020016001820160159054906101000a900460ff1615151515815250509050805f015184838151811061350757613506615019565b5b602002602001019073ffffffffffffffffffffffffffffffffffffffff16908173ffffffffffffffffffffffffffffffffffffffff1681525050806060015183838151811061355957613558615019565b5b6020026020010190151590811515815250505080806001019150506133bb565b50909192565b60015481565b6a108b2a2c2802909400000081565b5f5f9054906101000a900473ffffffffffffffffffffffffffffffffffffffff1673ffffffffffffffffffffffffffffffffffffffff163373ffffffffffffffffffffffffffffffffffffffff1614613622576040517f08c379a000000000000000000000000000000000000000000000000000000000815260040161361990614f04565b60405180910390fd5b5f73ffffffffffffffffffffffffffffffffffffffff168173ffffffffffffffffffffffffffffffffffffffff1603613690576040517f08c379a000000000000000000000000000000000000000000000000000000000815260040161368790615213565b60405180910390fd5b8073ffffffffffffffffffffffffffffffffffffffff165f5f9054906101000a900473ffffffffffffffffffffffffffffffffffffffff1673ffffffffffffffffffffffffffffffffffffffff167f8be0079c531659141344cd1fd0a4f28419497f9722a3daafe3b4186f6b6457e060405160405180910390a3805f5f6101000a81548173ffffffffffffffffffffffffffffffffffffffff021916908373ffffffffffffffffffffffffffffffffffffffff16021790555050565b6298968081565b6305f5e10081565b5f82825260208201905092915050565b7f5265656e7472616e637947756172643a207265656e7472616e742063616c6c005f82015250565b5f61379f601f8361375b565b91506137aa8261376b565b602082019050919050565b5f6020820190508181035f8301526137cc81613793565b9050919050565b7f496e76616c696420514920616d6f756e740000000000000000000000000000005f82015250565b5f61380760118361375b565b9150613812826137d3565b602082019050919050565b5f6020820190508181035f830152613834816137fb565b9050919050565b5f81905092915050565b50565b5f6138535f8361383b565b915061385e82613845565b5f82019050919050565b5f61387282613848565b9150819050919050565b7f455448207472616e73666572206661696c6564000000000000000000000000005f82015250565b5f6138b060138361375b565b91506138bb8261387c565b602082019050919050565b5f6020820190508181035f8301526138dd816138a4565b9050919050565b5f819050919050565b6138f6816138e4565b82525050565b5f60208201905061390f5f8301846138ed565b92915050565b5f604051905090565b5f5ffd5b5f5ffd5b61392f816138e4565b8114613939575f5ffd5b50565b5f8135905061394a81613926565b92915050565b5f602082840312156139655761396461391e565b5b5f6139728482850161393c565b91505092915050565b5f5ffd5b5f5ffd5b5f601f19601f8301169050919050565b7f4e487b71000000000000000000000000000000000000000000000000000000005f52604160045260245ffd5b6139c982613983565b810181811067ffffffffffffffff821117156139e8576139e7613993565b5b80604052505050565b5f6139fa613915565b9050613a0682826139c0565b919050565b5f67ffffffffffffffff821115613a2557613a24613993565b5b613a2e82613983565b9050602081019050919050565b828183375f83830152505050565b5f613a5b613a5684613a0b565b6139f1565b905082815260208101848484011115613a7757613a7661397f565b5b613a82848285613a3b565b509392505050565b5f82601f830112613a9e57613a9d61397b565b5b8135613aae848260208601613a49565b91505092915050565b5f5f60408385031215613acd57613acc61391e565b5b5f83013567ffffffffffffffff811115613aea57613ae9613922565b5b613af685828601613a8a565b9250506020613b078582860161393c565b9150509250929050565b5f73ffffffffffffffffffffffffffffffffffffffff82169050919050565b5f613b3a82613b11565b9050919050565b613b4a81613b30565b8114613b54575f5ffd5b50565b5f81359050613b6581613b41565b92915050565b5f60208284031215613b8057613b7f61391e565b5b5f613b8d84828501613b57565b91505092915050565b613b9f81613b30565b82525050565b5f602082019050613bb85f830184613b96565b92915050565b5f8115159050919050565b613bd281613bbe565b82525050565b5f602082019050613beb5f830184613bc9565b92915050565b5f81519050919050565b8281835e5f83830152505050565b5f613c1382613bf1565b613c1d818561375b565b9350613c2d818560208601613bfb565b613c3681613983565b840191505092915050565b5f6020820190508181035f830152613c598184613c09565b905092915050565b5f81519050919050565b5f82825260208201905092915050565b5f819050602082019050919050565b613c93816138e4565b82525050565b5f613ca48383613c8a565b60208301905092915050565b5f602082019050919050565b5f613cc682613c61565b613cd08185613c6b565b9350613cdb83613c7b565b805f5b83811015613d0b578151613cf28882613c99565b9750613cfd83613cb0565b925050600181019050613cde565b5085935050505092915050565b5f81519050919050565b5f82825260208201905092915050565b5f819050602082019050919050565b5f82825260208201905092915050565b5f613d5b82613bf1565b613d658185613d41565b9350613d75818560208601613bfb565b613d7e81613983565b840191505092915050565b5f613d948383613d51565b905092915050565b5f602082019050919050565b5f613db282613d18565b613dbc8185613d22565b935083602082028501613dce85613d32565b805f5b85811015613e095784840389528151613dea8582613d89565b9450613df583613d9c565b925060208a01995050600181019050613dd1565b50829750879550505050505092915050565b5f6040820190508181035f830152613e338185613cbc565b90508181036020830152613e478184613da8565b90509392505050565b613e5981613bbe565b8114613e63575f5ffd5b50565b5f81359050613e7481613e50565b92915050565b5f60208284031215613e8f57613e8e61391e565b5b5f613e9c84828501613e66565b91505092915050565b5f60208284031215613eba57613eb961391e565b5b5f82013567ffffffffffffffff811115613ed757613ed6613922565b5b613ee384828501613a8a565b91505092915050565b5f819050919050565b5f613f0f613f0a613f0584613b11565b613eec565b613b11565b9050919050565b5f613f2082613ef5565b9050919050565b5f613f3182613f16565b9050919050565b613f4181613f27565b82525050565b5f60ff82169050919050565b613f5c81613f47565b82525050565b5f608082019050613f755f830187613b96565b613f826020830186613f38565b613f8f6040830185613f53565b613f9c6060830184613bc9565b95945050505050565b5f60a082019050613fb85f8301886138ed565b613fc560208301876138ed565b613fd260408301866138ed565b613fdf6060830185613bc9565b613fec60808301846138ed565b9695505050505050565b5f81519050919050565b5f82825260208201905092915050565b5f819050602082019050919050565b61402881613b30565b82525050565b5f614039838361401f565b60208301905092915050565b5f602082019050919050565b5f61405b82613ff6565b6140658185614000565b935061407083614010565b805f5b838110156140a0578151614087888261402e565b975061409283614045565b925050600181019050614073565b5085935050505092915050565b5f81519050919050565b5f82825260208201905092915050565b5f819050602082019050919050565b6140df81613bbe565b82525050565b5f6140f083836140d6565b60208301905092915050565b5f602082019050919050565b5f614112826140ad565b61411c81856140b7565b9350614127836140c7565b805f5b8381101561415757815161413e88826140e5565b9750614149836140fc565b92505060018101905061412a565b5085935050505092915050565b5f6060820190508181035f83015261417c8186613da8565b905081810360208301526141908185614051565b905081810360408301526141a48184614108565b9050949350505050565b5f81905092915050565b5f6141c282613bf1565b6141cc81856141ae565b93506141dc818560208601613bfb565b80840191505092915050565b5f6141f382846141b8565b915081905092915050565b7f546f6b656e206e6f7420737570706f72746564000000000000000000000000005f82015250565b5f61423260138361375b565b915061423d826141fe565b602082019050919050565b5f6020820190508181035f83015261425f81614226565b9050919050565b7f50726963652066656564206e6f7420617661696c61626c6500000000000000005f82015250565b5f61429a60188361375b565b91506142a582614266565b602082019050919050565b5f6020820190508181035f8301526142c78161428e565b9050919050565b5f69ffffffffffffffffffff82169050919050565b6142ec816142ce565b81146142f6575f5ffd5b50565b5f81519050614307816142e3565b92915050565b5f819050919050565b61431f8161430d565b8114614329575f5ffd5b50565b5f8151905061433a81614316565b92915050565b5f8151905061434e81613926565b92915050565b5f5f5f5f5f60a0868803121561436d5761436c61391e565b5b5f61437a888289016142f9565b955050602061438b8882890161432c565b945050604061439c88828901614340565b93505060606143ad88828901614340565b92505060806143be888289016142f9565b9150509295509295909350565b7f496e76616c6964207072696365000000000000000000000000000000000000005f82015250565b5f6143ff600d8361375b565b915061440a826143cb565b602082019050919050565b5f6020820190508181035f83015261442c816143f3565b9050919050565b7f4e487b71000000000000000000000000000000000000000000000000000000005f52601160045260245ffd5b5f8160011c9050919050565b5f5f8291508390505b60018511156144b55780860481111561449157614490614433565b5b60018516156144a05780820291505b80810290506144ae85614460565b9450614475565b94509492505050565b5f826144cd5760019050614588565b816144da575f9050614588565b81600181146144f057600281146144fa57614529565b6001915050614588565b60ff84111561450c5761450b614433565b5b8360020a91508482111561452357614522614433565b5b50614588565b5060208310610133831016604e8410600b841016171561455e5782820a90508381111561455957614558614433565b5b614588565b61456b848484600161446c565b9250905081840481111561458257614581614433565b5b81810290505b9392505050565b5f614599826138e4565b91506145a483613f47565b92506145d17fffffffffffffffffffffffffffffffffffffffffffffffffffffffffffffffff84846144be565b905092915050565b5f6145e3826138e4565b91506145ee836138e4565b92508282026145fc816138e4565b9150828204841483151761461357614612614433565b5b5092915050565b7f4e487b71000000000000000000000000000000000000000000000000000000005f52601260045260245ffd5b5f614651826138e4565b915061465c836138e4565b92508261466c5761466b61461a565b5b828204905092915050565b7f514920616d6f756e74206d757374206265203e203000000000000000000000005f82015250565b5f6146ab60158361375b565b91506146b682614677565b602082019050919050565b5f6020820190508181035f8301526146d88161469f565b9050919050565b5f6146e9826138e4565b91506146f4836138e4565b925082820190508082111561470c5761470b614433565b5b92915050565b7f457863656564732070726573616c6520746172676574000000000000000000005f82015250565b5f61474660168361375b565b915061475182614712565b602082019050919050565b5f6020820190508181035f8301526147738161473a565b9050919050565b7f42656c6f77206d696e696d756d207075726368617365000000000000000000005f82015250565b5f6147ae60168361375b565b91506147b98261477a565b602082019050919050565b5f6020820190508181035f8301526147db816147a2565b9050919050565b5f6060820190506147f55f830186613b96565b6148026020830185613b96565b61480f60408301846138ed565b949350505050565b5f8151905061482581613e50565b92915050565b5f602082840312156148405761483f61391e565b5b5f61484d84828501614817565b91505092915050565b7f5149207472616e73666572206661696c656400000000000000000000000000005f82015250565b5f61488a60128361375b565b915061489582614856565b602082019050919050565b5f6020820190508181035f8301526148b78161487e565b9050919050565b5f6080820190508181035f8301526148d68187613c09565b90506148e560208301866138ed565b6148f260408301856138ed565b6148ff60608301846138ed565b95945050505050565b7f50726573616c65206e6f742061637469766500000000000000000000000000005f82015250565b5f61493c60128361375b565b915061494782614908565b602082019050919050565b5f6020820190508181035f83015261496981614930565b9050919050565b7f45544820616d6f756e74206d757374206265203e2030000000000000000000005f82015250565b5f6149a460168361375b565b91506149af82614970565b602082019050919050565b5f6020820190508181035f8301526149d181614998565b9050919050565b7f5742544320616d6f756e74206d757374206265203e20300000000000000000005f82015250565b5f614a0c60178361375b565b9150614a17826149d8565b602082019050919050565b5f6020820190508181035f830152614a3981614a00565b9050919050565b7f57425443000000000000000000000000000000000000000000000000000000005f82015250565b5f614a746004836141ae565b9150614a7f82614a40565b600482019050919050565b5f614a9482614a68565b9150819050919050565b7f57425443207472616e73666572206661696c65640000000000000000000000005f82015250565b5f614ad260148361375b565b9150614add82614a9e565b602082019050919050565b5f6020820190508181035f830152614aff81614ac6565b9050919050565b7f45544820616d6f756e74206d69736d61746368000000000000000000000000005f82015250565b5f614b3a60138361375b565b9150614b4582614b06565b602082019050919050565b5f6020820190508181035f830152614b6781614b2e565b9050919050565b7f5553445420616d6f756e74206d757374206265203e20300000000000000000005f82015250565b5f614ba260178361375b565b9150614bad82614b6e565b602082019050919050565b5f6020820190508181035f830152614bcf81614b96565b9050919050565b7f55534454000000000000000000000000000000000000000000000000000000005f82015250565b5f614c0a6004836141ae565b9150614c1582614bd6565b600482019050919050565b5f614c2a82614bfe565b9150819050919050565b7f55534454207472616e73666572206661696c65640000000000000000000000005f82015250565b5f614c6860148361375b565b9150614c7382614c34565b602082019050919050565b5f6020820190508181035f830152614c9581614c5c565b9050919050565b7f5553444320616d6f756e74206d757374206265203e20300000000000000000005f82015250565b5f614cd060178361375b565b9150614cdb82614c9c565b602082019050919050565b5f6020820190508181035f830152614cfd81614cc4565b9050919050565b7f55534443000000000000000000000000000000000000000000000000000000005f82015250565b5f614d386004836141ae565b9150614d4382614d04565b600482019050919050565b5f614d5882614d2c565b9150819050919050565b7f55534443207472616e73666572206661696c65640000000000000000000000005f82015250565b5f614d9660148361375b565b9150614da182614d62565b602082019050919050565b5f6020820190508181035f830152614dc381614d8a565b9050919050565b7f546f6b656e206e6f7420696d706c656d656e74656400000000000000000000005f82015250565b5f614dfe60158361375b565b9150614e0982614dca565b602082019050919050565b5f6020820190508181035f830152614e2b81614df2565b9050919050565b5f60208284031215614e4757614e4661391e565b5b5f614e5484828501614340565b91505092915050565b7f4e487b71000000000000000000000000000000000000000000000000000000005f52602260045260245ffd5b5f6002820490506001821680614ea157607f821691505b602082108103614eb457614eb3614e5d565b5b50919050565b7f4e6f74206f776e657200000000000000000000000000000000000000000000005f82015250565b5f614eee60098361375b565b9150614ef982614eba565b602082019050919050565b5f6020820190508181035f830152614f1b81614ee2565b9050919050565b7f455448207769746864726177206661696c6564000000000000000000000000005f82015250565b5f614f5660138361375b565b9150614f6182614f22565b602082019050919050565b5f6020820190508181035f830152614f8381614f4a565b9050919050565b5f604082019050614f9d5f830185613b96565b614faa60208301846138ed565b9392505050565b7f546f6b656e207769746864726177206661696c656400000000000000000000005f82015250565b5f614fe560158361375b565b9150614ff082614fb1565b602082019050919050565b5f6020820190508181035f83015261501281614fd9565b9050919050565b7f4e487b71000000000000000000000000000000000000000000000000000000005f52603260045260245ffd5b5f819050815f5260205f209050919050565b5f815461506481614e8a565b61506e81866141ae565b9450600182165f8114615088576001811461509d576150cf565b60ff19831686528115158202860193506150cf565b6150a685615046565b5f5b838110156150c7578154818901526001820191506020810190506150a8565b838801955050505b50505092915050565b5f6150e38284615058565b915081905092915050565b5f819050815f5260205f209050919050565b5f815461510c81614e8a565b615116818661383b565b9450600182165f8114615130576001811461514557615177565b60ff1983168652811515820286019350615177565b61514e856150ee565b5f5b8381101561516f57815481890152600182019150602081019050615150565b838801955050505b50505092915050565b5f61518b8284615100565b915081905092915050565b5f6151a0826138e4565b91506151ab836138e4565b92508282039050818111156151c3576151c2614433565b5b92915050565b7f4e6577206f776e6572206973207a65726f2061646472657373000000000000005f82015250565b5f6151fd60198361375b565b9150615208826151c9565b602082019050919050565b5f6020820190508181035f83015261522a816151f1565b905091905056fea26469706673582212206dca711d3a025904c21c60eb3640eecfbb82b7e83778e6d024d8d2c20435e19d64736f6c634300081e0033",
			"opcodes": "PUSH1 0xA0 PUSH1 0x40 MSTORE CALLVALUE DUP1 ISZERO PUSH2 0xF JUMPI PUSH0 PUSH0 REVERT JUMPDEST POP PUSH1 0x40 MLOAD PUSH2 0x5C26 CODESIZE SUB DUP1 PUSH2 0x5C26 DUP4 CODECOPY DUP2 DUP2 ADD PUSH1 0x40 MSTORE DUP2 ADD SWAP1 PUSH2 0x31 SWAP2 SWAP1 PUSH2 0x500 JUMP JUMPDEST PUSH0 PUSH20 0xFFFFFFFFFFFFFFFFFFFFFFFFFFFFFFFFFFFFFFFF AND DUP2 PUSH20 0xFFFFFFFFFFFFFFFFFFFFFFFFFFFFFFFFFFFFFFFF AND SUB PUSH2 0x9F JUMPI PUSH1 0x40 MLOAD PUSH32 0x8C379A000000000000000000000000000000000000000000000000000000000 DUP2 MSTORE PUSH1 0x4 ADD PUSH2 0x96 SWAP1 PUSH2 0x585 JUMP JUMPDEST PUSH1 0x40 MLOAD DUP1 SWAP2 SUB SWAP1 REVERT JUMPDEST CALLER PUSH0 PUSH0 PUSH2 0x100 EXP DUP2 SLOAD DUP2 PUSH20 0xFFFFFFFFFFFFFFFFFFFFFFFFFFFFFFFFFFFFFFFF MUL NOT AND SWAP1 DUP4 PUSH20 0xFFFFFFFFFFFFFFFFFFFFFFFFFFFFFFFFFFFFFFFF AND MUL OR SWAP1 SSTORE POP DUP1 PUSH20 0xFFFFFFFFFFFFFFFFFFFFFFFFFFFFFFFFFFFFFFFF AND PUSH1 0x80 DUP2 PUSH20 0xFFFFFFFFFFFFFFFFFFFFFFFFFFFFFFFFFFFFFFFF AND DUP2 MSTORE POP POP PUSH1 0x1 PUSH0 PUSH1 0x14 PUSH2 0x100 EXP DUP2 SLOAD DUP2 PUSH1 0xFF MUL NOT AND SWAP1 DUP4 ISZERO ISZERO MUL OR SWAP1 SSTORE POP PUSH2 0x188 PUSH1 0x40 MLOAD DUP1 PUSH1 0x40 ADD PUSH1 0x40 MSTORE DUP1 PUSH1 0x3 DUP2 MSTORE PUSH1 0x20 ADD PUSH32 0x4554480000000000000000000000000000000000000000000000000000000000 DUP2 MSTORE POP PUSH0 PUSH20 0x71041DDDAD3595F9CED3DCCFBE3D1F4B0A16BB70 PUSH1 0x12 PUSH2 0x2B6 PUSH1 0x20 SHL PUSH1 0x20 SHR JUMP JUMPDEST PUSH2 0x1E4 PUSH1 0x40 MLOAD DUP1 PUSH1 0x40 ADD PUSH1 0x40 MSTORE DUP1 PUSH1 0x4 DUP2 MSTORE PUSH1 0x20 ADD PUSH32 0x5553445400000000000000000000000000000000000000000000000000000000 DUP2 MSTORE POP PUSH20 0xFDE4C96C8593536E31F229EA8F37B2ADA2699BB2 PUSH0 PUSH1 0x6 PUSH2 0x2B6 PUSH1 0x20 SHL PUSH1 0x20 SHR JUMP JUMPDEST PUSH2 0x240 PUSH1 0x40 MLOAD DUP1 PUSH1 0x40 ADD PUSH1 0x40 MSTORE DUP1 PUSH1 0x4 DUP2 MSTORE PUSH1 0x20 ADD PUSH32 0x5553444300000000000000000000000000000000000000000000000000000000 DUP2 MSTORE POP PUSH20 0x833589FCD6EDB6E08F4C7C32D4F71B54BDA02913 PUSH0 PUSH1 0x6 PUSH2 0x2B6 PUSH1 0x20 SHL PUSH1 0x20 SHR JUMP JUMPDEST PUSH2 0x2B0 PUSH1 0x40 MLOAD DUP1 PUSH1 0x40 ADD PUSH1 0x40 MSTORE DUP1 PUSH1 0x4 DUP2 MSTORE PUSH1 0x20 ADD PUSH32 0x5742544300000000000000000000000000000000000000000000000000000000 DUP2 MSTORE POP PUSH20 0x236AA50979D5F3DE3BD1EEB40E81137F22AB794B PUSH20 0x64C911996D3C6AC71F9B455B1E8E7266BCBD848F PUSH1 0x8 PUSH2 0x2B6 PUSH1 0x20 SHL PUSH1 0x20 SHR JUMP JUMPDEST POP PUSH2 0x9A0 JUMP JUMPDEST PUSH1 0x40 MLOAD DUP1 PUSH1 0x80 ADD PUSH1 0x40 MSTORE DUP1 DUP5 PUSH20 0xFFFFFFFFFFFFFFFFFFFFFFFFFFFFFFFFFFFFFFFF AND DUP2 MSTORE PUSH1 0x20 ADD PUSH0 PUSH20 0xFFFFFFFFFFFFFFFFFFFFFFFFFFFFFFFFFFFFFFFF AND DUP5 PUSH20 0xFFFFFFFFFFFFFFFFFFFFFFFFFFFFFFFFFFFFFFFF AND SUB PUSH2 0x316 JUMPI PUSH0 PUSH2 0x318 JUMP JUMPDEST DUP4 JUMPDEST PUSH20 0xFFFFFFFFFFFFFFFFFFFFFFFFFFFFFFFFFFFFFFFF AND DUP2 MSTORE PUSH1 0x20 ADD DUP3 PUSH1 0xFF AND DUP2 MSTORE PUSH1 0x20 ADD PUSH1 0x1 ISZERO ISZERO DUP2 MSTORE POP PUSH1 0x3 DUP6 PUSH1 0x40 MLOAD PUSH2 0x353 SWAP2 SWAP1 PUSH2 0x5F5 JUMP JUMPDEST SWAP1 DUP2 MSTORE PUSH1 0x20 ADD PUSH1 0x40 MLOAD DUP1 SWAP2 SUB SWAP1 KECCAK256 PUSH0 DUP3 ADD MLOAD DUP2 PUSH0 ADD PUSH0 PUSH2 0x100 EXP DUP2 SLOAD DUP2 PUSH20 0xFFFFFFFFFFFFFFFFFFFFFFFFFFFFFFFFFFFFFFFF MUL NOT AND SWAP1 DUP4 PUSH20 0xFFFFFFFFFFFFFFFFFFFFFFFFFFFFFFFFFFFFFFFF AND MUL OR SWAP1 SSTORE POP PUSH1 0x20 DUP3 ADD MLOAD DUP2 PUSH1 0x1 ADD PUSH0 PUSH2 0x100 EXP DUP2 SLOAD DUP2 PUSH20 0xFFFFFFFFFFFFFFFFFFFFFFFFFFFFFFFFFFFFFFFF MUL NOT AND SWAP1 DUP4 PUSH20 0xFFFFFFFFFFFFFFFFFFFFFFFFFFFFFFFFFFFFFFFF AND MUL OR SWAP1 SSTORE POP PUSH1 0x40 DUP3 ADD MLOAD DUP2 PUSH1 0x1 ADD PUSH1 0x14 PUSH2 0x100 EXP DUP2 SLOAD DUP2 PUSH1 0xFF MUL NOT AND SWAP1 DUP4 PUSH1 0xFF AND MUL OR SWAP1 SSTORE POP PUSH1 0x60 DUP3 ADD MLOAD DUP2 PUSH1 0x1 ADD PUSH1 0x15 PUSH2 0x100 EXP DUP2 SLOAD DUP2 PUSH1 0xFF MUL NOT AND SWAP1 DUP4 ISZERO ISZERO MUL OR SWAP1 SSTORE POP SWAP1 POP POP PUSH1 0x4 DUP5 SWAP1 DUP1 PUSH1 0x1 DUP2 SLOAD ADD DUP1 DUP3 SSTORE DUP1 SWAP2 POP POP PUSH1 0x1 SWAP1 SUB SWAP1 PUSH0 MSTORE PUSH1 0x20 PUSH0 KECCAK256 ADD PUSH0 SWAP1 SWAP2 SWAP1 SWAP2 SWAP1 SWAP2 POP SWAP1 DUP2 PUSH2 0x460 SWAP2 SWAP1 PUSH2 0x83E JUMP JUMPDEST POP PUSH32 0x91BB5C50A46662ED36D8C46C8CBD923B5D4A585EE99563C297CF71E21B91BC5E DUP5 DUP5 DUP5 PUSH1 0x40 MLOAD PUSH2 0x494 SWAP4 SWAP3 SWAP2 SWAP1 PUSH2 0x964 JUMP JUMPDEST PUSH1 0x40 MLOAD DUP1 SWAP2 SUB SWAP1 LOG1 POP POP POP POP JUMP JUMPDEST PUSH0 PUSH0 REVERT JUMPDEST PUSH0 PUSH20 0xFFFFFFFFFFFFFFFFFFFFFFFFFFFFFFFFFFFFFFFF DUP3 AND SWAP1 POP SWAP2 SWAP1 POP JUMP JUMPDEST PUSH0 PUSH2 0x4CF DUP3 PUSH2 0x4A6 JUMP JUMPDEST SWAP1 POP SWAP2 SWAP1 POP JUMP JUMPDEST PUSH2 0x4DF DUP2 PUSH2 0x4C5 JUMP JUMPDEST DUP2 EQ PUSH2 0x4E9 JUMPI PUSH0 PUSH0 REVERT JUMPDEST POP JUMP JUMPDEST PUSH0 DUP2 MLOAD SWAP1 POP PUSH2 0x4FA DUP2 PUSH2 0x4D6 JUMP JUMPDEST SWAP3 SWAP2 POP POP JUMP JUMPDEST PUSH0 PUSH1 0x20 DUP3 DUP5 SUB SLT ISZERO PUSH2 0x515 JUMPI PUSH2 0x514 PUSH2 0x4A2 JUMP JUMPDEST JUMPDEST PUSH0 PUSH2 0x522 DUP5 DUP3 DUP6 ADD PUSH2 0x4EC JUMP JUMPDEST SWAP2 POP POP SWAP3 SWAP2 POP POP JUMP JUMPDEST PUSH0 DUP3 DUP3 MSTORE PUSH1 0x20 DUP3 ADD SWAP1 POP SWAP3 SWAP2 POP POP JUMP JUMPDEST PUSH32 0x496E76616C696420514920746F6B656E20616464726573730000000000000000 PUSH0 DUP3 ADD MSTORE POP JUMP JUMPDEST PUSH0 PUSH2 0x56F PUSH1 0x18 DUP4 PUSH2 0x52B JUMP JUMPDEST SWAP2 POP PUSH2 0x57A DUP3 PUSH2 0x53B JUMP JUMPDEST PUSH1 0x20 DUP3 ADD SWAP1 POP SWAP2 SWAP1 POP JUMP JUMPDEST PUSH0 PUSH1 0x20 DUP3 ADD SWAP1 POP DUP2 DUP2 SUB PUSH0 DUP4 ADD MSTORE PUSH2 0x59C DUP2 PUSH2 0x563 JUMP JUMPDEST SWAP1 POP SWAP2 SWAP1 POP JUMP JUMPDEST PUSH0 DUP2 MLOAD SWAP1 POP SWAP2 SWAP1 POP JUMP JUMPDEST PUSH0 DUP2 SWAP1 POP SWAP3 SWAP2 POP POP JUMP JUMPDEST DUP3 DUP2 DUP4 MCOPY PUSH0 DUP4 DUP4 ADD MSTORE POP POP POP JUMP JUMPDEST PUSH0 PUSH2 0x5CF DUP3 PUSH2 0x5A3 JUMP JUMPDEST PUSH2 0x5D9 DUP2 DUP6 PUSH2 0x5AD JUMP JUMPDEST SWAP4 POP PUSH2 0x5E9 DUP2 DUP6 PUSH1 0x20 DUP7 ADD PUSH2 0x5B7 JUMP JUMPDEST DUP1 DUP5 ADD SWAP2 POP POP SWAP3 SWAP2 POP POP JUMP JUMPDEST PUSH0 PUSH2 0x600 DUP3 DUP5 PUSH2 0x5C5 JUMP JUMPDEST SWAP2 POP DUP2 SWAP1 POP SWAP3 SWAP2 POP POP JUMP JUMPDEST PUSH32 0x4E487B7100000000000000000000000000000000000000000000000000000000 PUSH0 MSTORE PUSH1 0x41 PUSH1 0x4 MSTORE PUSH1 0x24 PUSH0 REVERT JUMPDEST PUSH32 0x4E487B7100000000000000000000000000000000000000000000000000000000 PUSH0 MSTORE PUSH1 0x22 PUSH1 0x4 MSTORE PUSH1 0x24 PUSH0 REVERT JUMPDEST PUSH0 PUSH1 0x2 DUP3 DIV SWAP1 POP PUSH1 0x1 DUP3 AND DUP1 PUSH2 0x67C JUMPI PUSH1 0x7F DUP3 AND SWAP2 POP JUMPDEST PUSH1 0x20 DUP3 LT DUP2 SUB PUSH2 0x68F JUMPI PUSH2 0x68E PUSH2 0x638 JUMP JUMPDEST JUMPDEST POP SWAP2 SWAP1 POP JUMP JUMPDEST PUSH0 DUP2 SWAP1 POP DUP2 PUSH0 MSTORE PUSH1 0x20 PUSH0 KECCAK256 SWAP1 POP SWAP2 SWAP1 POP JUMP JUMPDEST PUSH0 PUSH1 0x20 PUSH1 0x1F DUP4 ADD DIV SWAP1 POP SWAP2 SWAP1 POP JUMP JUMPDEST PUSH0 DUP3 DUP3 SHL SWAP1 POP SWAP3 SWAP2 POP POP JUMP JUMPDEST PUSH0 PUSH1 0x8 DUP4 MUL PUSH2 0x6F1 PUSH32 0xFFFFFFFFFFFFFFFFFFFFFFFFFFFFFFFFFFFFFFFFFFFFFFFFFFFFFFFFFFFFFFFF DUP3 PUSH2 0x6B6 JUMP JUMPDEST PUSH2 0x6FB DUP7 DUP4 PUSH2 0x6B6 JUMP JUMPDEST SWAP6 POP DUP1 NOT DUP5 AND SWAP4 POP DUP1 DUP7 AND DUP5 OR SWAP3 POP POP POP SWAP4 SWAP3 POP POP POP JUMP JUMPDEST PUSH0 DUP2 SWAP1 POP SWAP2 SWAP1 POP JUMP JUMPDEST PUSH0 DUP2 SWAP1 POP SWAP2 SWAP1 POP JUMP JUMPDEST PUSH0 PUSH2 0x73F PUSH2 0x73A PUSH2 0x735 DUP5 PUSH2 0x713 JUMP JUMPDEST PUSH2 0x71C JUMP JUMPDEST PUSH2 0x713 JUMP JUMPDEST SWAP1 POP SWAP2 SWAP1 POP JUMP JUMPDEST PUSH0 DUP2 SWAP1 POP SWAP2 SWAP1 POP JUMP JUMPDEST PUSH2 0x758 DUP4 PUSH2 0x725 JUMP JUMPDEST PUSH2 0x76C PUSH2 0x764 DUP3 PUSH2 0x746 JUMP JUMPDEST DUP5 DUP5 SLOAD PUSH2 0x6C2 JUMP JUMPDEST DUP3 SSTORE POP POP POP POP JUMP JUMPDEST PUSH0 PUSH0 SWAP1 POP SWAP1 JUMP JUMPDEST PUSH2 0x783 PUSH2 0x774 JUMP JUMPDEST PUSH2 0x78E DUP2 DUP5 DUP5 PUSH2 0x74F JUMP JUMPDEST POP POP POP JUMP JUMPDEST JUMPDEST DUP2 DUP2 LT ISZERO PUSH2 0x7B1 JUMPI PUSH2 0x7A6 PUSH0 DUP3 PUSH2 0x77B JUMP JUMPDEST PUSH1 0x1 DUP2 ADD SWAP1 POP PUSH2 0x794 JUMP JUMPDEST POP POP JUMP JUMPDEST PUSH1 0x1F DUP3 GT ISZERO PUSH2 0x7F6 JUMPI PUSH2 0x7C7 DUP2 PUSH2 0x695 JUMP JUMPDEST PUSH2 0x7D0 DUP5 PUSH2 0x6A7 JUMP JUMPDEST DUP2 ADD PUSH1 0x20 DUP6 LT ISZERO PUSH2 0x7DF JUMPI DUP2 SWAP1 POP JUMPDEST PUSH2 0x7F3 PUSH2 0x7EB DUP6 PUSH2 0x6A7 JUMP JUMPDEST DUP4 ADD DUP3 PUSH2 0x793 JUMP JUMPDEST POP POP JUMPDEST POP POP POP JUMP JUMPDEST PUSH0 DUP3 DUP3 SHR SWAP1 POP SWAP3 SWAP2 POP POP JUMP JUMPDEST PUSH0 PUSH2 0x816 PUSH0 NOT DUP5 PUSH1 0x8 MUL PUSH2 0x7FB JUMP JUMPDEST NOT DUP1 DUP4 AND SWAP2 POP POP SWAP3 SWAP2 POP POP JUMP JUMPDEST PUSH0 PUSH2 0x82E DUP4 DUP4 PUSH2 0x807 JUMP JUMPDEST SWAP2 POP DUP3 PUSH1 0x2 MUL DUP3 OR SWAP1 POP SWAP3 SWAP2 POP POP JUMP JUMPDEST PUSH2 0x847 DUP3 PUSH2 0x5A3 JUMP JUMPDEST PUSH8 0xFFFFFFFFFFFFFFFF DUP2 GT ISZERO PUSH2 0x860 JUMPI PUSH2 0x85F PUSH2 0x60B JUMP JUMPDEST JUMPDEST PUSH2 0x86A DUP3 SLOAD PUSH2 0x665 JUMP JUMPDEST PUSH2 0x875 DUP3 DUP3 DUP6 PUSH2 0x7B5 JUMP JUMPDEST PUSH0 PUSH1 0x20 SWAP1 POP PUSH1 0x1F DUP4 GT PUSH1 0x1 DUP2 EQ PUSH2 0x8A6 JUMPI PUSH0 DUP5 ISZERO PUSH2 0x894 JUMPI DUP3 DUP8 ADD MLOAD SWAP1 POP JUMPDEST PUSH2 0x89E DUP6 DUP3 PUSH2 0x823 JUMP JUMPDEST DUP7 SSTORE POP PUSH2 0x905 JUMP JUMPDEST PUSH1 0x1F NOT DUP5 AND PUSH2 0x8B4 DUP7 PUSH2 0x695 JUMP JUMPDEST PUSH0 JUMPDEST DUP3 DUP2 LT ISZERO PUSH2 0x8DB JUMPI DUP5 DUP10 ADD MLOAD DUP3 SSTORE PUSH1 0x1 DUP3 ADD SWAP2 POP PUSH1 0x20 DUP6 ADD SWAP5 POP PUSH1 0x20 DUP2 ADD SWAP1 POP PUSH2 0x8B6 JUMP JUMPDEST DUP7 DUP4 LT ISZERO PUSH2 0x8F8 JUMPI DUP5 DUP10 ADD MLOAD PUSH2 0x8F4 PUSH1 0x1F DUP10 AND DUP3 PUSH2 0x807 JUMP JUMPDEST DUP4 SSTORE POP JUMPDEST PUSH1 0x1 PUSH1 0x2 DUP9 MUL ADD DUP9 SSTORE POP POP POP JUMPDEST POP POP POP POP POP POP JUMP JUMPDEST PUSH0 PUSH1 0x1F NOT PUSH1 0x1F DUP4 ADD AND SWAP1 POP SWAP2 SWAP1 POP JUMP JUMPDEST PUSH0 PUSH2 0x927 DUP3 PUSH2 0x5A3 JUMP JUMPDEST PUSH2 0x931 DUP2 DUP6 PUSH2 0x52B JUMP JUMPDEST SWAP4 POP PUSH2 0x941 DUP2 DUP6 PUSH1 0x20 DUP7 ADD PUSH2 0x5B7 JUMP JUMPDEST PUSH2 0x94A DUP2 PUSH2 0x90D JUMP JUMPDEST DUP5 ADD SWAP2 POP POP SWAP3 SWAP2 POP POP JUMP JUMPDEST PUSH2 0x95E DUP2 PUSH2 0x4C5 JUMP JUMPDEST DUP3 MSTORE POP POP JUMP JUMPDEST PUSH0 PUSH1 0x60 DUP3 ADD SWAP1 POP DUP2 DUP2 SUB PUSH0 DUP4 ADD MSTORE PUSH2 0x97C DUP2 DUP7 PUSH2 0x91D JUMP JUMPDEST SWAP1 POP PUSH2 0x98B PUSH1 0x20 DUP4 ADD DUP6 PUSH2 0x955 JUMP JUMPDEST PUSH2 0x998 PUSH1 0x40 DUP4 ADD DUP5 PUSH2 0x955 JUMP JUMPDEST SWAP5 SWAP4 POP POP POP POP JUMP JUMPDEST PUSH1 0x80 MLOAD PUSH2 0x5267 PUSH2 0x9BF PUSH0 CODECOPY PUSH0 DUP2 DUP2 PUSH2 0xCC6 ADD MSTORE PUSH2 0x20A6 ADD MSTORE PUSH2 0x5267 PUSH0 RETURN INVALID PUSH1 0x80 PUSH1 0x40 MSTORE PUSH1 0x4 CALLDATASIZE LT PUSH2 0x169 JUMPI PUSH0 CALLDATALOAD PUSH1 0xE0 SHR DUP1 PUSH4 0x85CBC881 GT PUSH2 0xD0 JUMPI DUP1 PUSH4 0xAECCF735 GT PUSH2 0x89 JUMPI DUP1 PUSH4 0xEB795F25 GT PUSH2 0x63 JUMPI DUP1 PUSH4 0xEB795F25 EQ PUSH2 0x730 JUMPI DUP1 PUSH4 0xF2FDE38B EQ PUSH2 0x75A JUMPI DUP1 PUSH4 0xF4A5B2B0 EQ PUSH2 0x782 JUMPI DUP1 PUSH4 0xFDE3A8D0 EQ PUSH2 0x7AC JUMPI PUSH2 0x3A0 JUMP JUMPDEST DUP1 PUSH4 0xAECCF735 EQ PUSH2 0x6B2 JUMPI DUP1 PUSH4 0xD3C7C2C7 EQ PUSH2 0x6DA JUMPI DUP1 PUSH4 0xE8E3F4AA EQ PUSH2 0x706 JUMPI PUSH2 0x3A0 JUMP JUMPDEST DUP1 PUSH4 0x85CBC881 EQ PUSH2 0x5A1 JUMPI DUP1 PUSH4 0x8895283F EQ PUSH2 0x5CB JUMPI DUP1 PUSH4 0x89919CDD EQ PUSH2 0x5F3 JUMPI DUP1 PUSH4 0x8DA5CB5B EQ PUSH2 0x632 JUMPI DUP1 PUSH4 0xA56B94F3 EQ PUSH2 0x65C JUMPI DUP1 PUSH4 0xA7C60160 EQ PUSH2 0x68A JUMPI PUSH2 0x3A0 JUMP JUMPDEST DUP1 PUSH4 0x4BFDFA6F GT PUSH2 0x122 JUMPI DUP1 PUSH4 0x4BFDFA6F EQ PUSH2 0x482 JUMPI DUP1 PUSH4 0x53135CA0 EQ PUSH2 0x4AC JUMPI DUP1 PUSH4 0x6E7DDEA8 EQ PUSH2 0x4D6 JUMPI DUP1 PUSH4 0x6FF1C9BC EQ PUSH2 0x512 JUMPI DUP1 PUSH4 0x7D4C12AC EQ PUSH2 0x53A JUMPI DUP1 PUSH4 0x852D0D6E EQ PUSH2 0x576 JUMPI PUSH2 0x3A0 JUMP JUMPDEST DUP1 PUSH4 0x150D283D EQ PUSH2 0x3A4 JUMPI DUP1 PUSH4 0x1AAE8491 EQ PUSH2 0x3AE JUMPI DUP1 PUSH4 0x1B7C4B5C EQ PUSH2 0x3D8 JUMPI DUP1 PUSH4 0x21F3689B EQ PUSH2 0x400 JUMPI DUP1 PUSH4 0x43AB265F EQ PUSH2 0x41C JUMPI DUP1 PUSH4 0x462E4CDA EQ PUSH2 0x458 JUMPI PUSH2 0x3A0 JUMP JUMPDEST CALLDATASIZE PUSH2 0x3A0 JUMPI PUSH1 0x5 PUSH0 SWAP1 SLOAD SWAP1 PUSH2 0x100 EXP SWAP1 DIV PUSH1 0xFF AND ISZERO PUSH2 0x1BD JUMPI PUSH1 0x40 MLOAD PUSH32 0x8C379A000000000000000000000000000000000000000000000000000000000 DUP2 MSTORE PUSH1 0x4 ADD PUSH2 0x1B4 SWAP1 PUSH2 0x37B5 JUMP JUMPDEST PUSH1 0x40 MLOAD DUP1 SWAP2 SUB SWAP1 REVERT JUMPDEST PUSH1 0x1 PUSH1 0x5 PUSH0 PUSH2 0x100 EXP DUP2 SLOAD DUP2 PUSH1 0xFF MUL NOT AND SWAP1 DUP4 ISZERO ISZERO MUL OR SWAP1 SSTORE POP PUSH0 CALLVALUE GT DUP1 ISZERO PUSH2 0x1F1 JUMPI POP PUSH0 PUSH1 0x14 SWAP1 SLOAD SWAP1 PUSH2 0x100 EXP SWAP1 DIV PUSH1 0xFF AND JUMPDEST ISZERO PUSH2 0x386 JUMPI PUSH0 PUSH2 0x236 PUSH1 0x40 MLOAD DUP1 PUSH1 0x40 ADD PUSH1 0x40 MSTORE DUP1 PUSH1 0x3 DUP2 MSTORE PUSH1 0x20 ADD PUSH32 0x4554480000000000000000000000000000000000000000000000000000000000 DUP2 MSTORE POP CALLVALUE PUSH2 0x7D6 JUMP JUMPDEST SWAP1 POP PUSH0 DUP2 GT PUSH2 0x27A JUMPI PUSH1 0x40 MLOAD PUSH32 0x8C379A000000000000000000000000000000000000000000000000000000000 DUP2 MSTORE PUSH1 0x4 ADD PUSH2 0x271 SWAP1 PUSH2 0x381D JUMP JUMPDEST PUSH1 0x40 MLOAD DUP1 SWAP2 SUB SWAP1 REVERT JUMPDEST PUSH2 0x2BB CALLER PUSH1 0x40 MLOAD DUP1 PUSH1 0x40 ADD PUSH1 0x40 MSTORE DUP1 PUSH1 0x3 DUP2 MSTORE PUSH1 0x20 ADD PUSH32 0x4554480000000000000000000000000000000000000000000000000000000000 DUP2 MSTORE POP CALLVALUE DUP5 PUSH2 0xB69 JUMP JUMPDEST PUSH0 PUSH0 PUSH0 SWAP1 SLOAD SWAP1 PUSH2 0x100 EXP SWAP1 DIV PUSH20 0xFFFFFFFFFFFFFFFFFFFFFFFFFFFFFFFFFFFFFFFF AND PUSH20 0xFFFFFFFFFFFFFFFFFFFFFFFFFFFFFFFFFFFFFFFF AND CALLVALUE PUSH1 0x40 MLOAD PUSH2 0x300 SWAP1 PUSH2 0x3868 JUMP JUMPDEST PUSH0 PUSH1 0x40 MLOAD DUP1 DUP4 SUB DUP2 DUP6 DUP8 GAS CALL SWAP3 POP POP POP RETURNDATASIZE DUP1 PUSH0 DUP2 EQ PUSH2 0x33A JUMPI PUSH1 0x40 MLOAD SWAP2 POP PUSH1 0x1F NOT PUSH1 0x3F RETURNDATASIZE ADD AND DUP3 ADD PUSH1 0x40 MSTORE RETURNDATASIZE DUP3 MSTORE RETURNDATASIZE PUSH0 PUSH1 0x20 DUP5 ADD RETURNDATACOPY PUSH2 0x33F JUMP JUMPDEST PUSH1 0x60 SWAP2 POP JUMPDEST POP POP SWAP1 POP DUP1 PUSH2 0x383 JUMPI PUSH1 0x40 MLOAD PUSH32 0x8C379A000000000000000000000000000000000000000000000000000000000 DUP2 MSTORE PUSH1 0x4 ADD PUSH2 0x37A SWAP1 PUSH2 0x38C6 JUMP JUMPDEST PUSH1 0x40 MLOAD DUP1 SWAP2 SUB SWAP1 REVERT JUMPDEST POP POP JUMPDEST PUSH0 PUSH1 0x5 PUSH0 PUSH2 0x100 EXP DUP2 SLOAD DUP2 PUSH1 0xFF MUL NOT AND SWAP1 DUP4 ISZERO ISZERO MUL OR SWAP1 SSTORE STOP JUMPDEST PUSH0 PUSH0 REVERT JUMPDEST PUSH2 0x3AC PUSH2 0xE20 JUMP JUMPDEST STOP JUMPDEST CALLVALUE DUP1 ISZERO PUSH2 0x3B9 JUMPI PUSH0 PUSH0 REVERT JUMPDEST POP PUSH2 0x3C2 PUSH2 0x10C3 JUMP JUMPDEST PUSH1 0x40 MLOAD PUSH2 0x3CF SWAP2 SWAP1 PUSH2 0x38FC JUMP JUMPDEST PUSH1 0x40 MLOAD DUP1 SWAP2 SUB SWAP1 RETURN JUMPDEST CALLVALUE DUP1 ISZERO PUSH2 0x3E3 JUMPI PUSH0 PUSH0 REVERT JUMPDEST POP PUSH2 0x3FE PUSH1 0x4 DUP1 CALLDATASIZE SUB DUP2 ADD SWAP1 PUSH2 0x3F9 SWAP2 SWAP1 PUSH2 0x3950 JUMP JUMPDEST PUSH2 0x10CA JUMP JUMPDEST STOP JUMPDEST PUSH2 0x41A PUSH1 0x4 DUP1 CALLDATASIZE SUB DUP2 ADD SWAP1 PUSH2 0x415 SWAP2 SWAP1 PUSH2 0x3AB7 JUMP JUMPDEST PUSH2 0x13C3 JUMP JUMPDEST STOP JUMPDEST CALLVALUE DUP1 ISZERO PUSH2 0x427 JUMPI PUSH0 PUSH0 REVERT JUMPDEST POP PUSH2 0x442 PUSH1 0x4 DUP1 CALLDATASIZE SUB DUP2 ADD SWAP1 PUSH2 0x43D SWAP2 SWAP1 PUSH2 0x3B6B JUMP JUMPDEST PUSH2 0x1FE8 JUMP JUMPDEST PUSH1 0x40 MLOAD PUSH2 0x44F SWAP2 SWAP1 PUSH2 0x38FC JUMP JUMPDEST PUSH1 0x40 MLOAD DUP1 SWAP2 SUB SWAP1 RETURN JUMPDEST CALLVALUE DUP1 ISZERO PUSH2 0x463 JUMPI PUSH0 PUSH0 REVERT JUMPDEST POP PUSH2 0x46C PUSH2 0x20A4 JUMP JUMPDEST PUSH1 0x40 MLOAD PUSH2 0x479 SWAP2 SWAP1 PUSH2 0x3BA5 JUMP JUMPDEST PUSH1 0x40 MLOAD DUP1 SWAP2 SUB SWAP1 RETURN JUMPDEST CALLVALUE DUP1 ISZERO PUSH2 0x48D JUMPI PUSH0 PUSH0 REVERT JUMPDEST POP PUSH2 0x496 PUSH2 0x20C8 JUMP JUMPDEST PUSH1 0x40 MLOAD PUSH2 0x4A3 SWAP2 SWAP1 PUSH2 0x38FC JUMP JUMPDEST PUSH1 0x40 MLOAD DUP1 SWAP2 SUB SWAP1 RETURN JUMPDEST CALLVALUE DUP1 ISZERO PUSH2 0x4B7 JUMPI PUSH0 PUSH0 REVERT JUMPDEST POP PUSH2 0x4C0 PUSH2 0x20CF JUMP JUMPDEST PUSH1 0x40 MLOAD PUSH2 0x4CD SWAP2 SWAP1 PUSH2 0x3BD8 JUMP JUMPDEST PUSH1 0x40 MLOAD DUP1 SWAP2 SUB SWAP1 RETURN JUMPDEST CALLVALUE DUP1 ISZERO PUSH2 0x4E1 JUMPI PUSH0 PUSH0 REVERT JUMPDEST POP PUSH2 0x4FC PUSH1 0x4 DUP1 CALLDATASIZE SUB DUP2 ADD SWAP1 PUSH2 0x4F7 SWAP2 SWAP1 PUSH2 0x3950 JUMP JUMPDEST PUSH2 0x20E1 JUMP JUMPDEST PUSH1 0x40 MLOAD PUSH2 0x509 SWAP2 SWAP1 PUSH2 0x3C41 JUMP JUMPDEST PUSH1 0x40 MLOAD DUP1 SWAP2 SUB SWAP1 RETURN JUMPDEST CALLVALUE DUP1 ISZERO PUSH2 0x51D JUMPI PUSH0 PUSH0 REVERT JUMPDEST POP PUSH2 0x538 PUSH1 0x4 DUP1 CALLDATASIZE SUB DUP2 ADD SWAP1 PUSH2 0x533 SWAP2 SWAP1 PUSH2 0x3B6B JUMP JUMPDEST PUSH2 0x2187 JUMP JUMPDEST STOP JUMPDEST CALLVALUE DUP1 ISZERO PUSH2 0x545 JUMPI PUSH0 PUSH0 REVERT JUMPDEST POP PUSH2 0x560 PUSH1 0x4 DUP1 CALLDATASIZE SUB DUP2 ADD SWAP1 PUSH2 0x55B SWAP2 SWAP1 PUSH2 0x3AB7 JUMP JUMPDEST PUSH2 0x7D6 JUMP JUMPDEST PUSH1 0x40 MLOAD PUSH2 0x56D SWAP2 SWAP1 PUSH2 0x38FC JUMP JUMPDEST PUSH1 0x40 MLOAD DUP1 SWAP2 SUB SWAP1 RETURN JUMPDEST CALLVALUE DUP1 ISZERO PUSH2 0x581 JUMPI PUSH0 PUSH0 REVERT JUMPDEST POP PUSH2 0x58A PUSH2 0x2580 JUMP JUMPDEST PUSH1 0x40 MLOAD PUSH2 0x598 SWAP3 SWAP2 SWAP1 PUSH2 0x3E1B JUMP JUMPDEST PUSH1 0x40 MLOAD DUP1 SWAP2 SUB SWAP1 RETURN JUMPDEST CALLVALUE DUP1 ISZERO PUSH2 0x5AC JUMPI PUSH0 PUSH0 REVERT JUMPDEST POP PUSH2 0x5B5 PUSH2 0x2A59 JUMP JUMPDEST PUSH1 0x40 MLOAD PUSH2 0x5C2 SWAP2 SWAP1 PUSH2 0x38FC JUMP JUMPDEST PUSH1 0x40 MLOAD DUP1 SWAP2 SUB SWAP1 RETURN JUMPDEST CALLVALUE DUP1 ISZERO PUSH2 0x5D6 JUMPI PUSH0 PUSH0 REVERT JUMPDEST POP PUSH2 0x5F1 PUSH1 0x4 DUP1 CALLDATASIZE SUB DUP2 ADD SWAP1 PUSH2 0x5EC SWAP2 SWAP1 PUSH2 0x3E7A JUMP JUMPDEST PUSH2 0x2A5F JUMP JUMPDEST STOP JUMPDEST CALLVALUE DUP1 ISZERO PUSH2 0x5FE JUMPI PUSH0 PUSH0 REVERT JUMPDEST POP PUSH2 0x619 PUSH1 0x4 DUP1 CALLDATASIZE SUB DUP2 ADD SWAP1 PUSH2 0x614 SWAP2 SWAP1 PUSH2 0x3EA5 JUMP JUMPDEST PUSH2 0x2B40 JUMP JUMPDEST PUSH1 0x40 MLOAD PUSH2 0x629 SWAP5 SWAP4 SWAP3 SWAP2 SWAP1 PUSH2 0x3F62 JUMP JUMPDEST PUSH1 0x40 MLOAD DUP1 SWAP2 SUB SWAP1 RETURN JUMPDEST CALLVALUE DUP1 ISZERO PUSH2 0x63D JUMPI PUSH0 PUSH0 REVERT JUMPDEST POP PUSH2 0x646 PUSH2 0x2BDC JUMP JUMPDEST PUSH1 0x40 MLOAD PUSH2 0x653 SWAP2 SWAP1 PUSH2 0x3BA5 JUMP JUMPDEST PUSH1 0x40 MLOAD DUP1 SWAP2 SUB SWAP1 RETURN JUMPDEST CALLVALUE DUP1 ISZERO PUSH2 0x667 JUMPI PUSH0 PUSH0 REVERT JUMPDEST POP PUSH2 0x670 PUSH2 0x2C00 JUMP JUMPDEST PUSH1 0x40 MLOAD PUSH2 0x681 SWAP6 SWAP5 SWAP4 SWAP3 SWAP2 SWAP1 PUSH2 0x3FA5 JUMP JUMPDEST PUSH1 0x40 MLOAD DUP1 SWAP2 SUB SWAP1 RETURN JUMPDEST CALLVALUE DUP1 ISZERO PUSH2 0x695 JUMPI PUSH0 PUSH0 REVERT JUMPDEST POP PUSH2 0x6B0 PUSH1 0x4 DUP1 CALLDATASIZE SUB DUP2 ADD SWAP1 PUSH2 0x6AB SWAP2 SWAP1 PUSH2 0x3950 JUMP JUMPDEST PUSH2 0x2C50 JUMP JUMPDEST STOP JUMPDEST CALLVALUE DUP1 ISZERO PUSH2 0x6BD JUMPI PUSH0 PUSH0 REVERT JUMPDEST POP PUSH2 0x6D8 PUSH1 0x4 DUP1 CALLDATASIZE SUB DUP2 ADD SWAP1 PUSH2 0x6D3 SWAP2 SWAP1 PUSH2 0x3950 JUMP JUMPDEST PUSH2 0x2F49 JUMP JUMPDEST STOP JUMPDEST CALLVALUE DUP1 ISZERO PUSH2 0x6E5 JUMPI PUSH0 PUSH0 REVERT JUMPDEST POP PUSH2 0x6EE PUSH2 0x3242 JUMP JUMPDEST PUSH1 0x40 MLOAD PUSH2 0x6FD SWAP4 SWAP3 SWAP2 SWAP1 PUSH2 0x4164 JUMP JUMPDEST PUSH1 0x40 MLOAD DUP1 SWAP2 SUB SWAP1 RETURN JUMPDEST CALLVALUE DUP1 ISZERO PUSH2 0x711 JUMPI PUSH0 PUSH0 REVERT JUMPDEST POP PUSH2 0x71A PUSH2 0x357F JUMP JUMPDEST PUSH1 0x40 MLOAD PUSH2 0x727 SWAP2 SWAP1 PUSH2 0x38FC JUMP JUMPDEST PUSH1 0x40 MLOAD DUP1 SWAP2 SUB SWAP1 RETURN JUMPDEST CALLVALUE DUP1 ISZERO PUSH2 0x73B JUMPI PUSH0 PUSH0 REVERT JUMPDEST POP PUSH2 0x744 PUSH2 0x3585 JUMP JUMPDEST PUSH1 0x40 MLOAD PUSH2 0x751 SWAP2 SWAP1 PUSH2 0x38FC JUMP JUMPDEST PUSH1 0x40 MLOAD DUP1 SWAP2 SUB SWAP1 RETURN JUMPDEST CALLVALUE DUP1 ISZERO PUSH2 0x765 JUMPI PUSH0 PUSH0 REVERT JUMPDEST POP PUSH2 0x780 PUSH1 0x4 DUP1 CALLDATASIZE SUB DUP2 ADD SWAP1 PUSH2 0x77B SWAP2 SWAP1 PUSH2 0x3B6B JUMP JUMPDEST PUSH2 0x3594 JUMP JUMPDEST STOP JUMPDEST CALLVALUE DUP1 ISZERO PUSH2 0x78D JUMPI PUSH0 PUSH0 REVERT JUMPDEST POP PUSH2 0x796 PUSH2 0x374C JUMP JUMPDEST PUSH1 0x40 MLOAD PUSH2 0x7A3 SWAP2 SWAP1 PUSH2 0x38FC JUMP JUMPDEST PUSH1 0x40 MLOAD DUP1 SWAP2 SUB SWAP1 RETURN JUMPDEST CALLVALUE DUP1 ISZERO PUSH2 0x7B7 JUMPI PUSH0 PUSH0 REVERT JUMPDEST POP PUSH2 0x7C0 PUSH2 0x3753 JUMP JUMPDEST PUSH1 0x40 MLOAD PUSH2 0x7CD SWAP2 SWAP1 PUSH2 0x38FC JUMP JUMPDEST PUSH1 0x40 MLOAD DUP1 SWAP2 SUB SWAP1 RETURN JUMPDEST PUSH0 PUSH0 PUSH1 0x3 DUP5 PUSH1 0x40 MLOAD PUSH2 0x7E8 SWAP2 SWAP1 PUSH2 0x41E8 JUMP JUMPDEST SWAP1 DUP2 MSTORE PUSH1 0x20 ADD PUSH1 0x40 MLOAD DUP1 SWAP2 SUB SWAP1 KECCAK256 PUSH1 0x40 MLOAD DUP1 PUSH1 0x80 ADD PUSH1 0x40 MSTORE SWAP1 DUP2 PUSH0 DUP3 ADD PUSH0 SWAP1 SLOAD SWAP1 PUSH2 0x100 EXP SWAP1 DIV PUSH20 0xFFFFFFFFFFFFFFFFFFFFFFFFFFFFFFFFFFFFFFFF AND PUSH20 0xFFFFFFFFFFFFFFFFFFFFFFFFFFFFFFFFFFFFFFFF AND PUSH20 0xFFFFFFFFFFFFFFFFFFFFFFFFFFFFFFFFFFFFFFFF AND DUP2 MSTORE PUSH1 0x20 ADD PUSH1 0x1 DUP3 ADD PUSH0 SWAP1 SLOAD SWAP1 PUSH2 0x100 EXP SWAP1 DIV PUSH20 0xFFFFFFFFFFFFFFFFFFFFFFFFFFFFFFFFFFFFFFFF AND PUSH20 0xFFFFFFFFFFFFFFFFFFFFFFFFFFFFFFFFFFFFFFFF AND PUSH20 0xFFFFFFFFFFFFFFFFFFFFFFFFFFFFFFFFFFFFFFFF AND DUP2 MSTORE PUSH1 0x20 ADD PUSH1 0x1 DUP3 ADD PUSH1 0x14 SWAP1 SLOAD SWAP1 PUSH2 0x100 EXP SWAP1 DIV PUSH1 0xFF AND PUSH1 0xFF AND PUSH1 0xFF AND DUP2 MSTORE PUSH1 0x20 ADD PUSH1 0x1 DUP3 ADD PUSH1 0x15 SWAP1 SLOAD SWAP1 PUSH2 0x100 EXP SWAP1 DIV PUSH1 0xFF AND ISZERO ISZERO ISZERO ISZERO DUP2 MSTORE POP POP SWAP1 POP DUP1 PUSH1 0x60 ADD MLOAD PUSH2 0x928 JUMPI PUSH1 0x40 MLOAD PUSH32 0x8C379A000000000000000000000000000000000000000000000000000000000 DUP2 MSTORE PUSH1 0x4 ADD PUSH2 0x91F SWAP1 PUSH2 0x4248 JUMP JUMPDEST PUSH1 0x40 MLOAD DUP1 SWAP2 SUB SWAP1 REVERT JUMPDEST PUSH0 PUSH1 0x40 MLOAD DUP1 PUSH1 0x40 ADD PUSH1 0x40 MSTORE DUP1 PUSH1 0x4 DUP2 MSTORE PUSH1 0x20 ADD PUSH32 0x5553445400000000000000000000000000000000000000000000000000000000 DUP2 MSTORE POP DUP1 MLOAD SWAP1 PUSH1 0x20 ADD KECCAK256 DUP6 DUP1 MLOAD SWAP1 PUSH1 0x20 ADD KECCAK256 EQ DUP1 PUSH2 0x9BC JUMPI POP PUSH1 0x40 MLOAD DUP1 PUSH1 0x40 ADD PUSH1 0x40 MSTORE DUP1 PUSH1 0x4 DUP2 MSTORE PUSH1 0x20 ADD PUSH32 0x5553444300000000000000000000000000000000000000000000000000000000 DUP2 MSTORE POP DUP1 MLOAD SWAP1 PUSH1 0x20 ADD KECCAK256 DUP6 DUP1 MLOAD SWAP1 PUSH1 0x20 ADD KECCAK256 EQ JUMPDEST ISZERO PUSH2 0x9C9 JUMPI DUP4 SWAP1 POP PUSH2 0xB3D JUMP JUMPDEST PUSH0 PUSH20 0xFFFFFFFFFFFFFFFFFFFFFFFFFFFFFFFFFFFFFFFF AND DUP3 PUSH1 0x20 ADD MLOAD PUSH20 0xFFFFFFFFFFFFFFFFFFFFFFFFFFFFFFFFFFFFFFFF AND SUB PUSH2 0xA3B JUMPI PUSH1 0x40 MLOAD PUSH32 0x8C379A000000000000000000000000000000000000000000000000000000000 DUP2 MSTORE PUSH1 0x4 ADD PUSH2 0xA32 SWAP1 PUSH2 0x42B0 JUMP JUMPDEST PUSH1 0x40 MLOAD DUP1 SWAP2 SUB SWAP1 REVERT JUMPDEST PUSH0 DUP3 PUSH1 0x20 ADD MLOAD PUSH20 0xFFFFFFFFFFFFFFFFFFFFFFFFFFFFFFFFFFFFFFFF AND PUSH4 0xFEAF968C PUSH1 0x40 MLOAD DUP2 PUSH4 0xFFFFFFFF AND PUSH1 0xE0 SHL DUP2 MSTORE PUSH1 0x4 ADD PUSH1 0xA0 PUSH1 0x40 MLOAD DUP1 DUP4 SUB DUP2 DUP7 GAS STATICCALL ISZERO DUP1 ISZERO PUSH2 0xA89 JUMPI RETURNDATASIZE PUSH0 PUSH0 RETURNDATACOPY RETURNDATASIZE PUSH0 REVERT JUMPDEST POP POP POP POP PUSH1 0x40 MLOAD RETURNDATASIZE PUSH1 0x1F NOT PUSH1 0x1F DUP3 ADD AND DUP3 ADD DUP1 PUSH1 0x40 MSTORE POP DUP2 ADD SWAP1 PUSH2 0xAAD SWAP2 SWAP1 PUSH2 0x4354 JUMP JUMPDEST POP POP POP SWAP2 POP POP PUSH0 DUP2 SGT PUSH2 0xAF5 JUMPI PUSH1 0x40 MLOAD PUSH32 0x8C379A000000000000000000000000000000000000000000000000000000000 DUP2 MSTORE PUSH1 0x4 ADD PUSH2 0xAEC SWAP1 PUSH2 0x4415 JUMP JUMPDEST PUSH1 0x40 MLOAD DUP1 SWAP2 SUB SWAP1 REVERT JUMPDEST DUP3 PUSH1 0x40 ADD MLOAD PUSH1 0xA PUSH2 0xB06 SWAP2 SWAP1 PUSH2 0x458F JUMP JUMPDEST PUSH4 0x5F5E100 PUSH2 0xB15 SWAP2 SWAP1 PUSH2 0x45D9 JUMP JUMPDEST PUSH3 0xF4240 DUP3 DUP8 PUSH2 0xB25 SWAP2 SWAP1 PUSH2 0x45D9 JUMP JUMPDEST PUSH2 0xB2F SWAP2 SWAP1 PUSH2 0x45D9 JUMP JUMPDEST PUSH2 0xB39 SWAP2 SWAP1 PUSH2 0x4647 JUMP JUMPDEST SWAP2 POP POP JUMPDEST PUSH3 0x989680 PUSH8 0xDE0B6B3A7640000 DUP3 PUSH2 0xB55 SWAP2 SWAP1 PUSH2 0x45D9 JUMP JUMPDEST PUSH2 0xB5F SWAP2 SWAP1 PUSH2 0x4647 JUMP JUMPDEST SWAP3 POP POP POP SWAP3 SWAP2 POP POP JUMP JUMPDEST DUP1 PUSH0 DUP2 GT PUSH2 0xBAC JUMPI PUSH1 0x40 MLOAD PUSH32 0x8C379A000000000000000000000000000000000000000000000000000000000 DUP2 MSTORE PUSH1 0x4 ADD PUSH2 0xBA3 SWAP1 PUSH2 0x46C1 JUMP JUMPDEST PUSH1 0x40 MLOAD DUP1 SWAP2 SUB SWAP1 REVERT JUMPDEST PUSH11 0x108B2A2C28029094000000 DUP2 PUSH1 0x1 SLOAD PUSH2 0xBC6 SWAP2 SWAP1 PUSH2 0x46DF JUMP JUMPDEST GT ISZERO PUSH2 0xC07 JUMPI PUSH1 0x40 MLOAD PUSH32 0x8C379A000000000000000000000000000000000000000000000000000000000 DUP2 MSTORE PUSH1 0x4 ADD PUSH2 0xBFE SWAP1 PUSH2 0x475C JUMP JUMPDEST PUSH1 0x40 MLOAD DUP1 SWAP2 SUB SWAP1 REVERT JUMPDEST PUSH3 0x989680 PUSH8 0xDE0B6B3A7640000 PUSH3 0x989680 DUP4 PUSH2 0xC23 SWAP2 SWAP1 PUSH2 0x45D9 JUMP JUMPDEST PUSH2 0xC2D SWAP2 SWAP1 PUSH2 0x4647 JUMP JUMPDEST LT ISZERO PUSH2 0xC6E JUMPI PUSH1 0x40 MLOAD PUSH32 0x8C379A000000000000000000000000000000000000000000000000000000000 DUP2 MSTORE PUSH1 0x4 ADD PUSH2 0xC65 SWAP1 PUSH2 0x47C4 JUMP JUMPDEST PUSH1 0x40 MLOAD DUP1 SWAP2 SUB SWAP1 REVERT JUMPDEST PUSH0 PUSH8 0xDE0B6B3A7640000 PUSH3 0x989680 DUP5 PUSH2 0xC87 SWAP2 SWAP1 PUSH2 0x45D9 JUMP JUMPDEST PUSH2 0xC91 SWAP2 SWAP1 PUSH2 0x4647 JUMP JUMPDEST SWAP1 POP DUP3 PUSH1 0x1 PUSH0 DUP3 DUP3 SLOAD PUSH2 0xCA4 SWAP2 SWAP1 PUSH2 0x46DF JUMP JUMPDEST SWAP3 POP POP DUP2 SWAP1 SSTORE POP DUP1 PUSH1 0x2 PUSH0 DUP3 DUP3 SLOAD PUSH2 0xCBC SWAP2 SWAP1 PUSH2 0x46DF JUMP JUMPDEST SWAP3 POP POP DUP2 SWAP1 SSTORE POP PUSH0 PUSH32 0x0 SWAP1 POP DUP1 PUSH20 0xFFFFFFFFFFFFFFFFFFFFFFFFFFFFFFFFFFFFFFFF AND PUSH4 0x23B872DD PUSH0 PUSH0 SWAP1 SLOAD SWAP1 PUSH2 0x100 EXP SWAP1 DIV PUSH20 0xFFFFFFFFFFFFFFFFFFFFFFFFFFFFFFFFFFFFFFFF AND DUP10 DUP8 PUSH1 0x40 MLOAD DUP5 PUSH4 0xFFFFFFFF AND PUSH1 0xE0 SHL DUP2 MSTORE PUSH1 0x4 ADD PUSH2 0xD44 SWAP4 SWAP3 SWAP2 SWAP1 PUSH2 0x47E2 JUMP JUMPDEST PUSH1 0x20 PUSH1 0x40 MLOAD DUP1 DUP4 SUB DUP2 PUSH0 DUP8 GAS CALL ISZERO DUP1 ISZERO PUSH2 0xD60 JUMPI RETURNDATASIZE PUSH0 PUSH0 RETURNDATACOPY RETURNDATASIZE PUSH0 REVERT JUMPDEST POP POP POP POP PUSH1 0x40 MLOAD RETURNDATASIZE PUSH1 0x1F NOT PUSH1 0x1F DUP3 ADD AND DUP3 ADD DUP1 PUSH1 0x40 MSTORE POP DUP2 ADD SWAP1 PUSH2 0xD84 SWAP2 SWAP1 PUSH2 0x482B JUMP JUMPDEST PUSH2 0xDC3 JUMPI PUSH1 0x40 MLOAD PUSH32 0x8C379A000000000000000000000000000000000000000000000000000000000 DUP2 MSTORE PUSH1 0x4 ADD PUSH2 0xDBA SWAP1 PUSH2 0x48A0 JUMP JUMPDEST PUSH1 0x40 MLOAD DUP1 SWAP2 SUB SWAP1 REVERT JUMPDEST DUP7 PUSH20 0xFFFFFFFFFFFFFFFFFFFFFFFFFFFFFFFFFFFFFFFF AND PUSH32 0x45EBA9171C088AFEC730E2FDC64E7014502E57ADB5178ADB892ADAED39163857 DUP8 DUP8 DUP8 DUP7 PUSH1 0x40 MLOAD PUSH2 0xE0F SWAP5 SWAP4 SWAP3 SWAP2 SWAP1 PUSH2 0x48BE JUMP JUMPDEST PUSH1 0x40 MLOAD DUP1 SWAP2 SUB SWAP1 LOG2 POP POP POP POP POP POP POP JUMP JUMPDEST PUSH0 PUSH1 0x14 SWAP1 SLOAD SWAP1 PUSH2 0x100 EXP SWAP1 DIV PUSH1 0xFF AND PUSH2 0xE6E JUMPI PUSH1 0x40 MLOAD PUSH32 0x8C379A000000000000000000000000000000000000000000000000000000000 DUP2 MSTORE PUSH1 0x4 ADD PUSH2 0xE65 SWAP1 PUSH2 0x4952 JUMP JUMPDEST PUSH1 0x40 MLOAD DUP1 SWAP2 SUB SWAP1 REVERT JUMPDEST PUSH1 0x5 PUSH0 SWAP1 SLOAD SWAP1 PUSH2 0x100 EXP SWAP1 DIV PUSH1 0xFF AND ISZERO PUSH2 0xEBD JUMPI PUSH1 0x40 MLOAD PUSH32 0x8C379A000000000000000000000000000000000000000000000000000000000 DUP2 MSTORE PUSH1 0x4 ADD PUSH2 0xEB4 SWAP1 PUSH2 0x37B5 JUMP JUMPDEST PUSH1 0x40 MLOAD DUP1 SWAP2 SUB SWAP1 REVERT JUMPDEST PUSH1 0x1 PUSH1 0x5 PUSH0 PUSH2 0x100 EXP DUP2 SLOAD DUP2 PUSH1 0xFF MUL NOT AND SWAP1 DUP4 ISZERO ISZERO MUL OR SWAP1 SSTORE POP PUSH0 CALLVALUE GT PUSH2 0xF19 JUMPI PUSH1 0x40 MLOAD PUSH32 0x8C379A000000000000000000000000000000000000000000000000000000000 DUP2 MSTORE PUSH1 0x4 ADD PUSH2 0xF10 SWAP1 PUSH2 0x49BA JUMP JUMPDEST PUSH1 0x40 MLOAD DUP1 SWAP2 SUB SWAP1 REVERT JUMPDEST PUSH0 PUSH2 0xF59 PUSH1 0x40 MLOAD DUP1 PUSH1 0x40 ADD PUSH1 0x40 MSTORE DUP1 PUSH1 0x3 DUP2 MSTORE PUSH1 0x20 ADD PUSH32 0x4554480000000000000000000000000000000000000000000000000000000000 DUP2 MSTORE POP CALLVALUE PUSH2 0x7D6 JUMP JUMPDEST SWAP1 POP PUSH0 DUP2 GT PUSH2 0xF9D JUMPI PUSH1 0x40 MLOAD PUSH32 0x8C379A000000000000000000000000000000000000000000000000000000000 DUP2 MSTORE PUSH1 0x4 ADD PUSH2 0xF94 SWAP1 PUSH2 0x381D JUMP JUMPDEST PUSH1 0x40 MLOAD DUP1 SWAP2 SUB SWAP1 REVERT JUMPDEST PUSH2 0xFDE CALLER PUSH1 0x40 MLOAD DUP1 PUSH1 0x40 ADD PUSH1 0x40 MSTORE DUP1 PUSH1 0x3 DUP2 MSTORE PUSH1 0x20 ADD PUSH32 0x4554480000000000000000000000000000000000000000000000000000000000 DUP2 MSTORE POP CALLVALUE DUP5 PUSH2 0xB69 JUMP JUMPDEST PUSH0 PUSH0 PUSH0 SWAP1 SLOAD SWAP1 PUSH2 0x100 EXP SWAP1 DIV PUSH20 0xFFFFFFFFFFFFFFFFFFFFFFFFFFFFFFFFFFFFFFFF AND PUSH20 0xFFFFFFFFFFFFFFFFFFFFFFFFFFFFFFFFFFFFFFFF AND CALLVALUE PUSH1 0x40 MLOAD PUSH2 0x1023 SWAP1 PUSH2 0x3868 JUMP JUMPDEST PUSH0 PUSH1 0x40 MLOAD DUP1 DUP4 SUB DUP2 DUP6 DUP8 GAS CALL SWAP3 POP POP POP RETURNDATASIZE DUP1 PUSH0 DUP2 EQ PUSH2 0x105D JUMPI PUSH1 0x40 MLOAD SWAP2 POP PUSH1 0x1F NOT PUSH1 0x3F RETURNDATASIZE ADD AND DUP3 ADD PUSH1 0x40 MSTORE RETURNDATASIZE DUP3 MSTORE RETURNDATASIZE PUSH0 PUSH1 0x20 DUP5 ADD RETURNDATACOPY PUSH2 0x1062 JUMP JUMPDEST PUSH1 0x60 SWAP2 POP JUMPDEST POP POP SWAP1 POP DUP1 PUSH2 0x10A6 JUMPI PUSH1 0x40 MLOAD PUSH32 0x8C379A000000000000000000000000000000000000000000000000000000000 DUP2 MSTORE PUSH1 0x4 ADD PUSH2 0x109D SWAP1 PUSH2 0x38C6 JUMP JUMPDEST PUSH1 0x40 MLOAD DUP1 SWAP2 SUB SWAP1 REVERT JUMPDEST POP POP PUSH0 PUSH1 0x5 PUSH0 PUSH2 0x100 EXP DUP2 SLOAD DUP2 PUSH1 0xFF MUL NOT AND SWAP1 DUP4 ISZERO ISZERO MUL OR SWAP1 SSTORE POP JUMP JUMPDEST PUSH3 0x989680 DUP2 JUMP JUMPDEST PUSH0 PUSH1 0x14 SWAP1 SLOAD SWAP1 PUSH2 0x100 EXP SWAP1 DIV PUSH1 0xFF AND PUSH2 0x1118 JUMPI PUSH1 0x40 MLOAD PUSH32 0x8C379A000000000000000000000000000000000000000000000000000000000 DUP2 MSTORE PUSH1 0x4 ADD PUSH2 0x110F SWAP1 PUSH2 0x4952 JUMP JUMPDEST PUSH1 0x40 MLOAD DUP1 SWAP2 SUB SWAP1 REVERT JUMPDEST PUSH1 0x5 PUSH0 SWAP1 SLOAD SWAP1 PUSH2 0x100 EXP SWAP1 DIV PUSH1 0xFF AND ISZERO PUSH2 0x1167 JUMPI PUSH1 0x40 MLOAD PUSH32 0x8C379A000000000000000000000000000000000000000000000000000000000 DUP2 MSTORE PUSH1 0x4 ADD PUSH2 0x115E SWAP1 PUSH2 0x37B5 JUMP JUMPDEST PUSH1 0x40 MLOAD DUP1 SWAP2 SUB SWAP1 REVERT JUMPDEST PUSH1 0x1 PUSH1 0x5 PUSH0 PUSH2 0x100 EXP DUP2 SLOAD DUP2 PUSH1 0xFF MUL NOT AND SWAP1 DUP4 ISZERO ISZERO MUL OR SWAP1 SSTORE POP PUSH0 DUP2 GT PUSH2 0x11C3 JUMPI PUSH1 0x40 MLOAD PUSH32 0x8C379A000000000000000000000000000000000000000000000000000000000 DUP2 MSTORE PUSH1 0x4 ADD PUSH2 0x11BA SWAP1 PUSH2 0x4A22 JUMP JUMPDEST PUSH1 0x40 MLOAD DUP1 SWAP2 SUB SWAP1 REVERT JUMPDEST PUSH0 PUSH2 0x1203 PUSH1 0x40 MLOAD DUP1 PUSH1 0x40 ADD PUSH1 0x40 MSTORE DUP1 PUSH1 0x4 DUP2 MSTORE PUSH1 0x20 ADD PUSH32 0x5742544300000000000000000000000000000000000000000000000000000000 DUP2 MSTORE POP DUP4 PUSH2 0x7D6 JUMP JUMPDEST SWAP1 POP PUSH0 DUP2 GT PUSH2 0x1247 JUMPI PUSH1 0x40 MLOAD PUSH32 0x8C379A000000000000000000000000000000000000000000000000000000000 DUP2 MSTORE PUSH1 0x4 ADD PUSH2 0x123E SWAP1 PUSH2 0x381D JUMP JUMPDEST PUSH1 0x40 MLOAD DUP1 SWAP2 SUB SWAP1 REVERT JUMPDEST PUSH2 0x1288 CALLER PUSH1 0x40 MLOAD DUP1 PUSH1 0x40 ADD PUSH1 0x40 MSTORE DUP1 PUSH1 0x4 DUP2 MSTORE PUSH1 0x20 ADD PUSH32 0x5742544300000000000000000000000000000000000000000000000000000000 DUP2 MSTORE POP DUP5 DUP5 PUSH2 0xB69 JUMP JUMPDEST PUSH0 PUSH1 0x3 PUSH1 0x40 MLOAD PUSH2 0x1297 SWAP1 PUSH2 0x4A8A JUMP JUMPDEST SWAP1 DUP2 MSTORE PUSH1 0x20 ADD PUSH1 0x40 MLOAD DUP1 SWAP2 SUB SWAP1 KECCAK256 PUSH0 ADD PUSH0 SWAP1 SLOAD SWAP1 PUSH2 0x100 EXP SWAP1 DIV PUSH20 0xFFFFFFFFFFFFFFFFFFFFFFFFFFFFFFFFFFFFFFFF AND SWAP1 POP DUP1 PUSH20 0xFFFFFFFFFFFFFFFFFFFFFFFFFFFFFFFFFFFFFFFF AND PUSH4 0x23B872DD CALLER PUSH0 PUSH0 SWAP1 SLOAD SWAP1 PUSH2 0x100 EXP SWAP1 DIV PUSH20 0xFFFFFFFFFFFFFFFFFFFFFFFFFFFFFFFFFFFFFFFF AND DUP7 PUSH1 0x40 MLOAD DUP5 PUSH4 0xFFFFFFFF AND PUSH1 0xE0 SHL DUP2 MSTORE PUSH1 0x4 ADD PUSH2 0x1326 SWAP4 SWAP3 SWAP2 SWAP1 PUSH2 0x47E2 JUMP JUMPDEST PUSH1 0x20 PUSH1 0x40 MLOAD DUP1 DUP4 SUB DUP2 PUSH0 DUP8 GAS CALL ISZERO DUP1 ISZERO PUSH2 0x1342 JUMPI RETURNDATASIZE PUSH0 PUSH0 RETURNDATACOPY RETURNDATASIZE PUSH0 REVERT JUMPDEST POP POP POP POP PUSH1 0x40 MLOAD RETURNDATASIZE PUSH1 0x1F NOT PUSH1 0x1F DUP3 ADD AND DUP3 ADD DUP1 PUSH1 0x40 MSTORE POP DUP2 ADD SWAP1 PUSH2 0x1366 SWAP2 SWAP1 PUSH2 0x482B JUMP JUMPDEST PUSH2 0x13A5 JUMPI PUSH1 0x40 MLOAD PUSH32 0x8C379A000000000000000000000000000000000000000000000000000000000 DUP2 MSTORE PUSH1 0x4 ADD PUSH2 0x139C SWAP1 PUSH2 0x4AE8 JUMP JUMPDEST PUSH1 0x40 MLOAD DUP1 SWAP2 SUB SWAP1 REVERT JUMPDEST POP POP PUSH0 PUSH1 0x5 PUSH0 PUSH2 0x100 EXP DUP2 SLOAD DUP2 PUSH1 0xFF MUL NOT AND SWAP1 DUP4 ISZERO ISZERO MUL OR SWAP1 SSTORE POP POP JUMP JUMPDEST PUSH0 PUSH1 0x14 SWAP1 SLOAD SWAP1 PUSH2 0x100 EXP SWAP1 DIV PUSH1 0xFF AND PUSH2 0x1411 JUMPI PUSH1 0x40 MLOAD PUSH32 0x8C379A000000000000000000000000000000000000000000000000000000000 DUP2 MSTORE PUSH1 0x4 ADD PUSH2 0x1408 SWAP1 PUSH2 0x4952 JUMP JUMPDEST PUSH1 0x40 MLOAD DUP1 SWAP2 SUB SWAP1 REVERT JUMPDEST PUSH1 0x5 PUSH0 SWAP1 SLOAD SWAP1 PUSH2 0x100 EXP SWAP1 DIV PUSH1 0xFF AND ISZERO PUSH2 0x1460 JUMPI PUSH1 0x40 MLOAD PUSH32 0x8C379A000000000000000000000000000000000000000000000000000000000 DUP2 MSTORE PUSH1 0x4 ADD PUSH2 0x1457 SWAP1 PUSH2 0x37B5 JUMP JUMPDEST PUSH1 0x40 MLOAD DUP1 SWAP2 SUB SWAP1 REVERT JUMPDEST PUSH1 0x1 PUSH1 0x5 PUSH0 PUSH2 0x100 EXP DUP2 SLOAD DUP2 PUSH1 0xFF MUL NOT AND SWAP1 DUP4 ISZERO ISZERO MUL OR SWAP1 SSTORE POP PUSH0 PUSH1 0x3 DUP4 PUSH1 0x40 MLOAD PUSH2 0x148B SWAP2 SWAP1 PUSH2 0x41E8 JUMP JUMPDEST SWAP1 DUP2 MSTORE PUSH1 0x20 ADD PUSH1 0x40 MLOAD DUP1 SWAP2 SUB SWAP1 KECCAK256 PUSH1 0x40 MLOAD DUP1 PUSH1 0x80 ADD PUSH1 0x40 MSTORE SWAP1 DUP2 PUSH0 DUP3 ADD PUSH0 SWAP1 SLOAD SWAP1 PUSH2 0x100 EXP SWAP1 DIV PUSH20 0xFFFFFFFFFFFFFFFFFFFFFFFFFFFFFFFFFFFFFFFF AND PUSH20 0xFFFFFFFFFFFFFFFFFFFFFFFFFFFFFFFFFFFFFFFF AND PUSH20 0xFFFFFFFFFFFFFFFFFFFFFFFFFFFFFFFFFFFFFFFF AND DUP2 MSTORE PUSH1 0x20 ADD PUSH1 0x1 DUP3 ADD PUSH0 SWAP1 SLOAD SWAP1 PUSH2 0x100 EXP SWAP1 DIV PUSH20 0xFFFFFFFFFFFFFFFFFFFFFFFFFFFFFFFFFFFFFFFF AND PUSH20 0xFFFFFFFFFFFFFFFFFFFFFFFFFFFFFFFFFFFFFFFF AND PUSH20 0xFFFFFFFFFFFFFFFFFFFFFFFFFFFFFFFFFFFFFFFF AND DUP2 MSTORE PUSH1 0x20 ADD PUSH1 0x1 DUP3 ADD PUSH1 0x14 SWAP1 SLOAD SWAP1 PUSH2 0x100 EXP SWAP1 DIV PUSH1 0xFF AND PUSH1 0xFF AND PUSH1 0xFF AND DUP2 MSTORE PUSH1 0x20 ADD PUSH1 0x1 DUP3 ADD PUSH1 0x15 SWAP1 SLOAD SWAP1 PUSH2 0x100 EXP SWAP1 DIV PUSH1 0xFF AND ISZERO ISZERO ISZERO ISZERO DUP2 MSTORE POP POP SWAP1 POP DUP1 PUSH1 0x60 ADD MLOAD PUSH2 0x15CB JUMPI PUSH1 0x40 MLOAD PUSH32 0x8C379A000000000000000000000000000000000000000000000000000000000 DUP2 MSTORE PUSH1 0x4 ADD PUSH2 0x15C2 SWAP1 PUSH2 0x4248 JUMP JUMPDEST PUSH1 0x40 MLOAD DUP1 SWAP2 SUB SWAP1 REVERT JUMPDEST PUSH1 0x40 MLOAD DUP1 PUSH1 0x40 ADD PUSH1 0x40 MSTORE DUP1 PUSH1 0x3 DUP2 MSTORE PUSH1 0x20 ADD PUSH32 0x4554480000000000000000000000000000000000000000000000000000000000 DUP2 MSTORE POP DUP1 MLOAD SWAP1 PUSH1 0x20 ADD KECCAK256 DUP4 DUP1 MLOAD SWAP1 PUSH1 0x20 ADD KECCAK256 SUB PUSH2 0x182D JUMPI DUP2 CALLVALUE EQ PUSH2 0x1657 JUMPI PUSH1 0x40 MLOAD PUSH32 0x8C379A000000000000000000000000000000000000000000000000000000000 DUP2 MSTORE PUSH1 0x4 ADD PUSH2 0x164E SWAP1 PUSH2 0x4B50 JUMP JUMPDEST PUSH1 0x40 MLOAD DUP1 SWAP2 SUB SWAP1 REVERT JUMPDEST PUSH0 CALLVALUE GT PUSH2 0x1699 JUMPI PUSH1 0x40 MLOAD PUSH32 0x8C379A000000000000000000000000000000000000000000000000000000000 DUP2 MSTORE PUSH1 0x4 ADD PUSH2 0x1690 SWAP1 PUSH2 0x49BA JUMP JUMPDEST PUSH1 0x40 MLOAD DUP1 SWAP2 SUB SWAP1 REVERT JUMPDEST PUSH0 PUSH2 0x16D9 PUSH1 0x40 MLOAD DUP1 PUSH1 0x40 ADD PUSH1 0x40 MSTORE DUP1 PUSH1 0x3 DUP2 MSTORE PUSH1 0x20 ADD PUSH32 0x4554480000000000000000000000000000000000000000000000000000000000 DUP2 MSTORE POP CALLVALUE PUSH2 0x7D6 JUMP JUMPDEST SWAP1 POP PUSH0 DUP2 GT PUSH2 0x171D JUMPI PUSH1 0x40 MLOAD PUSH32 0x8C379A000000000000000000000000000000000000000000000000000000000 DUP2 MSTORE PUSH1 0x4 ADD PUSH2 0x1714 SWAP1 PUSH2 0x381D JUMP JUMPDEST PUSH1 0x40 MLOAD DUP1 SWAP2 SUB SWAP1 REVERT JUMPDEST PUSH2 0x175E CALLER PUSH1 0x40 MLOAD DUP1 PUSH1 0x40 ADD PUSH1 0x40 MSTORE DUP1 PUSH1 0x3 DUP2 MSTORE PUSH1 0x20 ADD PUSH32 0x4554480000000000000000000000000000000000000000000000000000000000 DUP2 MSTORE POP CALLVALUE DUP5 PUSH2 0xB69 JUMP JUMPDEST PUSH0 PUSH0 PUSH0 SWAP1 SLOAD SWAP1 PUSH2 0x100 EXP SWAP1 DIV PUSH20 0xFFFFFFFFFFFFFFFFFFFFFFFFFFFFFFFFFFFFFFFF AND PUSH20 0xFFFFFFFFFFFFFFFFFFFFFFFFFFFFFFFFFFFFFFFF AND CALLVALUE PUSH1 0x40 MLOAD PUSH2 0x17A3 SWAP1 PUSH2 0x3868 JUMP JUMPDEST PUSH0 PUSH1 0x40 MLOAD DUP1 DUP4 SUB DUP2 DUP6 DUP8 GAS CALL SWAP3 POP POP POP RETURNDATASIZE DUP1 PUSH0 DUP2 EQ PUSH2 0x17DD JUMPI PUSH1 0x40 MLOAD SWAP2 POP PUSH1 0x1F NOT PUSH1 0x3F RETURNDATASIZE ADD AND DUP3 ADD PUSH1 0x40 MSTORE RETURNDATASIZE DUP3 MSTORE RETURNDATASIZE PUSH0 PUSH1 0x20 DUP5 ADD RETURNDATACOPY PUSH2 0x17E2 JUMP JUMPDEST PUSH1 0x60 SWAP2 POP JUMPDEST POP POP SWAP1 POP DUP1 PUSH2 0x1826 JUMPI PUSH1 0x40 MLOAD PUSH32 0x8C379A000000000000000000000000000000000000000000000000000000000 DUP2 MSTORE PUSH1 0x4 ADD PUSH2 0x181D SWAP1 PUSH2 0x38C6 JUMP JUMPDEST PUSH1 0x40 MLOAD DUP1 SWAP2 SUB SWAP1 REVERT JUMPDEST POP POP PUSH2 0x1FCA JUMP JUMPDEST PUSH1 0x40 MLOAD DUP1 PUSH1 0x40 ADD PUSH1 0x40 MSTORE DUP1 PUSH1 0x4 DUP2 MSTORE PUSH1 0x20 ADD PUSH32 0x5553445400000000000000000000000000000000000000000000000000000000 DUP2 MSTORE POP DUP1 MLOAD SWAP1 PUSH1 0x20 ADD KECCAK256 DUP4 DUP1 MLOAD SWAP1 PUSH1 0x20 ADD KECCAK256 SUB PUSH2 0x1AA2 JUMPI PUSH0 DUP3 GT PUSH2 0x18B9 JUMPI PUSH1 0x40 MLOAD PUSH32 0x8C379A000000000000000000000000000000000000000000000000000000000 DUP2 MSTORE PUSH1 0x4 ADD PUSH2 0x18B0 SWAP1 PUSH2 0x4BB8 JUMP JUMPDEST PUSH1 0x40 MLOAD DUP1 SWAP2 SUB SWAP1 REVERT JUMPDEST PUSH0 PUSH2 0x18F9 PUSH1 0x40 MLOAD DUP1 PUSH1 0x40 ADD PUSH1 0x40 MSTORE DUP1 PUSH1 0x4 DUP2 MSTORE PUSH1 0x20 ADD PUSH32 0x5553445400000000000000000000000000000000000000000000000000000000 DUP2 MSTORE POP DUP5 PUSH2 0x7D6 JUMP JUMPDEST SWAP1 POP PUSH0 DUP2 GT PUSH2 0x193D JUMPI PUSH1 0x40 MLOAD PUSH32 0x8C379A000000000000000000000000000000000000000000000000000000000 DUP2 MSTORE PUSH1 0x4 ADD PUSH2 0x1934 SWAP1 PUSH2 0x381D JUMP JUMPDEST PUSH1 0x40 MLOAD DUP1 SWAP2 SUB SWAP1 REVERT JUMPDEST PUSH2 0x197E CALLER PUSH1 0x40 MLOAD DUP1 PUSH1 0x40 ADD PUSH1 0x40 MSTORE DUP1 PUSH1 0x4 DUP2 MSTORE PUSH1 0x20 ADD PUSH32 0x5553445400000000000000000000000000000000000000000000000000000000 DUP2 MSTORE POP DUP6 DUP5 PUSH2 0xB69 JUMP JUMPDEST PUSH0 PUSH1 0x3 PUSH1 0x40 MLOAD PUSH2 0x198D SWAP1 PUSH2 0x4C20 JUMP JUMPDEST SWAP1 DUP2 MSTORE PUSH1 0x20 ADD PUSH1 0x40 MLOAD DUP1 SWAP2 SUB SWAP1 KECCAK256 PUSH0 ADD PUSH0 SWAP1 SLOAD SWAP1 PUSH2 0x100 EXP SWAP1 DIV PUSH20 0xFFFFFFFFFFFFFFFFFFFFFFFFFFFFFFFFFFFFFFFF AND SWAP1 POP DUP1 PUSH20 0xFFFFFFFFFFFFFFFFFFFFFFFFFFFFFFFFFFFFFFFF AND PUSH4 0x23B872DD CALLER PUSH0 PUSH0 SWAP1 SLOAD SWAP1 PUSH2 0x100 EXP SWAP1 DIV PUSH20 0xFFFFFFFFFFFFFFFFFFFFFFFFFFFFFFFFFFFFFFFF AND DUP8 PUSH1 0x40 MLOAD DUP5 PUSH4 0xFFFFFFFF AND PUSH1 0xE0 SHL DUP2 MSTORE PUSH1 0x4 ADD PUSH2 0x1A1C SWAP4 SWAP3 SWAP2 SWAP1 PUSH2 0x47E2 JUMP JUMPDEST PUSH1 0x20 PUSH1 0x40 MLOAD DUP1 DUP4 SUB DUP2 PUSH0 DUP8 GAS CALL ISZERO DUP1 ISZERO PUSH2 0x1A38 JUMPI RETURNDATASIZE PUSH0 PUSH0 RETURNDATACOPY RETURNDATASIZE PUSH0 REVERT JUMPDEST POP POP POP POP PUSH1 0x40 MLOAD RETURNDATASIZE PUSH1 0x1F NOT PUSH1 0x1F DUP3 ADD AND DUP3 ADD DUP1 PUSH1 0x40 MSTORE POP DUP2 ADD SWAP1 PUSH2 0x1A5C SWAP2 SWAP1 PUSH2 0x482B JUMP JUMPDEST PUSH2 0x1A9B JUMPI PUSH1 0x40 MLOAD PUSH32 0x8C379A000000000000000000000000000000000000000000000000000000000 DUP2 MSTORE PUSH1 0x4 ADD PUSH2 0x1A92 SWAP1 PUSH2 0x4C7E JUMP JUMPDEST PUSH1 0x40 MLOAD DUP1 SWAP2 SUB SWAP1 REVERT JUMPDEST POP POP PUSH2 0x1FC9 JUMP JUMPDEST PUSH1 0x40 MLOAD DUP1 PUSH1 0x40 ADD PUSH1 0x40 MSTORE DUP1 PUSH1 0x4 DUP2 MSTORE PUSH1 0x20 ADD PUSH32 0x5553444300000000000000000000000000000000000000000000000000000000 DUP2 MSTORE POP DUP1 MLOAD SWAP1 PUSH1 0x20 ADD KECCAK256 DUP4 DUP1 MLOAD SWAP1 PUSH1 0x20 ADD KECCAK256 SUB PUSH2 0x1D17 JUMPI PUSH0 DUP3 GT PUSH2 0x1B2E JUMPI PUSH1 0x40 MLOAD PUSH32 0x8C379A000000000000000000000000000000000000000000000000000000000 DUP2 MSTORE PUSH1 0x4 ADD PUSH2 0x1B25 SWAP1 PUSH2 0x4CE6 JUMP JUMPDEST PUSH1 0x40 MLOAD DUP1 SWAP2 SUB SWAP1 REVERT JUMPDEST PUSH0 PUSH2 0x1B6E PUSH1 0x40 MLOAD DUP1 PUSH1 0x40 ADD PUSH1 0x40 MSTORE DUP1 PUSH1 0x4 DUP2 MSTORE PUSH1 0x20 ADD PUSH32 0x5553444300000000000000000000000000000000000000000000000000000000 DUP2 MSTORE POP DUP5 PUSH2 0x7D6 JUMP JUMPDEST SWAP1 POP PUSH0 DUP2 GT PUSH2 0x1BB2 JUMPI PUSH1 0x40 MLOAD PUSH32 0x8C379A000000000000000000000000000000000000000000000000000000000 DUP2 MSTORE PUSH1 0x4 ADD PUSH2 0x1BA9 SWAP1 PUSH2 0x381D JUMP JUMPDEST PUSH1 0x40 MLOAD DUP1 SWAP2 SUB SWAP1 REVERT JUMPDEST PUSH2 0x1BF3 CALLER PUSH1 0x40 MLOAD DUP1 PUSH1 0x40 ADD PUSH1 0x40 MSTORE DUP1 PUSH1 0x4 DUP2 MSTORE PUSH1 0x20 ADD PUSH32 0x5553444300000000000000000000000000000000000000000000000000000000 DUP2 MSTORE POP DUP6 DUP5 PUSH2 0xB69 JUMP JUMPDEST PUSH0 PUSH1 0x3 PUSH1 0x40 MLOAD PUSH2 0x1C02 SWAP1 PUSH2 0x4D4E JUMP JUMPDEST SWAP1 DUP2 MSTORE PUSH1 0x20 ADD PUSH1 0x40 MLOAD DUP1 SWAP2 SUB SWAP1 KECCAK256 PUSH0 ADD PUSH0 SWAP1 SLOAD SWAP1 PUSH2 0x100 EXP SWAP1 DIV PUSH20 0xFFFFFFFFFFFFFFFFFFFFFFFFFFFFFFFFFFFFFFFF AND SWAP1 POP DUP1 PUSH20 0xFFFFFFFFFFFFFFFFFFFFFFFFFFFFFFFFFFFFFFFF AND PUSH4 0x23B872DD CALLER PUSH0 PUSH0 SWAP1 SLOAD SWAP1 PUSH2 0x100 EXP SWAP1 DIV PUSH20 0xFFFFFFFFFFFFFFFFFFFFFFFFFFFFFFFFFFFFFFFF AND DUP8 PUSH1 0x40 MLOAD DUP5 PUSH4 0xFFFFFFFF AND PUSH1 0xE0 SHL DUP2 MSTORE PUSH1 0x4 ADD PUSH2 0x1C91 SWAP4 SWAP3 SWAP2 SWAP1 PUSH2 0x47E2 JUMP JUMPDEST PUSH1 0x20 PUSH1 0x40 MLOAD DUP1 DUP4 SUB DUP2 PUSH0 DUP8 GAS CALL ISZERO DUP1 ISZERO PUSH2 0x1CAD JUMPI RETURNDATASIZE PUSH0 PUSH0 RETURNDATACOPY RETURNDATASIZE PUSH0 REVERT JUMPDEST POP POP POP POP PUSH1 0x40 MLOAD RETURNDATASIZE PUSH1 0x1F NOT PUSH1 0x1F DUP3 ADD AND DUP3 ADD DUP1 PUSH1 0x40 MSTORE POP DUP2 ADD SWAP1 PUSH2 0x1CD1 SWAP2 SWAP1 PUSH2 0x482B JUMP JUMPDEST PUSH2 0x1D10 JUMPI PUSH1 0x40 MLOAD PUSH32 0x8C379A000000000000000000000000000000000000000000000000000000000 DUP2 MSTORE PUSH1 0x4 ADD PUSH2 0x1D07 SWAP1 PUSH2 0x4DAC JUMP JUMPDEST PUSH1 0x40 MLOAD DUP1 SWAP2 SUB SWAP1 REVERT JUMPDEST POP POP PUSH2 0x1FC8 JUMP JUMPDEST PUSH1 0x40 MLOAD DUP1 PUSH1 0x40 ADD PUSH1 0x40 MSTORE DUP1 PUSH1 0x4 DUP2 MSTORE PUSH1 0x20 ADD PUSH32 0x5742544300000000000000000000000000000000000000000000000000000000 DUP2 MSTORE POP DUP1 MLOAD SWAP1 PUSH1 0x20 ADD KECCAK256 DUP4 DUP1 MLOAD SWAP1 PUSH1 0x20 ADD KECCAK256 SUB PUSH2 0x1F8C JUMPI PUSH0 DUP3 GT PUSH2 0x1DA3 JUMPI PUSH1 0x40 MLOAD PUSH32 0x8C379A000000000000000000000000000000000000000000000000000000000 DUP2 MSTORE PUSH1 0x4 ADD PUSH2 0x1D9A SWAP1 PUSH2 0x4A22 JUMP JUMPDEST PUSH1 0x40 MLOAD DUP1 SWAP2 SUB SWAP1 REVERT JUMPDEST PUSH0 PUSH2 0x1DE3 PUSH1 0x40 MLOAD DUP1 PUSH1 0x40 ADD PUSH1 0x40 MSTORE DUP1 PUSH1 0x4 DUP2 MSTORE PUSH1 0x20 ADD PUSH32 0x5742544300000000000000000000000000000000000000000000000000000000 DUP2 MSTORE POP DUP5 PUSH2 0x7D6 JUMP JUMPDEST SWAP1 POP PUSH0 DUP2 GT PUSH2 0x1E27 JUMPI PUSH1 0x40 MLOAD PUSH32 0x8C379A000000000000000000000000000000000000000000000000000000000 DUP2 MSTORE PUSH1 0x4 ADD PUSH2 0x1E1E SWAP1 PUSH2 0x381D JUMP JUMPDEST PUSH1 0x40 MLOAD DUP1 SWAP2 SUB SWAP1 REVERT JUMPDEST PUSH2 0x1E68 CALLER PUSH1 0x40 MLOAD DUP1 PUSH1 0x40 ADD PUSH1 0x40 MSTORE DUP1 PUSH1 0x4 DUP2 MSTORE PUSH1 0x20 ADD PUSH32 0x5742544300000000000000000000000000000000000000000000000000000000 DUP2 MSTORE POP DUP6 DUP5 PUSH2 0xB69 JUMP JUMPDEST PUSH0 PUSH1 0x3 PUSH1 0x40 MLOAD PUSH2 0x1E77 SWAP1 PUSH2 0x4A8A JUMP JUMPDEST SWAP1 DUP2 MSTORE PUSH1 0x20 ADD PUSH1 0x40 MLOAD DUP1 SWAP2 SUB SWAP1 KECCAK256 PUSH0 ADD PUSH0 SWAP1 SLOAD SWAP1 PUSH2 0x100 EXP SWAP1 DIV PUSH20 0xFFFFFFFFFFFFFFFFFFFFFFFFFFFFFFFFFFFFFFFF AND SWAP1 POP DUP1 PUSH20 0xFFFFFFFFFFFFFFFFFFFFFFFFFFFFFFFFFFFFFFFF AND PUSH4 0x23B872DD CALLER PUSH0 PUSH0 SWAP1 SLOAD SWAP1 PUSH2 0x100 EXP SWAP1 DIV PUSH20 0xFFFFFFFFFFFFFFFFFFFFFFFFFFFFFFFFFFFFFFFF AND DUP8 PUSH1 0x40 MLOAD DUP5 PUSH4 0xFFFFFFFF AND PUSH1 0xE0 SHL DUP2 MSTORE PUSH1 0x4 ADD PUSH2 0x1F06 SWAP4 SWAP3 SWAP2 SWAP1 PUSH2 0x47E2 JUMP JUMPDEST PUSH1 0x20 PUSH1 0x40 MLOAD DUP1 DUP4 SUB DUP2 PUSH0 DUP8 GAS CALL ISZERO DUP1 ISZERO PUSH2 0x1F22 JUMPI RETURNDATASIZE PUSH0 PUSH0 RETURNDATACOPY RETURNDATASIZE PUSH0 REVERT JUMPDEST POP POP POP POP PUSH1 0x40 MLOAD RETURNDATASIZE PUSH1 0x1F NOT PUSH1 0x1F DUP3 ADD AND DUP3 ADD DUP1 PUSH1 0x40 MSTORE POP DUP2 ADD SWAP1 PUSH2 0x1F46 SWAP2 SWAP1 PUSH2 0x482B JUMP JUMPDEST PUSH2 0x1F85 JUMPI PUSH1 0x40 MLOAD PUSH32 0x8C379A000000000000000000000000000000000000000000000000000000000 DUP2 MSTORE PUSH1 0x4 ADD PUSH2 0x1F7C SWAP1 PUSH2 0x4AE8 JUMP JUMPDEST PUSH1 0x40 MLOAD DUP1 SWAP2 SUB SWAP1 REVERT JUMPDEST POP POP PUSH2 0x1FC7 JUMP JUMPDEST PUSH1 0x40 MLOAD PUSH32 0x8C379A000000000000000000000000000000000000000000000000000000000 DUP2 MSTORE PUSH1 0x4 ADD PUSH2 0x1FBE SWAP1 PUSH2 0x4E14 JUMP JUMPDEST PUSH1 0x40 MLOAD DUP1 SWAP2 SUB SWAP1 REVERT JUMPDEST JUMPDEST JUMPDEST JUMPDEST POP PUSH0 PUSH1 0x5 PUSH0 PUSH2 0x100 EXP DUP2 SLOAD DUP2 PUSH1 0xFF MUL NOT AND SWAP1 DUP4 ISZERO ISZERO MUL OR SWAP1 SSTORE POP POP POP JUMP JUMPDEST PUSH0 PUSH0 PUSH20 0xFFFFFFFFFFFFFFFFFFFFFFFFFFFFFFFFFFFFFFFF AND DUP3 PUSH20 0xFFFFFFFFFFFFFFFFFFFFFFFFFFFFFFFFFFFFFFFF AND SUB PUSH2 0x2024 JUMPI SELFBALANCE SWAP1 POP PUSH2 0x209F JUMP JUMPDEST DUP2 PUSH20 0xFFFFFFFFFFFFFFFFFFFFFFFFFFFFFFFFFFFFFFFF AND PUSH4 0x70A08231 ADDRESS PUSH1 0x40 MLOAD DUP3 PUSH4 0xFFFFFFFF AND PUSH1 0xE0 SHL DUP2 MSTORE PUSH1 0x4 ADD PUSH2 0x205D SWAP2 SWAP1 PUSH2 0x3BA5 JUMP JUMPDEST PUSH1 0x20 PUSH1 0x40 MLOAD DUP1 DUP4 SUB DUP2 DUP7 GAS STATICCALL ISZERO DUP1 ISZERO PUSH2 0x2078 JUMPI RETURNDATASIZE PUSH0 PUSH0 RETURNDATACOPY RETURNDATASIZE PUSH0 REVERT JUMPDEST POP POP POP POP PUSH1 0x40 MLOAD RETURNDATASIZE PUSH1 0x1F NOT PUSH1 0x1F DUP3 ADD AND DUP3 ADD DUP1 PUSH1 0x40 MSTORE POP DUP2 ADD SWAP1 PUSH2 0x209C SWAP2 SWAP1 PUSH2 0x4E32 JUMP JUMPDEST SWAP1 POP JUMPDEST SWAP2 SWAP1 POP JUMP JUMPDEST PUSH32 0x0 DUP2 JUMP JUMPDEST PUSH3 0xF4240 DUP2 JUMP JUMPDEST PUSH0 PUSH1 0x14 SWAP1 SLOAD SWAP1 PUSH2 0x100 EXP SWAP1 DIV PUSH1 0xFF AND DUP2 JUMP JUMPDEST PUSH1 0x4 DUP2 DUP2 SLOAD DUP2 LT PUSH2 0x20F0 JUMPI PUSH0 DUP1 REVERT JUMPDEST SWAP1 PUSH0 MSTORE PUSH1 0x20 PUSH0 KECCAK256 ADD PUSH0 SWAP2 POP SWAP1 POP DUP1 SLOAD PUSH2 0x2108 SWAP1 PUSH2 0x4E8A JUMP JUMPDEST DUP1 PUSH1 0x1F ADD PUSH1 0x20 DUP1 SWAP2 DIV MUL PUSH1 0x20 ADD PUSH1 0x40 MLOAD SWAP1 DUP2 ADD PUSH1 0x40 MSTORE DUP1 SWAP3 SWAP2 SWAP1 DUP2 DUP2 MSTORE PUSH1 0x20 ADD DUP3 DUP1 SLOAD PUSH2 0x2134 SWAP1 PUSH2 0x4E8A JUMP JUMPDEST DUP1 ISZERO PUSH2 0x217F JUMPI DUP1 PUSH1 0x1F LT PUSH2 0x2156 JUMPI PUSH2 0x100 DUP1 DUP4 SLOAD DIV MUL DUP4 MSTORE SWAP2 PUSH1 0x20 ADD SWAP2 PUSH2 0x217F JUMP JUMPDEST DUP3 ADD SWAP2 SWAP1 PUSH0 MSTORE PUSH1 0x20 PUSH0 KECCAK256 SWAP1 JUMPDEST DUP2 SLOAD DUP2 MSTORE SWAP1 PUSH1 0x1 ADD SWAP1 PUSH1 0x20 ADD DUP1 DUP4 GT PUSH2 0x2162 JUMPI DUP3 SWAP1 SUB PUSH1 0x1F AND DUP3 ADD SWAP2 JUMPDEST POP POP POP POP POP DUP2 JUMP JUMPDEST PUSH0 PUSH0 SWAP1 SLOAD SWAP1 PUSH2 0x100 EXP SWAP1 DIV PUSH20 0xFFFFFFFFFFFFFFFFFFFFFFFFFFFFFFFFFFFFFFFF AND PUSH20 0xFFFFFFFFFFFFFFFFFFFFFFFFFFFFFFFFFFFFFFFF AND CALLER PUSH20 0xFFFFFFFFFFFFFFFFFFFFFFFFFFFFFFFFFFFFFFFF AND EQ PUSH2 0x2215 JUMPI PUSH1 0x40 MLOAD PUSH32 0x8C379A000000000000000000000000000000000000000000000000000000000 DUP2 MSTORE PUSH1 0x4 ADD PUSH2 0x220C SWAP1 PUSH2 0x4F04 JUMP JUMPDEST PUSH1 0x40 MLOAD DUP1 SWAP2 SUB SWAP1 REVERT JUMPDEST PUSH1 0x5 PUSH0 SWAP1 SLOAD SWAP1 PUSH2 0x100 EXP SWAP1 DIV PUSH1 0xFF AND ISZERO PUSH2 0x2264 JUMPI PUSH1 0x40 MLOAD PUSH32 0x8C379A000000000000000000000000000000000000000000000000000000000 DUP2 MSTORE PUSH1 0x4 ADD PUSH2 0x225B SWAP1 PUSH2 0x37B5 JUMP JUMPDEST PUSH1 0x40 MLOAD DUP1 SWAP2 SUB SWAP1 REVERT JUMPDEST PUSH1 0x1 PUSH1 0x5 PUSH0 PUSH2 0x100 EXP DUP2 SLOAD DUP2 PUSH1 0xFF MUL NOT AND SWAP1 DUP4 ISZERO ISZERO MUL OR SWAP1 SSTORE POP PUSH0 PUSH20 0xFFFFFFFFFFFFFFFFFFFFFFFFFFFFFFFFFFFFFFFF AND DUP2 PUSH20 0xFFFFFFFFFFFFFFFFFFFFFFFFFFFFFFFFFFFFFFFF AND SUB PUSH2 0x23C6 JUMPI PUSH0 SELFBALANCE SWAP1 POP PUSH0 DUP2 GT ISZERO PUSH2 0x23C0 JUMPI PUSH0 PUSH0 PUSH0 SWAP1 SLOAD SWAP1 PUSH2 0x100 EXP SWAP1 DIV PUSH20 0xFFFFFFFFFFFFFFFFFFFFFFFFFFFFFFFFFFFFFFFF AND PUSH20 0xFFFFFFFFFFFFFFFFFFFFFFFFFFFFFFFFFFFFFFFF AND DUP3 PUSH1 0x40 MLOAD PUSH2 0x2302 SWAP1 PUSH2 0x3868 JUMP JUMPDEST PUSH0 PUSH1 0x40 MLOAD DUP1 DUP4 SUB DUP2 DUP6 DUP8 GAS CALL SWAP3 POP POP POP RETURNDATASIZE DUP1 PUSH0 DUP2 EQ PUSH2 0x233C JUMPI PUSH1 0x40 MLOAD SWAP2 POP PUSH1 0x1F NOT PUSH1 0x3F RETURNDATASIZE ADD AND DUP3 ADD PUSH1 0x40 MSTORE RETURNDATASIZE DUP3 MSTORE RETURNDATASIZE PUSH0 PUSH1 0x20 DUP5 ADD RETURNDATACOPY PUSH2 0x2341 JUMP JUMPDEST PUSH1 0x60 SWAP2 POP JUMPDEST POP POP SWAP1 POP DUP1 PUSH2 0x2385 JUMPI PUSH1 0x40 MLOAD PUSH32 0x8C379A000000000000000000000000000000000000000000000000000000000 DUP2 MSTORE PUSH1 0x4 ADD PUSH2 0x237C SWAP1 PUSH2 0x4F6C JUMP JUMPDEST PUSH1 0x40 MLOAD DUP1 SWAP2 SUB SWAP1 REVERT JUMPDEST PUSH32 0x5FAFA99D0643513820BE26656B45130B01E1C03062E1266BF36F88CBD3BD9695 PUSH0 DUP4 PUSH1 0x40 MLOAD PUSH2 0x23B6 SWAP3 SWAP2 SWAP1 PUSH2 0x4F8A JUMP JUMPDEST PUSH1 0x40 MLOAD DUP1 SWAP2 SUB SWAP1 LOG1 POP JUMPDEST POP PUSH2 0x2564 JUMP JUMPDEST PUSH0 DUP2 SWAP1 POP PUSH0 DUP2 PUSH20 0xFFFFFFFFFFFFFFFFFFFFFFFFFFFFFFFFFFFFFFFF AND PUSH4 0x70A08231 ADDRESS PUSH1 0x40 MLOAD DUP3 PUSH4 0xFFFFFFFF AND PUSH1 0xE0 SHL DUP2 MSTORE PUSH1 0x4 ADD PUSH2 0x2404 SWAP2 SWAP1 PUSH2 0x3BA5 JUMP JUMPDEST PUSH1 0x20 PUSH1 0x40 MLOAD DUP1 DUP4 SUB DUP2 DUP7 GAS STATICCALL ISZERO DUP1 ISZERO PUSH2 0x241F JUMPI RETURNDATASIZE PUSH0 PUSH0 RETURNDATACOPY RETURNDATASIZE PUSH0 REVERT JUMPDEST POP POP POP POP PUSH1 0x40 MLOAD RETURNDATASIZE PUSH1 0x1F NOT PUSH1 0x1F DUP3 ADD AND DUP3 ADD DUP1 PUSH1 0x40 MSTORE POP DUP2 ADD SWAP1 PUSH2 0x2443 SWAP2 SWAP1 PUSH2 0x4E32 JUMP JUMPDEST SWAP1 POP PUSH0 DUP2 GT ISZERO PUSH2 0x2561 JUMPI DUP2 PUSH20 0xFFFFFFFFFFFFFFFFFFFFFFFFFFFFFFFFFFFFFFFF AND PUSH4 0xA9059CBB PUSH0 PUSH0 SWAP1 SLOAD SWAP1 PUSH2 0x100 EXP SWAP1 DIV PUSH20 0xFFFFFFFFFFFFFFFFFFFFFFFFFFFFFFFFFFFFFFFF AND DUP4 PUSH1 0x40 MLOAD DUP4 PUSH4 0xFFFFFFFF AND PUSH1 0xE0 SHL DUP2 MSTORE PUSH1 0x4 ADD PUSH2 0x24A8 SWAP3 SWAP2 SWAP1 PUSH2 0x4F8A JUMP JUMPDEST PUSH1 0x20 PUSH1 0x40 MLOAD DUP1 DUP4 SUB DUP2 PUSH0 DUP8 GAS CALL ISZERO DUP1 ISZERO PUSH2 0x24C4 JUMPI RETURNDATASIZE PUSH0 PUSH0 RETURNDATACOPY RETURNDATASIZE PUSH0 REVERT JUMPDEST POP POP POP POP PUSH1 0x40 MLOAD RETURNDATASIZE PUSH1 0x1F NOT PUSH1 0x1F DUP3 ADD AND DUP3 ADD DUP1 PUSH1 0x40 MSTORE POP DUP2 ADD SWAP1 PUSH2 0x24E8 SWAP2 SWAP1 PUSH2 0x482B JUMP JUMPDEST PUSH2 0x2527 JUMPI PUSH1 0x40 MLOAD PUSH32 0x8C379A000000000000000000000000000000000000000000000000000000000 DUP2 MSTORE PUSH1 0x4 ADD PUSH2 0x251E SWAP1 PUSH2 0x4FFB JUMP JUMPDEST PUSH1 0x40 MLOAD DUP1 SWAP2 SUB SWAP1 REVERT JUMPDEST PUSH32 0x5FAFA99D0643513820BE26656B45130B01E1C03062E1266BF36F88CBD3BD9695 DUP4 DUP3 PUSH1 0x40 MLOAD PUSH2 0x2558 SWAP3 SWAP2 SWAP1 PUSH2 0x4F8A JUMP JUMPDEST PUSH1 0x40 MLOAD DUP1 SWAP2 SUB SWAP1 LOG1 JUMPDEST POP POP JUMPDEST PUSH0 PUSH1 0x5 PUSH0 PUSH2 0x100 EXP DUP2 SLOAD DUP2 PUSH1 0xFF MUL NOT AND SWAP1 DUP4 ISZERO ISZERO MUL OR SWAP1 SSTORE POP POP JUMP JUMPDEST PUSH1 0x60 DUP1 PUSH1 0x4 DUP1 SLOAD SWAP1 POP PUSH8 0xFFFFFFFFFFFFFFFF DUP2 GT ISZERO PUSH2 0x25A2 JUMPI PUSH2 0x25A1 PUSH2 0x3993 JUMP JUMPDEST JUMPDEST PUSH1 0x40 MLOAD SWAP1 DUP1 DUP3 MSTORE DUP1 PUSH1 0x20 MUL PUSH1 0x20 ADD DUP3 ADD PUSH1 0x40 MSTORE DUP1 ISZERO PUSH2 0x25D0 JUMPI DUP2 PUSH1 0x20 ADD PUSH1 0x20 DUP3 MUL DUP1 CALLDATASIZE DUP4 CALLDATACOPY DUP1 DUP3 ADD SWAP2 POP POP SWAP1 POP JUMPDEST POP SWAP2 POP PUSH1 0x4 DUP1 SLOAD SWAP1 POP PUSH8 0xFFFFFFFFFFFFFFFF DUP2 GT ISZERO PUSH2 0x25F2 JUMPI PUSH2 0x25F1 PUSH2 0x3993 JUMP JUMPDEST JUMPDEST PUSH1 0x40 MLOAD SWAP1 DUP1 DUP3 MSTORE DUP1 PUSH1 0x20 MUL PUSH1 0x20 ADD DUP3 ADD PUSH1 0x40 MSTORE DUP1 ISZERO PUSH2 0x2625 JUMPI DUP2 PUSH1 0x20 ADD JUMPDEST PUSH1 0x60 DUP2 MSTORE PUSH1 0x20 ADD SWAP1 PUSH1 0x1 SWAP1 SUB SWAP1 DUP2 PUSH2 0x2610 JUMPI SWAP1 POP JUMPDEST POP SWAP1 POP PUSH0 PUSH0 SWAP1 POP JUMPDEST PUSH1 0x4 DUP1 SLOAD SWAP1 POP DUP2 LT ISZERO PUSH2 0x2A54 JUMPI PUSH1 0x4 DUP2 DUP2 SLOAD DUP2 LT PUSH2 0x264E JUMPI PUSH2 0x264D PUSH2 0x5019 JUMP JUMPDEST JUMPDEST SWAP1 PUSH0 MSTORE PUSH1 0x20 PUSH0 KECCAK256 ADD DUP1 SLOAD PUSH2 0x2661 SWAP1 PUSH2 0x4E8A JUMP JUMPDEST DUP1 PUSH1 0x1F ADD PUSH1 0x20 DUP1 SWAP2 DIV MUL PUSH1 0x20 ADD PUSH1 0x40 MLOAD SWAP1 DUP2 ADD PUSH1 0x40 MSTORE DUP1 SWAP3 SWAP2 SWAP1 DUP2 DUP2 MSTORE PUSH1 0x20 ADD DUP3 DUP1 SLOAD PUSH2 0x268D SWAP1 PUSH2 0x4E8A JUMP JUMPDEST DUP1 ISZERO PUSH2 0x26D8 JUMPI DUP1 PUSH1 0x1F LT PUSH2 0x26AF JUMPI PUSH2 0x100 DUP1 DUP4 SLOAD DIV MUL DUP4 MSTORE SWAP2 PUSH1 0x20 ADD SWAP2 PUSH2 0x26D8 JUMP JUMPDEST DUP3 ADD SWAP2 SWAP1 PUSH0 MSTORE PUSH1 0x20 PUSH0 KECCAK256 SWAP1 JUMPDEST DUP2 SLOAD DUP2 MSTORE SWAP1 PUSH1 0x1 ADD SWAP1 PUSH1 0x20 ADD DUP1 DUP4 GT PUSH2 0x26BB JUMPI DUP3 SWAP1 SUB PUSH1 0x1F AND DUP3 ADD SWAP2 JUMPDEST POP POP POP POP POP DUP3 DUP3 DUP2 MLOAD DUP2 LT PUSH2 0x26F0 JUMPI PUSH2 0x26EF PUSH2 0x5019 JUMP JUMPDEST JUMPDEST PUSH1 0x20 MUL PUSH1 0x20 ADD ADD DUP2 SWAP1 MSTORE POP PUSH0 PUSH1 0x3 PUSH1 0x4 DUP4 DUP2 SLOAD DUP2 LT PUSH2 0x2712 JUMPI PUSH2 0x2711 PUSH2 0x5019 JUMP JUMPDEST JUMPDEST SWAP1 PUSH0 MSTORE PUSH1 0x20 PUSH0 KECCAK256 ADD PUSH1 0x40 MLOAD PUSH2 0x2727 SWAP2 SWAP1 PUSH2 0x50D8 JUMP JUMPDEST SWAP1 DUP2 MSTORE PUSH1 0x20 ADD PUSH1 0x40 MLOAD DUP1 SWAP2 SUB SWAP1 KECCAK256 PUSH1 0x40 MLOAD DUP1 PUSH1 0x80 ADD PUSH1 0x40 MSTORE SWAP1 DUP2 PUSH0 DUP3 ADD PUSH0 SWAP1 SLOAD SWAP1 PUSH2 0x100 EXP SWAP1 DIV PUSH20 0xFFFFFFFFFFFFFFFFFFFFFFFFFFFFFFFFFFFFFFFF AND PUSH20 0xFFFFFFFFFFFFFFFFFFFFFFFFFFFFFFFFFFFFFFFF AND PUSH20 0xFFFFFFFFFFFFFFFFFFFFFFFFFFFFFFFFFFFFFFFF AND DUP2 MSTORE PUSH1 0x20 ADD PUSH1 0x1 DUP3 ADD PUSH0 SWAP1 SLOAD SWAP1 PUSH2 0x100 EXP SWAP1 DIV PUSH20 0xFFFFFFFFFFFFFFFFFFFFFFFFFFFFFFFFFFFFFFFF AND PUSH20 0xFFFFFFFFFFFFFFFFFFFFFFFFFFFFFFFFFFFFFFFF AND PUSH20 0xFFFFFFFFFFFFFFFFFFFFFFFFFFFFFFFFFFFFFFFF AND DUP2 MSTORE PUSH1 0x20 ADD PUSH1 0x1 DUP3 ADD PUSH1 0x14 SWAP1 SLOAD SWAP1 PUSH2 0x100 EXP SWAP1 DIV PUSH1 0xFF AND PUSH1 0xFF AND PUSH1 0xFF AND DUP2 MSTORE PUSH1 0x20 ADD PUSH1 0x1 DUP3 ADD PUSH1 0x15 SWAP1 SLOAD SWAP1 PUSH2 0x100 EXP SWAP1 DIV PUSH1 0xFF AND ISZERO ISZERO ISZERO ISZERO DUP2 MSTORE POP POP SWAP1 POP PUSH1 0x40 MLOAD DUP1 PUSH1 0x40 ADD PUSH1 0x40 MSTORE DUP1 PUSH1 0x4 DUP2 MSTORE PUSH1 0x20 ADD PUSH32 0x5553445400000000000000000000000000000000000000000000000000000000 DUP2 MSTORE POP DUP1 MLOAD SWAP1 PUSH1 0x20 ADD KECCAK256 PUSH1 0x4 DUP4 DUP2 SLOAD DUP2 LT PUSH2 0x2874 JUMPI PUSH2 0x2873 PUSH2 0x5019 JUMP JUMPDEST JUMPDEST SWAP1 PUSH0 MSTORE PUSH1 0x20 PUSH0 KECCAK256 ADD PUSH1 0x40 MLOAD PUSH2 0x2889 SWAP2 SWAP1 PUSH2 0x5180 JUMP JUMPDEST PUSH1 0x40 MLOAD DUP1 SWAP2 SUB SWAP1 KECCAK256 EQ DUP1 PUSH2 0x2908 JUMPI POP PUSH1 0x40 MLOAD DUP1 PUSH1 0x40 ADD PUSH1 0x40 MSTORE DUP1 PUSH1 0x4 DUP2 MSTORE PUSH1 0x20 ADD PUSH32 0x5553444300000000000000000000000000000000000000000000000000000000 DUP2 MSTORE POP DUP1 MLOAD SWAP1 PUSH1 0x20 ADD KECCAK256 PUSH1 0x4 DUP4 DUP2 SLOAD DUP2 LT PUSH2 0x28E9 JUMPI PUSH2 0x28E8 PUSH2 0x5019 JUMP JUMPDEST JUMPDEST SWAP1 PUSH0 MSTORE PUSH1 0x20 PUSH0 KECCAK256 ADD PUSH1 0x40 MLOAD PUSH2 0x28FE SWAP2 SWAP1 PUSH2 0x5180 JUMP JUMPDEST PUSH1 0x40 MLOAD DUP1 SWAP2 SUB SWAP1 KECCAK256 EQ JUMPDEST ISZERO PUSH2 0x2941 JUMPI PUSH3 0xF4240 PUSH1 0x1 PUSH2 0x291D SWAP2 SWAP1 PUSH2 0x45D9 JUMP JUMPDEST DUP5 DUP4 DUP2 MLOAD DUP2 LT PUSH2 0x2930 JUMPI PUSH2 0x292F PUSH2 0x5019 JUMP JUMPDEST JUMPDEST PUSH1 0x20 MUL PUSH1 0x20 ADD ADD DUP2 DUP2 MSTORE POP POP PUSH2 0x2A46 JUMP JUMPDEST PUSH0 PUSH20 0xFFFFFFFFFFFFFFFFFFFFFFFFFFFFFFFFFFFFFFFF AND DUP2 PUSH1 0x20 ADD MLOAD PUSH20 0xFFFFFFFFFFFFFFFFFFFFFFFFFFFFFFFFFFFFFFFF AND EQ PUSH2 0x2A24 JUMPI PUSH0 DUP2 PUSH1 0x20 ADD MLOAD PUSH20 0xFFFFFFFFFFFFFFFFFFFFFFFFFFFFFFFFFFFFFFFF AND PUSH4 0xFEAF968C PUSH1 0x40 MLOAD DUP2 PUSH4 0xFFFFFFFF AND PUSH1 0xE0 SHL DUP2 MSTORE PUSH1 0x4 ADD PUSH1 0xA0 PUSH1 0x40 MLOAD DUP1 DUP4 SUB DUP2 DUP7 GAS STATICCALL ISZERO DUP1 ISZERO PUSH2 0x29C6 JUMPI RETURNDATASIZE PUSH0 PUSH0 RETURNDATACOPY RETURNDATASIZE PUSH0 REVERT JUMPDEST POP POP POP POP PUSH1 0x40 MLOAD RETURNDATASIZE PUSH1 0x1F NOT PUSH1 0x1F DUP3 ADD AND DUP3 ADD DUP1 PUSH1 0x40 MSTORE POP DUP2 ADD SWAP1 PUSH2 0x29EA SWAP2 SWAP1 PUSH2 0x4354 JUMP JUMPDEST POP POP POP SWAP2 POP POP PUSH0 DUP2 SGT PUSH2 0x29FD JUMPI PUSH0 PUSH2 0x29FF JUMP JUMPDEST DUP1 JUMPDEST DUP6 DUP5 DUP2 MLOAD DUP2 LT PUSH2 0x2A12 JUMPI PUSH2 0x2A11 PUSH2 0x5019 JUMP JUMPDEST JUMPDEST PUSH1 0x20 MUL PUSH1 0x20 ADD ADD DUP2 DUP2 MSTORE POP POP POP PUSH2 0x2A45 JUMP JUMPDEST PUSH0 DUP5 DUP4 DUP2 MLOAD DUP2 LT PUSH2 0x2A38 JUMPI PUSH2 0x2A37 PUSH2 0x5019 JUMP JUMPDEST JUMPDEST PUSH1 0x20 MUL PUSH1 0x20 ADD ADD DUP2 DUP2 MSTORE POP POP JUMPDEST JUMPDEST POP DUP1 DUP1 PUSH1 0x1 ADD SWAP2 POP POP PUSH2 0x262D JUMP JUMPDEST POP SWAP1 SWAP2 JUMP JUMPDEST PUSH1 0x2 SLOAD DUP2 JUMP JUMPDEST PUSH0 PUSH0 SWAP1 SLOAD SWAP1 PUSH2 0x100 EXP SWAP1 DIV PUSH20 0xFFFFFFFFFFFFFFFFFFFFFFFFFFFFFFFFFFFFFFFF AND PUSH20 0xFFFFFFFFFFFFFFFFFFFFFFFFFFFFFFFFFFFFFFFF AND CALLER PUSH20 0xFFFFFFFFFFFFFFFFFFFFFFFFFFFFFFFFFFFFFFFF AND EQ PUSH2 0x2AED JUMPI PUSH1 0x40 MLOAD PUSH32 0x8C379A000000000000000000000000000000000000000000000000000000000 DUP2 MSTORE PUSH1 0x4 ADD PUSH2 0x2AE4 SWAP1 PUSH2 0x4F04 JUMP JUMPDEST PUSH1 0x40 MLOAD DUP1 SWAP2 SUB SWAP1 REVERT JUMPDEST DUP1 PUSH0 PUSH1 0x14 PUSH2 0x100 EXP DUP2 SLOAD DUP2 PUSH1 0xFF MUL NOT AND SWAP1 DUP4 ISZERO ISZERO MUL OR SWAP1 SSTORE POP PUSH32 0x1F1A6B0FCC71315F2C3AEDDBD1F6D527595D21EEA9B73160E78D6FA49B7897A6 DUP2 PUSH1 0x40 MLOAD PUSH2 0x2B35 SWAP2 SWAP1 PUSH2 0x3BD8 JUMP JUMPDEST PUSH1 0x40 MLOAD DUP1 SWAP2 SUB SWAP1 LOG1 POP JUMP JUMPDEST PUSH1 0x3 DUP2 DUP1 MLOAD PUSH1 0x20 DUP2 ADD DUP3 ADD DUP1 MLOAD DUP5 DUP3 MSTORE PUSH1 0x20 DUP4 ADD PUSH1 0x20 DUP6 ADD KECCAK256 DUP2 DUP4 MSTORE DUP1 SWAP6 POP POP POP POP POP POP PUSH0 SWAP2 POP SWAP1 POP DUP1 PUSH0 ADD PUSH0 SWAP1 SLOAD SWAP1 PUSH2 0x100 EXP SWAP1 DIV PUSH20 0xFFFFFFFFFFFFFFFFFFFFFFFFFFFFFFFFFFFFFFFF AND SWAP1 DUP1 PUSH1 0x1 ADD PUSH0 SWAP1 SLOAD SWAP1 PUSH2 0x100 EXP SWAP1 DIV PUSH20 0xFFFFFFFFFFFFFFFFFFFFFFFFFFFFFFFFFFFFFFFF AND SWAP1 DUP1 PUSH1 0x1 ADD PUSH1 0x14 SWAP1 SLOAD SWAP1 PUSH2 0x100 EXP SWAP1 DIV PUSH1 0xFF AND SWAP1 DUP1 PUSH1 0x1 ADD PUSH1 0x15 SWAP1 SLOAD SWAP1 PUSH2 0x100 EXP SWAP1 DIV PUSH1 0xFF AND SWAP1 POP DUP5 JUMP JUMPDEST PUSH0 PUSH0 SWAP1 SLOAD SWAP1 PUSH2 0x100 EXP SWAP1 DIV PUSH20 0xFFFFFFFFFFFFFFFFFFFFFFFFFFFFFFFFFFFFFFFF AND DUP2 JUMP JUMPDEST PUSH0 PUSH0 PUSH0 PUSH0 PUSH0 PUSH1 0x1 SLOAD PUSH1 0x2 SLOAD PUSH11 0x108B2A2C28029094000000 PUSH0 PUSH1 0x14 SWAP1 SLOAD SWAP1 PUSH2 0x100 EXP SWAP1 DIV PUSH1 0xFF AND PUSH1 0x1 SLOAD PUSH11 0x108B2A2C28029094000000 PUSH2 0x2C3F SWAP2 SWAP1 PUSH2 0x5196 JUMP JUMPDEST SWAP5 POP SWAP5 POP SWAP5 POP SWAP5 POP SWAP5 POP SWAP1 SWAP2 SWAP3 SWAP4 SWAP5 JUMP JUMPDEST PUSH0 PUSH1 0x14 SWAP1 SLOAD SWAP1 PUSH2 0x100 EXP SWAP1 DIV PUSH1 0xFF AND PUSH2 0x2C9E JUMPI PUSH1 0x40 MLOAD PUSH32 0x8C379A000000000000000000000000000000000000000000000000000000000 DUP2 MSTORE PUSH1 0x4 ADD PUSH2 0x2C95 SWAP1 PUSH2 0x4952 JUMP JUMPDEST PUSH1 0x40 MLOAD DUP1 SWAP2 SUB SWAP1 REVERT JUMPDEST PUSH1 0x5 PUSH0 SWAP1 SLOAD SWAP1 PUSH2 0x100 EXP SWAP1 DIV PUSH1 0xFF AND ISZERO PUSH2 0x2CED JUMPI PUSH1 0x40 MLOAD PUSH32 0x8C379A000000000000000000000000000000000000000000000000000000000 DUP2 MSTORE PUSH1 0x4 ADD PUSH2 0x2CE4 SWAP1 PUSH2 0x37B5 JUMP JUMPDEST PUSH1 0x40 MLOAD DUP1 SWAP2 SUB SWAP1 REVERT JUMPDEST PUSH1 0x1 PUSH1 0x5 PUSH0 PUSH2 0x100 EXP DUP2 SLOAD DUP2 PUSH1 0xFF MUL NOT AND SWAP1 DUP4 ISZERO ISZERO MUL OR SWAP1 SSTORE POP PUSH0 DUP2 GT PUSH2 0x2D49 JUMPI PUSH1 0x40 MLOAD PUSH32 0x8C379A000000000000000000000000000000000000000000000000000000000 DUP2 MSTORE PUSH1 0x4 ADD PUSH2 0x2D40 SWAP1 PUSH2 0x4BB8 JUMP JUMPDEST PUSH1 0x40 MLOAD DUP1 SWAP2 SUB SWAP1 REVERT JUMPDEST PUSH0 PUSH2 0x2D89 PUSH1 0x40 MLOAD DUP1 PUSH1 0x40 ADD PUSH1 0x40 MSTORE DUP1 PUSH1 0x4 DUP2 MSTORE PUSH1 0x20 ADD PUSH32 0x5553445400000000000000000000000000000000000000000000000000000000 DUP2 MSTORE POP DUP4 PUSH2 0x7D6 JUMP JUMPDEST SWAP1 POP PUSH0 DUP2 GT PUSH2 0x2DCD JUMPI PUSH1 0x40 MLOAD PUSH32 0x8C379A000000000000000000000000000000000000000000000000000000000 DUP2 MSTORE PUSH1 0x4 ADD PUSH2 0x2DC4 SWAP1 PUSH2 0x381D JUMP JUMPDEST PUSH1 0x40 MLOAD DUP1 SWAP2 SUB SWAP1 REVERT JUMPDEST PUSH2 0x2E0E CALLER PUSH1 0x40 MLOAD DUP1 PUSH1 0x40 ADD PUSH1 0x40 MSTORE DUP1 PUSH1 0x4 DUP2 MSTORE PUSH1 0x20 ADD PUSH32 0x5553445400000000000000000000000000000000000000000000000000000000 DUP2 MSTORE POP DUP5 DUP5 PUSH2 0xB69 JUMP JUMPDEST PUSH0 PUSH1 0x3 PUSH1 0x40 MLOAD PUSH2 0x2E1D SWAP1 PUSH2 0x4C20 JUMP JUMPDEST SWAP1 DUP2 MSTORE PUSH1 0x20 ADD PUSH1 0x40 MLOAD DUP1 SWAP2 SUB SWAP1 KECCAK256 PUSH0 ADD PUSH0 SWAP1 SLOAD SWAP1 PUSH2 0x100 EXP SWAP1 DIV PUSH20 0xFFFFFFFFFFFFFFFFFFFFFFFFFFFFFFFFFFFFFFFF AND SWAP1 POP DUP1 PUSH20 0xFFFFFFFFFFFFFFFFFFFFFFFFFFFFFFFFFFFFFFFF AND PUSH4 0x23B872DD CALLER PUSH0 PUSH0 SWAP1 SLOAD SWAP1 PUSH2 0x100 EXP SWAP1 DIV PUSH20 0xFFFFFFFFFFFFFFFFFFFFFFFFFFFFFFFFFFFFFFFF AND DUP7 PUSH1 0x40 MLOAD DUP5 PUSH4 0xFFFFFFFF AND PUSH1 0xE0 SHL DUP2 MSTORE PUSH1 0x4 ADD PUSH2 0x2EAC SWAP4 SWAP3 SWAP2 SWAP1 PUSH2 0x47E2 JUMP JUMPDEST PUSH1 0x20 PUSH1 0x40 MLOAD DUP1 DUP4 SUB DUP2 PUSH0 DUP8 GAS CALL ISZERO DUP1 ISZERO PUSH2 0x2EC8 JUMPI RETURNDATASIZE PUSH0 PUSH0 RETURNDATACOPY RETURNDATASIZE PUSH0 REVERT JUMPDEST POP POP POP POP PUSH1 0x40 MLOAD RETURNDATASIZE PUSH1 0x1F NOT PUSH1 0x1F DUP3 ADD AND DUP3 ADD DUP1 PUSH1 0x40 MSTORE POP DUP2 ADD SWAP1 PUSH2 0x2EEC SWAP2 SWAP1 PUSH2 0x482B JUMP JUMPDEST PUSH2 0x2F2B JUMPI PUSH1 0x40 MLOAD PUSH32 0x8C379A000000000000000000000000000000000000000000000000000000000 DUP2 MSTORE PUSH1 0x4 ADD PUSH2 0x2F22 SWAP1 PUSH2 0x4C7E JUMP JUMPDEST PUSH1 0x40 MLOAD DUP1 SWAP2 SUB SWAP1 REVERT JUMPDEST POP POP PUSH0 PUSH1 0x5 PUSH0 PUSH2 0x100 EXP DUP2 SLOAD DUP2 PUSH1 0xFF MUL NOT AND SWAP1 DUP4 ISZERO ISZERO MUL OR SWAP1 SSTORE POP POP JUMP JUMPDEST PUSH0 PUSH1 0x14 SWAP1 SLOAD SWAP1 PUSH2 0x100 EXP SWAP1 DIV PUSH1 0xFF AND PUSH2 0x2F97 JUMPI PUSH1 0x40 MLOAD PUSH32 0x8C379A000000000000000000000000000000000000000000000000000000000 DUP2 MSTORE PUSH1 0x4 ADD PUSH2 0x2F8E SWAP1 PUSH2 0x4952 JUMP JUMPDEST PUSH1 0x40 MLOAD DUP1 SWAP2 SUB SWAP1 REVERT JUMPDEST PUSH1 0x5 PUSH0 SWAP1 SLOAD SWAP1 PUSH2 0x100 EXP SWAP1 DIV PUSH1 0xFF AND ISZERO PUSH2 0x2FE6 JUMPI PUSH1 0x40 MLOAD PUSH32 0x8C379A000000000000000000000000000000000000000000000000000000000 DUP2 MSTORE PUSH1 0x4 ADD PUSH2 0x2FDD SWAP1 PUSH2 0x37B5 JUMP JUMPDEST PUSH1 0x40 MLOAD DUP1 SWAP2 SUB SWAP1 REVERT JUMPDEST PUSH1 0x1 PUSH1 0x5 PUSH0 PUSH2 0x100 EXP DUP2 SLOAD DUP2 PUSH1 0xFF MUL NOT AND SWAP1 DUP4 ISZERO ISZERO MUL OR SWAP1 SSTORE POP PUSH0 DUP2 GT PUSH2 0x3042 JUMPI PUSH1 0x40 MLOAD PUSH32 0x8C379A000000000000000000000000000000000000000000000000000000000 DUP2 MSTORE PUSH1 0x4 ADD PUSH2 0x3039 SWAP1 PUSH2 0x4CE6 JUMP JUMPDEST PUSH1 0x40 MLOAD DUP1 SWAP2 SUB SWAP1 REVERT JUMPDEST PUSH0 PUSH2 0x3082 PUSH1 0x40 MLOAD DUP1 PUSH1 0x40 ADD PUSH1 0x40 MSTORE DUP1 PUSH1 0x4 DUP2 MSTORE PUSH1 0x20 ADD PUSH32 0x5553444300000000000000000000000000000000000000000000000000000000 DUP2 MSTORE POP DUP4 PUSH2 0x7D6 JUMP JUMPDEST SWAP1 POP PUSH0 DUP2 GT PUSH2 0x30C6 JUMPI PUSH1 0x40 MLOAD PUSH32 0x8C379A000000000000000000000000000000000000000000000000000000000 DUP2 MSTORE PUSH1 0x4 ADD PUSH2 0x30BD SWAP1 PUSH2 0x381D JUMP JUMPDEST PUSH1 0x40 MLOAD DUP1 SWAP2 SUB SWAP1 REVERT JUMPDEST PUSH2 0x3107 CALLER PUSH1 0x40 MLOAD DUP1 PUSH1 0x40 ADD PUSH1 0x40 MSTORE DUP1 PUSH1 0x4 DUP2 MSTORE PUSH1 0x20 ADD PUSH32 0x5553444300000000000000000000000000000000000000000000000000000000 DUP2 MSTORE POP DUP5 DUP5 PUSH2 0xB69 JUMP JUMPDEST PUSH0 PUSH1 0x3 PUSH1 0x40 MLOAD PUSH2 0x3116 SWAP1 PUSH2 0x4D4E JUMP JUMPDEST SWAP1 DUP2 MSTORE PUSH1 0x20 ADD PUSH1 0x40 MLOAD DUP1 SWAP2 SUB SWAP1 KECCAK256 PUSH0 ADD PUSH0 SWAP1 SLOAD SWAP1 PUSH2 0x100 EXP SWAP1 DIV PUSH20 0xFFFFFFFFFFFFFFFFFFFFFFFFFFFFFFFFFFFFFFFF AND SWAP1 POP DUP1 PUSH20 0xFFFFFFFFFFFFFFFFFFFFFFFFFFFFFFFFFFFFFFFF AND PUSH4 0x23B872DD CALLER PUSH0 PUSH0 SWAP1 SLOAD SWAP1 PUSH2 0x100 EXP SWAP1 DIV PUSH20 0xFFFFFFFFFFFFFFFFFFFFFFFFFFFFFFFFFFFFFFFF AND DUP7 PUSH1 0x40 MLOAD DUP5 PUSH4 0xFFFFFFFF AND PUSH1 0xE0 SHL DUP2 MSTORE PUSH1 0x4 ADD PUSH2 0x31A5 SWAP4 SWAP3 SWAP2 SWAP1 PUSH2 0x47E2 JUMP JUMPDEST PUSH1 0x20 PUSH1 0x40 MLOAD DUP1 DUP4 SUB DUP2 PUSH0 DUP8 GAS CALL ISZERO DUP1 ISZERO PUSH2 0x31C1 JUMPI RETURNDATASIZE PUSH0 PUSH0 RETURNDATACOPY RETURNDATASIZE PUSH0 REVERT JUMPDEST POP POP POP POP PUSH1 0x40 MLOAD RETURNDATASIZE PUSH1 0x1F NOT PUSH1 0x1F DUP3 ADD AND DUP3 ADD DUP1 PUSH1 0x40 MSTORE POP DUP2 ADD SWAP1 PUSH2 0x31E5 SWAP2 SWAP1 PUSH2 0x482B JUMP JUMPDEST PUSH2 0x3224 JUMPI PUSH1 0x40 MLOAD PUSH32 0x8C379A000000000000000000000000000000000000000000000000000000000 DUP2 MSTORE PUSH1 0x4 ADD PUSH2 0x321B SWAP1 PUSH2 0x4DAC JUMP JUMPDEST PUSH1 0x40 MLOAD DUP1 SWAP2 SUB SWAP1 REVERT JUMPDEST POP POP PUSH0 PUSH1 0x5 PUSH0 PUSH2 0x100 EXP DUP2 SLOAD DUP2 PUSH1 0xFF MUL NOT AND SWAP1 DUP4 ISZERO ISZERO MUL OR SWAP1 SSTORE POP POP JUMP JUMPDEST PUSH1 0x60 DUP1 PUSH1 0x60 PUSH1 0x4 DUP1 SLOAD DUP1 PUSH1 0x20 MUL PUSH1 0x20 ADD PUSH1 0x40 MLOAD SWAP1 DUP2 ADD PUSH1 0x40 MSTORE DUP1 SWAP3 SWAP2 SWAP1 DUP2 DUP2 MSTORE PUSH1 0x20 ADD PUSH0 SWAP1 JUMPDEST DUP3 DUP3 LT ISZERO PUSH2 0x3310 JUMPI DUP4 DUP3 SWAP1 PUSH0 MSTORE PUSH1 0x20 PUSH0 KECCAK256 ADD DUP1 SLOAD PUSH2 0x3285 SWAP1 PUSH2 0x4E8A JUMP JUMPDEST DUP1 PUSH1 0x1F ADD PUSH1 0x20 DUP1 SWAP2 DIV MUL PUSH1 0x20 ADD PUSH1 0x40 MLOAD SWAP1 DUP2 ADD PUSH1 0x40 MSTORE DUP1 SWAP3 SWAP2 SWAP1 DUP2 DUP2 MSTORE PUSH1 0x20 ADD DUP3 DUP1 SLOAD PUSH2 0x32B1 SWAP1 PUSH2 0x4E8A JUMP JUMPDEST DUP1 ISZERO PUSH2 0x32FC JUMPI DUP1 PUSH1 0x1F LT PUSH2 0x32D3 JUMPI PUSH2 0x100 DUP1 DUP4 SLOAD DIV MUL DUP4 MSTORE SWAP2 PUSH1 0x20 ADD SWAP2 PUSH2 0x32FC JUMP JUMPDEST DUP3 ADD SWAP2 SWAP1 PUSH0 MSTORE PUSH1 0x20 PUSH0 KECCAK256 SWAP1 JUMPDEST DUP2 SLOAD DUP2 MSTORE SWAP1 PUSH1 0x1 ADD SWAP1 PUSH1 0x20 ADD DUP1 DUP4 GT PUSH2 0x32DF JUMPI DUP3 SWAP1 SUB PUSH1 0x1F AND DUP3 ADD SWAP2 JUMPDEST POP POP POP POP POP DUP2 MSTORE PUSH1 0x20 ADD SWAP1 PUSH1 0x1 ADD SWAP1 PUSH2 0x3268 JUMP JUMPDEST POP POP POP POP SWAP3 POP PUSH1 0x4 DUP1 SLOAD SWAP1 POP PUSH8 0xFFFFFFFFFFFFFFFF DUP2 GT ISZERO PUSH2 0x3335 JUMPI PUSH2 0x3334 PUSH2 0x3993 JUMP JUMPDEST JUMPDEST PUSH1 0x40 MLOAD SWAP1 DUP1 DUP3 MSTORE DUP1 PUSH1 0x20 MUL PUSH1 0x20 ADD DUP3 ADD PUSH1 0x40 MSTORE DUP1 ISZERO PUSH2 0x3363 JUMPI DUP2 PUSH1 0x20 ADD PUSH1 0x20 DUP3 MUL DUP1 CALLDATASIZE DUP4 CALLDATACOPY DUP1 DUP3 ADD SWAP2 POP POP SWAP1 POP JUMPDEST POP SWAP2 POP PUSH1 0x4 DUP1 SLOAD SWAP1 POP PUSH8 0xFFFFFFFFFFFFFFFF DUP2 GT ISZERO PUSH2 0x3385 JUMPI PUSH2 0x3384 PUSH2 0x3993 JUMP JUMPDEST JUMPDEST PUSH1 0x40 MLOAD SWAP1 DUP1 DUP3 MSTORE DUP1 PUSH1 0x20 MUL PUSH1 0x20 ADD DUP3 ADD PUSH1 0x40 MSTORE DUP1 ISZERO PUSH2 0x33B3 JUMPI DUP2 PUSH1 0x20 ADD PUSH1 0x20 DUP3 MUL DUP1 CALLDATASIZE DUP4 CALLDATACOPY DUP1 DUP3 ADD SWAP2 POP POP SWAP1 POP JUMPDEST POP SWAP1 POP PUSH0 PUSH0 SWAP1 POP JUMPDEST PUSH1 0x4 DUP1 SLOAD SWAP1 POP DUP2 LT ISZERO PUSH2 0x3579 JUMPI PUSH0 PUSH1 0x3 PUSH1 0x4 DUP4 DUP2 SLOAD DUP2 LT PUSH2 0x33DF JUMPI PUSH2 0x33DE PUSH2 0x5019 JUMP JUMPDEST JUMPDEST SWAP1 PUSH0 MSTORE PUSH1 0x20 PUSH0 KECCAK256 ADD PUSH1 0x40 MLOAD PUSH2 0x33F4 SWAP2 SWAP1 PUSH2 0x50D8 JUMP JUMPDEST SWAP1 DUP2 MSTORE PUSH1 0x20 ADD PUSH1 0x40 MLOAD DUP1 SWAP2 SUB SWAP1 KECCAK256 PUSH1 0x40 MLOAD DUP1 PUSH1 0x80 ADD PUSH1 0x40 MSTORE SWAP1 DUP2 PUSH0 DUP3 ADD PUSH0 SWAP1 SLOAD SWAP1 PUSH2 0x100 EXP SWAP1 DIV PUSH20 0xFFFFFFFFFFFFFFFFFFFFFFFFFFFFFFFFFFFFFFFF AND PUSH20 0xFFFFFFFFFFFFFFFFFFFFFFFFFFFFFFFFFFFFFFFF AND PUSH20 0xFFFFFFFFFFFFFFFFFFFFFFFFFFFFFFFFFFFFFFFF AND DUP2 MSTORE PUSH1 0x20 ADD PUSH1 0x1 DUP3 ADD PUSH0 SWAP1 SLOAD SWAP1 PUSH2 0x100 EXP SWAP1 DIV PUSH20 0xFFFFFFFFFFFFFFFFFFFFFFFFFFFFFFFFFFFFFFFF AND PUSH20 0xFFFFFFFFFFFFFFFFFFFFFFFFFFFFFFFFFFFFFFFF AND PUSH20 0xFFFFFFFFFFFFFFFFFFFFFFFFFFFFFFFFFFFFFFFF AND DUP2 MSTORE PUSH1 0x20 ADD PUSH1 0x1 DUP3 ADD PUSH1 0x14 SWAP1 SLOAD SWAP1 PUSH2 0x100 EXP SWAP1 DIV PUSH1 0xFF AND PUSH1 0xFF AND PUSH1 0xFF AND DUP2 MSTORE PUSH1 0x20 ADD PUSH1 0x1 DUP3 ADD PUSH1 0x15 SWAP1 SLOAD SWAP1 PUSH2 0x100 EXP SWAP1 DIV PUSH1 0xFF AND ISZERO ISZERO ISZERO ISZERO DUP2 MSTORE POP POP SWAP1 POP DUP1 PUSH0 ADD MLOAD DUP5 DUP4 DUP2 MLOAD DUP2 LT PUSH2 0x3507 JUMPI PUSH2 0x3506 PUSH2 0x5019 JUMP JUMPDEST JUMPDEST PUSH1 0x20 MUL PUSH1 0x20 ADD ADD SWAP1 PUSH20 0xFFFFFFFFFFFFFFFFFFFFFFFFFFFFFFFFFFFFFFFF AND SWAP1 DUP2 PUSH20 0xFFFFFFFFFFFFFFFFFFFFFFFFFFFFFFFFFFFFFFFF AND DUP2 MSTORE POP POP DUP1 PUSH1 0x60 ADD MLOAD DUP4 DUP4 DUP2 MLOAD DUP2 LT PUSH2 0x3559 JUMPI PUSH2 0x3558 PUSH2 0x5019 JUMP JUMPDEST JUMPDEST PUSH1 0x20 MUL PUSH1 0x20 ADD ADD SWAP1 ISZERO ISZERO SWAP1 DUP2 ISZERO ISZERO DUP2 MSTORE POP POP POP DUP1 DUP1 PUSH1 0x1 ADD SWAP2 POP POP PUSH2 0x33BB JUMP JUMPDEST POP SWAP1 SWAP2 SWAP3 JUMP JUMPDEST PUSH1 0x1 SLOAD DUP2 JUMP JUMPDEST PUSH11 0x108B2A2C28029094000000 DUP2 JUMP JUMPDEST PUSH0 PUSH0 SWAP1 SLOAD SWAP1 PUSH2 0x100 EXP SWAP1 DIV PUSH20 0xFFFFFFFFFFFFFFFFFFFFFFFFFFFFFFFFFFFFFFFF AND PUSH20 0xFFFFFFFFFFFFFFFFFFFFFFFFFFFFFFFFFFFFFFFF AND CALLER PUSH20 0xFFFFFFFFFFFFFFFFFFFFFFFFFFFFFFFFFFFFFFFF AND EQ PUSH2 0x3622 JUMPI PUSH1 0x40 MLOAD PUSH32 0x8C379A000000000000000000000000000000000000000000000000000000000 DUP2 MSTORE PUSH1 0x4 ADD PUSH2 0x3619 SWAP1 PUSH2 0x4F04 JUMP JUMPDEST PUSH1 0x40 MLOAD DUP1 SWAP2 SUB SWAP1 REVERT JUMPDEST PUSH0 PUSH20 0xFFFFFFFFFFFFFFFFFFFFFFFFFFFFFFFFFFFFFFFF AND DUP2 PUSH20 0xFFFFFFFFFFFFFFFFFFFFFFFFFFFFFFFFFFFFFFFF AND SUB PUSH2 0x3690 JUMPI PUSH1 0x40 MLOAD PUSH32 0x8C379A000000000000000000000000000000000000000000000000000000000 DUP2 MSTORE PUSH1 0x4 ADD PUSH2 0x3687 SWAP1 PUSH2 0x5213 JUMP JUMPDEST PUSH1 0x40 MLOAD DUP1 SWAP2 SUB SWAP1 REVERT JUMPDEST DUP1 PUSH20 0xFFFFFFFFFFFFFFFFFFFFFFFFFFFFFFFFFFFFFFFF AND PUSH0 PUSH0 SWAP1 SLOAD SWAP1 PUSH2 0x100 EXP SWAP1 DIV PUSH20 0xFFFFFFFFFFFFFFFFFFFFFFFFFFFFFFFFFFFFFFFF AND PUSH20 0xFFFFFFFFFFFFFFFFFFFFFFFFFFFFFFFFFFFFFFFF AND PUSH32 0x8BE0079C531659141344CD1FD0A4F28419497F9722A3DAAFE3B4186F6B6457E0 PUSH1 0x40 MLOAD PUSH1 0x40 MLOAD DUP1 SWAP2 SUB SWAP1 LOG3 DUP1 PUSH0 PUSH0 PUSH2 0x100 EXP DUP2 SLOAD DUP2 PUSH20 0xFFFFFFFFFFFFFFFFFFFFFFFFFFFFFFFFFFFFFFFF MUL NOT AND SWAP1 DUP4 PUSH20 0xFFFFFFFFFFFFFFFFFFFFFFFFFFFFFFFFFFFFFFFF AND MUL OR SWAP1 SSTORE POP POP JUMP JUMPDEST PUSH3 0x989680 DUP2 JUMP JUMPDEST PUSH4 0x5F5E100 DUP2 JUMP JUMPDEST PUSH0 DUP3 DUP3 MSTORE PUSH1 0x20 DUP3 ADD SWAP1 POP SWAP3 SWAP2 POP POP JUMP JUMPDEST PUSH32 0x5265656E7472616E637947756172643A207265656E7472616E742063616C6C00 PUSH0 DUP3 ADD MSTORE POP JUMP JUMPDEST PUSH0 PUSH2 0x379F PUSH1 0x1F DUP4 PUSH2 0x375B JUMP JUMPDEST SWAP2 POP PUSH2 0x37AA DUP3 PUSH2 0x376B JUMP JUMPDEST PUSH1 0x20 DUP3 ADD SWAP1 POP SWAP2 SWAP1 POP JUMP JUMPDEST PUSH0 PUSH1 0x20 DUP3 ADD SWAP1 POP DUP2 DUP2 SUB PUSH0 DUP4 ADD MSTORE PUSH2 0x37CC DUP2 PUSH2 0x3793 JUMP JUMPDEST SWAP1 POP SWAP2 SWAP1 POP JUMP JUMPDEST PUSH32 0x496E76616C696420514920616D6F756E74000000000000000000000000000000 PUSH0 DUP3 ADD MSTORE POP JUMP JUMPDEST PUSH0 PUSH2 0x3807 PUSH1 0x11 DUP4 PUSH2 0x375B JUMP JUMPDEST SWAP2 POP PUSH2 0x3812 DUP3 PUSH2 0x37D3 JUMP JUMPDEST PUSH1 0x20 DUP3 ADD SWAP1 POP SWAP2 SWAP1 POP JUMP JUMPDEST PUSH0 PUSH1 0x20 DUP3 ADD SWAP1 POP DUP2 DUP2 SUB PUSH0 DUP4 ADD MSTORE PUSH2 0x3834 DUP2 PUSH2 0x37FB JUMP JUMPDEST SWAP1 POP SWAP2 SWAP1 POP JUMP JUMPDEST PUSH0 DUP2 SWAP1 POP SWAP3 SWAP2 POP POP JUMP JUMPDEST POP JUMP JUMPDEST PUSH0 PUSH2 0x3853 PUSH0 DUP4 PUSH2 0x383B JUMP JUMPDEST SWAP2 POP PUSH2 0x385E DUP3 PUSH2 0x3845 JUMP JUMPDEST PUSH0 DUP3 ADD SWAP1 POP SWAP2 SWAP1 POP JUMP JUMPDEST PUSH0 PUSH2 0x3872 DUP3 PUSH2 0x3848 JUMP JUMPDEST SWAP2 POP DUP2 SWAP1 POP SWAP2 SWAP1 POP JUMP JUMPDEST PUSH32 0x455448207472616E73666572206661696C656400000000000000000000000000 PUSH0 DUP3 ADD MSTORE POP JUMP JUMPDEST PUSH0 PUSH2 0x38B0 PUSH1 0x13 DUP4 PUSH2 0x375B JUMP JUMPDEST SWAP2 POP PUSH2 0x38BB DUP3 PUSH2 0x387C JUMP JUMPDEST PUSH1 0x20 DUP3 ADD SWAP1 POP SWAP2 SWAP1 POP JUMP JUMPDEST PUSH0 PUSH1 0x20 DUP3 ADD SWAP1 POP DUP2 DUP2 SUB PUSH0 DUP4 ADD MSTORE PUSH2 0x38DD DUP2 PUSH2 0x38A4 JUMP JUMPDEST SWAP1 POP SWAP2 SWAP1 POP JUMP JUMPDEST PUSH0 DUP2 SWAP1 POP SWAP2 SWAP1 POP JUMP JUMPDEST PUSH2 0x38F6 DUP2 PUSH2 0x38E4 JUMP JUMPDEST DUP3 MSTORE POP POP JUMP JUMPDEST PUSH0 PUSH1 0x20 DUP3 ADD SWAP1 POP PUSH2 0x390F PUSH0 DUP4 ADD DUP5 PUSH2 0x38ED JUMP JUMPDEST SWAP3 SWAP2 POP POP JUMP JUMPDEST PUSH0 PUSH1 0x40 MLOAD SWAP1 POP SWAP1 JUMP JUMPDEST PUSH0 PUSH0 REVERT JUMPDEST PUSH0 PUSH0 REVERT JUMPDEST PUSH2 0x392F DUP2 PUSH2 0x38E4 JUMP JUMPDEST DUP2 EQ PUSH2 0x3939 JUMPI PUSH0 PUSH0 REVERT JUMPDEST POP JUMP JUMPDEST PUSH0 DUP2 CALLDATALOAD SWAP1 POP PUSH2 0x394A DUP2 PUSH2 0x3926 JUMP JUMPDEST SWAP3 SWAP2 POP POP JUMP JUMPDEST PUSH0 PUSH1 0x20 DUP3 DUP5 SUB SLT ISZERO PUSH2 0x3965 JUMPI PUSH2 0x3964 PUSH2 0x391E JUMP JUMPDEST JUMPDEST PUSH0 PUSH2 0x3972 DUP5 DUP3 DUP6 ADD PUSH2 0x393C JUMP JUMPDEST SWAP2 POP POP SWAP3 SWAP2 POP POP JUMP JUMPDEST PUSH0 PUSH0 REVERT JUMPDEST PUSH0 PUSH0 REVERT JUMPDEST PUSH0 PUSH1 0x1F NOT PUSH1 0x1F DUP4 ADD AND SWAP1 POP SWAP2 SWAP1 POP JUMP JUMPDEST PUSH32 0x4E487B7100000000000000000000000000000000000000000000000000000000 PUSH0 MSTORE PUSH1 0x41 PUSH1 0x4 MSTORE PUSH1 0x24 PUSH0 REVERT JUMPDEST PUSH2 0x39C9 DUP3 PUSH2 0x3983 JUMP JUMPDEST DUP2 ADD DUP2 DUP2 LT PUSH8 0xFFFFFFFFFFFFFFFF DUP3 GT OR ISZERO PUSH2 0x39E8 JUMPI PUSH2 0x39E7 PUSH2 0x3993 JUMP JUMPDEST JUMPDEST DUP1 PUSH1 0x40 MSTORE POP POP POP JUMP JUMPDEST PUSH0 PUSH2 0x39FA PUSH2 0x3915 JUMP JUMPDEST SWAP1 POP PUSH2 0x3A06 DUP3 DUP3 PUSH2 0x39C0 JUMP JUMPDEST SWAP2 SWAP1 POP JUMP JUMPDEST PUSH0 PUSH8 0xFFFFFFFFFFFFFFFF DUP3 GT ISZERO PUSH2 0x3A25 JUMPI PUSH2 0x3A24 PUSH2 0x3993 JUMP JUMPDEST JUMPDEST PUSH2 0x3A2E DUP3 PUSH2 0x3983 JUMP JUMPDEST SWAP1 POP PUSH1 0x20 DUP2 ADD SWAP1 POP SWAP2 SWAP1 POP JUMP JUMPDEST DUP3 DUP2 DUP4 CALLDATACOPY PUSH0 DUP4 DUP4 ADD MSTORE POP POP POP JUMP JUMPDEST PUSH0 PUSH2 0x3A5B PUSH2 0x3A56 DUP5 PUSH2 0x3A0B JUMP JUMPDEST PUSH2 0x39F1 JUMP JUMPDEST SWAP1 POP DUP3 DUP2 MSTORE PUSH1 0x20 DUP2 ADD DUP5 DUP5 DUP5 ADD GT ISZERO PUSH2 0x3A77 JUMPI PUSH2 0x3A76 PUSH2 0x397F JUMP JUMPDEST JUMPDEST PUSH2 0x3A82 DUP5 DUP3 DUP6 PUSH2 0x3A3B JUMP JUMPDEST POP SWAP4 SWAP3 POP POP POP JUMP JUMPDEST PUSH0 DUP3 PUSH1 0x1F DUP4 ADD SLT PUSH2 0x3A9E JUMPI PUSH2 0x3A9D PUSH2 0x397B JUMP JUMPDEST JUMPDEST DUP2 CALLDATALOAD PUSH2 0x3AAE DUP5 DUP3 PUSH1 0x20 DUP7 ADD PUSH2 0x3A49 JUMP JUMPDEST SWAP2 POP POP SWAP3 SWAP2 POP POP JUMP JUMPDEST PUSH0 PUSH0 PUSH1 0x40 DUP4 DUP6 SUB SLT ISZERO PUSH2 0x3ACD JUMPI PUSH2 0x3ACC PUSH2 0x391E JUMP JUMPDEST JUMPDEST PUSH0 DUP4 ADD CALLDATALOAD PUSH8 0xFFFFFFFFFFFFFFFF DUP2 GT ISZERO PUSH2 0x3AEA JUMPI PUSH2 0x3AE9 PUSH2 0x3922 JUMP JUMPDEST JUMPDEST PUSH2 0x3AF6 DUP6 DUP3 DUP7 ADD PUSH2 0x3A8A JUMP JUMPDEST SWAP3 POP POP PUSH1 0x20 PUSH2 0x3B07 DUP6 DUP3 DUP7 ADD PUSH2 0x393C JUMP JUMPDEST SWAP2 POP POP SWAP3 POP SWAP3 SWAP1 POP JUMP JUMPDEST PUSH0 PUSH20 0xFFFFFFFFFFFFFFFFFFFFFFFFFFFFFFFFFFFFFFFF DUP3 AND SWAP1 POP SWAP2 SWAP1 POP JUMP JUMPDEST PUSH0 PUSH2 0x3B3A DUP3 PUSH2 0x3B11 JUMP JUMPDEST SWAP1 POP SWAP2 SWAP1 POP JUMP JUMPDEST PUSH2 0x3B4A DUP2 PUSH2 0x3B30 JUMP JUMPDEST DUP2 EQ PUSH2 0x3B54 JUMPI PUSH0 PUSH0 REVERT JUMPDEST POP JUMP JUMPDEST PUSH0 DUP2 CALLDATALOAD SWAP1 POP PUSH2 0x3B65 DUP2 PUSH2 0x3B41 JUMP JUMPDEST SWAP3 SWAP2 POP POP JUMP JUMPDEST PUSH0 PUSH1 0x20 DUP3 DUP5 SUB SLT ISZERO PUSH2 0x3B80 JUMPI PUSH2 0x3B7F PUSH2 0x391E JUMP JUMPDEST JUMPDEST PUSH0 PUSH2 0x3B8D DUP5 DUP3 DUP6 ADD PUSH2 0x3B57 JUMP JUMPDEST SWAP2 POP POP SWAP3 SWAP2 POP POP JUMP JUMPDEST PUSH2 0x3B9F DUP2 PUSH2 0x3B30 JUMP JUMPDEST DUP3 MSTORE POP POP JUMP JUMPDEST PUSH0 PUSH1 0x20 DUP3 ADD SWAP1 POP PUSH2 0x3BB8 PUSH0 DUP4 ADD DUP5 PUSH2 0x3B96 JUMP JUMPDEST SWAP3 SWAP2 POP POP JUMP JUMPDEST PUSH0 DUP2 ISZERO ISZERO SWAP1 POP SWAP2 SWAP1 POP JUMP JUMPDEST PUSH2 0x3BD2 DUP2 PUSH2 0x3BBE JUMP JUMPDEST DUP3 MSTORE POP POP JUMP JUMPDEST PUSH0 PUSH1 0x20 DUP3 ADD SWAP1 POP PUSH2 0x3BEB PUSH0 DUP4 ADD DUP5 PUSH2 0x3BC9 JUMP JUMPDEST SWAP3 SWAP2 POP POP JUMP JUMPDEST PUSH0 DUP2 MLOAD SWAP1 POP SWAP2 SWAP1 POP JUMP JUMPDEST DUP3 DUP2 DUP4 MCOPY PUSH0 DUP4 DUP4 ADD MSTORE POP POP POP JUMP JUMPDEST PUSH0 PUSH2 0x3C13 DUP3 PUSH2 0x3BF1 JUMP JUMPDEST PUSH2 0x3C1D DUP2 DUP6 PUSH2 0x375B JUMP JUMPDEST SWAP4 POP PUSH2 0x3C2D DUP2 DUP6 PUSH1 0x20 DUP7 ADD PUSH2 0x3BFB JUMP JUMPDEST PUSH2 0x3C36 DUP2 PUSH2 0x3983 JUMP JUMPDEST DUP5 ADD SWAP2 POP POP SWAP3 SWAP2 POP POP JUMP JUMPDEST PUSH0 PUSH1 0x20 DUP3 ADD SWAP1 POP DUP2 DUP2 SUB PUSH0 DUP4 ADD MSTORE PUSH2 0x3C59 DUP2 DUP5 PUSH2 0x3C09 JUMP JUMPDEST SWAP1 POP SWAP3 SWAP2 POP POP JUMP JUMPDEST PUSH0 DUP2 MLOAD SWAP1 POP SWAP2 SWAP1 POP JUMP JUMPDEST PUSH0 DUP3 DUP3 MSTORE PUSH1 0x20 DUP3 ADD SWAP1 POP SWAP3 SWAP2 POP POP JUMP JUMPDEST PUSH0 DUP2 SWAP1 POP PUSH1 0x20 DUP3 ADD SWAP1 POP SWAP2 SWAP1 POP JUMP JUMPDEST PUSH2 0x3C93 DUP2 PUSH2 0x38E4 JUMP JUMPDEST DUP3 MSTORE POP POP JUMP JUMPDEST PUSH0 PUSH2 0x3CA4 DUP4 DUP4 PUSH2 0x3C8A JUMP JUMPDEST PUSH1 0x20 DUP4 ADD SWAP1 POP SWAP3 SWAP2 POP POP JUMP JUMPDEST PUSH0 PUSH1 0x20 DUP3 ADD SWAP1 POP SWAP2 SWAP1 POP JUMP JUMPDEST PUSH0 PUSH2 0x3CC6 DUP3 PUSH2 0x3C61 JUMP JUMPDEST PUSH2 0x3CD0 DUP2 DUP6 PUSH2 0x3C6B JUMP JUMPDEST SWAP4 POP PUSH2 0x3CDB DUP4 PUSH2 0x3C7B JUMP JUMPDEST DUP1 PUSH0 JUMPDEST DUP4 DUP2 LT ISZERO PUSH2 0x3D0B JUMPI DUP2 MLOAD PUSH2 0x3CF2 DUP9 DUP3 PUSH2 0x3C99 JUMP JUMPDEST SWAP8 POP PUSH2 0x3CFD DUP4 PUSH2 0x3CB0 JUMP JUMPDEST SWAP3 POP POP PUSH1 0x1 DUP2 ADD SWAP1 POP PUSH2 0x3CDE JUMP JUMPDEST POP DUP6 SWAP4 POP POP POP POP SWAP3 SWAP2 POP POP JUMP JUMPDEST PUSH0 DUP2 MLOAD SWAP1 POP SWAP2 SWAP1 POP JUMP JUMPDEST PUSH0 DUP3 DUP3 MSTORE PUSH1 0x20 DUP3 ADD SWAP1 POP SWAP3 SWAP2 POP POP JUMP JUMPDEST PUSH0 DUP2 SWAP1 POP PUSH1 0x20 DUP3 ADD SWAP1 POP SWAP2 SWAP1 POP JUMP JUMPDEST PUSH0 DUP3 DUP3 MSTORE PUSH1 0x20 DUP3 ADD SWAP1 POP SWAP3 SWAP2 POP POP JUMP JUMPDEST PUSH0 PUSH2 0x3D5B DUP3 PUSH2 0x3BF1 JUMP JUMPDEST PUSH2 0x3D65 DUP2 DUP6 PUSH2 0x3D41 JUMP JUMPDEST SWAP4 POP PUSH2 0x3D75 DUP2 DUP6 PUSH1 0x20 DUP7 ADD PUSH2 0x3BFB JUMP JUMPDEST PUSH2 0x3D7E DUP2 PUSH2 0x3983 JUMP JUMPDEST DUP5 ADD SWAP2 POP POP SWAP3 SWAP2 POP POP JUMP JUMPDEST PUSH0 PUSH2 0x3D94 DUP4 DUP4 PUSH2 0x3D51 JUMP JUMPDEST SWAP1 POP SWAP3 SWAP2 POP POP JUMP JUMPDEST PUSH0 PUSH1 0x20 DUP3 ADD SWAP1 POP SWAP2 SWAP1 POP JUMP JUMPDEST PUSH0 PUSH2 0x3DB2 DUP3 PUSH2 0x3D18 JUMP JUMPDEST PUSH2 0x3DBC DUP2 DUP6 PUSH2 0x3D22 JUMP JUMPDEST SWAP4 POP DUP4 PUSH1 0x20 DUP3 MUL DUP6 ADD PUSH2 0x3DCE DUP6 PUSH2 0x3D32 JUMP JUMPDEST DUP1 PUSH0 JUMPDEST DUP6 DUP2 LT ISZERO PUSH2 0x3E09 JUMPI DUP5 DUP5 SUB DUP10 MSTORE DUP2 MLOAD PUSH2 0x3DEA DUP6 DUP3 PUSH2 0x3D89 JUMP JUMPDEST SWAP5 POP PUSH2 0x3DF5 DUP4 PUSH2 0x3D9C JUMP JUMPDEST SWAP3 POP PUSH1 0x20 DUP11 ADD SWAP10 POP POP PUSH1 0x1 DUP2 ADD SWAP1 POP PUSH2 0x3DD1 JUMP JUMPDEST POP DUP3 SWAP8 POP DUP8 SWAP6 POP POP POP POP POP POP SWAP3 SWAP2 POP POP JUMP JUMPDEST PUSH0 PUSH1 0x40 DUP3 ADD SWAP1 POP DUP2 DUP2 SUB PUSH0 DUP4 ADD MSTORE PUSH2 0x3E33 DUP2 DUP6 PUSH2 0x3CBC JUMP JUMPDEST SWAP1 POP DUP2 DUP2 SUB PUSH1 0x20 DUP4 ADD MSTORE PUSH2 0x3E47 DUP2 DUP5 PUSH2 0x3DA8 JUMP JUMPDEST SWAP1 POP SWAP4 SWAP3 POP POP POP JUMP JUMPDEST PUSH2 0x3E59 DUP2 PUSH2 0x3BBE JUMP JUMPDEST DUP2 EQ PUSH2 0x3E63 JUMPI PUSH0 PUSH0 REVERT JUMPDEST POP JUMP JUMPDEST PUSH0 DUP2 CALLDATALOAD SWAP1 POP PUSH2 0x3E74 DUP2 PUSH2 0x3E50 JUMP JUMPDEST SWAP3 SWAP2 POP POP JUMP JUMPDEST PUSH0 PUSH1 0x20 DUP3 DUP5 SUB SLT ISZERO PUSH2 0x3E8F JUMPI PUSH2 0x3E8E PUSH2 0x391E JUMP JUMPDEST JUMPDEST PUSH0 PUSH2 0x3E9C DUP5 DUP3 DUP6 ADD PUSH2 0x3E66 JUMP JUMPDEST SWAP2 POP POP SWAP3 SWAP2 POP POP JUMP JUMPDEST PUSH0 PUSH1 0x20 DUP3 DUP5 SUB SLT ISZERO PUSH2 0x3EBA JUMPI PUSH2 0x3EB9 PUSH2 0x391E JUMP JUMPDEST JUMPDEST PUSH0 DUP3 ADD CALLDATALOAD PUSH8 0xFFFFFFFFFFFFFFFF DUP2 GT ISZERO PUSH2 0x3ED7 JUMPI PUSH2 0x3ED6 PUSH2 0x3922 JUMP JUMPDEST JUMPDEST PUSH2 0x3EE3 DUP5 DUP3 DUP6 ADD PUSH2 0x3A8A JUMP JUMPDEST SWAP2 POP POP SWAP3 SWAP2 POP POP JUMP JUMPDEST PUSH0 DUP2 SWAP1 POP SWAP2 SWAP1 POP JUMP JUMPDEST PUSH0 PUSH2 0x3F0F PUSH2 0x3F0A PUSH2 0x3F05 DUP5 PUSH2 0x3B11 JUMP JUMPDEST PUSH2 0x3EEC JUMP JUMPDEST PUSH2 0x3B11 JUMP JUMPDEST SWAP1 POP SWAP2 SWAP1 POP JUMP JUMPDEST PUSH0 PUSH2 0x3F20 DUP3 PUSH2 0x3EF5 JUMP JUMPDEST SWAP1 POP SWAP2 SWAP1 POP JUMP JUMPDEST PUSH0 PUSH2 0x3F31 DUP3 PUSH2 0x3F16 JUMP JUMPDEST SWAP1 POP SWAP2 SWAP1 POP JUMP JUMPDEST PUSH2 0x3F41 DUP2 PUSH2 0x3F27 JUMP JUMPDEST DUP3 MSTORE POP POP JUMP JUMPDEST PUSH0 PUSH1 0xFF DUP3 AND SWAP1 POP SWAP2 SWAP1 POP JUMP JUMPDEST PUSH2 0x3F5C DUP2 PUSH2 0x3F47 JUMP JUMPDEST DUP3 MSTORE POP POP JUMP JUMPDEST PUSH0 PUSH1 0x80 DUP3 ADD SWAP1 POP PUSH2 0x3F75 PUSH0 DUP4 ADD DUP8 PUSH2 0x3B96 JUMP JUMPDEST PUSH2 0x3F82 PUSH1 0x20 DUP4 ADD DUP7 PUSH2 0x3F38 JUMP JUMPDEST PUSH2 0x3F8F PUSH1 0x40 DUP4 ADD DUP6 PUSH2 0x3F53 JUMP JUMPDEST PUSH2 0x3F9C PUSH1 0x60 DUP4 ADD DUP5 PUSH2 0x3BC9 JUMP JUMPDEST SWAP6 SWAP5 POP POP POP POP POP JUMP JUMPDEST PUSH0 PUSH1 0xA0 DUP3 ADD SWAP1 POP PUSH2 0x3FB8 PUSH0 DUP4 ADD DUP9 PUSH2 0x38ED JUMP JUMPDEST PUSH2 0x3FC5 PUSH1 0x20 DUP4 ADD DUP8 PUSH2 0x38ED JUMP JUMPDEST PUSH2 0x3FD2 PUSH1 0x40 DUP4 ADD DUP7 PUSH2 0x38ED JUMP JUMPDEST PUSH2 0x3FDF PUSH1 0x60 DUP4 ADD DUP6 PUSH2 0x3BC9 JUMP JUMPDEST PUSH2 0x3FEC PUSH1 0x80 DUP4 ADD DUP5 PUSH2 0x38ED JUMP JUMPDEST SWAP7 SWAP6 POP POP POP POP POP POP JUMP JUMPDEST PUSH0 DUP2 MLOAD SWAP1 POP SWAP2 SWAP1 POP JUMP JUMPDEST PUSH0 DUP3 DUP3 MSTORE PUSH1 0x20 DUP3 ADD SWAP1 POP SWAP3 SWAP2 POP POP JUMP JUMPDEST PUSH0 DUP2 SWAP1 POP PUSH1 0x20 DUP3 ADD SWAP1 POP SWAP2 SWAP1 POP JUMP JUMPDEST PUSH2 0x4028 DUP2 PUSH2 0x3B30 JUMP JUMPDEST DUP3 MSTORE POP POP JUMP JUMPDEST PUSH0 PUSH2 0x4039 DUP4 DUP4 PUSH2 0x401F JUMP JUMPDEST PUSH1 0x20 DUP4 ADD SWAP1 POP SWAP3 SWAP2 POP POP JUMP JUMPDEST PUSH0 PUSH1 0x20 DUP3 ADD SWAP1 POP SWAP2 SWAP1 POP JUMP JUMPDEST PUSH0 PUSH2 0x405B DUP3 PUSH2 0x3FF6 JUMP JUMPDEST PUSH2 0x4065 DUP2 DUP6 PUSH2 0x4000 JUMP JUMPDEST SWAP4 POP PUSH2 0x4070 DUP4 PUSH2 0x4010 JUMP JUMPDEST DUP1 PUSH0 JUMPDEST DUP4 DUP2 LT ISZERO PUSH2 0x40A0 JUMPI DUP2 MLOAD PUSH2 0x4087 DUP9 DUP3 PUSH2 0x402E JUMP JUMPDEST SWAP8 POP PUSH2 0x4092 DUP4 PUSH2 0x4045 JUMP JUMPDEST SWAP3 POP POP PUSH1 0x1 DUP2 ADD SWAP1 POP PUSH2 0x4073 JUMP JUMPDEST POP DUP6 SWAP4 POP POP POP POP SWAP3 SWAP2 POP POP JUMP JUMPDEST PUSH0 DUP2 MLOAD SWAP1 POP SWAP2 SWAP1 POP JUMP JUMPDEST PUSH0 DUP3 DUP3 MSTORE PUSH1 0x20 DUP3 ADD SWAP1 POP SWAP3 SWAP2 POP POP JUMP JUMPDEST PUSH0 DUP2 SWAP1 POP PUSH1 0x20 DUP3 ADD SWAP1 POP SWAP2 SWAP1 POP JUMP JUMPDEST PUSH2 0x40DF DUP2 PUSH2 0x3BBE JUMP JUMPDEST DUP3 MSTORE POP POP JUMP JUMPDEST PUSH0 PUSH2 0x40F0 DUP4 DUP4 PUSH2 0x40D6 JUMP JUMPDEST PUSH1 0x20 DUP4 ADD SWAP1 POP SWAP3 SWAP2 POP POP JUMP JUMPDEST PUSH0 PUSH1 0x20 DUP3 ADD SWAP1 POP SWAP2 SWAP1 POP JUMP JUMPDEST PUSH0 PUSH2 0x4112 DUP3 PUSH2 0x40AD JUMP JUMPDEST PUSH2 0x411C DUP2 DUP6 PUSH2 0x40B7 JUMP JUMPDEST SWAP4 POP PUSH2 0x4127 DUP4 PUSH2 0x40C7 JUMP JUMPDEST DUP1 PUSH0 JUMPDEST DUP4 DUP2 LT ISZERO PUSH2 0x4157 JUMPI DUP2 MLOAD PUSH2 0x413E DUP9 DUP3 PUSH2 0x40E5 JUMP JUMPDEST SWAP8 POP PUSH2 0x4149 DUP4 PUSH2 0x40FC JUMP JUMPDEST SWAP3 POP POP PUSH1 0x1 DUP2 ADD SWAP1 POP PUSH2 0x412A JUMP JUMPDEST POP DUP6 SWAP4 POP POP POP POP SWAP3 SWAP2 POP POP JUMP JUMPDEST PUSH0 PUSH1 0x60 DUP3 ADD SWAP1 POP DUP2 DUP2 SUB PUSH0 DUP4 ADD MSTORE PUSH2 0x417C DUP2 DUP7 PUSH2 0x3DA8 JUMP JUMPDEST SWAP1 POP DUP2 DUP2 SUB PUSH1 0x20 DUP4 ADD MSTORE PUSH2 0x4190 DUP2 DUP6 PUSH2 0x4051 JUMP JUMPDEST SWAP1 POP DUP2 DUP2 SUB PUSH1 0x40 DUP4 ADD MSTORE PUSH2 0x41A4 DUP2 DUP5 PUSH2 0x4108 JUMP JUMPDEST SWAP1 POP SWAP5 SWAP4 POP POP POP POP JUMP JUMPDEST PUSH0 DUP2 SWAP1 POP SWAP3 SWAP2 POP POP JUMP JUMPDEST PUSH0 PUSH2 0x41C2 DUP3 PUSH2 0x3BF1 JUMP JUMPDEST PUSH2 0x41CC DUP2 DUP6 PUSH2 0x41AE JUMP JUMPDEST SWAP4 POP PUSH2 0x41DC DUP2 DUP6 PUSH1 0x20 DUP7 ADD PUSH2 0x3BFB JUMP JUMPDEST DUP1 DUP5 ADD SWAP2 POP POP SWAP3 SWAP2 POP POP JUMP JUMPDEST PUSH0 PUSH2 0x41F3 DUP3 DUP5 PUSH2 0x41B8 JUMP JUMPDEST SWAP2 POP DUP2 SWAP1 POP SWAP3 SWAP2 POP POP JUMP JUMPDEST PUSH32 0x546F6B656E206E6F7420737570706F7274656400000000000000000000000000 PUSH0 DUP3 ADD MSTORE POP JUMP JUMPDEST PUSH0 PUSH2 0x4232 PUSH1 0x13 DUP4 PUSH2 0x375B JUMP JUMPDEST SWAP2 POP PUSH2 0x423D DUP3 PUSH2 0x41FE JUMP JUMPDEST PUSH1 0x20 DUP3 ADD SWAP1 POP SWAP2 SWAP1 POP JUMP JUMPDEST PUSH0 PUSH1 0x20 DUP3 ADD SWAP1 POP DUP2 DUP2 SUB PUSH0 DUP4 ADD MSTORE PUSH2 0x425F DUP2 PUSH2 0x4226 JUMP JUMPDEST SWAP1 POP SWAP2 SWAP1 POP JUMP JUMPDEST PUSH32 0x50726963652066656564206E6F7420617661696C61626C650000000000000000 PUSH0 DUP3 ADD MSTORE POP JUMP JUMPDEST PUSH0 PUSH2 0x429A PUSH1 0x18 DUP4 PUSH2 0x375B JUMP JUMPDEST SWAP2 POP PUSH2 0x42A5 DUP3 PUSH2 0x4266 JUMP JUMPDEST PUSH1 0x20 DUP3 ADD SWAP1 POP SWAP2 SWAP1 POP JUMP JUMPDEST PUSH0 PUSH1 0x20 DUP3 ADD SWAP1 POP DUP2 DUP2 SUB PUSH0 DUP4 ADD MSTORE PUSH2 0x42C7 DUP2 PUSH2 0x428E JUMP JUMPDEST SWAP1 POP SWAP2 SWAP1 POP JUMP JUMPDEST PUSH0 PUSH10 0xFFFFFFFFFFFFFFFFFFFF DUP3 AND SWAP1 POP SWAP2 SWAP1 POP JUMP JUMPDEST PUSH2 0x42EC DUP2 PUSH2 0x42CE JUMP JUMPDEST DUP2 EQ PUSH2 0x42F6 JUMPI PUSH0 PUSH0 REVERT JUMPDEST POP JUMP JUMPDEST PUSH0 DUP2 MLOAD SWAP1 POP PUSH2 0x4307 DUP2 PUSH2 0x42E3 JUMP JUMPDEST SWAP3 SWAP2 POP POP JUMP JUMPDEST PUSH0 DUP2 SWAP1 POP SWAP2 SWAP1 POP JUMP JUMPDEST PUSH2 0x431F DUP2 PUSH2 0x430D JUMP JUMPDEST DUP2 EQ PUSH2 0x4329 JUMPI PUSH0 PUSH0 REVERT JUMPDEST POP JUMP JUMPDEST PUSH0 DUP2 MLOAD SWAP1 POP PUSH2 0x433A DUP2 PUSH2 0x4316 JUMP JUMPDEST SWAP3 SWAP2 POP POP JUMP JUMPDEST PUSH0 DUP2 MLOAD SWAP1 POP PUSH2 0x434E DUP2 PUSH2 0x3926 JUMP JUMPDEST SWAP3 SWAP2 POP POP JUMP JUMPDEST PUSH0 PUSH0 PUSH0 PUSH0 PUSH0 PUSH1 0xA0 DUP7 DUP9 SUB SLT ISZERO PUSH2 0x436D JUMPI PUSH2 0x436C PUSH2 0x391E JUMP JUMPDEST JUMPDEST PUSH0 PUSH2 0x437A DUP9 DUP3 DUP10 ADD PUSH2 0x42F9 JUMP JUMPDEST SWAP6 POP POP PUSH1 0x20 PUSH2 0x438B DUP9 DUP3 DUP10 ADD PUSH2 0x432C JUMP JUMPDEST SWAP5 POP POP PUSH1 0x40 PUSH2 0x439C DUP9 DUP3 DUP10 ADD PUSH2 0x4340 JUMP JUMPDEST SWAP4 POP POP PUSH1 0x60 PUSH2 0x43AD DUP9 DUP3 DUP10 ADD PUSH2 0x4340 JUMP JUMPDEST SWAP3 POP POP PUSH1 0x80 PUSH2 0x43BE DUP9 DUP3 DUP10 ADD PUSH2 0x42F9 JUMP JUMPDEST SWAP2 POP POP SWAP3 SWAP6 POP SWAP3 SWAP6 SWAP1 SWAP4 POP JUMP JUMPDEST PUSH32 0x496E76616C696420707269636500000000000000000000000000000000000000 PUSH0 DUP3 ADD MSTORE POP JUMP JUMPDEST PUSH0 PUSH2 0x43FF PUSH1 0xD DUP4 PUSH2 0x375B JUMP JUMPDEST SWAP2 POP PUSH2 0x440A DUP3 PUSH2 0x43CB JUMP JUMPDEST PUSH1 0x20 DUP3 ADD SWAP1 POP SWAP2 SWAP1 POP JUMP JUMPDEST PUSH0 PUSH1 0x20 DUP3 ADD SWAP1 POP DUP2 DUP2 SUB PUSH0 DUP4 ADD MSTORE PUSH2 0x442C DUP2 PUSH2 0x43F3 JUMP JUMPDEST SWAP1 POP SWAP2 SWAP1 POP JUMP JUMPDEST PUSH32 0x4E487B7100000000000000000000000000000000000000000000000000000000 PUSH0 MSTORE PUSH1 0x11 PUSH1 0x4 MSTORE PUSH1 0x24 PUSH0 REVERT JUMPDEST PUSH0 DUP2 PUSH1 0x1 SHR SWAP1 POP SWAP2 SWAP1 POP JUMP JUMPDEST PUSH0 PUSH0 DUP3 SWAP2 POP DUP4 SWAP1 POP JUMPDEST PUSH1 0x1 DUP6 GT ISZERO PUSH2 0x44B5 JUMPI DUP1 DUP7 DIV DUP2 GT ISZERO PUSH2 0x4491 JUMPI PUSH2 0x4490 PUSH2 0x4433 JUMP JUMPDEST JUMPDEST PUSH1 0x1 DUP6 AND ISZERO PUSH2 0x44A0 JUMPI DUP1 DUP3 MUL SWAP2 POP JUMPDEST DUP1 DUP2 MUL SWAP1 POP PUSH2 0x44AE DUP6 PUSH2 0x4460 JUMP JUMPDEST SWAP5 POP PUSH2 0x4475 JUMP JUMPDEST SWAP5 POP SWAP5 SWAP3 POP POP POP JUMP JUMPDEST PUSH0 DUP3 PUSH2 0x44CD JUMPI PUSH1 0x1 SWAP1 POP PUSH2 0x4588 JUMP JUMPDEST DUP2 PUSH2 0x44DA JUMPI PUSH0 SWAP1 POP PUSH2 0x4588 JUMP JUMPDEST DUP2 PUSH1 0x1 DUP2 EQ PUSH2 0x44F0 JUMPI PUSH1 0x2 DUP2 EQ PUSH2 0x44FA JUMPI PUSH2 0x4529 JUMP JUMPDEST PUSH1 0x1 SWAP2 POP POP PUSH2 0x4588 JUMP JUMPDEST PUSH1 0xFF DUP5 GT ISZERO PUSH2 0x450C JUMPI PUSH2 0x450B PUSH2 0x4433 JUMP JUMPDEST JUMPDEST DUP4 PUSH1 0x2 EXP SWAP2 POP DUP5 DUP3 GT ISZERO PUSH2 0x4523 JUMPI PUSH2 0x4522 PUSH2 0x4433 JUMP JUMPDEST JUMPDEST POP PUSH2 0x4588 JUMP JUMPDEST POP PUSH1 0x20 DUP4 LT PUSH2 0x133 DUP4 LT AND PUSH1 0x4E DUP5 LT PUSH1 0xB DUP5 LT AND OR ISZERO PUSH2 0x455E JUMPI DUP3 DUP3 EXP SWAP1 POP DUP4 DUP2 GT ISZERO PUSH2 0x4559 JUMPI PUSH2 0x4558 PUSH2 0x4433 JUMP JUMPDEST JUMPDEST PUSH2 0x4588 JUMP JUMPDEST PUSH2 0x456B DUP5 DUP5 DUP5 PUSH1 0x1 PUSH2 0x446C JUMP JUMPDEST SWAP3 POP SWAP1 POP DUP2 DUP5 DIV DUP2 GT ISZERO PUSH2 0x4582 JUMPI PUSH2 0x4581 PUSH2 0x4433 JUMP JUMPDEST JUMPDEST DUP2 DUP2 MUL SWAP1 POP JUMPDEST SWAP4 SWAP3 POP POP POP JUMP JUMPDEST PUSH0 PUSH2 0x4599 DUP3 PUSH2 0x38E4 JUMP JUMPDEST SWAP2 POP PUSH2 0x45A4 DUP4 PUSH2 0x3F47 JUMP JUMPDEST SWAP3 POP PUSH2 0x45D1 PUSH32 0xFFFFFFFFFFFFFFFFFFFFFFFFFFFFFFFFFFFFFFFFFFFFFFFFFFFFFFFFFFFFFFFF DUP5 DUP5 PUSH2 0x44BE JUMP JUMPDEST SWAP1 POP SWAP3 SWAP2 POP POP JUMP JUMPDEST PUSH0 PUSH2 0x45E3 DUP3 PUSH2 0x38E4 JUMP JUMPDEST SWAP2 POP PUSH2 0x45EE DUP4 PUSH2 0x38E4 JUMP JUMPDEST SWAP3 POP DUP3 DUP3 MUL PUSH2 0x45FC DUP2 PUSH2 0x38E4 JUMP JUMPDEST SWAP2 POP DUP3 DUP3 DIV DUP5 EQ DUP4 ISZERO OR PUSH2 0x4613 JUMPI PUSH2 0x4612 PUSH2 0x4433 JUMP JUMPDEST JUMPDEST POP SWAP3 SWAP2 POP POP JUMP JUMPDEST PUSH32 0x4E487B7100000000000000000000000000000000000000000000000000000000 PUSH0 MSTORE PUSH1 0x12 PUSH1 0x4 MSTORE PUSH1 0x24 PUSH0 REVERT JUMPDEST PUSH0 PUSH2 0x4651 DUP3 PUSH2 0x38E4 JUMP JUMPDEST SWAP2 POP PUSH2 0x465C DUP4 PUSH2 0x38E4 JUMP JUMPDEST SWAP3 POP DUP3 PUSH2 0x466C JUMPI PUSH2 0x466B PUSH2 0x461A JUMP JUMPDEST JUMPDEST DUP3 DUP3 DIV SWAP1 POP SWAP3 SWAP2 POP POP JUMP JUMPDEST PUSH32 0x514920616D6F756E74206D757374206265203E20300000000000000000000000 PUSH0 DUP3 ADD MSTORE POP JUMP JUMPDEST PUSH0 PUSH2 0x46AB PUSH1 0x15 DUP4 PUSH2 0x375B JUMP JUMPDEST SWAP2 POP PUSH2 0x46B6 DUP3 PUSH2 0x4677 JUMP JUMPDEST PUSH1 0x20 DUP3 ADD SWAP1 POP SWAP2 SWAP1 POP JUMP JUMPDEST PUSH0 PUSH1 0x20 DUP3 ADD SWAP1 POP DUP2 DUP2 SUB PUSH0 DUP4 ADD MSTORE PUSH2 0x46D8 DUP2 PUSH2 0x469F JUMP JUMPDEST SWAP1 POP SWAP2 SWAP1 POP JUMP JUMPDEST PUSH0 PUSH2 0x46E9 DUP3 PUSH2 0x38E4 JUMP JUMPDEST SWAP2 POP PUSH2 0x46F4 DUP4 PUSH2 0x38E4 JUMP JUMPDEST SWAP3 POP DUP3 DUP3 ADD SWAP1 POP DUP1 DUP3 GT ISZERO PUSH2 0x470C JUMPI PUSH2 0x470B PUSH2 0x4433 JUMP JUMPDEST JUMPDEST SWAP3 SWAP2 POP POP JUMP JUMPDEST PUSH32 0x457863656564732070726573616C652074617267657400000000000000000000 PUSH0 DUP3 ADD MSTORE POP JUMP JUMPDEST PUSH0 PUSH2 0x4746 PUSH1 0x16 DUP4 PUSH2 0x375B JUMP JUMPDEST SWAP2 POP PUSH2 0x4751 DUP3 PUSH2 0x4712 JUMP JUMPDEST PUSH1 0x20 DUP3 ADD SWAP1 POP SWAP2 SWAP1 POP JUMP JUMPDEST PUSH0 PUSH1 0x20 DUP3 ADD SWAP1 POP DUP2 DUP2 SUB PUSH0 DUP4 ADD MSTORE PUSH2 0x4773 DUP2 PUSH2 0x473A JUMP JUMPDEST SWAP1 POP SWAP2 SWAP1 POP JUMP JUMPDEST PUSH32 0x42656C6F77206D696E696D756D20707572636861736500000000000000000000 PUSH0 DUP3 ADD MSTORE POP JUMP JUMPDEST PUSH0 PUSH2 0x47AE PUSH1 0x16 DUP4 PUSH2 0x375B JUMP JUMPDEST SWAP2 POP PUSH2 0x47B9 DUP3 PUSH2 0x477A JUMP JUMPDEST PUSH1 0x20 DUP3 ADD SWAP1 POP SWAP2 SWAP1 POP JUMP JUMPDEST PUSH0 PUSH1 0x20 DUP3 ADD SWAP1 POP DUP2 DUP2 SUB PUSH0 DUP4 ADD MSTORE PUSH2 0x47DB DUP2 PUSH2 0x47A2 JUMP JUMPDEST SWAP1 POP SWAP2 SWAP1 POP JUMP JUMPDEST PUSH0 PUSH1 0x60 DUP3 ADD SWAP1 POP PUSH2 0x47F5 PUSH0 DUP4 ADD DUP7 PUSH2 0x3B96 JUMP JUMPDEST PUSH2 0x4802 PUSH1 0x20 DUP4 ADD DUP6 PUSH2 0x3B96 JUMP JUMPDEST PUSH2 0x480F PUSH1 0x40 DUP4 ADD DUP5 PUSH2 0x38ED JUMP JUMPDEST SWAP5 SWAP4 POP POP POP POP JUMP JUMPDEST PUSH0 DUP2 MLOAD SWAP1 POP PUSH2 0x4825 DUP2 PUSH2 0x3E50 JUMP JUMPDEST SWAP3 SWAP2 POP POP JUMP JUMPDEST PUSH0 PUSH1 0x20 DUP3 DUP5 SUB SLT ISZERO PUSH2 0x4840 JUMPI PUSH2 0x483F PUSH2 0x391E JUMP JUMPDEST JUMPDEST PUSH0 PUSH2 0x484D DUP5 DUP3 DUP6 ADD PUSH2 0x4817 JUMP JUMPDEST SWAP2 POP POP SWAP3 SWAP2 POP POP JUMP JUMPDEST PUSH32 0x5149207472616E73666572206661696C65640000000000000000000000000000 PUSH0 DUP3 ADD MSTORE POP JUMP JUMPDEST PUSH0 PUSH2 0x488A PUSH1 0x12 DUP4 PUSH2 0x375B JUMP JUMPDEST SWAP2 POP PUSH2 0x4895 DUP3 PUSH2 0x4856 JUMP JUMPDEST PUSH1 0x20 DUP3 ADD SWAP1 POP SWAP2 SWAP1 POP JUMP JUMPDEST PUSH0 PUSH1 0x20 DUP3 ADD SWAP1 POP DUP2 DUP2 SUB PUSH0 DUP4 ADD MSTORE PUSH2 0x48B7 DUP2 PUSH2 0x487E JUMP JUMPDEST SWAP1 POP SWAP2 SWAP1 POP JUMP JUMPDEST PUSH0 PUSH1 0x80 DUP3 ADD SWAP1 POP DUP2 DUP2 SUB PUSH0 DUP4 ADD MSTORE PUSH2 0x48D6 DUP2 DUP8 PUSH2 0x3C09 JUMP JUMPDEST SWAP1 POP PUSH2 0x48E5 PUSH1 0x20 DUP4 ADD DUP7 PUSH2 0x38ED JUMP JUMPDEST PUSH2 0x48F2 PUSH1 0x40 DUP4 ADD DUP6 PUSH2 0x38ED JUMP JUMPDEST PUSH2 0x48FF PUSH1 0x60 DUP4 ADD DUP5 PUSH2 0x38ED JUMP JUMPDEST SWAP6 SWAP5 POP POP POP POP POP JUMP JUMPDEST PUSH32 0x50726573616C65206E6F74206163746976650000000000000000000000000000 PUSH0 DUP3 ADD MSTORE POP JUMP JUMPDEST PUSH0 PUSH2 0x493C PUSH1 0x12 DUP4 PUSH2 0x375B JUMP JUMPDEST SWAP2 POP PUSH2 0x4947 DUP3 PUSH2 0x4908 JUMP JUMPDEST PUSH1 0x20 DUP3 ADD SWAP1 POP SWAP2 SWAP1 POP JUMP JUMPDEST PUSH0 PUSH1 0x20 DUP3 ADD SWAP1 POP DUP2 DUP2 SUB PUSH0 DUP4 ADD MSTORE PUSH2 0x4969 DUP2 PUSH2 0x4930 JUMP JUMPDEST SWAP1 POP SWAP2 SWAP1 POP JUMP JUMPDEST PUSH32 0x45544820616D6F756E74206D757374206265203E203000000000000000000000 PUSH0 DUP3 ADD MSTORE POP JUMP JUMPDEST PUSH0 PUSH2 0x49A4 PUSH1 0x16 DUP4 PUSH2 0x375B JUMP JUMPDEST SWAP2 POP PUSH2 0x49AF DUP3 PUSH2 0x4970 JUMP JUMPDEST PUSH1 0x20 DUP3 ADD SWAP1 POP SWAP2 SWAP1 POP JUMP JUMPDEST PUSH0 PUSH1 0x20 DUP3 ADD SWAP1 POP DUP2 DUP2 SUB PUSH0 DUP4 ADD MSTORE PUSH2 0x49D1 DUP2 PUSH2 0x4998 JUMP JUMPDEST SWAP1 POP SWAP2 SWAP1 POP JUMP JUMPDEST PUSH32 0x5742544320616D6F756E74206D757374206265203E2030000000000000000000 PUSH0 DUP3 ADD MSTORE POP JUMP JUMPDEST PUSH0 PUSH2 0x4A0C PUSH1 0x17 DUP4 PUSH2 0x375B JUMP JUMPDEST SWAP2 POP PUSH2 0x4A17 DUP3 PUSH2 0x49D8 JUMP JUMPDEST PUSH1 0x20 DUP3 ADD SWAP1 POP SWAP2 SWAP1 POP JUMP JUMPDEST PUSH0 PUSH1 0x20 DUP3 ADD SWAP1 POP DUP2 DUP2 SUB PUSH0 DUP4 ADD MSTORE PUSH2 0x4A39 DUP2 PUSH2 0x4A00 JUMP JUMPDEST SWAP1 POP SWAP2 SWAP1 POP JUMP JUMPDEST PUSH32 0x5742544300000000000000000000000000000000000000000000000000000000 PUSH0 DUP3 ADD MSTORE POP JUMP JUMPDEST PUSH0 PUSH2 0x4A74 PUSH1 0x4 DUP4 PUSH2 0x41AE JUMP JUMPDEST SWAP2 POP PUSH2 0x4A7F DUP3 PUSH2 0x4A40 JUMP JUMPDEST PUSH1 0x4 DUP3 ADD SWAP1 POP SWAP2 SWAP1 POP JUMP JUMPDEST PUSH0 PUSH2 0x4A94 DUP3 PUSH2 0x4A68 JUMP JUMPDEST SWAP2 POP DUP2 SWAP1 POP SWAP2 SWAP1 POP JUMP JUMPDEST PUSH32 0x57425443207472616E73666572206661696C6564000000000000000000000000 PUSH0 DUP3 ADD MSTORE POP JUMP JUMPDEST PUSH0 PUSH2 0x4AD2 PUSH1 0x14 DUP4 PUSH2 0x375B JUMP JUMPDEST SWAP2 POP PUSH2 0x4ADD DUP3 PUSH2 0x4A9E JUMP JUMPDEST PUSH1 0x20 DUP3 ADD SWAP1 POP SWAP2 SWAP1 POP JUMP JUMPDEST PUSH0 PUSH1 0x20 DUP3 ADD SWAP1 POP DUP2 DUP2 SUB PUSH0 DUP4 ADD MSTORE PUSH2 0x4AFF DUP2 PUSH2 0x4AC6 JUMP JUMPDEST SWAP1 POP SWAP2 SWAP1 POP JUMP JUMPDEST PUSH32 0x45544820616D6F756E74206D69736D6174636800000000000000000000000000 PUSH0 DUP3 ADD MSTORE POP JUMP JUMPDEST PUSH0 PUSH2 0x4B3A PUSH1 0x13 DUP4 PUSH2 0x375B JUMP JUMPDEST SWAP2 POP PUSH2 0x4B45 DUP3 PUSH2 0x4B06 JUMP JUMPDEST PUSH1 0x20 DUP3 ADD SWAP1 POP SWAP2 SWAP1 POP JUMP JUMPDEST PUSH0 PUSH1 0x20 DUP3 ADD SWAP1 POP DUP2 DUP2 SUB PUSH0 DUP4 ADD MSTORE PUSH2 0x4B67 DUP2 PUSH2 0x4B2E JUMP JUMPDEST SWAP1 POP SWAP2 SWAP1 POP JUMP JUMPDEST PUSH32 0x5553445420616D6F756E74206D757374206265203E2030000000000000000000 PUSH0 DUP3 ADD MSTORE POP JUMP JUMPDEST PUSH0 PUSH2 0x4BA2 PUSH1 0x17 DUP4 PUSH2 0x375B JUMP JUMPDEST SWAP2 POP PUSH2 0x4BAD DUP3 PUSH2 0x4B6E JUMP JUMPDEST PUSH1 0x20 DUP3 ADD SWAP1 POP SWAP2 SWAP1 POP JUMP JUMPDEST PUSH0 PUSH1 0x20 DUP3 ADD SWAP1 POP DUP2 DUP2 SUB PUSH0 DUP4 ADD MSTORE PUSH2 0x4BCF DUP2 PUSH2 0x4B96 JUMP JUMPDEST SWAP1 POP SWAP2 SWAP1 POP JUMP JUMPDEST PUSH32 0x5553445400000000000000000000000000000000000000000000000000000000 PUSH0 DUP3 ADD MSTORE POP JUMP JUMPDEST PUSH0 PUSH2 0x4C0A PUSH1 0x4 DUP4 PUSH2 0x41AE JUMP JUMPDEST SWAP2 POP PUSH2 0x4C15 DUP3 PUSH2 0x4BD6 JUMP JUMPDEST PUSH1 0x4 DUP3 ADD SWAP1 POP SWAP2 SWAP1 POP JUMP JUMPDEST PUSH0 PUSH2 0x4C2A DUP3 PUSH2 0x4BFE JUMP JUMPDEST SWAP2 POP DUP2 SWAP1 POP SWAP2 SWAP1 POP JUMP JUMPDEST PUSH32 0x55534454207472616E73666572206661696C6564000000000000000000000000 PUSH0 DUP3 ADD MSTORE POP JUMP JUMPDEST PUSH0 PUSH2 0x4C68 PUSH1 0x14 DUP4 PUSH2 0x375B JUMP JUMPDEST SWAP2 POP PUSH2 0x4C73 DUP3 PUSH2 0x4C34 JUMP JUMPDEST PUSH1 0x20 DUP3 ADD SWAP1 POP SWAP2 SWAP1 POP JUMP JUMPDEST PUSH0 PUSH1 0x20 DUP3 ADD SWAP1 POP DUP2 DUP2 SUB PUSH0 DUP4 ADD MSTORE PUSH2 0x4C95 DUP2 PUSH2 0x4C5C JUMP JUMPDEST SWAP1 POP SWAP2 SWAP1 POP JUMP JUMPDEST PUSH32 0x5553444320616D6F756E74206D757374206265203E2030000000000000000000 PUSH0 DUP3 ADD MSTORE POP JUMP JUMPDEST PUSH0 PUSH2 0x4CD0 PUSH1 0x17 DUP4 PUSH2 0x375B JUMP JUMPDEST SWAP2 POP PUSH2 0x4CDB DUP3 PUSH2 0x4C9C JUMP JUMPDEST PUSH1 0x20 DUP3 ADD SWAP1 POP SWAP2 SWAP1 POP JUMP JUMPDEST PUSH0 PUSH1 0x20 DUP3 ADD SWAP1 POP DUP2 DUP2 SUB PUSH0 DUP4 ADD MSTORE PUSH2 0x4CFD DUP2 PUSH2 0x4CC4 JUMP JUMPDEST SWAP1 POP SWAP2 SWAP1 POP JUMP JUMPDEST PUSH32 0x5553444300000000000000000000000000000000000000000000000000000000 PUSH0 DUP3 ADD MSTORE POP JUMP JUMPDEST PUSH0 PUSH2 0x4D38 PUSH1 0x4 DUP4 PUSH2 0x41AE JUMP JUMPDEST SWAP2 POP PUSH2 0x4D43 DUP3 PUSH2 0x4D04 JUMP JUMPDEST PUSH1 0x4 DUP3 ADD SWAP1 POP SWAP2 SWAP1 POP JUMP JUMPDEST PUSH0 PUSH2 0x4D58 DUP3 PUSH2 0x4D2C JUMP JUMPDEST SWAP2 POP DUP2 SWAP1 POP SWAP2 SWAP1 POP JUMP JUMPDEST PUSH32 0x55534443207472616E73666572206661696C6564000000000000000000000000 PUSH0 DUP3 ADD MSTORE POP JUMP JUMPDEST PUSH0 PUSH2 0x4D96 PUSH1 0x14 DUP4 PUSH2 0x375B JUMP JUMPDEST SWAP2 POP PUSH2 0x4DA1 DUP3 PUSH2 0x4D62 JUMP JUMPDEST PUSH1 0x20 DUP3 ADD SWAP1 POP SWAP2 SWAP1 POP JUMP JUMPDEST PUSH0 PUSH1 0x20 DUP3 ADD SWAP1 POP DUP2 DUP2 SUB PUSH0 DUP4 ADD MSTORE PUSH2 0x4DC3 DUP2 PUSH2 0x4D8A JUMP JUMPDEST SWAP1 POP SWAP2 SWAP1 POP JUMP JUMPDEST PUSH32 0x546F6B656E206E6F7420696D706C656D656E7465640000000000000000000000 PUSH0 DUP3 ADD MSTORE POP JUMP JUMPDEST PUSH0 PUSH2 0x4DFE PUSH1 0x15 DUP4 PUSH2 0x375B JUMP JUMPDEST SWAP2 POP PUSH2 0x4E09 DUP3 PUSH2 0x4DCA JUMP JUMPDEST PUSH1 0x20 DUP3 ADD SWAP1 POP SWAP2 SWAP1 POP JUMP JUMPDEST PUSH0 PUSH1 0x20 DUP3 ADD SWAP1 POP DUP2 DUP2 SUB PUSH0 DUP4 ADD MSTORE PUSH2 0x4E2B DUP2 PUSH2 0x4DF2 JUMP JUMPDEST SWAP1 POP SWAP2 SWAP1 POP JUMP JUMPDEST PUSH0 PUSH1 0x20 DUP3 DUP5 SUB SLT ISZERO PUSH2 0x4E47 JUMPI PUSH2 0x4E46 PUSH2 0x391E JUMP JUMPDEST JUMPDEST PUSH0 PUSH2 0x4E54 DUP5 DUP3 DUP6 ADD PUSH2 0x4340 JUMP JUMPDEST SWAP2 POP POP SWAP3 SWAP2 POP POP JUMP JUMPDEST PUSH32 0x4E487B7100000000000000000000000000000000000000000000000000000000 PUSH0 MSTORE PUSH1 0x22 PUSH1 0x4 MSTORE PUSH1 0x24 PUSH0 REVERT JUMPDEST PUSH0 PUSH1 0x2 DUP3 DIV SWAP1 POP PUSH1 0x1 DUP3 AND DUP1 PUSH2 0x4EA1 JUMPI PUSH1 0x7F DUP3 AND SWAP2 POP JUMPDEST PUSH1 0x20 DUP3 LT DUP2 SUB PUSH2 0x4EB4 JUMPI PUSH2 0x4EB3 PUSH2 0x4E5D JUMP JUMPDEST JUMPDEST POP SWAP2 SWAP1 POP JUMP JUMPDEST PUSH32 0x4E6F74206F776E65720000000000000000000000000000000000000000000000 PUSH0 DUP3 ADD MSTORE POP JUMP JUMPDEST PUSH0 PUSH2 0x4EEE PUSH1 0x9 DUP4 PUSH2 0x375B JUMP JUMPDEST SWAP2 POP PUSH2 0x4EF9 DUP3 PUSH2 0x4EBA JUMP JUMPDEST PUSH1 0x20 DUP3 ADD SWAP1 POP SWAP2 SWAP1 POP JUMP JUMPDEST PUSH0 PUSH1 0x20 DUP3 ADD SWAP1 POP DUP2 DUP2 SUB PUSH0 DUP4 ADD MSTORE PUSH2 0x4F1B DUP2 PUSH2 0x4EE2 JUMP JUMPDEST SWAP1 POP SWAP2 SWAP1 POP JUMP JUMPDEST PUSH32 0x455448207769746864726177206661696C656400000000000000000000000000 PUSH0 DUP3 ADD MSTORE POP JUMP JUMPDEST PUSH0 PUSH2 0x4F56 PUSH1 0x13 DUP4 PUSH2 0x375B JUMP JUMPDEST SWAP2 POP PUSH2 0x4F61 DUP3 PUSH2 0x4F22 JUMP JUMPDEST PUSH1 0x20 DUP3 ADD SWAP1 POP SWAP2 SWAP1 POP JUMP JUMPDEST PUSH0 PUSH1 0x20 DUP3 ADD SWAP1 POP DUP2 DUP2 SUB PUSH0 DUP4 ADD MSTORE PUSH2 0x4F83 DUP2 PUSH2 0x4F4A JUMP JUMPDEST SWAP1 POP SWAP2 SWAP1 POP JUMP JUMPDEST PUSH0 PUSH1 0x40 DUP3 ADD SWAP1 POP PUSH2 0x4F9D PUSH0 DUP4 ADD DUP6 PUSH2 0x3B96 JUMP JUMPDEST PUSH2 0x4FAA PUSH1 0x20 DUP4 ADD DUP5 PUSH2 0x38ED JUMP JUMPDEST SWAP4 SWAP3 POP POP POP JUMP JUMPDEST PUSH32 0x546F6B656E207769746864726177206661696C65640000000000000000000000 PUSH0 DUP3 ADD MSTORE POP JUMP JUMPDEST PUSH0 PUSH2 0x4FE5 PUSH1 0x15 DUP4 PUSH2 0x375B JUMP JUMPDEST SWAP2 POP PUSH2 0x4FF0 DUP3 PUSH2 0x4FB1 JUMP JUMPDEST PUSH1 0x20 DUP3 ADD SWAP1 POP SWAP2 SWAP1 POP JUMP JUMPDEST PUSH0 PUSH1 0x20 DUP3 ADD SWAP1 POP DUP2 DUP2 SUB PUSH0 DUP4 ADD MSTORE PUSH2 0x5012 DUP2 PUSH2 0x4FD9 JUMP JUMPDEST SWAP1 POP SWAP2 SWAP1 POP JUMP JUMPDEST PUSH32 0x4E487B7100000000000000000000000000000000000000000000000000000000 PUSH0 MSTORE PUSH1 0x32 PUSH1 0x4 MSTORE PUSH1 0x24 PUSH0 REVERT JUMPDEST PUSH0 DUP2 SWAP1 POP DUP2 PUSH0 MSTORE PUSH1 0x20 PUSH0 KECCAK256 SWAP1 POP SWAP2 SWAP1 POP JUMP JUMPDEST PUSH0 DUP2 SLOAD PUSH2 0x5064 DUP2 PUSH2 0x4E8A JUMP JUMPDEST PUSH2 0x506E DUP2 DUP7 PUSH2 0x41AE JUMP JUMPDEST SWAP5 POP PUSH1 0x1 DUP3 AND PUSH0 DUP2 EQ PUSH2 0x5088 JUMPI PUSH1 0x1 DUP2 EQ PUSH2 0x509D JUMPI PUSH2 0x50CF JUMP JUMPDEST PUSH1 0xFF NOT DUP4 AND DUP7 MSTORE DUP2 ISZERO ISZERO DUP3 MUL DUP7 ADD SWAP4 POP PUSH2 0x50CF JUMP JUMPDEST PUSH2 0x50A6 DUP6 PUSH2 0x5046 JUMP JUMPDEST PUSH0 JUMPDEST DUP4 DUP2 LT ISZERO PUSH2 0x50C7 JUMPI DUP2 SLOAD DUP2 DUP10 ADD MSTORE PUSH1 0x1 DUP3 ADD SWAP2 POP PUSH1 0x20 DUP2 ADD SWAP1 POP PUSH2 0x50A8 JUMP JUMPDEST DUP4 DUP9 ADD SWAP6 POP POP POP JUMPDEST POP POP POP SWAP3 SWAP2 POP POP JUMP JUMPDEST PUSH0 PUSH2 0x50E3 DUP3 DUP5 PUSH2 0x5058 JUMP JUMPDEST SWAP2 POP DUP2 SWAP1 POP SWAP3 SWAP2 POP POP JUMP JUMPDEST PUSH0 DUP2 SWAP1 POP DUP2 PUSH0 MSTORE PUSH1 0x20 PUSH0 KECCAK256 SWAP1 POP SWAP2 SWAP1 POP JUMP JUMPDEST PUSH0 DUP2 SLOAD PUSH2 0x510C DUP2 PUSH2 0x4E8A JUMP JUMPDEST PUSH2 0x5116 DUP2 DUP7 PUSH2 0x383B JUMP JUMPDEST SWAP5 POP PUSH1 0x1 DUP3 AND PUSH0 DUP2 EQ PUSH2 0x5130 JUMPI PUSH1 0x1 DUP2 EQ PUSH2 0x5145 JUMPI PUSH2 0x5177 JUMP JUMPDEST PUSH1 0xFF NOT DUP4 AND DUP7 MSTORE DUP2 ISZERO ISZERO DUP3 MUL DUP7 ADD SWAP4 POP PUSH2 0x5177 JUMP JUMPDEST PUSH2 0x514E DUP6 PUSH2 0x50EE JUMP JUMPDEST PUSH0 JUMPDEST DUP4 DUP2 LT ISZERO PUSH2 0x516F JUMPI DUP2 SLOAD DUP2 DUP10 ADD MSTORE PUSH1 0x1 DUP3 ADD SWAP2 POP PUSH1 0x20 DUP2 ADD SWAP1 POP PUSH2 0x5150 JUMP JUMPDEST DUP4 DUP9 ADD SWAP6 POP POP POP JUMPDEST POP POP POP SWAP3 SWAP2 POP POP JUMP JUMPDEST PUSH0 PUSH2 0x518B DUP3 DUP5 PUSH2 0x5100 JUMP JUMPDEST SWAP2 POP DUP2 SWAP1 POP SWAP3 SWAP2 POP POP JUMP JUMPDEST PUSH0 PUSH2 0x51A0 DUP3 PUSH2 0x38E4 JUMP JUMPDEST SWAP2 POP PUSH2 0x51AB DUP4 PUSH2 0x38E4 JUMP JUMPDEST SWAP3 POP DUP3 DUP3 SUB SWAP1 POP DUP2 DUP2 GT ISZERO PUSH2 0x51C3 JUMPI PUSH2 0x51C2 PUSH2 0x4433 JUMP JUMPDEST JUMPDEST SWAP3 SWAP2 POP POP JUMP JUMPDEST PUSH32 0x4E6577206F776E6572206973207A65726F206164647265737300000000000000 PUSH0 DUP3 ADD MSTORE POP JUMP JUMPDEST PUSH0 PUSH2 0x51FD PUSH1 0x19 DUP4 PUSH2 0x375B JUMP JUMPDEST SWAP2 POP PUSH2 0x5208 DUP3 PUSH2 0x51C9 JUMP JUMPDEST PUSH1 0x20 DUP3 ADD SWAP1 POP SWAP2 SWAP1 POP JUMP JUMPDEST PUSH0 PUSH1 0x20 DUP3 ADD SWAP1 POP DUP2 DUP2 SUB PUSH0 DUP4 ADD MSTORE PUSH2 0x522A DUP2 PUSH2 0x51F1 JUMP JUMPDEST SWAP1 POP SWAP2 SWAP1 POP JUMP INVALID LOG2 PUSH5 0x6970667358 0x22 SLT KECCAK256 PUSH14 0xCA711D3A025904C21C60EB3640EE 0xCF 0xBB DUP3 0xB7 0xE8 CALLDATACOPY PUSH25 0xE6D024D8D2C20435E19D64736F6C634300081E003300000000 "
		},
		"gasEstimates": {
			"creation": {
				"codeDepositCost": "4219000",
				"executionCost": "infinite",
				"totalCost": "infinite"
			},
			"external": {
				"MIN_PURCHASE_USD()": "371",
				"PRESALE_TARGET()": "369",
				"PRICE_FEED_PRECISION()": "435",
				"QI_PRICE_USD()": "413",
				"USD_PRECISION()": "348",
				"buyWithETH()": "infinite",
				"buyWithToken(string,uint256)": "infinite",
				"buyWithUSDC(uint256)": "infinite",
				"buyWithUSDT(uint256)": "infinite",
				"buyWithWBTC(uint256)": "infinite",
				"calculateQIAmount(string,uint256)": "infinite",
				"emergencyWithdraw(address)": "infinite",
				"getContractBalance(address)": "infinite",
				"getCurrentPrices()": "infinite",
				"getPresaleStats()": "infinite",
				"getSupportedTokens()": "infinite",
				"owner()": "2596",
				"presaleActive()": "2561",
				"qiToken()": "infinite",
				"setPresaleStatus(bool)": "infinite",
				"supportedTokens(string)": "infinite",
				"tokenSymbols(uint256)": "infinite",
				"totalQISold()": "2514",
				"totalUSDRaised()": "2448",
				"transferOwnership(address)": "30661"
			},
			"internal": {
				"_addToken(string memory,address,address,uint8)": "infinite",
				"_processPurchase(address,string memory,uint256,uint256)": "infinite"
			}
		},
		"methodIdentifiers": {
			"MIN_PURCHASE_USD()": "1aae8491",
			"PRESALE_TARGET()": "eb795f25",
			"PRICE_FEED_PRECISION()": "fde3a8d0",
			"QI_PRICE_USD()": "f4a5b2b0",
			"USD_PRECISION()": "4bfdfa6f",
			"buyWithETH()": "150d283d",
			"buyWithToken(string,uint256)": "21f3689b",
			"buyWithUSDC(uint256)": "aeccf735",
			"buyWithUSDT(uint256)": "a7c60160",
			"buyWithWBTC(uint256)": "1b7c4b5c",
			"calculateQIAmount(string,uint256)": "7d4c12ac",
			"emergencyWithdraw(address)": "6ff1c9bc",
			"getContractBalance(address)": "43ab265f",
			"getCurrentPrices()": "852d0d6e",
			"getPresaleStats()": "a56b94f3",
			"getSupportedTokens()": "d3c7c2c7",
			"owner()": "8da5cb5b",
			"presaleActive()": "53135ca0",
			"qiToken()": "462e4cda",
			"setPresaleStatus(bool)": "8895283f",
			"supportedTokens(string)": "89919cdd",
			"tokenSymbols(uint256)": "6e7ddea8",
			"totalQISold()": "e8e3f4aa",
			"totalUSDRaised()": "85cbc881",
			"transferOwnership(address)": "f2fde38b"
		}
	},
	"abi": [
		{
			"inputs": [
				{
					"internalType": "address",
					"name": "_qiToken",
					"type": "address"
				}
			],
			"stateMutability": "nonpayable",
			"type": "constructor"
		},
		{
			"anonymous": false,
			"inputs": [
				{
					"indexed": false,
					"internalType": "address",
					"name": "token",
					"type": "address"
				},
				{
					"indexed": false,
					"internalType": "uint256",
					"name": "amount",
					"type": "uint256"
				}
			],
			"name": "EmergencyWithdraw",
			"type": "event"
		},
		{
			"anonymous": false,
			"inputs": [
				{
					"indexed": true,
					"internalType": "address",
					"name": "previousOwner",
					"type": "address"
				},
				{
					"indexed": true,
					"internalType": "address",
					"name": "newOwner",
					"type": "address"
				}
			],
			"name": "OwnershipTransferred",
			"type": "event"
		},
		{
			"anonymous": false,
			"inputs": [
				{
					"indexed": false,
					"internalType": "bool",
					"name": "active",
					"type": "bool"
				}
			],
			"name": "PresaleStatusChanged",
			"type": "event"
		},
		{
			"anonymous": false,
			"inputs": [
				{
					"indexed": true,
					"internalType": "address",
					"name": "buyer",
					"type": "address"
				},
				{
					"indexed": false,
					"internalType": "string",
					"name": "paymentToken",
					"type": "string"
				},
				{
					"indexed": false,
					"internalType": "uint256",
					"name": "paymentAmount",
					"type": "uint256"
				},
				{
					"indexed": false,
					"internalType": "uint256",
					"name": "qiAmount",
					"type": "uint256"
				},
				{
					"indexed": false,
					"internalType": "uint256",
					"name": "usdValue",
					"type": "uint256"
				}
			],
			"name": "QIPurchased",
			"type": "event"
		},
		{
			"anonymous": false,
			"inputs": [
				{
					"indexed": false,
					"internalType": "string",
					"name": "symbol",
					"type": "string"
				},
				{
					"indexed": false,
					"internalType": "address",
					"name": "tokenAddress",
					"type": "address"
				},
				{
					"indexed": false,
					"internalType": "address",
					"name": "priceFeed",
					"type": "address"
				}
			],
			"name": "TokenAdded",
			"type": "event"
		},
		{
			"inputs": [],
			"name": "MIN_PURCHASE_USD",
			"outputs": [
				{
					"internalType": "uint256",
					"name": "",
					"type": "uint256"
				}
			],
			"stateMutability": "view",
			"type": "function"
		},
		{
			"inputs": [],
			"name": "PRESALE_TARGET",
			"outputs": [
				{
					"internalType": "uint256",
					"name": "",
					"type": "uint256"
				}
			],
			"stateMutability": "view",
			"type": "function"
		},
		{
			"inputs": [],
			"name": "PRICE_FEED_PRECISION",
			"outputs": [
				{
					"internalType": "uint256",
					"name": "",
					"type": "uint256"
				}
			],
			"stateMutability": "view",
			"type": "function"
		},
		{
			"inputs": [],
			"name": "QI_PRICE_USD",
			"outputs": [
				{
					"internalType": "uint256",
					"name": "",
					"type": "uint256"
				}
			],
			"stateMutability": "view",
			"type": "function"
		},
		{
			"inputs": [],
			"name": "USD_PRECISION",
			"outputs": [
				{
					"internalType": "uint256",
					"name": "",
					"type": "uint256"
				}
			],
			"stateMutability": "view",
			"type": "function"
		},
		{
			"inputs": [],
			"name": "buyWithETH",
			"outputs": [],
			"stateMutability": "payable",
			"type": "function"
		},
		{
			"inputs": [
				{
					"internalType": "string",
					"name": "tokenSymbol",
					"type": "string"
				},
				{
					"internalType": "uint256",
					"name": "amount",
					"type": "uint256"
				}
			],
			"name": "buyWithToken",
			"outputs": [],
			"stateMutability": "payable",
			"type": "function"
		},
		{
			"inputs": [
				{
					"internalType": "uint256",
					"name": "usdcAmount",
					"type": "uint256"
				}
			],
			"name": "buyWithUSDC",
			"outputs": [],
			"stateMutability": "nonpayable",
			"type": "function"
		},
		{
			"inputs": [
				{
					"internalType": "uint256",
					"name": "usdtAmount",
					"type": "uint256"
				}
			],
			"name": "buyWithUSDT",
			"outputs": [],
			"stateMutability": "nonpayable",
			"type": "function"
		},
		{
			"inputs": [
				{
					"internalType": "uint256",
					"name": "wbtcAmount",
					"type": "uint256"
				}
			],
			"name": "buyWithWBTC",
			"outputs": [],
			"stateMutability": "nonpayable",
			"type": "function"
		},
		{
			"inputs": [
				{
					"internalType": "string",
					"name": "tokenSymbol",
					"type": "string"
				},
				{
					"internalType": "uint256",
					"name": "amount",
					"type": "uint256"
				}
			],
			"name": "calculateQIAmount",
			"outputs": [
				{
					"internalType": "uint256",
					"name": "",
					"type": "uint256"
				}
			],
			"stateMutability": "view",
			"type": "function"
		},
		{
			"inputs": [
				{
					"internalType": "address",
					"name": "token",
					"type": "address"
				}
			],
			"name": "emergencyWithdraw",
			"outputs": [],
			"stateMutability": "nonpayable",
			"type": "function"
		},
		{
			"inputs": [
				{
					"internalType": "address",
					"name": "token",
					"type": "address"
				}
			],
			"name": "getContractBalance",
			"outputs": [
				{
					"internalType": "uint256",
					"name": "",
					"type": "uint256"
				}
			],
			"stateMutability": "view",
			"type": "function"
		},
		{
			"inputs": [],
			"name": "getCurrentPrices",
			"outputs": [
				{
					"internalType": "uint256[]",
					"name": "prices",
					"type": "uint256[]"
				},
				{
					"internalType": "string[]",
					"name": "symbols",
					"type": "string[]"
				}
			],
			"stateMutability": "view",
			"type": "function"
		},
		{
			"inputs": [],
			"name": "getPresaleStats",
			"outputs": [
				{
					"internalType": "uint256",
					"name": "sold",
					"type": "uint256"
				},
				{
					"internalType": "uint256",
					"name": "raised",
					"type": "uint256"
				},
				{
					"internalType": "uint256",
					"name": "target",
					"type": "uint256"
				},
				{
					"internalType": "bool",
					"name": "active",
					"type": "bool"
				},
				{
					"internalType": "uint256",
					"name": "remaining",
					"type": "uint256"
				}
			],
			"stateMutability": "view",
			"type": "function"
		},
		{
			"inputs": [],
			"name": "getSupportedTokens",
			"outputs": [
				{
					"internalType": "string[]",
					"name": "symbols",
					"type": "string[]"
				},
				{
					"internalType": "address[]",
					"name": "addresses",
					"type": "address[]"
				},
				{
					"internalType": "bool[]",
					"name": "enabled",
					"type": "bool[]"
				}
			],
			"stateMutability": "view",
			"type": "function"
		},
		{
			"inputs": [],
			"name": "owner",
			"outputs": [
				{
					"internalType": "address",
					"name": "",
					"type": "address"
				}
			],
			"stateMutability": "view",
			"type": "function"
		},
		{
			"inputs": [],
			"name": "presaleActive",
			"outputs": [
				{
					"internalType": "bool",
					"name": "",
					"type": "bool"
				}
			],
			"stateMutability": "view",
			"type": "function"
		},
		{
			"inputs": [],
			"name": "qiToken",
			"outputs": [
				{
					"internalType": "address",
					"name": "",
					"type": "address"
				}
			],
			"stateMutability": "view",
			"type": "function"
		},
		{
			"inputs": [
				{
					"internalType": "bool",
					"name": "_active",
					"type": "bool"
				}
			],
			"name": "setPresaleStatus",
			"outputs": [],
			"stateMutability": "nonpayable",
			"type": "function"
		},
		{
			"inputs": [
				{
					"internalType": "string",
					"name": "",
					"type": "string"
				}
			],
			"name": "supportedTokens",
			"outputs": [
				{
					"internalType": "address",
					"name": "tokenAddress",
					"type": "address"
				},
				{
					"internalType": "contract AggregatorV3Interface",
					"name": "priceFeed",
					"type": "address"
				},
				{
					"internalType": "uint8",
					"name": "decimals",
					"type": "uint8"
				},
				{
					"internalType": "bool",
					"name": "enabled",
					"type": "bool"
				}
			],
			"stateMutability": "view",
			"type": "function"
		},
		{
			"inputs": [
				{
					"internalType": "uint256",
					"name": "",
					"type": "uint256"
				}
			],
			"name": "tokenSymbols",
			"outputs": [
				{
					"internalType": "string",
					"name": "",
					"type": "string"
				}
			],
			"stateMutability": "view",
			"type": "function"
		},
		{
			"inputs": [],
			"name": "totalQISold",
			"outputs": [
				{
					"internalType": "uint256",
					"name": "",
					"type": "uint256"
				}
			],
			"stateMutability": "view",
			"type": "function"
		},
		{
			"inputs": [],
			"name": "totalUSDRaised",
			"outputs": [
				{
					"internalType": "uint256",
					"name": "",
					"type": "uint256"
				}
			],
			"stateMutability": "view",
			"type": "function"
		},
		{
			"inputs": [
				{
					"internalType": "address",
					"name": "newOwner",
					"type": "address"
				}
			],
			"name": "transferOwnership",
			"outputs": [],
			"stateMutability": "nonpayable",
			"type": "function"
		},
		{
			"stateMutability": "payable",
			"type": "receive"
		}
	]
}